{"src/contracts/GovernanceDAO.sol":{"GovernanceDAO":{"abi":[{"inputs":[{"internalType":"address","name":"initialOwner","type":"address"},{"internalType":"address","name":"tokenAddress","type":"address"},{"internalType":"uint256","name":"_tokenPriceWei","type":"uint256"},{"internalType":"uint256","name":"_minStakeForVoting","type":"uint256"},{"internalType":"uint256","name":"_minStakeForProposing","type":"uint256"},{"internalType":"uint256","name":"_minStakeLockTime","type":"uint256"},{"internalType":"uint256","name":"_proposalDuration","type":"uint256"},{"internalType":"uint256","name":"_tokensPerVotePower","type":"uint256"}],"stateMutability":"nonpayable","type":"constructor"},{"inputs":[],"name":"AlreadyVoted","type":"error"},{"inputs":[],"name":"DAOIsPaused","type":"error"},{"inputs":[],"name":"InsufficientStake","type":"error"},{"inputs":[],"name":"InvalidParameter","type":"error"},{"inputs":[],"name":"InvalidProposal","type":"error"},{"inputs":[],"name":"InvalidTreasuryProposal","type":"error"},{"inputs":[],"name":"LockTimeNotReached","type":"error"},{"inputs":[],"name":"NotPanicWallet","type":"error"},{"inputs":[{"internalType":"address","name":"owner","type":"address"}],"name":"OwnableInvalidOwner","type":"error"},{"inputs":[{"internalType":"address","name":"account","type":"address"}],"name":"OwnableUnauthorizedAccount","type":"error"},{"inputs":[],"name":"PanicWalletNotSet","type":"error"},{"inputs":[],"name":"ProposalNotExecutable","type":"error"},{"inputs":[],"name":"VotingNotAllowed","type":"error"},{"anonymous":false,"inputs":[{"indexed":true,"internalType":"address","name":"caller","type":"address"}],"name":"CalmActivated","type":"event"},{"anonymous":false,"inputs":[{"indexed":true,"internalType":"address","name":"previousOwner","type":"address"},{"indexed":true,"internalType":"address","name":"newOwner","type":"address"}],"name":"OwnershipTransferred","type":"event"},{"anonymous":false,"inputs":[{"indexed":true,"internalType":"address","name":"caller","type":"address"}],"name":"PanicActivated","type":"event"},{"anonymous":false,"inputs":[{"indexed":true,"internalType":"address","name":"newPanicWallet","type":"address"}],"name":"PanicWalletUpdated","type":"event"},{"anonymous":false,"inputs":[{"indexed":false,"internalType":"uint256","name":"tokenPriceWei","type":"uint256"},{"indexed":false,"internalType":"uint256","name":"minStakeForVoting","type":"uint256"},{"indexed":false,"internalType":"uint256","name":"minStakeForProposing","type":"uint256"},{"indexed":false,"internalType":"uint256","name":"minStakeLockTime","type":"uint256"},{"indexed":false,"internalType":"uint256","name":"proposalDuration","type":"uint256"},{"indexed":false,"internalType":"uint256","name":"tokensPerVotePower","type":"uint256"}],"name":"ParametersUpdated","type":"event"},{"anonymous":false,"inputs":[{"indexed":true,"internalType":"uint256","name":"id","type":"uint256"},{"indexed":true,"internalType":"address","name":"proposer","type":"address"},{"indexed":false,"internalType":"bool","name":"isTreasury","type":"bool"},{"indexed":false,"internalType":"address","name":"treasuryRecipient","type":"address"},{"indexed":false,"internalType":"uint256","name":"treasuryAmount","type":"uint256"}],"name":"ProposalCreated","type":"event"},{"anonymous":false,"inputs":[{"indexed":true,"internalType":"uint256","name":"proposalId","type":"uint256"},{"indexed":false,"internalType":"enum GovernanceBase.ProposalStatus","name":"status","type":"uint8"}],"name":"ProposalFinalized","type":"event"},{"anonymous":false,"inputs":[{"indexed":true,"internalType":"address","name":"user","type":"address"},{"indexed":false,"internalType":"uint256","name":"amount","type":"uint256"}],"name":"StakedForProposing","type":"event"},{"anonymous":false,"inputs":[{"indexed":true,"internalType":"address","name":"user","type":"address"},{"indexed":false,"internalType":"uint256","name":"amount","type":"uint256"}],"name":"StakedForVoting","type":"event"},{"anonymous":false,"inputs":[{"indexed":true,"internalType":"uint256","name":"proposalId","type":"uint256"},{"indexed":true,"internalType":"address","name":"recipient","type":"address"},{"indexed":false,"internalType":"uint256","name":"amount","type":"uint256"}],"name":"TreasuryProposalExecuted","type":"event"},{"anonymous":false,"inputs":[{"indexed":true,"internalType":"address","name":"user","type":"address"},{"indexed":false,"internalType":"uint256","name":"amount","type":"uint256"}],"name":"UnstakedFromProposing","type":"event"},{"anonymous":false,"inputs":[{"indexed":true,"internalType":"address","name":"user","type":"address"},{"indexed":false,"internalType":"uint256","name":"amount","type":"uint256"}],"name":"UnstakedFromVoting","type":"event"},{"anonymous":false,"inputs":[{"indexed":true,"internalType":"uint256","name":"proposalId","type":"uint256"},{"indexed":true,"internalType":"address","name":"voter","type":"address"},{"indexed":false,"internalType":"bool","name":"support","type":"bool"},{"indexed":false,"internalType":"uint256","name":"votePower","type":"uint256"}],"name":"VoteCast","type":"event"},{"stateMutability":"payable","type":"fallback"},{"inputs":[],"name":"buyTokens","outputs":[],"stateMutability":"payable","type":"function"},{"inputs":[{"internalType":"string","name":"title","type":"string"},{"internalType":"string","name":"description","type":"string"}],"name":"createProposal","outputs":[{"internalType":"uint256","name":"","type":"uint256"}],"stateMutability":"nonpayable","type":"function"},{"inputs":[{"internalType":"string","name":"title","type":"string"},{"internalType":"string","name":"description","type":"string"},{"internalType":"address","name":"recipient","type":"address"},{"internalType":"uint256","name":"amount","type":"uint256"}],"name":"createTreasuryProposal","outputs":[{"internalType":"uint256","name":"","type":"uint256"}],"stateMutability":"nonpayable","type":"function"},{"inputs":[{"internalType":"uint256","name":"proposalId","type":"uint256"}],"name":"executeTreasuryProposal","outputs":[],"stateMutability":"nonpayable","type":"function"},{"inputs":[{"internalType":"uint256","name":"proposalId","type":"uint256"}],"name":"finalizeProposal","outputs":[],"stateMutability":"nonpayable","type":"function"},{"inputs":[{"internalType":"uint256","name":"proposalId","type":"uint256"}],"name":"getProposal","outputs":[{"components":[{"internalType":"uint256","name":"id","type":"uint256"},{"internalType":"address","name":"proposer","type":"address"},{"internalType":"string","name":"title","type":"string"},{"internalType":"string","name":"description","type":"string"},{"internalType":"uint256","name":"startTime","type":"uint256"},{"internalType":"uint256","name":"endTime","type":"uint256"},{"internalType":"uint256","name":"forVotes","type":"uint256"},{"internalType":"uint256","name":"againstVotes","type":"uint256"},{"internalType":"enum GovernanceBase.ProposalStatus","name":"status","type":"uint8"},{"internalType":"bool","name":"executed","type":"bool"},{"internalType":"bool","name":"isTreasury","type":"bool"},{"internalType":"address","name":"treasuryRecipient","type":"address"},{"internalType":"uint256","name":"treasuryAmount","type":"uint256"}],"internalType":"struct GovernanceBase.Proposal","name":"","type":"tuple"}],"stateMutability":"view","type":"function"},{"inputs":[],"name":"getProposalsCount","outputs":[{"internalType":"uint256","name":"","type":"uint256"}],"stateMutability":"view","type":"function"},{"inputs":[{"internalType":"uint256","name":"proposalId","type":"uint256"},{"internalType":"address","name":"voter","type":"address"}],"name":"hasVoted","outputs":[{"internalType":"bool","name":"","type":"bool"}],"stateMutability":"view","type":"function"},{"inputs":[],"name":"minStakeForProposing","outputs":[{"internalType":"uint256","name":"","type":"uint256"}],"stateMutability":"view","type":"function"},{"inputs":[],"name":"minStakeForVoting","outputs":[{"internalType":"uint256","name":"","type":"uint256"}],"stateMutability":"view","type":"function"},{"inputs":[],"name":"minStakeLockTime","outputs":[{"internalType":"uint256","name":"","type":"uint256"}],"stateMutability":"view","type":"function"},{"inputs":[{"internalType":"address","name":"to","type":"address"},{"internalType":"uint256","name":"amount","type":"uint256"}],"name":"mintDaoTokens","outputs":[],"stateMutability":"nonpayable","type":"function"},{"inputs":[],"name":"nextProposalId","outputs":[{"internalType":"uint256","name":"","type":"uint256"}],"stateMutability":"view","type":"function"},{"inputs":[],"name":"owner","outputs":[{"internalType":"address","name":"","type":"address"}],"stateMutability":"view","type":"function"},{"inputs":[],"name":"panicWallet","outputs":[{"internalType":"address","name":"","type":"address"}],"stateMutability":"view","type":"function"},{"inputs":[],"name":"panico","outputs":[],"stateMutability":"nonpayable","type":"function"},{"inputs":[],"name":"paused","outputs":[{"internalType":"bool","name":"","type":"bool"}],"stateMutability":"view","type":"function"},{"inputs":[],"name":"proposalDuration","outputs":[{"internalType":"uint256","name":"","type":"uint256"}],"stateMutability":"view","type":"function"},{"inputs":[{"internalType":"uint256","name":"proposalId","type":"uint256"}],"name":"proposals","outputs":[{"internalType":"uint256","name":"id","type":"uint256"},{"internalType":"address","name":"proposer","type":"address"},{"internalType":"string","name":"title","type":"string"},{"internalType":"string","name":"description","type":"string"},{"internalType":"uint256","name":"startTime","type":"uint256"},{"internalType":"uint256","name":"endTime","type":"uint256"},{"internalType":"uint256","name":"forVotes","type":"uint256"},{"internalType":"uint256","name":"againstVotes","type":"uint256"},{"internalType":"enum GovernanceBase.ProposalStatus","name":"status","type":"uint8"},{"internalType":"bool","name":"executed","type":"bool"},{"internalType":"bool","name":"isTreasury","type":"bool"},{"internalType":"address","name":"treasuryRecipient","type":"address"},{"internalType":"uint256","name":"treasuryAmount","type":"uint256"}],"stateMutability":"view","type":"function"},{"inputs":[{"internalType":"address","name":"user","type":"address"}],"name":"proposingStake","outputs":[{"internalType":"uint256","name":"amount","type":"uint256"},{"internalType":"uint256","name":"since","type":"uint256"}],"stateMutability":"view","type":"function"},{"inputs":[],"name":"renounceOwnership","outputs":[],"stateMutability":"nonpayable","type":"function"},{"inputs":[{"internalType":"address","name":"newPanicWallet","type":"address"}],"name":"setPanicWallet","outputs":[],"stateMutability":"nonpayable","type":"function"},{"inputs":[{"internalType":"uint256","name":"_tokenPriceWei","type":"uint256"},{"internalType":"uint256","name":"_minStakeForVoting","type":"uint256"},{"internalType":"uint256","name":"_minStakeForProposing","type":"uint256"},{"internalType":"uint256","name":"_minStakeLockTime","type":"uint256"},{"internalType":"uint256","name":"_proposalDuration","type":"uint256"},{"internalType":"uint256","name":"_tokensPerVotePower","type":"uint256"}],"name":"setParameters","outputs":[],"stateMutability":"nonpayable","type":"function"},{"inputs":[{"internalType":"uint256","name":"amount","type":"uint256"}],"name":"stakeForProposing","outputs":[],"stateMutability":"nonpayable","type":"function"},{"inputs":[{"internalType":"uint256","name":"amount","type":"uint256"}],"name":"stakeForVoting","outputs":[],"stateMutability":"nonpayable","type":"function"},{"inputs":[],"name":"token","outputs":[{"internalType":"contract IDaoToken","name":"","type":"address"}],"stateMutability":"view","type":"function"},{"inputs":[],"name":"tokenPriceWei","outputs":[{"internalType":"uint256","name":"","type":"uint256"}],"stateMutability":"view","type":"function"},{"inputs":[],"name":"tokensPerVotePower","outputs":[{"internalType":"uint256","name":"","type":"uint256"}],"stateMutability":"view","type":"function"},{"inputs":[],"name":"tranquilidad","outputs":[],"stateMutability":"nonpayable","type":"function"},{"inputs":[{"internalType":"address","name":"newOwner","type":"address"}],"name":"transferOwnership","outputs":[],"stateMutability":"nonpayable","type":"function"},{"inputs":[{"internalType":"uint256","name":"amount","type":"uint256"}],"name":"unstakeFromProposing","outputs":[],"stateMutability":"nonpayable","type":"function"},{"inputs":[{"internalType":"uint256","name":"amount","type":"uint256"}],"name":"unstakeFromVoting","outputs":[],"stateMutability":"nonpayable","type":"function"},{"inputs":[{"internalType":"uint256","name":"proposalId","type":"uint256"},{"internalType":"bool","name":"support","type":"bool"}],"name":"vote","outputs":[],"stateMutability":"nonpayable","type":"function"},{"inputs":[{"internalType":"address","name":"account","type":"address"}],"name":"votingPower","outputs":[{"internalType":"uint256","name":"","type":"uint256"}],"stateMutability":"view","type":"function"},{"inputs":[{"internalType":"address","name":"user","type":"address"}],"name":"votingStake","outputs":[{"internalType":"uint256","name":"amount","type":"uint256"},{"internalType":"uint256","name":"since","type":"uint256"}],"stateMutability":"view","type":"function"},{"stateMutability":"payable","type":"receive"}],"evm":{"bytecode":{"linkReferences":{},"object":"60a0346200022a57601f6200217838819003918201601f191683019291906001600160401b038411838510176200022f578161010092849260409687528339810103126200022a57620000528162000245565b90620000616020820162000245565b908381015192606082015160808301519060a08401519260e060c08601519501519560018060a01b038092169081156200021257600080546001600160a01b0319808216851783558c51929590939091859083167f8be0079c531659141344cd1fd0a4f28419497f9722a3daafe3b4186f6b6457e08880a316908115620001df575090829160805260015416176001557f46304c2bdadb06c16e46b6dc771e062e19a4150c21aa984fa49930bca03267cf89519280a28615801562000209575b801562000200575b8015620001f7575b8015620001ee575b620001df57509185939160c095937fb4e1fbeb0ffbfe92679bdf67bebeda0b781e7a37849484c69d99695f31e4b02997600255806003558160045582600555836006558460075588519586526020860152878501526060840152608083015260a0820152a151611f1d90816200025b82396080518181816101b80152818161031c0152818161046701528181610e50015281816115310152818161179001526119310152f35b630309cb8760e51b8152600490fd5b50851562000139565b50841562000131565b50821562000129565b50811562000121565b8951631e4fbdf760e01b815260006004820152602490fd5b600080fd5b634e487b7160e01b600052604160045260246000fd5b51906001600160a01b03821682036200022a5756fe608080604052600436101561001a575b50361561001857005b005b600090813560e01c9081627e637e14611ab057508063013cf08b146119b457806305d0f15b146119965780630627d425146118975780630a5af04b146118545780630d346e9a14611836578063163846861461174f578063282c8749146116815780632ab09d1414610eee57806330109962146116635780634091e8f0146115f957806343859632146115a7578063542ffa7b146114975780635652077c146113c55780635c975abb1461139f57806365e481e214611051578063715018a614610ff757806381e6830f14610f9b5780638da5cb5b14610f745780639776138214610f0c57806398e527d314610eee5780639f45b13314610eab578063a028699e14610dc7578063a73079ac146109c8578063ad3bcade1461099f578063c07473f614610973578063c2d6677614610955578063c7f758a814610722578063c9d27afe14610583578063d064a9a414610565578063d0febe4c146103f6578063d1b85b4914610293578063f2fde38b14610208578063f96df52a146101ea5763fc0c546a0361000f57346101e757806003193601126101e7576040517f00000000000000000000000000000000000000000000000000000000000000006001600160a01b03168152602090f35b80fd5b50346101e757806003193601126101e7576020600754604051908152f35b50346101e75760203660031901126101e757610222611d85565b61022a611dfe565b6001600160a01b0390811690811561027a57600054826001600160601b0360a01b821617600055167f8be0079c531659141344cd1fd0a4f28419497f9722a3daafe3b4186f6b6457e0600080a380f35b604051631e4fbdf760e01b815260048101849052602490fd5b50346101e7576020806003193601126103f257600435906001549060ff8260a01c166103e0576001600160a01b03918216156103ce5782156103bc57338452600b8152604084206102e5848254611ea6565b8155426001909101556040516323b872dd60e01b8152336004820152306024820152604481018490529181908390606490829088907f0000000000000000000000000000000000000000000000000000000000000000165af19182156103b1577fec53a80f7fd2e0ad362f205aa59d80df1f44ddbb229bbe3591a1bf8d34fb5b6f92610378918691610384575b50611e62565b6040519283523392a280f35b6103a49150833d85116103aa575b61039c8183611c5a565b810190611e4a565b38610372565b503d610392565b6040513d86823e3d90fd5b604051630309cb8760e51b8152600490fd5b60405163028eecf360e11b8152600490fd5b604051632795c27960e21b8152600490fd5b5080fd5b50806003193601126101e75760015460ff8160a01c166103e0576001600160a01b03908116156103ce5734156103bc57670de0b6b3a764000080340290348204036105515760025461044791611e2a565b9081156103bc576040516370a0823160e01b8152306004820152602092917f000000000000000000000000000000000000000000000000000000000000000016908381602481855afa80156105465783918691610511575b50106103bc5760405163a9059cbb60e01b8152336004820152602481019290925282908290604490829087905af1908115610506576104e69284926104e9575b5050611e62565b80f35b6104ff9250803d106103aa5761039c8183611c5a565b38806104df565b6040513d85823e3d90fd5b809250858092503d831161053f575b61052a8183611c5a565b8101031261053b578290513861049f565b8480fd5b503d610520565b6040513d87823e3d90fd5b634e487b7160e01b83526011600452602483fd5b50346101e757806003193601126101e7576020600554604051908152f35b50346101e75760403660031901126101e757600435602435908115159182810361071e5760015460ff8160a01c166103e0576001600160a01b03908116156103ce578285526020906009825260408620906001820154161561070c5760ff60088201541660038110156106f8576106e65760058101544210156106e657838652600a82526040862033600052825260ff604060002054166106d457338652600b82526040862054600354116106c25761063b33611ec0565b9283156106c257848752600a8352604087203360005283526040600020600160ff198254161790556000146106ad57600601610678838254611ea6565b90555b6040519384528301527fcbdf6214089cba887ecbf35a0b6a734589959c9763342c756bb2a80ca2bc9f6e60403393a380f35b6007016106bb838254611ea6565b905561067b565b6040516378de4a6960e11b8152600490fd5b604051637c9a1cf960e01b8152600490fd5b604051630eeb4f1560e01b8152600490fd5b634e487b7160e01b87526021600452602487fd5b604051631dc0650160e31b8152600490fd5b8380fd5b50346101e75760203660031901126101e7578061018060405161074481611c3d565b828152826020820152606060408201526060808201528260808201528260a08201528260c08201528260e08201528261010082015282610120820152826101408201528261016082015201526004358152600960205260408120604051906107ab82611c3d565b8054825260018101546001600160a01b031660208301526107ce60028201611c7c565b60408301526107df60038201611c7c565b606083015260048101546080830152600581015460a0830152600681015460c0830152600781015460e08301526008810154600360ff821610156109415760ff808216610100850152600882901c81161515610120850152601082901c16151561014084015260181c6001600160a01b039081166101608401526009909101546101808301526020820151161561070c576040518091602082528051602083015260018060a01b0360208201511660408301526101806108c96108b360408401516101a060608701526101c0860190611d22565b6060840151858203601f19016080870152611d22565b91608081015160a085015260a081015160c085015260c081015160e085015260e0810151610100850152610907610100820151610120860190611d62565b6101208101511515610140850152610140810151151561016085015260018060a01b03610160820151168285015201516101a08301520390f35b634e487b7160e01b84526021600452602484fd5b50346101e757806003193601126101e7576020600354604051908152f35b50346101e75760203660031901126101e7576020610997610992611d85565b611ec0565b604051908152f35b50346101e757806003193601126101e7576001546040516001600160a01b039091168152602090f35b50346101e75760803660031901126101e75760043567ffffffffffffffff81116103f2576109fa903690600401611db7565b906024359067ffffffffffffffff82116101e75750610a1d903690600401611db7565b906001600160a01b036044358082169003610dc25760015460ff8160a01c166103e0578116156103ce578060443516158015610db8575b610da65733600052600c602052604060002054600454116106c257600854916000198314610d90576001830160085582600052600960205260406000209083825560018201336001600160601b0360a01b82541617905580519067ffffffffffffffff8211610caf578190610acc6002850154611c03565b601f8111610d3d575b50602090601f8311600114610cd057600092610cc5575b50508160011b916000199060031b1c19161760028201555b835167ffffffffffffffff8111610caf576003820190610b248254611c03565b95601f8711610c67575b602096508690601f8311600114610bfd5760099493929160009183610bf2575b50508160011b916000199060031b1c19161790555b426004820155610b7560065442611ea6565b6005820155600881016201000081546301000000600160b81b0360443560181b169061ff01600160b81b031916171790556064359182910155604051916001835260443516848301526040820152817fb956772e7b554d19bb961f4303b6c0c5cd7592c0c06fd08f15a56a0f304e6c0d60603393a3604051908152f35b015190503880610b4e565b90601f1983169184600052886000209260005b818110610c50575091600193918560099897969410610c37575b505050811b019055610b63565b015160001960f88460031b161c19169055388080610c2a565b92938a600181928786015181550195019301610c10565b826000526020600020601f830160051c81019760208410610ca5575b601f0160051c01965b878110610c995750610b2e565b60008155600101610c8c565b9097508790610c83565b634e487b7160e01b600052604160045260246000fd5b015190503880610aec565b600285016000908152602081209350601f198516905b818110610d255750908460019594939210610d0c575b505050811b016002820155610b04565b015160001960f88460031b161c19169055388080610cfc565b92936020600181928786015181550195019301610ce6565b909150600284016000526020600020601f840160051c810160208510610d89575b90849392915b601f830160051c82018110610d7a575050610ad5565b60008155859450600101610d64565b5080610d5e565b634e487b7160e01b600052601160045260246000fd5b604051631713da9d60e11b8152600490fd5b5060643515610a54565b600080fd5b50346101e7576020806003193601126103f257600435906001549060ff8260a01c166103e0576001600160a01b03918216156103ce5782156103bc57338452600c815260408420610e19848254611ea6565b8155426001909101556040516323b872dd60e01b8152336004820152306024820152604481018490529181908390606490829088907f0000000000000000000000000000000000000000000000000000000000000000165af19182156103b1577ffb98bd47dcfd31e8d0c0e3558ffb823c6ad6ddcba96e48e82608e567b21cb1dd926103789186916103845750611e62565b50346101e75760203660031901126101e75760409081906001600160a01b03610ed2611d85565b168152600b602052206001815491015482519182526020820152f35b50346101e757806003193601126101e7576020600854604051908152f35b50346101e757806003193601126101e7576001546001600160a01b0381163303610f625760ff60a01b1916600155337fdb333f8de8435249d224d186f58a6cb30292b00a2897688694c176f2cde512b08280a280f35b60405163b9e5ac5f60e01b8152600490fd5b50346101e757806003193601126101e757546040516001600160a01b039091168152602090f35b50346101e757806003193601126101e7576001546001600160a01b0381163303610f625760ff60a01b1916600160a01b17600155337f0b907d122e4db865e49bc04c7f1e84a1ae29e024ee225bc08c69104520c5f3f98280a280f35b50346101e757806003193601126101e757611010611dfe565b600080546001600160a01b0319811682556001600160a01b03167f8be0079c531659141344cd1fd0a4f28419497f9722a3daafe3b4186f6b6457e08280a380f35b50346101e75760403660031901126101e75767ffffffffffffffff906004358281116103f257611085903690600401611db7565b90602435908382116101e757506110a0903690600401611db7565b90600191825460ff8160a01c166103e0576001600160a01b0316156103ce5733600052602093600c8552604060002054600454116106c2576008549360001990818614610d90578086016008558560005260098752604060002094868655818601336001600160601b0360a01b8254161790556002860190805190858211610caf57819061112e8454611c03565b601f811161134c575b508a90601f83116001146112eb576000926112e0575b50508482851b9260031b1c19161790555b60038501938051938411610caf576111768554611c03565b601f8111611297575b508790601f851160011461122957928480936000989693600998968a9561121e575b50501b9260031b1c19161790555b4260048201556111c160065442611ea6565b60058201556008810161ff01600160b81b0319815416905501556040516000815260008382015260006040820152817fb956772e7b554d19bb961f4303b6c0c5cd7592c0c06fd08f15a56a0f304e6c0d60603393a3604051908152f35b0151935038806111a1565b91939290601f1984169286600052896000209360005b8b828210611283575050918593916009989660009a9896941061126b575b50505050811b0190556111af565b01519060f88460031b161c191690553880808061125d565b83850151875595880195938401930161123f565b8560005288600020601f860160051c8101918a87106112d6575b601f0160051c019083905b8281106112ca57505061117f565b600081550183906112bc565b90915081906112b1565b01519050388061114d565b60008581528c8120879550929190601f198516908e5b828210611335575050841161131e575b505050811b01905561115e565b01518660f88460031b161c19169055388080611311565b83850151865589979095019493840193018e611301565b909150836000528a600020601f840160051c8101918c8510611395575b84939291601f88920160051c01915b828110611386575050611137565b60008155859450879101611378565b9091508190611369565b50346101e757806003193601126101e757602060ff60015460a01c166040519015158152f35b50346101e75760203660031901126101e75760043580825260096020526040822060018101546001600160a01b03161561070c57600881019081549060ff82166003811015611483576106e657600581015442106106e6577f34a42c4ce0a88d16ad098de6406057747139a2a3dd8dd8616ee7bbabcecb768e92602092826007600660ff950154910154106000146114765750600182198254161781555b54166114726040518092611d62565ba280f35b8219166002178155611463565b634e487b7160e01b86526021600452602486fd5b50346101e7576020806003193601126103f257600435906001549060ff8260a01c166103e0576001600160a01b03918216156103ce57338452600b8152604084208315801561159d575b6106c2576114f6600182015460055490611ea6565b421061158c57611507848254611eb3565b905560405163a9059cbb60e01b8152336004820152602481018490529181908390604490829088907f0000000000000000000000000000000000000000000000000000000000000000165af19182156103b1577fb80625e1a6dfa23fbd22202898020767aaed44c2671f32cdb3473366b907321c926103789186916103845750611e62565b6040516214930960e01b8152600490fd5b50805484116114e1565b50346101e75760403660031901126101e7576024356001600160a01b0381169190829003610dc2576040906004358152600a6020522090600052602052602060ff604060002054166040519015158152f35b50346101e75760203660031901126101e757611613611d85565b61161b611dfe565b6001600160a01b031680156103bc57600180546001600160a01b031916821790557f46304c2bdadb06c16e46b6dc771e062e19a4150c21aa984fa49930bca03267cf8280a280f35b50346101e757806003193601126101e7576020600654604051908152f35b50346101e75760c03660031901126101e75760443560243560043560a4356084356064356116ad611dfe565b83158015611747575b801561173f575b8015611737575b801561172f575b6103bc577fb4e1fbeb0ffbfe92679bdf67bebeda0b781e7a37849484c69d99695f31e4b0299560c095856002558060035581600455826005558360065584600755604051958652602086015260408501526060840152608083015260a0820152a180f35b5082156116cb565b5081156116c4565b5085156116bd565b5084156116b6565b50346101e75760403660031901126101e757611769611d85565b602435611774611dfe565b6001600160a01b039082821615801561182e575b6103bc5783917f000000000000000000000000000000000000000000000000000000000000000016803b1561182a576040516340c10f1960e01b81526001600160a01b0394909416600485015260248401919091528290604490829084905af1801561181f576117f6575080f35b67ffffffffffffffff811161180b5760405280f35b634e487b7160e01b82526041600452602482fd5b6040513d84823e3d90fd5b8280fd5b508015611788565b50346101e757806003193601126101e7576020600454604051908152f35b50346101e75760203660031901126101e75760409081906001600160a01b0361187b611d85565b168152600c602052206001815491015482519182526020820152f35b50346101e7576020806003193601126103f257600435906001549060ff8260a01c166103e0576001600160a01b03918216156103ce57338452600c8152604084208315801561198c575b6106c2576118f6600182015460055490611ea6565b421061158c57611907848254611eb3565b905560405163a9059cbb60e01b8152336004820152602481018490529181908390604490829088907f0000000000000000000000000000000000000000000000000000000000000000165af19182156103b1577fb09985bf5df21e3dee7a7e607cdcff3c444bb813524e2bad65f649b400056b0a926103789186916103845750611e62565b50805484116118e1565b50346101e757806003193601126101e7576020600254604051908152f35b50346101e75760203660031901126101e7576004358152600960205260409020805460018201546001600160a01b0390811692906119f460028301611c7c565b90611a0160038401611c7c565b926004810154936005820154600683015490611a58600785015493611a4a60096008880154970154986040519c8d9c8d5260208d015260408c6101a091829101528c0190611d22565b908a820360608c0152611d22565b96608089015260a088015260c087015260e0860152611a7e610100860160ff8316611d62565b60ff8160081c16151561012086015260ff8160101c16151561014086015260181c166101608401526101808301520390f35b9050346103f25760203660031901126103f2576004358083526009602052604083206008810180549360ff8560101c1615611bf4575060ff8416600381101561148357600114801590611be7575b611bd5576009479201938454809310610da65761ff001916610100178082556001600160a01b039286918291829182919060181c87165af13d15611bd0573d611b4681611d9b565b90611b546040519283611c5a565b81528660203d92013e5b15611b99577f0bb768aa97fa4e8a8f73bfa7bc210f1a29f29c765d44f0c29acc04a549e32e43916020915460181c169354604051908152a380f35b60405162461bcd60e51b815260206004820152600f60248201526e151c985b9cd9995c8819985a5b1959608a1b6044820152606490fd5b611b5e565b604051633c7e994560e11b8152600490fd5b5060ff8460081c16611afe565b631713da9d60e11b8152600490fd5b90600182811c92168015611c33575b6020831014611c1d57565b634e487b7160e01b600052602260045260246000fd5b91607f1691611c12565b6101a0810190811067ffffffffffffffff821117610caf57604052565b90601f8019910116810190811067ffffffffffffffff821117610caf57604052565b9060405191826000825492611c9084611c03565b908184526001948581169081600014611cff5750600114611cbc575b5050611cba92500383611c5a565b565b9093915060005260209081600020936000915b818310611ce7575050611cba93508201013880611cac565b85548884018501529485019487945091830191611ccf565b915050611cba94506020925060ff191682840152151560051b8201013880611cac565b919082519283825260005b848110611d4e575050826000602080949584010152601f8019910116010190565b602081830181015184830182015201611d2d565b906003821015611d6f5752565b634e487b7160e01b600052602160045260246000fd5b600435906001600160a01b0382168203610dc257565b67ffffffffffffffff8111610caf57601f01601f191660200190565b81601f82011215610dc257803590611dce82611d9b565b92611ddc6040519485611c5a565b82845260208383010111610dc257816000926020809301838601378301015290565b6000546001600160a01b03163303611e1257565b60405163118cdaa760e01b8152336004820152602490fd5b8115611e34570490565b634e487b7160e01b600052601260045260246000fd5b90816020910312610dc257518015158103610dc25790565b15611e6957565b60405162461bcd60e51b8152602060048201526015602482015274151bdad95b881d1c985b9cd9995c8819985a5b1959605a1b6044820152606490fd5b91908201809211610d9057565b91908203918211610d9057565b6001600160a01b03166000908152600b6020526040902054600754611ee491611e2a565b9056fea26469706673582212201b40464bdbe8cd01316bc78daf63b05f92f55f84b8705ae50db5b116bfcb57bd64736f6c63430008140033","opcodes":"PUSH1 0xA0 CALLVALUE PUSH3 0x22A JUMPI PUSH1 0x1F PUSH3 0x2178 CODESIZE DUP2 SWAP1 SUB SWAP2 DUP3 ADD PUSH1 0x1F NOT AND DUP4 ADD SWAP3 SWAP2 SWAP1 PUSH1 0x1 PUSH1 0x1 PUSH1 0x40 SHL SUB DUP5 GT DUP4 DUP6 LT OR PUSH3 0x22F JUMPI DUP2 PUSH2 0x100 SWAP3 DUP5 SWAP3 PUSH1 0x40 SWAP7 DUP8 MSTORE DUP4 CODECOPY DUP2 ADD SUB SLT PUSH3 0x22A JUMPI PUSH3 0x52 DUP2 PUSH3 0x245 JUMP JUMPDEST SWAP1 PUSH3 0x61 PUSH1 0x20 DUP3 ADD PUSH3 0x245 JUMP JUMPDEST SWAP1 DUP4 DUP2 ADD MLOAD SWAP3 PUSH1 0x60 DUP3 ADD MLOAD PUSH1 0x80 DUP4 ADD MLOAD SWAP1 PUSH1 0xA0 DUP5 ADD MLOAD SWAP3 PUSH1 0xE0 PUSH1 0xC0 DUP7 ADD MLOAD SWAP6 ADD MLOAD SWAP6 PUSH1 0x1 DUP1 PUSH1 0xA0 SHL SUB DUP1 SWAP3 AND SWAP1 DUP2 ISZERO PUSH3 0x212 JUMPI PUSH1 0x0 DUP1 SLOAD PUSH1 0x1 PUSH1 0x1 PUSH1 0xA0 SHL SUB NOT DUP1 DUP3 AND DUP6 OR DUP4 SSTORE DUP13 MLOAD SWAP3 SWAP6 SWAP1 SWAP4 SWAP1 SWAP2 DUP6 SWAP1 DUP4 AND PUSH32 0x8BE0079C531659141344CD1FD0A4F28419497F9722A3DAAFE3B4186F6B6457E0 DUP9 DUP1 LOG3 AND SWAP1 DUP2 ISZERO PUSH3 0x1DF JUMPI POP SWAP1 DUP3 SWAP2 PUSH1 0x80 MSTORE PUSH1 0x1 SLOAD AND OR PUSH1 0x1 SSTORE PUSH32 0x46304C2BDADB06C16E46B6DC771E062E19A4150C21AA984FA49930BCA03267CF DUP10 MLOAD SWAP3 DUP1 LOG2 DUP7 ISZERO DUP1 ISZERO PUSH3 0x209 JUMPI JUMPDEST DUP1 ISZERO PUSH3 0x200 JUMPI JUMPDEST DUP1 ISZERO PUSH3 0x1F7 JUMPI JUMPDEST DUP1 ISZERO PUSH3 0x1EE JUMPI JUMPDEST PUSH3 0x1DF JUMPI POP SWAP2 DUP6 SWAP4 SWAP2 PUSH1 0xC0 SWAP6 SWAP4 PUSH32 0xB4E1FBEB0FFBFE92679BDF67BEBEDA0B781E7A37849484C69D99695F31E4B029 SWAP8 PUSH1 0x2 SSTORE DUP1 PUSH1 0x3 SSTORE DUP2 PUSH1 0x4 SSTORE DUP3 PUSH1 0x5 SSTORE DUP4 PUSH1 0x6 SSTORE DUP5 PUSH1 0x7 SSTORE DUP9 MLOAD SWAP6 DUP7 MSTORE PUSH1 0x20 DUP7 ADD MSTORE DUP8 DUP6 ADD MSTORE PUSH1 0x60 DUP5 ADD MSTORE PUSH1 0x80 DUP4 ADD MSTORE PUSH1 0xA0 DUP3 ADD MSTORE LOG1 MLOAD PUSH2 0x1F1D SWAP1 DUP2 PUSH3 0x25B DUP3 CODECOPY PUSH1 0x80 MLOAD DUP2 DUP2 DUP2 PUSH2 0x1B8 ADD MSTORE DUP2 DUP2 PUSH2 0x31C ADD MSTORE DUP2 DUP2 PUSH2 0x467 ADD MSTORE DUP2 DUP2 PUSH2 0xE50 ADD MSTORE DUP2 DUP2 PUSH2 0x1531 ADD MSTORE DUP2 DUP2 PUSH2 0x1790 ADD MSTORE PUSH2 0x1931 ADD MSTORE RETURN JUMPDEST PUSH4 0x309CB87 PUSH1 0xE5 SHL DUP2 MSTORE PUSH1 0x4 SWAP1 REVERT JUMPDEST POP DUP6 ISZERO PUSH3 0x139 JUMP JUMPDEST POP DUP5 ISZERO PUSH3 0x131 JUMP JUMPDEST POP DUP3 ISZERO PUSH3 0x129 JUMP JUMPDEST POP DUP2 ISZERO PUSH3 0x121 JUMP JUMPDEST DUP10 MLOAD PUSH4 0x1E4FBDF7 PUSH1 0xE0 SHL DUP2 MSTORE PUSH1 0x0 PUSH1 0x4 DUP3 ADD MSTORE PUSH1 0x24 SWAP1 REVERT JUMPDEST PUSH1 0x0 DUP1 REVERT JUMPDEST PUSH4 0x4E487B71 PUSH1 0xE0 SHL PUSH1 0x0 MSTORE PUSH1 0x41 PUSH1 0x4 MSTORE PUSH1 0x24 PUSH1 0x0 REVERT JUMPDEST MLOAD SWAP1 PUSH1 0x1 PUSH1 0x1 PUSH1 0xA0 SHL SUB DUP3 AND DUP3 SUB PUSH3 0x22A JUMPI JUMP INVALID PUSH1 0x80 DUP1 PUSH1 0x40 MSTORE PUSH1 0x4 CALLDATASIZE LT ISZERO PUSH2 0x1A JUMPI JUMPDEST POP CALLDATASIZE ISZERO PUSH2 0x18 JUMPI STOP JUMPDEST STOP JUMPDEST PUSH1 0x0 SWAP1 DUP2 CALLDATALOAD PUSH1 0xE0 SHR SWAP1 DUP2 PUSH3 0x7E637E EQ PUSH2 0x1AB0 JUMPI POP DUP1 PUSH4 0x13CF08B EQ PUSH2 0x19B4 JUMPI DUP1 PUSH4 0x5D0F15B EQ PUSH2 0x1996 JUMPI DUP1 PUSH4 0x627D425 EQ PUSH2 0x1897 JUMPI DUP1 PUSH4 0xA5AF04B EQ PUSH2 0x1854 JUMPI DUP1 PUSH4 0xD346E9A EQ PUSH2 0x1836 JUMPI DUP1 PUSH4 0x16384686 EQ PUSH2 0x174F JUMPI DUP1 PUSH4 0x282C8749 EQ PUSH2 0x1681 JUMPI DUP1 PUSH4 0x2AB09D14 EQ PUSH2 0xEEE JUMPI DUP1 PUSH4 0x30109962 EQ PUSH2 0x1663 JUMPI DUP1 PUSH4 0x4091E8F0 EQ PUSH2 0x15F9 JUMPI DUP1 PUSH4 0x43859632 EQ PUSH2 0x15A7 JUMPI DUP1 PUSH4 0x542FFA7B EQ PUSH2 0x1497 JUMPI DUP1 PUSH4 0x5652077C EQ PUSH2 0x13C5 JUMPI DUP1 PUSH4 0x5C975ABB EQ PUSH2 0x139F JUMPI DUP1 PUSH4 0x65E481E2 EQ PUSH2 0x1051 JUMPI DUP1 PUSH4 0x715018A6 EQ PUSH2 0xFF7 JUMPI DUP1 PUSH4 0x81E6830F EQ PUSH2 0xF9B JUMPI DUP1 PUSH4 0x8DA5CB5B EQ PUSH2 0xF74 JUMPI DUP1 PUSH4 0x97761382 EQ PUSH2 0xF0C JUMPI DUP1 PUSH4 0x98E527D3 EQ PUSH2 0xEEE JUMPI DUP1 PUSH4 0x9F45B133 EQ PUSH2 0xEAB JUMPI DUP1 PUSH4 0xA028699E EQ PUSH2 0xDC7 JUMPI DUP1 PUSH4 0xA73079AC EQ PUSH2 0x9C8 JUMPI DUP1 PUSH4 0xAD3BCADE EQ PUSH2 0x99F JUMPI DUP1 PUSH4 0xC07473F6 EQ PUSH2 0x973 JUMPI DUP1 PUSH4 0xC2D66776 EQ PUSH2 0x955 JUMPI DUP1 PUSH4 0xC7F758A8 EQ PUSH2 0x722 JUMPI DUP1 PUSH4 0xC9D27AFE EQ PUSH2 0x583 JUMPI DUP1 PUSH4 0xD064A9A4 EQ PUSH2 0x565 JUMPI DUP1 PUSH4 0xD0FEBE4C EQ PUSH2 0x3F6 JUMPI DUP1 PUSH4 0xD1B85B49 EQ PUSH2 0x293 JUMPI DUP1 PUSH4 0xF2FDE38B EQ PUSH2 0x208 JUMPI DUP1 PUSH4 0xF96DF52A EQ PUSH2 0x1EA JUMPI PUSH4 0xFC0C546A SUB PUSH2 0xF JUMPI CALLVALUE PUSH2 0x1E7 JUMPI DUP1 PUSH1 0x3 NOT CALLDATASIZE ADD SLT PUSH2 0x1E7 JUMPI PUSH1 0x40 MLOAD PUSH32 0x0 PUSH1 0x1 PUSH1 0x1 PUSH1 0xA0 SHL SUB AND DUP2 MSTORE PUSH1 0x20 SWAP1 RETURN JUMPDEST DUP1 REVERT JUMPDEST POP CALLVALUE PUSH2 0x1E7 JUMPI DUP1 PUSH1 0x3 NOT CALLDATASIZE ADD SLT PUSH2 0x1E7 JUMPI PUSH1 0x20 PUSH1 0x7 SLOAD PUSH1 0x40 MLOAD SWAP1 DUP2 MSTORE RETURN JUMPDEST POP CALLVALUE PUSH2 0x1E7 JUMPI PUSH1 0x20 CALLDATASIZE PUSH1 0x3 NOT ADD SLT PUSH2 0x1E7 JUMPI PUSH2 0x222 PUSH2 0x1D85 JUMP JUMPDEST PUSH2 0x22A PUSH2 0x1DFE JUMP JUMPDEST PUSH1 0x1 PUSH1 0x1 PUSH1 0xA0 SHL SUB SWAP1 DUP2 AND SWAP1 DUP2 ISZERO PUSH2 0x27A JUMPI PUSH1 0x0 SLOAD DUP3 PUSH1 0x1 PUSH1 0x1 PUSH1 0x60 SHL SUB PUSH1 0xA0 SHL DUP3 AND OR PUSH1 0x0 SSTORE AND PUSH32 0x8BE0079C531659141344CD1FD0A4F28419497F9722A3DAAFE3B4186F6B6457E0 PUSH1 0x0 DUP1 LOG3 DUP1 RETURN JUMPDEST PUSH1 0x40 MLOAD PUSH4 0x1E4FBDF7 PUSH1 0xE0 SHL DUP2 MSTORE PUSH1 0x4 DUP2 ADD DUP5 SWAP1 MSTORE PUSH1 0x24 SWAP1 REVERT JUMPDEST POP CALLVALUE PUSH2 0x1E7 JUMPI PUSH1 0x20 DUP1 PUSH1 0x3 NOT CALLDATASIZE ADD SLT PUSH2 0x3F2 JUMPI PUSH1 0x4 CALLDATALOAD SWAP1 PUSH1 0x1 SLOAD SWAP1 PUSH1 0xFF DUP3 PUSH1 0xA0 SHR AND PUSH2 0x3E0 JUMPI PUSH1 0x1 PUSH1 0x1 PUSH1 0xA0 SHL SUB SWAP2 DUP3 AND ISZERO PUSH2 0x3CE JUMPI DUP3 ISZERO PUSH2 0x3BC JUMPI CALLER DUP5 MSTORE PUSH1 0xB DUP2 MSTORE PUSH1 0x40 DUP5 KECCAK256 PUSH2 0x2E5 DUP5 DUP3 SLOAD PUSH2 0x1EA6 JUMP JUMPDEST DUP2 SSTORE TIMESTAMP PUSH1 0x1 SWAP1 SWAP2 ADD SSTORE PUSH1 0x40 MLOAD PUSH4 0x23B872DD PUSH1 0xE0 SHL DUP2 MSTORE CALLER PUSH1 0x4 DUP3 ADD MSTORE ADDRESS PUSH1 0x24 DUP3 ADD MSTORE PUSH1 0x44 DUP2 ADD DUP5 SWAP1 MSTORE SWAP2 DUP2 SWAP1 DUP4 SWAP1 PUSH1 0x64 SWAP1 DUP3 SWAP1 DUP9 SWAP1 PUSH32 0x0 AND GAS CALL SWAP2 DUP3 ISZERO PUSH2 0x3B1 JUMPI PUSH32 0xEC53A80F7FD2E0AD362F205AA59D80DF1F44DDBB229BBE3591A1BF8D34FB5B6F SWAP3 PUSH2 0x378 SWAP2 DUP7 SWAP2 PUSH2 0x384 JUMPI JUMPDEST POP PUSH2 0x1E62 JUMP JUMPDEST PUSH1 0x40 MLOAD SWAP3 DUP4 MSTORE CALLER SWAP3 LOG2 DUP1 RETURN JUMPDEST PUSH2 0x3A4 SWAP2 POP DUP4 RETURNDATASIZE DUP6 GT PUSH2 0x3AA JUMPI JUMPDEST PUSH2 0x39C DUP2 DUP4 PUSH2 0x1C5A JUMP JUMPDEST DUP2 ADD SWAP1 PUSH2 0x1E4A JUMP JUMPDEST CODESIZE PUSH2 0x372 JUMP JUMPDEST POP RETURNDATASIZE PUSH2 0x392 JUMP JUMPDEST PUSH1 0x40 MLOAD RETURNDATASIZE DUP7 DUP3 RETURNDATACOPY RETURNDATASIZE SWAP1 REVERT JUMPDEST PUSH1 0x40 MLOAD PUSH4 0x309CB87 PUSH1 0xE5 SHL DUP2 MSTORE PUSH1 0x4 SWAP1 REVERT JUMPDEST PUSH1 0x40 MLOAD PUSH4 0x28EECF3 PUSH1 0xE1 SHL DUP2 MSTORE PUSH1 0x4 SWAP1 REVERT JUMPDEST PUSH1 0x40 MLOAD PUSH4 0x2795C279 PUSH1 0xE2 SHL DUP2 MSTORE PUSH1 0x4 SWAP1 REVERT JUMPDEST POP DUP1 REVERT JUMPDEST POP DUP1 PUSH1 0x3 NOT CALLDATASIZE ADD SLT PUSH2 0x1E7 JUMPI PUSH1 0x1 SLOAD PUSH1 0xFF DUP2 PUSH1 0xA0 SHR AND PUSH2 0x3E0 JUMPI PUSH1 0x1 PUSH1 0x1 PUSH1 0xA0 SHL SUB SWAP1 DUP2 AND ISZERO PUSH2 0x3CE JUMPI CALLVALUE ISZERO PUSH2 0x3BC JUMPI PUSH8 0xDE0B6B3A7640000 DUP1 CALLVALUE MUL SWAP1 CALLVALUE DUP3 DIV SUB PUSH2 0x551 JUMPI PUSH1 0x2 SLOAD PUSH2 0x447 SWAP2 PUSH2 0x1E2A JUMP JUMPDEST SWAP1 DUP2 ISZERO PUSH2 0x3BC JUMPI PUSH1 0x40 MLOAD PUSH4 0x70A08231 PUSH1 0xE0 SHL DUP2 MSTORE ADDRESS PUSH1 0x4 DUP3 ADD MSTORE PUSH1 0x20 SWAP3 SWAP2 PUSH32 0x0 AND SWAP1 DUP4 DUP2 PUSH1 0x24 DUP2 DUP6 GAS STATICCALL DUP1 ISZERO PUSH2 0x546 JUMPI DUP4 SWAP2 DUP7 SWAP2 PUSH2 0x511 JUMPI JUMPDEST POP LT PUSH2 0x3BC JUMPI PUSH1 0x40 MLOAD PUSH4 0xA9059CBB PUSH1 0xE0 SHL DUP2 MSTORE CALLER PUSH1 0x4 DUP3 ADD MSTORE PUSH1 0x24 DUP2 ADD SWAP3 SWAP1 SWAP3 MSTORE DUP3 SWAP1 DUP3 SWAP1 PUSH1 0x44 SWAP1 DUP3 SWAP1 DUP8 SWAP1 GAS CALL SWAP1 DUP2 ISZERO PUSH2 0x506 JUMPI PUSH2 0x4E6 SWAP3 DUP5 SWAP3 PUSH2 0x4E9 JUMPI JUMPDEST POP POP PUSH2 0x1E62 JUMP JUMPDEST DUP1 RETURN JUMPDEST PUSH2 0x4FF SWAP3 POP DUP1 RETURNDATASIZE LT PUSH2 0x3AA JUMPI PUSH2 0x39C DUP2 DUP4 PUSH2 0x1C5A JUMP JUMPDEST CODESIZE DUP1 PUSH2 0x4DF JUMP JUMPDEST PUSH1 0x40 MLOAD RETURNDATASIZE DUP6 DUP3 RETURNDATACOPY RETURNDATASIZE SWAP1 REVERT JUMPDEST DUP1 SWAP3 POP DUP6 DUP1 SWAP3 POP RETURNDATASIZE DUP4 GT PUSH2 0x53F JUMPI JUMPDEST PUSH2 0x52A DUP2 DUP4 PUSH2 0x1C5A JUMP JUMPDEST DUP2 ADD SUB SLT PUSH2 0x53B JUMPI DUP3 SWAP1 MLOAD CODESIZE PUSH2 0x49F JUMP JUMPDEST DUP5 DUP1 REVERT JUMPDEST POP RETURNDATASIZE PUSH2 0x520 JUMP JUMPDEST PUSH1 0x40 MLOAD RETURNDATASIZE DUP8 DUP3 RETURNDATACOPY RETURNDATASIZE SWAP1 REVERT JUMPDEST PUSH4 0x4E487B71 PUSH1 0xE0 SHL DUP4 MSTORE PUSH1 0x11 PUSH1 0x4 MSTORE PUSH1 0x24 DUP4 REVERT JUMPDEST POP CALLVALUE PUSH2 0x1E7 JUMPI DUP1 PUSH1 0x3 NOT CALLDATASIZE ADD SLT PUSH2 0x1E7 JUMPI PUSH1 0x20 PUSH1 0x5 SLOAD PUSH1 0x40 MLOAD SWAP1 DUP2 MSTORE RETURN JUMPDEST POP CALLVALUE PUSH2 0x1E7 JUMPI PUSH1 0x40 CALLDATASIZE PUSH1 0x3 NOT ADD SLT PUSH2 0x1E7 JUMPI PUSH1 0x4 CALLDATALOAD PUSH1 0x24 CALLDATALOAD SWAP1 DUP2 ISZERO ISZERO SWAP2 DUP3 DUP2 SUB PUSH2 0x71E JUMPI PUSH1 0x1 SLOAD PUSH1 0xFF DUP2 PUSH1 0xA0 SHR AND PUSH2 0x3E0 JUMPI PUSH1 0x1 PUSH1 0x1 PUSH1 0xA0 SHL SUB SWAP1 DUP2 AND ISZERO PUSH2 0x3CE JUMPI DUP3 DUP6 MSTORE PUSH1 0x20 SWAP1 PUSH1 0x9 DUP3 MSTORE PUSH1 0x40 DUP7 KECCAK256 SWAP1 PUSH1 0x1 DUP3 ADD SLOAD AND ISZERO PUSH2 0x70C JUMPI PUSH1 0xFF PUSH1 0x8 DUP3 ADD SLOAD AND PUSH1 0x3 DUP2 LT ISZERO PUSH2 0x6F8 JUMPI PUSH2 0x6E6 JUMPI PUSH1 0x5 DUP2 ADD SLOAD TIMESTAMP LT ISZERO PUSH2 0x6E6 JUMPI DUP4 DUP7 MSTORE PUSH1 0xA DUP3 MSTORE PUSH1 0x40 DUP7 KECCAK256 CALLER PUSH1 0x0 MSTORE DUP3 MSTORE PUSH1 0xFF PUSH1 0x40 PUSH1 0x0 KECCAK256 SLOAD AND PUSH2 0x6D4 JUMPI CALLER DUP7 MSTORE PUSH1 0xB DUP3 MSTORE PUSH1 0x40 DUP7 KECCAK256 SLOAD PUSH1 0x3 SLOAD GT PUSH2 0x6C2 JUMPI PUSH2 0x63B CALLER PUSH2 0x1EC0 JUMP JUMPDEST SWAP3 DUP4 ISZERO PUSH2 0x6C2 JUMPI DUP5 DUP8 MSTORE PUSH1 0xA DUP4 MSTORE PUSH1 0x40 DUP8 KECCAK256 CALLER PUSH1 0x0 MSTORE DUP4 MSTORE PUSH1 0x40 PUSH1 0x0 KECCAK256 PUSH1 0x1 PUSH1 0xFF NOT DUP3 SLOAD AND OR SWAP1 SSTORE PUSH1 0x0 EQ PUSH2 0x6AD JUMPI PUSH1 0x6 ADD PUSH2 0x678 DUP4 DUP3 SLOAD PUSH2 0x1EA6 JUMP JUMPDEST SWAP1 SSTORE JUMPDEST PUSH1 0x40 MLOAD SWAP4 DUP5 MSTORE DUP4 ADD MSTORE PUSH32 0xCBDF6214089CBA887ECBF35A0B6A734589959C9763342C756BB2A80CA2BC9F6E PUSH1 0x40 CALLER SWAP4 LOG3 DUP1 RETURN JUMPDEST PUSH1 0x7 ADD PUSH2 0x6BB DUP4 DUP3 SLOAD PUSH2 0x1EA6 JUMP JUMPDEST SWAP1 SSTORE PUSH2 0x67B JUMP JUMPDEST PUSH1 0x40 MLOAD PUSH4 0x78DE4A69 PUSH1 0xE1 SHL DUP2 MSTORE PUSH1 0x4 SWAP1 REVERT JUMPDEST PUSH1 0x40 MLOAD PUSH4 0x7C9A1CF9 PUSH1 0xE0 SHL DUP2 MSTORE PUSH1 0x4 SWAP1 REVERT JUMPDEST PUSH1 0x40 MLOAD PUSH4 0xEEB4F15 PUSH1 0xE0 SHL DUP2 MSTORE PUSH1 0x4 SWAP1 REVERT JUMPDEST PUSH4 0x4E487B71 PUSH1 0xE0 SHL DUP8 MSTORE PUSH1 0x21 PUSH1 0x4 MSTORE PUSH1 0x24 DUP8 REVERT JUMPDEST PUSH1 0x40 MLOAD PUSH4 0x1DC06501 PUSH1 0xE3 SHL DUP2 MSTORE PUSH1 0x4 SWAP1 REVERT JUMPDEST DUP4 DUP1 REVERT JUMPDEST POP CALLVALUE PUSH2 0x1E7 JUMPI PUSH1 0x20 CALLDATASIZE PUSH1 0x3 NOT ADD SLT PUSH2 0x1E7 JUMPI DUP1 PUSH2 0x180 PUSH1 0x40 MLOAD PUSH2 0x744 DUP2 PUSH2 0x1C3D JUMP JUMPDEST DUP3 DUP2 MSTORE DUP3 PUSH1 0x20 DUP3 ADD MSTORE PUSH1 0x60 PUSH1 0x40 DUP3 ADD MSTORE PUSH1 0x60 DUP1 DUP3 ADD MSTORE DUP3 PUSH1 0x80 DUP3 ADD MSTORE DUP3 PUSH1 0xA0 DUP3 ADD MSTORE DUP3 PUSH1 0xC0 DUP3 ADD MSTORE DUP3 PUSH1 0xE0 DUP3 ADD MSTORE DUP3 PUSH2 0x100 DUP3 ADD MSTORE DUP3 PUSH2 0x120 DUP3 ADD MSTORE DUP3 PUSH2 0x140 DUP3 ADD MSTORE DUP3 PUSH2 0x160 DUP3 ADD MSTORE ADD MSTORE PUSH1 0x4 CALLDATALOAD DUP2 MSTORE PUSH1 0x9 PUSH1 0x20 MSTORE PUSH1 0x40 DUP2 KECCAK256 PUSH1 0x40 MLOAD SWAP1 PUSH2 0x7AB DUP3 PUSH2 0x1C3D JUMP JUMPDEST DUP1 SLOAD DUP3 MSTORE PUSH1 0x1 DUP2 ADD SLOAD PUSH1 0x1 PUSH1 0x1 PUSH1 0xA0 SHL SUB AND PUSH1 0x20 DUP4 ADD MSTORE PUSH2 0x7CE PUSH1 0x2 DUP3 ADD PUSH2 0x1C7C JUMP JUMPDEST PUSH1 0x40 DUP4 ADD MSTORE PUSH2 0x7DF PUSH1 0x3 DUP3 ADD PUSH2 0x1C7C JUMP JUMPDEST PUSH1 0x60 DUP4 ADD MSTORE PUSH1 0x4 DUP2 ADD SLOAD PUSH1 0x80 DUP4 ADD MSTORE PUSH1 0x5 DUP2 ADD SLOAD PUSH1 0xA0 DUP4 ADD MSTORE PUSH1 0x6 DUP2 ADD SLOAD PUSH1 0xC0 DUP4 ADD MSTORE PUSH1 0x7 DUP2 ADD SLOAD PUSH1 0xE0 DUP4 ADD MSTORE PUSH1 0x8 DUP2 ADD SLOAD PUSH1 0x3 PUSH1 0xFF DUP3 AND LT ISZERO PUSH2 0x941 JUMPI PUSH1 0xFF DUP1 DUP3 AND PUSH2 0x100 DUP6 ADD MSTORE PUSH1 0x8 DUP3 SWAP1 SHR DUP2 AND ISZERO ISZERO PUSH2 0x120 DUP6 ADD MSTORE PUSH1 0x10 DUP3 SWAP1 SHR AND ISZERO ISZERO PUSH2 0x140 DUP5 ADD MSTORE PUSH1 0x18 SHR PUSH1 0x1 PUSH1 0x1 PUSH1 0xA0 SHL SUB SWAP1 DUP2 AND PUSH2 0x160 DUP5 ADD MSTORE PUSH1 0x9 SWAP1 SWAP2 ADD SLOAD PUSH2 0x180 DUP4 ADD MSTORE PUSH1 0x20 DUP3 ADD MLOAD AND ISZERO PUSH2 0x70C JUMPI PUSH1 0x40 MLOAD DUP1 SWAP2 PUSH1 0x20 DUP3 MSTORE DUP1 MLOAD PUSH1 0x20 DUP4 ADD MSTORE PUSH1 0x1 DUP1 PUSH1 0xA0 SHL SUB PUSH1 0x20 DUP3 ADD MLOAD AND PUSH1 0x40 DUP4 ADD MSTORE PUSH2 0x180 PUSH2 0x8C9 PUSH2 0x8B3 PUSH1 0x40 DUP5 ADD MLOAD PUSH2 0x1A0 PUSH1 0x60 DUP8 ADD MSTORE PUSH2 0x1C0 DUP7 ADD SWAP1 PUSH2 0x1D22 JUMP JUMPDEST PUSH1 0x60 DUP5 ADD MLOAD DUP6 DUP3 SUB PUSH1 0x1F NOT ADD PUSH1 0x80 DUP8 ADD MSTORE PUSH2 0x1D22 JUMP JUMPDEST SWAP2 PUSH1 0x80 DUP2 ADD MLOAD PUSH1 0xA0 DUP6 ADD MSTORE PUSH1 0xA0 DUP2 ADD MLOAD PUSH1 0xC0 DUP6 ADD MSTORE PUSH1 0xC0 DUP2 ADD MLOAD PUSH1 0xE0 DUP6 ADD MSTORE PUSH1 0xE0 DUP2 ADD MLOAD PUSH2 0x100 DUP6 ADD MSTORE PUSH2 0x907 PUSH2 0x100 DUP3 ADD MLOAD PUSH2 0x120 DUP7 ADD SWAP1 PUSH2 0x1D62 JUMP JUMPDEST PUSH2 0x120 DUP2 ADD MLOAD ISZERO ISZERO PUSH2 0x140 DUP6 ADD MSTORE PUSH2 0x140 DUP2 ADD MLOAD ISZERO ISZERO PUSH2 0x160 DUP6 ADD MSTORE PUSH1 0x1 DUP1 PUSH1 0xA0 SHL SUB PUSH2 0x160 DUP3 ADD MLOAD AND DUP3 DUP6 ADD MSTORE ADD MLOAD PUSH2 0x1A0 DUP4 ADD MSTORE SUB SWAP1 RETURN JUMPDEST PUSH4 0x4E487B71 PUSH1 0xE0 SHL DUP5 MSTORE PUSH1 0x21 PUSH1 0x4 MSTORE PUSH1 0x24 DUP5 REVERT JUMPDEST POP CALLVALUE PUSH2 0x1E7 JUMPI DUP1 PUSH1 0x3 NOT CALLDATASIZE ADD SLT PUSH2 0x1E7 JUMPI PUSH1 0x20 PUSH1 0x3 SLOAD PUSH1 0x40 MLOAD SWAP1 DUP2 MSTORE RETURN JUMPDEST POP CALLVALUE PUSH2 0x1E7 JUMPI PUSH1 0x20 CALLDATASIZE PUSH1 0x3 NOT ADD SLT PUSH2 0x1E7 JUMPI PUSH1 0x20 PUSH2 0x997 PUSH2 0x992 PUSH2 0x1D85 JUMP JUMPDEST PUSH2 0x1EC0 JUMP JUMPDEST PUSH1 0x40 MLOAD SWAP1 DUP2 MSTORE RETURN JUMPDEST POP CALLVALUE PUSH2 0x1E7 JUMPI DUP1 PUSH1 0x3 NOT CALLDATASIZE ADD SLT PUSH2 0x1E7 JUMPI PUSH1 0x1 SLOAD PUSH1 0x40 MLOAD PUSH1 0x1 PUSH1 0x1 PUSH1 0xA0 SHL SUB SWAP1 SWAP2 AND DUP2 MSTORE PUSH1 0x20 SWAP1 RETURN JUMPDEST POP CALLVALUE PUSH2 0x1E7 JUMPI PUSH1 0x80 CALLDATASIZE PUSH1 0x3 NOT ADD SLT PUSH2 0x1E7 JUMPI PUSH1 0x4 CALLDATALOAD PUSH8 0xFFFFFFFFFFFFFFFF DUP2 GT PUSH2 0x3F2 JUMPI PUSH2 0x9FA SWAP1 CALLDATASIZE SWAP1 PUSH1 0x4 ADD PUSH2 0x1DB7 JUMP JUMPDEST SWAP1 PUSH1 0x24 CALLDATALOAD SWAP1 PUSH8 0xFFFFFFFFFFFFFFFF DUP3 GT PUSH2 0x1E7 JUMPI POP PUSH2 0xA1D SWAP1 CALLDATASIZE SWAP1 PUSH1 0x4 ADD PUSH2 0x1DB7 JUMP JUMPDEST SWAP1 PUSH1 0x1 PUSH1 0x1 PUSH1 0xA0 SHL SUB PUSH1 0x44 CALLDATALOAD DUP1 DUP3 AND SWAP1 SUB PUSH2 0xDC2 JUMPI PUSH1 0x1 SLOAD PUSH1 0xFF DUP2 PUSH1 0xA0 SHR AND PUSH2 0x3E0 JUMPI DUP2 AND ISZERO PUSH2 0x3CE JUMPI DUP1 PUSH1 0x44 CALLDATALOAD AND ISZERO DUP1 ISZERO PUSH2 0xDB8 JUMPI JUMPDEST PUSH2 0xDA6 JUMPI CALLER PUSH1 0x0 MSTORE PUSH1 0xC PUSH1 0x20 MSTORE PUSH1 0x40 PUSH1 0x0 KECCAK256 SLOAD PUSH1 0x4 SLOAD GT PUSH2 0x6C2 JUMPI PUSH1 0x8 SLOAD SWAP2 PUSH1 0x0 NOT DUP4 EQ PUSH2 0xD90 JUMPI PUSH1 0x1 DUP4 ADD PUSH1 0x8 SSTORE DUP3 PUSH1 0x0 MSTORE PUSH1 0x9 PUSH1 0x20 MSTORE PUSH1 0x40 PUSH1 0x0 KECCAK256 SWAP1 DUP4 DUP3 SSTORE PUSH1 0x1 DUP3 ADD CALLER PUSH1 0x1 PUSH1 0x1 PUSH1 0x60 SHL SUB PUSH1 0xA0 SHL DUP3 SLOAD AND OR SWAP1 SSTORE DUP1 MLOAD SWAP1 PUSH8 0xFFFFFFFFFFFFFFFF DUP3 GT PUSH2 0xCAF JUMPI DUP2 SWAP1 PUSH2 0xACC PUSH1 0x2 DUP6 ADD SLOAD PUSH2 0x1C03 JUMP JUMPDEST PUSH1 0x1F DUP2 GT PUSH2 0xD3D JUMPI JUMPDEST POP PUSH1 0x20 SWAP1 PUSH1 0x1F DUP4 GT PUSH1 0x1 EQ PUSH2 0xCD0 JUMPI PUSH1 0x0 SWAP3 PUSH2 0xCC5 JUMPI JUMPDEST POP POP DUP2 PUSH1 0x1 SHL SWAP2 PUSH1 0x0 NOT SWAP1 PUSH1 0x3 SHL SHR NOT AND OR PUSH1 0x2 DUP3 ADD SSTORE JUMPDEST DUP4 MLOAD PUSH8 0xFFFFFFFFFFFFFFFF DUP2 GT PUSH2 0xCAF JUMPI PUSH1 0x3 DUP3 ADD SWAP1 PUSH2 0xB24 DUP3 SLOAD PUSH2 0x1C03 JUMP JUMPDEST SWAP6 PUSH1 0x1F DUP8 GT PUSH2 0xC67 JUMPI JUMPDEST PUSH1 0x20 SWAP7 POP DUP7 SWAP1 PUSH1 0x1F DUP4 GT PUSH1 0x1 EQ PUSH2 0xBFD JUMPI PUSH1 0x9 SWAP5 SWAP4 SWAP3 SWAP2 PUSH1 0x0 SWAP2 DUP4 PUSH2 0xBF2 JUMPI JUMPDEST POP POP DUP2 PUSH1 0x1 SHL SWAP2 PUSH1 0x0 NOT SWAP1 PUSH1 0x3 SHL SHR NOT AND OR SWAP1 SSTORE JUMPDEST TIMESTAMP PUSH1 0x4 DUP3 ADD SSTORE PUSH2 0xB75 PUSH1 0x6 SLOAD TIMESTAMP PUSH2 0x1EA6 JUMP JUMPDEST PUSH1 0x5 DUP3 ADD SSTORE PUSH1 0x8 DUP2 ADD PUSH3 0x10000 DUP2 SLOAD PUSH4 0x1000000 PUSH1 0x1 PUSH1 0xB8 SHL SUB PUSH1 0x44 CALLDATALOAD PUSH1 0x18 SHL AND SWAP1 PUSH2 0xFF01 PUSH1 0x1 PUSH1 0xB8 SHL SUB NOT AND OR OR SWAP1 SSTORE PUSH1 0x64 CALLDATALOAD SWAP2 DUP3 SWAP2 ADD SSTORE PUSH1 0x40 MLOAD SWAP2 PUSH1 0x1 DUP4 MSTORE PUSH1 0x44 CALLDATALOAD AND DUP5 DUP4 ADD MSTORE PUSH1 0x40 DUP3 ADD MSTORE DUP2 PUSH32 0xB956772E7B554D19BB961F4303B6C0C5CD7592C0C06FD08F15A56A0F304E6C0D PUSH1 0x60 CALLER SWAP4 LOG3 PUSH1 0x40 MLOAD SWAP1 DUP2 MSTORE RETURN JUMPDEST ADD MLOAD SWAP1 POP CODESIZE DUP1 PUSH2 0xB4E JUMP JUMPDEST SWAP1 PUSH1 0x1F NOT DUP4 AND SWAP2 DUP5 PUSH1 0x0 MSTORE DUP9 PUSH1 0x0 KECCAK256 SWAP3 PUSH1 0x0 JUMPDEST DUP2 DUP2 LT PUSH2 0xC50 JUMPI POP SWAP2 PUSH1 0x1 SWAP4 SWAP2 DUP6 PUSH1 0x9 SWAP9 SWAP8 SWAP7 SWAP5 LT PUSH2 0xC37 JUMPI JUMPDEST POP POP POP DUP2 SHL ADD SWAP1 SSTORE PUSH2 0xB63 JUMP JUMPDEST ADD MLOAD PUSH1 0x0 NOT PUSH1 0xF8 DUP5 PUSH1 0x3 SHL AND SHR NOT AND SWAP1 SSTORE CODESIZE DUP1 DUP1 PUSH2 0xC2A JUMP JUMPDEST SWAP3 SWAP4 DUP11 PUSH1 0x1 DUP2 SWAP3 DUP8 DUP7 ADD MLOAD DUP2 SSTORE ADD SWAP6 ADD SWAP4 ADD PUSH2 0xC10 JUMP JUMPDEST DUP3 PUSH1 0x0 MSTORE PUSH1 0x20 PUSH1 0x0 KECCAK256 PUSH1 0x1F DUP4 ADD PUSH1 0x5 SHR DUP2 ADD SWAP8 PUSH1 0x20 DUP5 LT PUSH2 0xCA5 JUMPI JUMPDEST PUSH1 0x1F ADD PUSH1 0x5 SHR ADD SWAP7 JUMPDEST DUP8 DUP2 LT PUSH2 0xC99 JUMPI POP PUSH2 0xB2E JUMP JUMPDEST PUSH1 0x0 DUP2 SSTORE PUSH1 0x1 ADD PUSH2 0xC8C JUMP JUMPDEST SWAP1 SWAP8 POP DUP8 SWAP1 PUSH2 0xC83 JUMP JUMPDEST PUSH4 0x4E487B71 PUSH1 0xE0 SHL PUSH1 0x0 MSTORE PUSH1 0x41 PUSH1 0x4 MSTORE PUSH1 0x24 PUSH1 0x0 REVERT JUMPDEST ADD MLOAD SWAP1 POP CODESIZE DUP1 PUSH2 0xAEC JUMP JUMPDEST PUSH1 0x2 DUP6 ADD PUSH1 0x0 SWAP1 DUP2 MSTORE PUSH1 0x20 DUP2 KECCAK256 SWAP4 POP PUSH1 0x1F NOT DUP6 AND SWAP1 JUMPDEST DUP2 DUP2 LT PUSH2 0xD25 JUMPI POP SWAP1 DUP5 PUSH1 0x1 SWAP6 SWAP5 SWAP4 SWAP3 LT PUSH2 0xD0C JUMPI JUMPDEST POP POP POP DUP2 SHL ADD PUSH1 0x2 DUP3 ADD SSTORE PUSH2 0xB04 JUMP JUMPDEST ADD MLOAD PUSH1 0x0 NOT PUSH1 0xF8 DUP5 PUSH1 0x3 SHL AND SHR NOT AND SWAP1 SSTORE CODESIZE DUP1 DUP1 PUSH2 0xCFC JUMP JUMPDEST SWAP3 SWAP4 PUSH1 0x20 PUSH1 0x1 DUP2 SWAP3 DUP8 DUP7 ADD MLOAD DUP2 SSTORE ADD SWAP6 ADD SWAP4 ADD PUSH2 0xCE6 JUMP JUMPDEST SWAP1 SWAP2 POP PUSH1 0x2 DUP5 ADD PUSH1 0x0 MSTORE PUSH1 0x20 PUSH1 0x0 KECCAK256 PUSH1 0x1F DUP5 ADD PUSH1 0x5 SHR DUP2 ADD PUSH1 0x20 DUP6 LT PUSH2 0xD89 JUMPI JUMPDEST SWAP1 DUP5 SWAP4 SWAP3 SWAP2 JUMPDEST PUSH1 0x1F DUP4 ADD PUSH1 0x5 SHR DUP3 ADD DUP2 LT PUSH2 0xD7A JUMPI POP POP PUSH2 0xAD5 JUMP JUMPDEST PUSH1 0x0 DUP2 SSTORE DUP6 SWAP5 POP PUSH1 0x1 ADD PUSH2 0xD64 JUMP JUMPDEST POP DUP1 PUSH2 0xD5E JUMP JUMPDEST PUSH4 0x4E487B71 PUSH1 0xE0 SHL PUSH1 0x0 MSTORE PUSH1 0x11 PUSH1 0x4 MSTORE PUSH1 0x24 PUSH1 0x0 REVERT JUMPDEST PUSH1 0x40 MLOAD PUSH4 0x1713DA9D PUSH1 0xE1 SHL DUP2 MSTORE PUSH1 0x4 SWAP1 REVERT JUMPDEST POP PUSH1 0x64 CALLDATALOAD ISZERO PUSH2 0xA54 JUMP JUMPDEST PUSH1 0x0 DUP1 REVERT JUMPDEST POP CALLVALUE PUSH2 0x1E7 JUMPI PUSH1 0x20 DUP1 PUSH1 0x3 NOT CALLDATASIZE ADD SLT PUSH2 0x3F2 JUMPI PUSH1 0x4 CALLDATALOAD SWAP1 PUSH1 0x1 SLOAD SWAP1 PUSH1 0xFF DUP3 PUSH1 0xA0 SHR AND PUSH2 0x3E0 JUMPI PUSH1 0x1 PUSH1 0x1 PUSH1 0xA0 SHL SUB SWAP2 DUP3 AND ISZERO PUSH2 0x3CE JUMPI DUP3 ISZERO PUSH2 0x3BC JUMPI CALLER DUP5 MSTORE PUSH1 0xC DUP2 MSTORE PUSH1 0x40 DUP5 KECCAK256 PUSH2 0xE19 DUP5 DUP3 SLOAD PUSH2 0x1EA6 JUMP JUMPDEST DUP2 SSTORE TIMESTAMP PUSH1 0x1 SWAP1 SWAP2 ADD SSTORE PUSH1 0x40 MLOAD PUSH4 0x23B872DD PUSH1 0xE0 SHL DUP2 MSTORE CALLER PUSH1 0x4 DUP3 ADD MSTORE ADDRESS PUSH1 0x24 DUP3 ADD MSTORE PUSH1 0x44 DUP2 ADD DUP5 SWAP1 MSTORE SWAP2 DUP2 SWAP1 DUP4 SWAP1 PUSH1 0x64 SWAP1 DUP3 SWAP1 DUP9 SWAP1 PUSH32 0x0 AND GAS CALL SWAP2 DUP3 ISZERO PUSH2 0x3B1 JUMPI PUSH32 0xFB98BD47DCFD31E8D0C0E3558FFB823C6AD6DDCBA96E48E82608E567B21CB1DD SWAP3 PUSH2 0x378 SWAP2 DUP7 SWAP2 PUSH2 0x384 JUMPI POP PUSH2 0x1E62 JUMP JUMPDEST POP CALLVALUE PUSH2 0x1E7 JUMPI PUSH1 0x20 CALLDATASIZE PUSH1 0x3 NOT ADD SLT PUSH2 0x1E7 JUMPI PUSH1 0x40 SWAP1 DUP2 SWAP1 PUSH1 0x1 PUSH1 0x1 PUSH1 0xA0 SHL SUB PUSH2 0xED2 PUSH2 0x1D85 JUMP JUMPDEST AND DUP2 MSTORE PUSH1 0xB PUSH1 0x20 MSTORE KECCAK256 PUSH1 0x1 DUP2 SLOAD SWAP2 ADD SLOAD DUP3 MLOAD SWAP2 DUP3 MSTORE PUSH1 0x20 DUP3 ADD MSTORE RETURN JUMPDEST POP CALLVALUE PUSH2 0x1E7 JUMPI DUP1 PUSH1 0x3 NOT CALLDATASIZE ADD SLT PUSH2 0x1E7 JUMPI PUSH1 0x20 PUSH1 0x8 SLOAD PUSH1 0x40 MLOAD SWAP1 DUP2 MSTORE RETURN JUMPDEST POP CALLVALUE PUSH2 0x1E7 JUMPI DUP1 PUSH1 0x3 NOT CALLDATASIZE ADD SLT PUSH2 0x1E7 JUMPI PUSH1 0x1 SLOAD PUSH1 0x1 PUSH1 0x1 PUSH1 0xA0 SHL SUB DUP2 AND CALLER SUB PUSH2 0xF62 JUMPI PUSH1 0xFF PUSH1 0xA0 SHL NOT AND PUSH1 0x1 SSTORE CALLER PUSH32 0xDB333F8DE8435249D224D186F58A6CB30292B00A2897688694C176F2CDE512B0 DUP3 DUP1 LOG2 DUP1 RETURN JUMPDEST PUSH1 0x40 MLOAD PUSH4 0xB9E5AC5F PUSH1 0xE0 SHL DUP2 MSTORE PUSH1 0x4 SWAP1 REVERT JUMPDEST POP CALLVALUE PUSH2 0x1E7 JUMPI DUP1 PUSH1 0x3 NOT CALLDATASIZE ADD SLT PUSH2 0x1E7 JUMPI SLOAD PUSH1 0x40 MLOAD PUSH1 0x1 PUSH1 0x1 PUSH1 0xA0 SHL SUB SWAP1 SWAP2 AND DUP2 MSTORE PUSH1 0x20 SWAP1 RETURN JUMPDEST POP CALLVALUE PUSH2 0x1E7 JUMPI DUP1 PUSH1 0x3 NOT CALLDATASIZE ADD SLT PUSH2 0x1E7 JUMPI PUSH1 0x1 SLOAD PUSH1 0x1 PUSH1 0x1 PUSH1 0xA0 SHL SUB DUP2 AND CALLER SUB PUSH2 0xF62 JUMPI PUSH1 0xFF PUSH1 0xA0 SHL NOT AND PUSH1 0x1 PUSH1 0xA0 SHL OR PUSH1 0x1 SSTORE CALLER PUSH32 0xB907D122E4DB865E49BC04C7F1E84A1AE29E024EE225BC08C69104520C5F3F9 DUP3 DUP1 LOG2 DUP1 RETURN JUMPDEST POP CALLVALUE PUSH2 0x1E7 JUMPI DUP1 PUSH1 0x3 NOT CALLDATASIZE ADD SLT PUSH2 0x1E7 JUMPI PUSH2 0x1010 PUSH2 0x1DFE JUMP JUMPDEST PUSH1 0x0 DUP1 SLOAD PUSH1 0x1 PUSH1 0x1 PUSH1 0xA0 SHL SUB NOT DUP2 AND DUP3 SSTORE PUSH1 0x1 PUSH1 0x1 PUSH1 0xA0 SHL SUB AND PUSH32 0x8BE0079C531659141344CD1FD0A4F28419497F9722A3DAAFE3B4186F6B6457E0 DUP3 DUP1 LOG3 DUP1 RETURN JUMPDEST POP CALLVALUE PUSH2 0x1E7 JUMPI PUSH1 0x40 CALLDATASIZE PUSH1 0x3 NOT ADD SLT PUSH2 0x1E7 JUMPI PUSH8 0xFFFFFFFFFFFFFFFF SWAP1 PUSH1 0x4 CALLDATALOAD DUP3 DUP2 GT PUSH2 0x3F2 JUMPI PUSH2 0x1085 SWAP1 CALLDATASIZE SWAP1 PUSH1 0x4 ADD PUSH2 0x1DB7 JUMP JUMPDEST SWAP1 PUSH1 0x24 CALLDATALOAD SWAP1 DUP4 DUP3 GT PUSH2 0x1E7 JUMPI POP PUSH2 0x10A0 SWAP1 CALLDATASIZE SWAP1 PUSH1 0x4 ADD PUSH2 0x1DB7 JUMP JUMPDEST SWAP1 PUSH1 0x1 SWAP2 DUP3 SLOAD PUSH1 0xFF DUP2 PUSH1 0xA0 SHR AND PUSH2 0x3E0 JUMPI PUSH1 0x1 PUSH1 0x1 PUSH1 0xA0 SHL SUB AND ISZERO PUSH2 0x3CE JUMPI CALLER PUSH1 0x0 MSTORE PUSH1 0x20 SWAP4 PUSH1 0xC DUP6 MSTORE PUSH1 0x40 PUSH1 0x0 KECCAK256 SLOAD PUSH1 0x4 SLOAD GT PUSH2 0x6C2 JUMPI PUSH1 0x8 SLOAD SWAP4 PUSH1 0x0 NOT SWAP1 DUP2 DUP7 EQ PUSH2 0xD90 JUMPI DUP1 DUP7 ADD PUSH1 0x8 SSTORE DUP6 PUSH1 0x0 MSTORE PUSH1 0x9 DUP8 MSTORE PUSH1 0x40 PUSH1 0x0 KECCAK256 SWAP5 DUP7 DUP7 SSTORE DUP2 DUP7 ADD CALLER PUSH1 0x1 PUSH1 0x1 PUSH1 0x60 SHL SUB PUSH1 0xA0 SHL DUP3 SLOAD AND OR SWAP1 SSTORE PUSH1 0x2 DUP7 ADD SWAP1 DUP1 MLOAD SWAP1 DUP6 DUP3 GT PUSH2 0xCAF JUMPI DUP2 SWAP1 PUSH2 0x112E DUP5 SLOAD PUSH2 0x1C03 JUMP JUMPDEST PUSH1 0x1F DUP2 GT PUSH2 0x134C JUMPI JUMPDEST POP DUP11 SWAP1 PUSH1 0x1F DUP4 GT PUSH1 0x1 EQ PUSH2 0x12EB JUMPI PUSH1 0x0 SWAP3 PUSH2 0x12E0 JUMPI JUMPDEST POP POP DUP5 DUP3 DUP6 SHL SWAP3 PUSH1 0x3 SHL SHR NOT AND OR SWAP1 SSTORE JUMPDEST PUSH1 0x3 DUP6 ADD SWAP4 DUP1 MLOAD SWAP4 DUP5 GT PUSH2 0xCAF JUMPI PUSH2 0x1176 DUP6 SLOAD PUSH2 0x1C03 JUMP JUMPDEST PUSH1 0x1F DUP2 GT PUSH2 0x1297 JUMPI JUMPDEST POP DUP8 SWAP1 PUSH1 0x1F DUP6 GT PUSH1 0x1 EQ PUSH2 0x1229 JUMPI SWAP3 DUP5 DUP1 SWAP4 PUSH1 0x0 SWAP9 SWAP7 SWAP4 PUSH1 0x9 SWAP9 SWAP7 DUP11 SWAP6 PUSH2 0x121E JUMPI JUMPDEST POP POP SHL SWAP3 PUSH1 0x3 SHL SHR NOT AND OR SWAP1 SSTORE JUMPDEST TIMESTAMP PUSH1 0x4 DUP3 ADD SSTORE PUSH2 0x11C1 PUSH1 0x6 SLOAD TIMESTAMP PUSH2 0x1EA6 JUMP JUMPDEST PUSH1 0x5 DUP3 ADD SSTORE PUSH1 0x8 DUP2 ADD PUSH2 0xFF01 PUSH1 0x1 PUSH1 0xB8 SHL SUB NOT DUP2 SLOAD AND SWAP1 SSTORE ADD SSTORE PUSH1 0x40 MLOAD PUSH1 0x0 DUP2 MSTORE PUSH1 0x0 DUP4 DUP3 ADD MSTORE PUSH1 0x0 PUSH1 0x40 DUP3 ADD MSTORE DUP2 PUSH32 0xB956772E7B554D19BB961F4303B6C0C5CD7592C0C06FD08F15A56A0F304E6C0D PUSH1 0x60 CALLER SWAP4 LOG3 PUSH1 0x40 MLOAD SWAP1 DUP2 MSTORE RETURN JUMPDEST ADD MLOAD SWAP4 POP CODESIZE DUP1 PUSH2 0x11A1 JUMP JUMPDEST SWAP2 SWAP4 SWAP3 SWAP1 PUSH1 0x1F NOT DUP5 AND SWAP3 DUP7 PUSH1 0x0 MSTORE DUP10 PUSH1 0x0 KECCAK256 SWAP4 PUSH1 0x0 JUMPDEST DUP12 DUP3 DUP3 LT PUSH2 0x1283 JUMPI POP POP SWAP2 DUP6 SWAP4 SWAP2 PUSH1 0x9 SWAP9 SWAP7 PUSH1 0x0 SWAP11 SWAP9 SWAP7 SWAP5 LT PUSH2 0x126B JUMPI JUMPDEST POP POP POP POP DUP2 SHL ADD SWAP1 SSTORE PUSH2 0x11AF JUMP JUMPDEST ADD MLOAD SWAP1 PUSH1 0xF8 DUP5 PUSH1 0x3 SHL AND SHR NOT AND SWAP1 SSTORE CODESIZE DUP1 DUP1 DUP1 PUSH2 0x125D JUMP JUMPDEST DUP4 DUP6 ADD MLOAD DUP8 SSTORE SWAP6 DUP9 ADD SWAP6 SWAP4 DUP5 ADD SWAP4 ADD PUSH2 0x123F JUMP JUMPDEST DUP6 PUSH1 0x0 MSTORE DUP9 PUSH1 0x0 KECCAK256 PUSH1 0x1F DUP7 ADD PUSH1 0x5 SHR DUP2 ADD SWAP2 DUP11 DUP8 LT PUSH2 0x12D6 JUMPI JUMPDEST PUSH1 0x1F ADD PUSH1 0x5 SHR ADD SWAP1 DUP4 SWAP1 JUMPDEST DUP3 DUP2 LT PUSH2 0x12CA JUMPI POP POP PUSH2 0x117F JUMP JUMPDEST PUSH1 0x0 DUP2 SSTORE ADD DUP4 SWAP1 PUSH2 0x12BC JUMP JUMPDEST SWAP1 SWAP2 POP DUP2 SWAP1 PUSH2 0x12B1 JUMP JUMPDEST ADD MLOAD SWAP1 POP CODESIZE DUP1 PUSH2 0x114D JUMP JUMPDEST PUSH1 0x0 DUP6 DUP2 MSTORE DUP13 DUP2 KECCAK256 DUP8 SWAP6 POP SWAP3 SWAP2 SWAP1 PUSH1 0x1F NOT DUP6 AND SWAP1 DUP15 JUMPDEST DUP3 DUP3 LT PUSH2 0x1335 JUMPI POP POP DUP5 GT PUSH2 0x131E JUMPI JUMPDEST POP POP POP DUP2 SHL ADD SWAP1 SSTORE PUSH2 0x115E JUMP JUMPDEST ADD MLOAD DUP7 PUSH1 0xF8 DUP5 PUSH1 0x3 SHL AND SHR NOT AND SWAP1 SSTORE CODESIZE DUP1 DUP1 PUSH2 0x1311 JUMP JUMPDEST DUP4 DUP6 ADD MLOAD DUP7 SSTORE DUP10 SWAP8 SWAP1 SWAP6 ADD SWAP5 SWAP4 DUP5 ADD SWAP4 ADD DUP15 PUSH2 0x1301 JUMP JUMPDEST SWAP1 SWAP2 POP DUP4 PUSH1 0x0 MSTORE DUP11 PUSH1 0x0 KECCAK256 PUSH1 0x1F DUP5 ADD PUSH1 0x5 SHR DUP2 ADD SWAP2 DUP13 DUP6 LT PUSH2 0x1395 JUMPI JUMPDEST DUP5 SWAP4 SWAP3 SWAP2 PUSH1 0x1F DUP9 SWAP3 ADD PUSH1 0x5 SHR ADD SWAP2 JUMPDEST DUP3 DUP2 LT PUSH2 0x1386 JUMPI POP POP PUSH2 0x1137 JUMP JUMPDEST PUSH1 0x0 DUP2 SSTORE DUP6 SWAP5 POP DUP8 SWAP2 ADD PUSH2 0x1378 JUMP JUMPDEST SWAP1 SWAP2 POP DUP2 SWAP1 PUSH2 0x1369 JUMP JUMPDEST POP CALLVALUE PUSH2 0x1E7 JUMPI DUP1 PUSH1 0x3 NOT CALLDATASIZE ADD SLT PUSH2 0x1E7 JUMPI PUSH1 0x20 PUSH1 0xFF PUSH1 0x1 SLOAD PUSH1 0xA0 SHR AND PUSH1 0x40 MLOAD SWAP1 ISZERO ISZERO DUP2 MSTORE RETURN JUMPDEST POP CALLVALUE PUSH2 0x1E7 JUMPI PUSH1 0x20 CALLDATASIZE PUSH1 0x3 NOT ADD SLT PUSH2 0x1E7 JUMPI PUSH1 0x4 CALLDATALOAD DUP1 DUP3 MSTORE PUSH1 0x9 PUSH1 0x20 MSTORE PUSH1 0x40 DUP3 KECCAK256 PUSH1 0x1 DUP2 ADD SLOAD PUSH1 0x1 PUSH1 0x1 PUSH1 0xA0 SHL SUB AND ISZERO PUSH2 0x70C JUMPI PUSH1 0x8 DUP2 ADD SWAP1 DUP2 SLOAD SWAP1 PUSH1 0xFF DUP3 AND PUSH1 0x3 DUP2 LT ISZERO PUSH2 0x1483 JUMPI PUSH2 0x6E6 JUMPI PUSH1 0x5 DUP2 ADD SLOAD TIMESTAMP LT PUSH2 0x6E6 JUMPI PUSH32 0x34A42C4CE0A88D16AD098DE6406057747139A2A3DD8DD8616EE7BBABCECB768E SWAP3 PUSH1 0x20 SWAP3 DUP3 PUSH1 0x7 PUSH1 0x6 PUSH1 0xFF SWAP6 ADD SLOAD SWAP2 ADD SLOAD LT PUSH1 0x0 EQ PUSH2 0x1476 JUMPI POP PUSH1 0x1 DUP3 NOT DUP3 SLOAD AND OR DUP2 SSTORE JUMPDEST SLOAD AND PUSH2 0x1472 PUSH1 0x40 MLOAD DUP1 SWAP3 PUSH2 0x1D62 JUMP JUMPDEST LOG2 DUP1 RETURN JUMPDEST DUP3 NOT AND PUSH1 0x2 OR DUP2 SSTORE PUSH2 0x1463 JUMP JUMPDEST PUSH4 0x4E487B71 PUSH1 0xE0 SHL DUP7 MSTORE PUSH1 0x21 PUSH1 0x4 MSTORE PUSH1 0x24 DUP7 REVERT JUMPDEST POP CALLVALUE PUSH2 0x1E7 JUMPI PUSH1 0x20 DUP1 PUSH1 0x3 NOT CALLDATASIZE ADD SLT PUSH2 0x3F2 JUMPI PUSH1 0x4 CALLDATALOAD SWAP1 PUSH1 0x1 SLOAD SWAP1 PUSH1 0xFF DUP3 PUSH1 0xA0 SHR AND PUSH2 0x3E0 JUMPI PUSH1 0x1 PUSH1 0x1 PUSH1 0xA0 SHL SUB SWAP2 DUP3 AND ISZERO PUSH2 0x3CE JUMPI CALLER DUP5 MSTORE PUSH1 0xB DUP2 MSTORE PUSH1 0x40 DUP5 KECCAK256 DUP4 ISZERO DUP1 ISZERO PUSH2 0x159D JUMPI JUMPDEST PUSH2 0x6C2 JUMPI PUSH2 0x14F6 PUSH1 0x1 DUP3 ADD SLOAD PUSH1 0x5 SLOAD SWAP1 PUSH2 0x1EA6 JUMP JUMPDEST TIMESTAMP LT PUSH2 0x158C JUMPI PUSH2 0x1507 DUP5 DUP3 SLOAD PUSH2 0x1EB3 JUMP JUMPDEST SWAP1 SSTORE PUSH1 0x40 MLOAD PUSH4 0xA9059CBB PUSH1 0xE0 SHL DUP2 MSTORE CALLER PUSH1 0x4 DUP3 ADD MSTORE PUSH1 0x24 DUP2 ADD DUP5 SWAP1 MSTORE SWAP2 DUP2 SWAP1 DUP4 SWAP1 PUSH1 0x44 SWAP1 DUP3 SWAP1 DUP9 SWAP1 PUSH32 0x0 AND GAS CALL SWAP2 DUP3 ISZERO PUSH2 0x3B1 JUMPI PUSH32 0xB80625E1A6DFA23FBD22202898020767AAED44C2671F32CDB3473366B907321C SWAP3 PUSH2 0x378 SWAP2 DUP7 SWAP2 PUSH2 0x384 JUMPI POP PUSH2 0x1E62 JUMP JUMPDEST PUSH1 0x40 MLOAD PUSH3 0x149309 PUSH1 0xE0 SHL DUP2 MSTORE PUSH1 0x4 SWAP1 REVERT JUMPDEST POP DUP1 SLOAD DUP5 GT PUSH2 0x14E1 JUMP JUMPDEST POP CALLVALUE PUSH2 0x1E7 JUMPI PUSH1 0x40 CALLDATASIZE PUSH1 0x3 NOT ADD SLT PUSH2 0x1E7 JUMPI PUSH1 0x24 CALLDATALOAD PUSH1 0x1 PUSH1 0x1 PUSH1 0xA0 SHL SUB DUP2 AND SWAP2 SWAP1 DUP3 SWAP1 SUB PUSH2 0xDC2 JUMPI PUSH1 0x40 SWAP1 PUSH1 0x4 CALLDATALOAD DUP2 MSTORE PUSH1 0xA PUSH1 0x20 MSTORE KECCAK256 SWAP1 PUSH1 0x0 MSTORE PUSH1 0x20 MSTORE PUSH1 0x20 PUSH1 0xFF PUSH1 0x40 PUSH1 0x0 KECCAK256 SLOAD AND PUSH1 0x40 MLOAD SWAP1 ISZERO ISZERO DUP2 MSTORE RETURN JUMPDEST POP CALLVALUE PUSH2 0x1E7 JUMPI PUSH1 0x20 CALLDATASIZE PUSH1 0x3 NOT ADD SLT PUSH2 0x1E7 JUMPI PUSH2 0x1613 PUSH2 0x1D85 JUMP JUMPDEST PUSH2 0x161B PUSH2 0x1DFE JUMP JUMPDEST PUSH1 0x1 PUSH1 0x1 PUSH1 0xA0 SHL SUB AND DUP1 ISZERO PUSH2 0x3BC JUMPI PUSH1 0x1 DUP1 SLOAD PUSH1 0x1 PUSH1 0x1 PUSH1 0xA0 SHL SUB NOT AND DUP3 OR SWAP1 SSTORE PUSH32 0x46304C2BDADB06C16E46B6DC771E062E19A4150C21AA984FA49930BCA03267CF DUP3 DUP1 LOG2 DUP1 RETURN JUMPDEST POP CALLVALUE PUSH2 0x1E7 JUMPI DUP1 PUSH1 0x3 NOT CALLDATASIZE ADD SLT PUSH2 0x1E7 JUMPI PUSH1 0x20 PUSH1 0x6 SLOAD PUSH1 0x40 MLOAD SWAP1 DUP2 MSTORE RETURN JUMPDEST POP CALLVALUE PUSH2 0x1E7 JUMPI PUSH1 0xC0 CALLDATASIZE PUSH1 0x3 NOT ADD SLT PUSH2 0x1E7 JUMPI PUSH1 0x44 CALLDATALOAD PUSH1 0x24 CALLDATALOAD PUSH1 0x4 CALLDATALOAD PUSH1 0xA4 CALLDATALOAD PUSH1 0x84 CALLDATALOAD PUSH1 0x64 CALLDATALOAD PUSH2 0x16AD PUSH2 0x1DFE JUMP JUMPDEST DUP4 ISZERO DUP1 ISZERO PUSH2 0x1747 JUMPI JUMPDEST DUP1 ISZERO PUSH2 0x173F JUMPI JUMPDEST DUP1 ISZERO PUSH2 0x1737 JUMPI JUMPDEST DUP1 ISZERO PUSH2 0x172F JUMPI JUMPDEST PUSH2 0x3BC JUMPI PUSH32 0xB4E1FBEB0FFBFE92679BDF67BEBEDA0B781E7A37849484C69D99695F31E4B029 SWAP6 PUSH1 0xC0 SWAP6 DUP6 PUSH1 0x2 SSTORE DUP1 PUSH1 0x3 SSTORE DUP2 PUSH1 0x4 SSTORE DUP3 PUSH1 0x5 SSTORE DUP4 PUSH1 0x6 SSTORE DUP5 PUSH1 0x7 SSTORE PUSH1 0x40 MLOAD SWAP6 DUP7 MSTORE PUSH1 0x20 DUP7 ADD MSTORE PUSH1 0x40 DUP6 ADD MSTORE PUSH1 0x60 DUP5 ADD MSTORE PUSH1 0x80 DUP4 ADD MSTORE PUSH1 0xA0 DUP3 ADD MSTORE LOG1 DUP1 RETURN JUMPDEST POP DUP3 ISZERO PUSH2 0x16CB JUMP JUMPDEST POP DUP2 ISZERO PUSH2 0x16C4 JUMP JUMPDEST POP DUP6 ISZERO PUSH2 0x16BD JUMP JUMPDEST POP DUP5 ISZERO PUSH2 0x16B6 JUMP JUMPDEST POP CALLVALUE PUSH2 0x1E7 JUMPI PUSH1 0x40 CALLDATASIZE PUSH1 0x3 NOT ADD SLT PUSH2 0x1E7 JUMPI PUSH2 0x1769 PUSH2 0x1D85 JUMP JUMPDEST PUSH1 0x24 CALLDATALOAD PUSH2 0x1774 PUSH2 0x1DFE JUMP JUMPDEST PUSH1 0x1 PUSH1 0x1 PUSH1 0xA0 SHL SUB SWAP1 DUP3 DUP3 AND ISZERO DUP1 ISZERO PUSH2 0x182E JUMPI JUMPDEST PUSH2 0x3BC JUMPI DUP4 SWAP2 PUSH32 0x0 AND DUP1 EXTCODESIZE ISZERO PUSH2 0x182A JUMPI PUSH1 0x40 MLOAD PUSH4 0x40C10F19 PUSH1 0xE0 SHL DUP2 MSTORE PUSH1 0x1 PUSH1 0x1 PUSH1 0xA0 SHL SUB SWAP5 SWAP1 SWAP5 AND PUSH1 0x4 DUP6 ADD MSTORE PUSH1 0x24 DUP5 ADD SWAP2 SWAP1 SWAP2 MSTORE DUP3 SWAP1 PUSH1 0x44 SWAP1 DUP3 SWAP1 DUP5 SWAP1 GAS CALL DUP1 ISZERO PUSH2 0x181F JUMPI PUSH2 0x17F6 JUMPI POP DUP1 RETURN JUMPDEST PUSH8 0xFFFFFFFFFFFFFFFF DUP2 GT PUSH2 0x180B JUMPI PUSH1 0x40 MSTORE DUP1 RETURN JUMPDEST PUSH4 0x4E487B71 PUSH1 0xE0 SHL DUP3 MSTORE PUSH1 0x41 PUSH1 0x4 MSTORE PUSH1 0x24 DUP3 REVERT JUMPDEST PUSH1 0x40 MLOAD RETURNDATASIZE DUP5 DUP3 RETURNDATACOPY RETURNDATASIZE SWAP1 REVERT JUMPDEST DUP3 DUP1 REVERT JUMPDEST POP DUP1 ISZERO PUSH2 0x1788 JUMP JUMPDEST POP CALLVALUE PUSH2 0x1E7 JUMPI DUP1 PUSH1 0x3 NOT CALLDATASIZE ADD SLT PUSH2 0x1E7 JUMPI PUSH1 0x20 PUSH1 0x4 SLOAD PUSH1 0x40 MLOAD SWAP1 DUP2 MSTORE RETURN JUMPDEST POP CALLVALUE PUSH2 0x1E7 JUMPI PUSH1 0x20 CALLDATASIZE PUSH1 0x3 NOT ADD SLT PUSH2 0x1E7 JUMPI PUSH1 0x40 SWAP1 DUP2 SWAP1 PUSH1 0x1 PUSH1 0x1 PUSH1 0xA0 SHL SUB PUSH2 0x187B PUSH2 0x1D85 JUMP JUMPDEST AND DUP2 MSTORE PUSH1 0xC PUSH1 0x20 MSTORE KECCAK256 PUSH1 0x1 DUP2 SLOAD SWAP2 ADD SLOAD DUP3 MLOAD SWAP2 DUP3 MSTORE PUSH1 0x20 DUP3 ADD MSTORE RETURN JUMPDEST POP CALLVALUE PUSH2 0x1E7 JUMPI PUSH1 0x20 DUP1 PUSH1 0x3 NOT CALLDATASIZE ADD SLT PUSH2 0x3F2 JUMPI PUSH1 0x4 CALLDATALOAD SWAP1 PUSH1 0x1 SLOAD SWAP1 PUSH1 0xFF DUP3 PUSH1 0xA0 SHR AND PUSH2 0x3E0 JUMPI PUSH1 0x1 PUSH1 0x1 PUSH1 0xA0 SHL SUB SWAP2 DUP3 AND ISZERO PUSH2 0x3CE JUMPI CALLER DUP5 MSTORE PUSH1 0xC DUP2 MSTORE PUSH1 0x40 DUP5 KECCAK256 DUP4 ISZERO DUP1 ISZERO PUSH2 0x198C JUMPI JUMPDEST PUSH2 0x6C2 JUMPI PUSH2 0x18F6 PUSH1 0x1 DUP3 ADD SLOAD PUSH1 0x5 SLOAD SWAP1 PUSH2 0x1EA6 JUMP JUMPDEST TIMESTAMP LT PUSH2 0x158C JUMPI PUSH2 0x1907 DUP5 DUP3 SLOAD PUSH2 0x1EB3 JUMP JUMPDEST SWAP1 SSTORE PUSH1 0x40 MLOAD PUSH4 0xA9059CBB PUSH1 0xE0 SHL DUP2 MSTORE CALLER PUSH1 0x4 DUP3 ADD MSTORE PUSH1 0x24 DUP2 ADD DUP5 SWAP1 MSTORE SWAP2 DUP2 SWAP1 DUP4 SWAP1 PUSH1 0x44 SWAP1 DUP3 SWAP1 DUP9 SWAP1 PUSH32 0x0 AND GAS CALL SWAP2 DUP3 ISZERO PUSH2 0x3B1 JUMPI PUSH32 0xB09985BF5DF21E3DEE7A7E607CDCFF3C444BB813524E2BAD65F649B400056B0A SWAP3 PUSH2 0x378 SWAP2 DUP7 SWAP2 PUSH2 0x384 JUMPI POP PUSH2 0x1E62 JUMP JUMPDEST POP DUP1 SLOAD DUP5 GT PUSH2 0x18E1 JUMP JUMPDEST POP CALLVALUE PUSH2 0x1E7 JUMPI DUP1 PUSH1 0x3 NOT CALLDATASIZE ADD SLT PUSH2 0x1E7 JUMPI PUSH1 0x20 PUSH1 0x2 SLOAD PUSH1 0x40 MLOAD SWAP1 DUP2 MSTORE RETURN JUMPDEST POP CALLVALUE PUSH2 0x1E7 JUMPI PUSH1 0x20 CALLDATASIZE PUSH1 0x3 NOT ADD SLT PUSH2 0x1E7 JUMPI PUSH1 0x4 CALLDATALOAD DUP2 MSTORE PUSH1 0x9 PUSH1 0x20 MSTORE PUSH1 0x40 SWAP1 KECCAK256 DUP1 SLOAD PUSH1 0x1 DUP3 ADD SLOAD PUSH1 0x1 PUSH1 0x1 PUSH1 0xA0 SHL SUB SWAP1 DUP2 AND SWAP3 SWAP1 PUSH2 0x19F4 PUSH1 0x2 DUP4 ADD PUSH2 0x1C7C JUMP JUMPDEST SWAP1 PUSH2 0x1A01 PUSH1 0x3 DUP5 ADD PUSH2 0x1C7C JUMP JUMPDEST SWAP3 PUSH1 0x4 DUP2 ADD SLOAD SWAP4 PUSH1 0x5 DUP3 ADD SLOAD PUSH1 0x6 DUP4 ADD SLOAD SWAP1 PUSH2 0x1A58 PUSH1 0x7 DUP6 ADD SLOAD SWAP4 PUSH2 0x1A4A PUSH1 0x9 PUSH1 0x8 DUP9 ADD SLOAD SWAP8 ADD SLOAD SWAP9 PUSH1 0x40 MLOAD SWAP13 DUP14 SWAP13 DUP14 MSTORE PUSH1 0x20 DUP14 ADD MSTORE PUSH1 0x40 DUP13 PUSH2 0x1A0 SWAP2 DUP3 SWAP2 ADD MSTORE DUP13 ADD SWAP1 PUSH2 0x1D22 JUMP JUMPDEST SWAP1 DUP11 DUP3 SUB PUSH1 0x60 DUP13 ADD MSTORE PUSH2 0x1D22 JUMP JUMPDEST SWAP7 PUSH1 0x80 DUP10 ADD MSTORE PUSH1 0xA0 DUP9 ADD MSTORE PUSH1 0xC0 DUP8 ADD MSTORE PUSH1 0xE0 DUP7 ADD MSTORE PUSH2 0x1A7E PUSH2 0x100 DUP7 ADD PUSH1 0xFF DUP4 AND PUSH2 0x1D62 JUMP JUMPDEST PUSH1 0xFF DUP2 PUSH1 0x8 SHR AND ISZERO ISZERO PUSH2 0x120 DUP7 ADD MSTORE PUSH1 0xFF DUP2 PUSH1 0x10 SHR AND ISZERO ISZERO PUSH2 0x140 DUP7 ADD MSTORE PUSH1 0x18 SHR AND PUSH2 0x160 DUP5 ADD MSTORE PUSH2 0x180 DUP4 ADD MSTORE SUB SWAP1 RETURN JUMPDEST SWAP1 POP CALLVALUE PUSH2 0x3F2 JUMPI PUSH1 0x20 CALLDATASIZE PUSH1 0x3 NOT ADD SLT PUSH2 0x3F2 JUMPI PUSH1 0x4 CALLDATALOAD DUP1 DUP4 MSTORE PUSH1 0x9 PUSH1 0x20 MSTORE PUSH1 0x40 DUP4 KECCAK256 PUSH1 0x8 DUP2 ADD DUP1 SLOAD SWAP4 PUSH1 0xFF DUP6 PUSH1 0x10 SHR AND ISZERO PUSH2 0x1BF4 JUMPI POP PUSH1 0xFF DUP5 AND PUSH1 0x3 DUP2 LT ISZERO PUSH2 0x1483 JUMPI PUSH1 0x1 EQ DUP1 ISZERO SWAP1 PUSH2 0x1BE7 JUMPI JUMPDEST PUSH2 0x1BD5 JUMPI PUSH1 0x9 SELFBALANCE SWAP3 ADD SWAP4 DUP5 SLOAD DUP1 SWAP4 LT PUSH2 0xDA6 JUMPI PUSH2 0xFF00 NOT AND PUSH2 0x100 OR DUP1 DUP3 SSTORE PUSH1 0x1 PUSH1 0x1 PUSH1 0xA0 SHL SUB SWAP3 DUP7 SWAP2 DUP3 SWAP2 DUP3 SWAP2 DUP3 SWAP2 SWAP1 PUSH1 0x18 SHR DUP8 AND GAS CALL RETURNDATASIZE ISZERO PUSH2 0x1BD0 JUMPI RETURNDATASIZE PUSH2 0x1B46 DUP2 PUSH2 0x1D9B JUMP JUMPDEST SWAP1 PUSH2 0x1B54 PUSH1 0x40 MLOAD SWAP3 DUP4 PUSH2 0x1C5A JUMP JUMPDEST DUP2 MSTORE DUP7 PUSH1 0x20 RETURNDATASIZE SWAP3 ADD RETURNDATACOPY JUMPDEST ISZERO PUSH2 0x1B99 JUMPI PUSH32 0xBB768AA97FA4E8A8F73BFA7BC210F1A29F29C765D44F0C29ACC04A549E32E43 SWAP2 PUSH1 0x20 SWAP2 SLOAD PUSH1 0x18 SHR AND SWAP4 SLOAD PUSH1 0x40 MLOAD SWAP1 DUP2 MSTORE LOG3 DUP1 RETURN JUMPDEST PUSH1 0x40 MLOAD PUSH3 0x461BCD PUSH1 0xE5 SHL DUP2 MSTORE PUSH1 0x20 PUSH1 0x4 DUP3 ADD MSTORE PUSH1 0xF PUSH1 0x24 DUP3 ADD MSTORE PUSH15 0x151C985B9CD9995C8819985A5B1959 PUSH1 0x8A SHL PUSH1 0x44 DUP3 ADD MSTORE PUSH1 0x64 SWAP1 REVERT JUMPDEST PUSH2 0x1B5E JUMP JUMPDEST PUSH1 0x40 MLOAD PUSH4 0x3C7E9945 PUSH1 0xE1 SHL DUP2 MSTORE PUSH1 0x4 SWAP1 REVERT JUMPDEST POP PUSH1 0xFF DUP5 PUSH1 0x8 SHR AND PUSH2 0x1AFE JUMP JUMPDEST PUSH4 0x1713DA9D PUSH1 0xE1 SHL DUP2 MSTORE PUSH1 0x4 SWAP1 REVERT JUMPDEST SWAP1 PUSH1 0x1 DUP3 DUP2 SHR SWAP3 AND DUP1 ISZERO PUSH2 0x1C33 JUMPI JUMPDEST PUSH1 0x20 DUP4 LT EQ PUSH2 0x1C1D JUMPI JUMP JUMPDEST PUSH4 0x4E487B71 PUSH1 0xE0 SHL PUSH1 0x0 MSTORE PUSH1 0x22 PUSH1 0x4 MSTORE PUSH1 0x24 PUSH1 0x0 REVERT JUMPDEST SWAP2 PUSH1 0x7F AND SWAP2 PUSH2 0x1C12 JUMP JUMPDEST PUSH2 0x1A0 DUP2 ADD SWAP1 DUP2 LT PUSH8 0xFFFFFFFFFFFFFFFF DUP3 GT OR PUSH2 0xCAF JUMPI PUSH1 0x40 MSTORE JUMP JUMPDEST SWAP1 PUSH1 0x1F DUP1 NOT SWAP2 ADD AND DUP2 ADD SWAP1 DUP2 LT PUSH8 0xFFFFFFFFFFFFFFFF DUP3 GT OR PUSH2 0xCAF JUMPI PUSH1 0x40 MSTORE JUMP JUMPDEST SWAP1 PUSH1 0x40 MLOAD SWAP2 DUP3 PUSH1 0x0 DUP3 SLOAD SWAP3 PUSH2 0x1C90 DUP5 PUSH2 0x1C03 JUMP JUMPDEST SWAP1 DUP2 DUP5 MSTORE PUSH1 0x1 SWAP5 DUP6 DUP2 AND SWAP1 DUP2 PUSH1 0x0 EQ PUSH2 0x1CFF JUMPI POP PUSH1 0x1 EQ PUSH2 0x1CBC JUMPI JUMPDEST POP POP PUSH2 0x1CBA SWAP3 POP SUB DUP4 PUSH2 0x1C5A JUMP JUMPDEST JUMP JUMPDEST SWAP1 SWAP4 SWAP2 POP PUSH1 0x0 MSTORE PUSH1 0x20 SWAP1 DUP2 PUSH1 0x0 KECCAK256 SWAP4 PUSH1 0x0 SWAP2 JUMPDEST DUP2 DUP4 LT PUSH2 0x1CE7 JUMPI POP POP PUSH2 0x1CBA SWAP4 POP DUP3 ADD ADD CODESIZE DUP1 PUSH2 0x1CAC JUMP JUMPDEST DUP6 SLOAD DUP9 DUP5 ADD DUP6 ADD MSTORE SWAP5 DUP6 ADD SWAP5 DUP8 SWAP5 POP SWAP2 DUP4 ADD SWAP2 PUSH2 0x1CCF JUMP JUMPDEST SWAP2 POP POP PUSH2 0x1CBA SWAP5 POP PUSH1 0x20 SWAP3 POP PUSH1 0xFF NOT AND DUP3 DUP5 ADD MSTORE ISZERO ISZERO PUSH1 0x5 SHL DUP3 ADD ADD CODESIZE DUP1 PUSH2 0x1CAC JUMP JUMPDEST SWAP2 SWAP1 DUP3 MLOAD SWAP3 DUP4 DUP3 MSTORE PUSH1 0x0 JUMPDEST DUP5 DUP2 LT PUSH2 0x1D4E JUMPI POP POP DUP3 PUSH1 0x0 PUSH1 0x20 DUP1 SWAP5 SWAP6 DUP5 ADD ADD MSTORE PUSH1 0x1F DUP1 NOT SWAP2 ADD AND ADD ADD SWAP1 JUMP JUMPDEST PUSH1 0x20 DUP2 DUP4 ADD DUP2 ADD MLOAD DUP5 DUP4 ADD DUP3 ADD MSTORE ADD PUSH2 0x1D2D JUMP JUMPDEST SWAP1 PUSH1 0x3 DUP3 LT ISZERO PUSH2 0x1D6F JUMPI MSTORE JUMP JUMPDEST PUSH4 0x4E487B71 PUSH1 0xE0 SHL PUSH1 0x0 MSTORE PUSH1 0x21 PUSH1 0x4 MSTORE PUSH1 0x24 PUSH1 0x0 REVERT JUMPDEST PUSH1 0x4 CALLDATALOAD SWAP1 PUSH1 0x1 PUSH1 0x1 PUSH1 0xA0 SHL SUB DUP3 AND DUP3 SUB PUSH2 0xDC2 JUMPI JUMP JUMPDEST PUSH8 0xFFFFFFFFFFFFFFFF DUP2 GT PUSH2 0xCAF JUMPI PUSH1 0x1F ADD PUSH1 0x1F NOT AND PUSH1 0x20 ADD SWAP1 JUMP JUMPDEST DUP2 PUSH1 0x1F DUP3 ADD SLT ISZERO PUSH2 0xDC2 JUMPI DUP1 CALLDATALOAD SWAP1 PUSH2 0x1DCE DUP3 PUSH2 0x1D9B JUMP JUMPDEST SWAP3 PUSH2 0x1DDC PUSH1 0x40 MLOAD SWAP5 DUP6 PUSH2 0x1C5A JUMP JUMPDEST DUP3 DUP5 MSTORE PUSH1 0x20 DUP4 DUP4 ADD ADD GT PUSH2 0xDC2 JUMPI DUP2 PUSH1 0x0 SWAP3 PUSH1 0x20 DUP1 SWAP4 ADD DUP4 DUP7 ADD CALLDATACOPY DUP4 ADD ADD MSTORE SWAP1 JUMP JUMPDEST PUSH1 0x0 SLOAD PUSH1 0x1 PUSH1 0x1 PUSH1 0xA0 SHL SUB AND CALLER SUB PUSH2 0x1E12 JUMPI JUMP JUMPDEST PUSH1 0x40 MLOAD PUSH4 0x118CDAA7 PUSH1 0xE0 SHL DUP2 MSTORE CALLER PUSH1 0x4 DUP3 ADD MSTORE PUSH1 0x24 SWAP1 REVERT JUMPDEST DUP2 ISZERO PUSH2 0x1E34 JUMPI DIV SWAP1 JUMP JUMPDEST PUSH4 0x4E487B71 PUSH1 0xE0 SHL PUSH1 0x0 MSTORE PUSH1 0x12 PUSH1 0x4 MSTORE PUSH1 0x24 PUSH1 0x0 REVERT JUMPDEST SWAP1 DUP2 PUSH1 0x20 SWAP2 SUB SLT PUSH2 0xDC2 JUMPI MLOAD DUP1 ISZERO ISZERO DUP2 SUB PUSH2 0xDC2 JUMPI SWAP1 JUMP JUMPDEST ISZERO PUSH2 0x1E69 JUMPI JUMP JUMPDEST PUSH1 0x40 MLOAD PUSH3 0x461BCD PUSH1 0xE5 SHL DUP2 MSTORE PUSH1 0x20 PUSH1 0x4 DUP3 ADD MSTORE PUSH1 0x15 PUSH1 0x24 DUP3 ADD MSTORE PUSH21 0x151BDAD95B881D1C985B9CD9995C8819985A5B1959 PUSH1 0x5A SHL PUSH1 0x44 DUP3 ADD MSTORE PUSH1 0x64 SWAP1 REVERT JUMPDEST SWAP2 SWAP1 DUP3 ADD DUP1 SWAP3 GT PUSH2 0xD90 JUMPI JUMP JUMPDEST SWAP2 SWAP1 DUP3 SUB SWAP2 DUP3 GT PUSH2 0xD90 JUMPI JUMP JUMPDEST PUSH1 0x1 PUSH1 0x1 PUSH1 0xA0 SHL SUB AND PUSH1 0x0 SWAP1 DUP2 MSTORE PUSH1 0xB PUSH1 0x20 MSTORE PUSH1 0x40 SWAP1 KECCAK256 SLOAD PUSH1 0x7 SLOAD PUSH2 0x1EE4 SWAP2 PUSH2 0x1E2A JUMP JUMPDEST SWAP1 JUMP INVALID LOG2 PUSH5 0x6970667358 0x22 SLT KECCAK256 SHL BLOCKHASH CHAINID 0x4B 0xDB 0xE8 0xCD ADD BALANCE PUSH12 0xC78DAF63B05F92F55F84B870 GAS 0xE5 0xD 0xB5 0xB1 AND 0xBF 0xCB JUMPI 0xBD PUSH5 0x736F6C6343 STOP ADDMOD EQ STOP CALLER "},"methodIdentifiers":{"buyTokens()":"d0febe4c","createProposal(string,string)":"65e481e2","createTreasuryProposal(string,string,address,uint256)":"a73079ac","executeTreasuryProposal(uint256)":"007e637e","finalizeProposal(uint256)":"5652077c","getProposal(uint256)":"c7f758a8","getProposalsCount()":"98e527d3","hasVoted(uint256,address)":"43859632","minStakeForProposing()":"0d346e9a","minStakeForVoting()":"c2d66776","minStakeLockTime()":"d064a9a4","mintDaoTokens(address,uint256)":"16384686","nextProposalId()":"2ab09d14","owner()":"8da5cb5b","panicWallet()":"ad3bcade","panico()":"81e6830f","paused()":"5c975abb","proposalDuration()":"30109962","proposals(uint256)":"013cf08b","proposingStake(address)":"0a5af04b","renounceOwnership()":"715018a6","setPanicWallet(address)":"4091e8f0","setParameters(uint256,uint256,uint256,uint256,uint256,uint256)":"282c8749","stakeForProposing(uint256)":"a028699e","stakeForVoting(uint256)":"d1b85b49","token()":"fc0c546a","tokenPriceWei()":"05d0f15b","tokensPerVotePower()":"f96df52a","tranquilidad()":"97761382","transferOwnership(address)":"f2fde38b","unstakeFromProposing(uint256)":"0627d425","unstakeFromVoting(uint256)":"542ffa7b","vote(uint256,bool)":"c9d27afe","votingPower(address)":"c07473f6","votingStake(address)":"9f45b133"}}}}}