{"src/contracts/GovernanceDAO.sol":{"GovernanceDAO":{"abi":[{"inputs":[{"internalType":"address","name":"initialOwner","type":"address"},{"internalType":"address","name":"tokenAddress","type":"address"},{"internalType":"uint256","name":"_tokenPriceWei","type":"uint256"},{"internalType":"uint256","name":"_minStakeForVoting","type":"uint256"},{"internalType":"uint256","name":"_minStakeForProposing","type":"uint256"},{"internalType":"uint256","name":"_minStakeLockTime","type":"uint256"},{"internalType":"uint256","name":"_proposalDuration","type":"uint256"},{"internalType":"uint256","name":"_tokensPerVotePower","type":"uint256"}],"stateMutability":"nonpayable","type":"constructor"},{"inputs":[],"name":"AlreadyVoted","type":"error"},{"inputs":[],"name":"DAOIsPaused","type":"error"},{"inputs":[],"name":"InsufficientStake","type":"error"},{"inputs":[],"name":"InvalidParameter","type":"error"},{"inputs":[],"name":"InvalidProposal","type":"error"},{"inputs":[],"name":"InvalidTreasuryProposal","type":"error"},{"inputs":[],"name":"LockTimeNotReached","type":"error"},{"inputs":[],"name":"NotPanicWallet","type":"error"},{"inputs":[{"internalType":"address","name":"owner","type":"address"}],"name":"OwnableInvalidOwner","type":"error"},{"inputs":[{"internalType":"address","name":"account","type":"address"}],"name":"OwnableUnauthorizedAccount","type":"error"},{"inputs":[],"name":"PanicWalletNotSet","type":"error"},{"inputs":[],"name":"ProposalNotExecutable","type":"error"},{"inputs":[],"name":"VotingNotAllowed","type":"error"},{"anonymous":false,"inputs":[{"indexed":true,"internalType":"address","name":"caller","type":"address"}],"name":"CalmActivated","type":"event"},{"anonymous":false,"inputs":[{"indexed":true,"internalType":"address","name":"previousOwner","type":"address"},{"indexed":true,"internalType":"address","name":"newOwner","type":"address"}],"name":"OwnershipTransferred","type":"event"},{"anonymous":false,"inputs":[{"indexed":true,"internalType":"address","name":"caller","type":"address"}],"name":"PanicActivated","type":"event"},{"anonymous":false,"inputs":[{"indexed":true,"internalType":"address","name":"newPanicWallet","type":"address"}],"name":"PanicWalletUpdated","type":"event"},{"anonymous":false,"inputs":[{"indexed":false,"internalType":"uint256","name":"tokenPriceWei","type":"uint256"},{"indexed":false,"internalType":"uint256","name":"minStakeForVoting","type":"uint256"},{"indexed":false,"internalType":"uint256","name":"minStakeForProposing","type":"uint256"},{"indexed":false,"internalType":"uint256","name":"minStakeLockTime","type":"uint256"},{"indexed":false,"internalType":"uint256","name":"proposalDuration","type":"uint256"},{"indexed":false,"internalType":"uint256","name":"tokensPerVotePower","type":"uint256"}],"name":"ParametersUpdated","type":"event"},{"anonymous":false,"inputs":[{"indexed":true,"internalType":"uint256","name":"id","type":"uint256"},{"indexed":true,"internalType":"address","name":"proposer","type":"address"},{"indexed":false,"internalType":"bool","name":"isTreasury","type":"bool"},{"indexed":false,"internalType":"address","name":"treasuryRecipient","type":"address"},{"indexed":false,"internalType":"uint256","name":"treasuryAmount","type":"uint256"}],"name":"ProposalCreated","type":"event"},{"anonymous":false,"inputs":[{"indexed":true,"internalType":"uint256","name":"proposalId","type":"uint256"},{"indexed":false,"internalType":"enum GovernanceBase.ProposalStatus","name":"status","type":"uint8"}],"name":"ProposalFinalized","type":"event"},{"anonymous":false,"inputs":[{"indexed":true,"internalType":"address","name":"user","type":"address"},{"indexed":false,"internalType":"uint256","name":"amount","type":"uint256"}],"name":"StakedForProposing","type":"event"},{"anonymous":false,"inputs":[{"indexed":true,"internalType":"address","name":"user","type":"address"},{"indexed":false,"internalType":"uint256","name":"amount","type":"uint256"}],"name":"StakedForVoting","type":"event"},{"anonymous":false,"inputs":[{"indexed":true,"internalType":"uint256","name":"proposalId","type":"uint256"},{"indexed":true,"internalType":"address","name":"recipient","type":"address"},{"indexed":false,"internalType":"uint256","name":"amount","type":"uint256"}],"name":"TreasuryProposalExecuted","type":"event"},{"anonymous":false,"inputs":[{"indexed":true,"internalType":"address","name":"user","type":"address"},{"indexed":false,"internalType":"uint256","name":"amount","type":"uint256"}],"name":"UnstakedFromProposing","type":"event"},{"anonymous":false,"inputs":[{"indexed":true,"internalType":"address","name":"user","type":"address"},{"indexed":false,"internalType":"uint256","name":"amount","type":"uint256"}],"name":"UnstakedFromVoting","type":"event"},{"anonymous":false,"inputs":[{"indexed":true,"internalType":"uint256","name":"proposalId","type":"uint256"},{"indexed":true,"internalType":"address","name":"voter","type":"address"},{"indexed":false,"internalType":"bool","name":"support","type":"bool"},{"indexed":false,"internalType":"uint256","name":"votePower","type":"uint256"}],"name":"VoteCast","type":"event"},{"stateMutability":"payable","type":"fallback"},{"inputs":[],"name":"buyTokens","outputs":[],"stateMutability":"payable","type":"function"},{"inputs":[{"internalType":"string","name":"title","type":"string"},{"internalType":"string","name":"description","type":"string"}],"name":"createProposal","outputs":[{"internalType":"uint256","name":"","type":"uint256"}],"stateMutability":"nonpayable","type":"function"},{"inputs":[{"internalType":"string","name":"title","type":"string"},{"internalType":"string","name":"description","type":"string"},{"internalType":"address","name":"recipient","type":"address"},{"internalType":"uint256","name":"amount","type":"uint256"}],"name":"createTreasuryProposal","outputs":[{"internalType":"uint256","name":"","type":"uint256"}],"stateMutability":"nonpayable","type":"function"},{"inputs":[{"internalType":"uint256","name":"proposalId","type":"uint256"}],"name":"executeTreasuryProposal","outputs":[],"stateMutability":"nonpayable","type":"function"},{"inputs":[{"internalType":"uint256","name":"proposalId","type":"uint256"}],"name":"finalizeProposal","outputs":[],"stateMutability":"nonpayable","type":"function"},{"inputs":[{"internalType":"uint256","name":"proposalId","type":"uint256"}],"name":"getProposal","outputs":[{"components":[{"internalType":"uint256","name":"id","type":"uint256"},{"internalType":"address","name":"proposer","type":"address"},{"internalType":"string","name":"title","type":"string"},{"internalType":"string","name":"description","type":"string"},{"internalType":"uint256","name":"startTime","type":"uint256"},{"internalType":"uint256","name":"endTime","type":"uint256"},{"internalType":"uint256","name":"forVotes","type":"uint256"},{"internalType":"uint256","name":"againstVotes","type":"uint256"},{"internalType":"enum GovernanceBase.ProposalStatus","name":"status","type":"uint8"},{"internalType":"bool","name":"executed","type":"bool"},{"internalType":"bool","name":"isTreasury","type":"bool"},{"internalType":"address","name":"treasuryRecipient","type":"address"},{"internalType":"uint256","name":"treasuryAmount","type":"uint256"}],"internalType":"struct GovernanceBase.Proposal","name":"","type":"tuple"}],"stateMutability":"view","type":"function"},{"inputs":[],"name":"getProposalsCount","outputs":[{"internalType":"uint256","name":"","type":"uint256"}],"stateMutability":"view","type":"function"},{"inputs":[{"internalType":"uint256","name":"proposalId","type":"uint256"},{"internalType":"address","name":"voter","type":"address"}],"name":"hasVoted","outputs":[{"internalType":"bool","name":"","type":"bool"}],"stateMutability":"view","type":"function"},{"inputs":[],"name":"minStakeForProposing","outputs":[{"internalType":"uint256","name":"","type":"uint256"}],"stateMutability":"view","type":"function"},{"inputs":[],"name":"minStakeForVoting","outputs":[{"internalType":"uint256","name":"","type":"uint256"}],"stateMutability":"view","type":"function"},{"inputs":[],"name":"minStakeLockTime","outputs":[{"internalType":"uint256","name":"","type":"uint256"}],"stateMutability":"view","type":"function"},{"inputs":[],"name":"nextProposalId","outputs":[{"internalType":"uint256","name":"","type":"uint256"}],"stateMutability":"view","type":"function"},{"inputs":[],"name":"owner","outputs":[{"internalType":"address","name":"","type":"address"}],"stateMutability":"view","type":"function"},{"inputs":[],"name":"panicWallet","outputs":[{"internalType":"address","name":"","type":"address"}],"stateMutability":"view","type":"function"},{"inputs":[],"name":"panico","outputs":[],"stateMutability":"nonpayable","type":"function"},{"inputs":[],"name":"paused","outputs":[{"internalType":"bool","name":"","type":"bool"}],"stateMutability":"view","type":"function"},{"inputs":[],"name":"proposalDuration","outputs":[{"internalType":"uint256","name":"","type":"uint256"}],"stateMutability":"view","type":"function"},{"inputs":[{"internalType":"uint256","name":"proposalId","type":"uint256"}],"name":"proposals","outputs":[{"internalType":"uint256","name":"id","type":"uint256"},{"internalType":"address","name":"proposer","type":"address"},{"internalType":"string","name":"title","type":"string"},{"internalType":"string","name":"description","type":"string"},{"internalType":"uint256","name":"startTime","type":"uint256"},{"internalType":"uint256","name":"endTime","type":"uint256"},{"internalType":"uint256","name":"forVotes","type":"uint256"},{"internalType":"uint256","name":"againstVotes","type":"uint256"},{"internalType":"enum GovernanceBase.ProposalStatus","name":"status","type":"uint8"},{"internalType":"bool","name":"executed","type":"bool"},{"internalType":"bool","name":"isTreasury","type":"bool"},{"internalType":"address","name":"treasuryRecipient","type":"address"},{"internalType":"uint256","name":"treasuryAmount","type":"uint256"}],"stateMutability":"view","type":"function"},{"inputs":[{"internalType":"address","name":"user","type":"address"}],"name":"proposingStake","outputs":[{"internalType":"uint256","name":"amount","type":"uint256"},{"internalType":"uint256","name":"since","type":"uint256"}],"stateMutability":"view","type":"function"},{"inputs":[],"name":"renounceOwnership","outputs":[],"stateMutability":"nonpayable","type":"function"},{"inputs":[{"internalType":"address","name":"newPanicWallet","type":"address"}],"name":"setPanicWallet","outputs":[],"stateMutability":"nonpayable","type":"function"},{"inputs":[{"internalType":"uint256","name":"_tokenPriceWei","type":"uint256"},{"internalType":"uint256","name":"_minStakeForVoting","type":"uint256"},{"internalType":"uint256","name":"_minStakeForProposing","type":"uint256"},{"internalType":"uint256","name":"_minStakeLockTime","type":"uint256"},{"internalType":"uint256","name":"_proposalDuration","type":"uint256"},{"internalType":"uint256","name":"_tokensPerVotePower","type":"uint256"}],"name":"setParameters","outputs":[],"stateMutability":"nonpayable","type":"function"},{"inputs":[{"internalType":"uint256","name":"amount","type":"uint256"}],"name":"stakeForProposing","outputs":[],"stateMutability":"nonpayable","type":"function"},{"inputs":[{"internalType":"uint256","name":"amount","type":"uint256"}],"name":"stakeForVoting","outputs":[],"stateMutability":"nonpayable","type":"function"},{"inputs":[],"name":"token","outputs":[{"internalType":"contract IERC20","name":"","type":"address"}],"stateMutability":"view","type":"function"},{"inputs":[],"name":"tokenPriceWei","outputs":[{"internalType":"uint256","name":"","type":"uint256"}],"stateMutability":"view","type":"function"},{"inputs":[],"name":"tokensPerVotePower","outputs":[{"internalType":"uint256","name":"","type":"uint256"}],"stateMutability":"view","type":"function"},{"inputs":[],"name":"tranquilidad","outputs":[],"stateMutability":"nonpayable","type":"function"},{"inputs":[{"internalType":"address","name":"newOwner","type":"address"}],"name":"transferOwnership","outputs":[],"stateMutability":"nonpayable","type":"function"},{"inputs":[{"internalType":"uint256","name":"amount","type":"uint256"}],"name":"unstakeFromProposing","outputs":[],"stateMutability":"nonpayable","type":"function"},{"inputs":[{"internalType":"uint256","name":"amount","type":"uint256"}],"name":"unstakeFromVoting","outputs":[],"stateMutability":"nonpayable","type":"function"},{"inputs":[{"internalType":"uint256","name":"proposalId","type":"uint256"},{"internalType":"bool","name":"support","type":"bool"}],"name":"vote","outputs":[],"stateMutability":"nonpayable","type":"function"},{"inputs":[{"internalType":"address","name":"account","type":"address"}],"name":"votingPower","outputs":[{"internalType":"uint256","name":"","type":"uint256"}],"stateMutability":"view","type":"function"},{"inputs":[{"internalType":"address","name":"user","type":"address"}],"name":"votingStake","outputs":[{"internalType":"uint256","name":"amount","type":"uint256"},{"internalType":"uint256","name":"since","type":"uint256"}],"stateMutability":"view","type":"function"},{"stateMutability":"payable","type":"receive"}],"evm":{"bytecode":{"linkReferences":{},"object":"60a0346200020d57601f6200201038819003918201601f191683019291906001600160401b0384118385101762000212578161010092849260409687528339810103126200020d57620000528162000228565b620000606020830162000228565b918381015192606082015160808301519060a08401519260e060c08601519501519560018060a01b03809116918215620001f557600080546001600160a01b03198116851782558b519491908416907f8be0079c531659141344cd1fd0a4f28419497f9722a3daafe3b4186f6b6457e09080a316908115620001e6575060805285158015620001dd575b8015620001d4575b8015620001cb575b8015620001c2575b8015620001b9575b620001a8579185939160c095937fb4e1fbeb0ffbfe92679bdf67bebeda0b781e7a37849484c69d99695f31e4b02997600255806003558160045582600555836006558460075588519586526020860152878501526060840152608083015260a0820152a151611dd290816200023e82396080518181816101b2015281816103180152818161046001528181610e04015281816114d001526117f80152f35b8651630309cb8760e51b8152600490fd5b5084156200010a565b50831562000102565b508215620000fa565b508115620000f2565b508015620000ea565b630309cb8760e51b8152600490fd5b8951631e4fbdf760e01b815260006004820152602490fd5b600080fd5b634e487b7160e01b600052604160045260246000fd5b51906001600160a01b03821682036200020d5756fe608080604052600436101561001a575b50361561001857005b005b60003560e01c9081627e637e1461197a57508063013cf08b1461187c57806305d0f15b1461185e5780630627d4251461175c5780630a5af04b146117195780630d346e9a146116fb578063282c8749146116205780632ab09d1414610ea357806330109962146116025780634091e8f0146115995780634385963214611547578063542ffa7b146114345780635652077c146113765780635c975abb1461135057806365e481e214611007578063715018a614610fae57806381e6830f14610f525780638da5cb5b14610f295780639776138214610ec157806398e527d314610ea35780639f45b13314610e60578063a028699e14610d79578063a73079ac14610996578063ad3bcade1461096d578063c07473f614610942578063c2d6677614610924578063c7f758a814610702578063c9d27afe14610564578063d064a9a414610546578063d0febe4c146103ef578063d1b85b491461028d578063f2fde38b14610204578063f96df52a146101e65763fc0c546a1461019c573861000f565b346101e15760003660031901126101e1576040517f00000000000000000000000000000000000000000000000000000000000000006001600160a01b03168152602090f35b600080fd5b346101e15760003660031901126101e1576020600754604051908152f35b346101e15760203660031901126101e15761021d611c3a565b610225611cb3565b6001600160a01b0390811690811561027457600054826001600160601b0360a01b821617600055167f8be0079c531659141344cd1fd0a4f28419497f9722a3daafe3b4186f6b6457e0600080a3005b604051631e4fbdf760e01b815260006004820152602490fd5b346101e1576020806003193601126101e157600435906001549060ff8260a01c166103dd576001600160a01b03918216156103cb5782156103b95733600052600b815260406000206102e0848254611d5b565b8155426001909101556040516323b872dd60e01b815233600482015230602482015260448101849052918190839060649082906000907f0000000000000000000000000000000000000000000000000000000000000000165af19182156103ad577fec53a80f7fd2e0ad362f205aa59d80df1f44ddbb229bbe3591a1bf8d34fb5b6f9261037591600091610380575b50611d17565b6040519283523392a2005b6103a09150833d85116103a6575b6103988183611b25565b810190611cff565b8561036f565b503d61038e565b6040513d6000823e3d90fd5b604051630309cb8760e51b8152600490fd5b60405163028eecf360e11b8152600490fd5b604051632795c27960e21b8152600490fd5b60003660031901126101e15760015460ff8160a01c166103dd576001600160a01b03908116156103cb5734156103b957670de0b6b3a764000080340290348204036105305760025461044091611cdf565b9081156103b9576040516370a0823160e01b8152306004820152602092917f000000000000000000000000000000000000000000000000000000000000000016908381602481855afa80156103ad5783916000916104ff575b50106103b95760405163a9059cbb60e01b815233600482015260248101929092528290829060449082906000905af19081156103ad57610018926000926104e2575b5050611d17565b6104f89250803d106103a6576103988183611b25565b82806104db565b809250858092503d8311610529575b6105188183611b25565b810103126101e15782905185610499565b503d61050e565b634e487b7160e01b600052601160045260246000fd5b346101e15760003660031901126101e1576020600554604051908152f35b346101e15760403660031901126101e15760043560243590811515918281036101e15760015460ff8160a01c166103dd576001600160a01b03908116156103cb578260005260209060098252604060002090600182015416156106f05760ff60088201541660038110156106da576106c85760058101544210156106c85783600052600a8252604060002033600052825260ff604060002054166106b65733600052600b8252604060002054600354116106a45761062133611d75565b9283156106a4576000858152600a8452604080822033835285529020805460ff191660011790551561068f5760060161065b838254611d5b565b90555b6040519384528301527fcbdf6214089cba887ecbf35a0b6a734589959c9763342c756bb2a80ca2bc9f6e60403393a3005b60070161069d838254611d5b565b905561065e565b6040516378de4a6960e11b8152600490fd5b604051637c9a1cf960e01b8152600490fd5b604051630eeb4f1560e01b8152600490fd5b634e487b7160e01b600052602160045260246000fd5b604051631dc0650160e31b8152600490fd5b346101e15760203660031901126101e157600061018060405161072481611b08565b828152826020820152606060408201526060808201528260808201528260a08201528260c08201528260e0820152826101008201528261012082015282610140820152826101608201520152600435600052600960205260406000206040519061078d82611b08565b8054825260018101546001600160a01b031660208301526107b060028201611b47565b60408301526107c160038201611b47565b606083015260048101546080830152600581015460a0830152600681015460c0830152600781015460e0830152600881015490600360ff831610156106da5760ff828116610100850152600883901c81161515610120850152601083901c1615156101408401526001600160a01b0360189290921c821661016084015260090154610180830152602082015116156106f0576040518091602082528051602083015260018060a01b0360208201511660408301526101806108ac61089660408401516101a060608701526101c0860190611bed565b6060840151858203601f19016080870152611bed565b91608081015160a085015260a081015160c085015260c081015160e085015260e08101516101008501526108ea610100820151610120860190611c2d565b6101208101511515610140850152610140810151151561016085015260018060a01b03610160820151168285015201516101a08301520390f35b346101e15760003660031901126101e1576020600354604051908152f35b346101e15760203660031901126101e1576020610965610960611c3a565b611d75565b604051908152f35b346101e15760003660031901126101e1576001546040516001600160a01b039091168152602090f35b346101e15760803660031901126101e15760043567ffffffffffffffff81116101e1576109c7903690600401611c6c565b60243567ffffffffffffffff81116101e1576109e7903690600401611c6c565b906001600160a01b0360443580821690036101e15760015460ff8160a01c166103dd578116156103cb578060443516158015610d6f575b610d5d5733600052600c602052604060002054600454116106a457600854916000198314610530576001830160085582600052600960205260406000209083825560018201336001600160601b0360a01b82541617905580519067ffffffffffffffff8211610c77578190610a966002850154611ace565b601f8111610d0a575b50602090601f8311600114610c9857600092610c8d575b50508160011b916000199060031b1c19161760028201555b835167ffffffffffffffff8111610c77576003820190610aee8254611ace565b95601f8711610c31575b602096508690601f8311600114610bc75760099493929160009183610bbc575b50508160011b916000199060031b1c19161790555b426004820155610b3f60065442611d5b565b6005820155600881016201000081546301000000600160b81b0360443560181b169061ff01600160b81b031916171790556064359182910155604051916001835260443516848301526040820152817fb956772e7b554d19bb961f4303b6c0c5cd7592c0c06fd08f15a56a0f304e6c0d60603393a3604051908152f35b015190508880610b18565b90601f1983169184600052886000209260005b818110610c1a575091600193918560099897969410610c01575b505050811b019055610b2d565b015160001960f88460031b161c19169055888080610bf4565b92938a600181928786015181550195019301610bda565b826000526020600020601f830160051c810160208410610c70575b601f90980160051c01965b878110610c645750610af8565b60008155600101610c57565b5080610c4c565b634e487b7160e01b600052604160045260246000fd5b015190508680610ab6565b9250600284016000526020600020906000935b601f1984168510610cef576001945083601f19811610610cd6575b505050811b016002820155610ace565b015160001960f88460031b161c19169055868080610cc6565b81810151835560209485019460019093019290910190610cab565b909150600284016000526020600020601f840160051c810160208510610d56575b90849392915b601f830160051c82018110610d47575050610a9f565b60008155859450600101610d31565b5080610d2b565b604051631713da9d60e11b8152600490fd5b5060643515610a1e565b346101e1576020806003193601126101e157600435906001549060ff8260a01c166103dd576001600160a01b03918216156103cb5782156103b95733600052600c81526040600020610dcc848254611d5b565b8155426001909101556040516323b872dd60e01b815233600482015230602482015260448101849052918190839060649082906000907f0000000000000000000000000000000000000000000000000000000000000000165af19182156103ad577ffb98bd47dcfd31e8d0c0e3558ffb823c6ad6ddcba96e48e82608e567b21cb1dd92610375916000916103805750611d17565b346101e15760203660031901126101e1576001600160a01b03610e81611c3a565b16600052600b6020526040806000206001815491015482519182526020820152f35b346101e15760003660031901126101e1576020600854604051908152f35b346101e15760003660031901126101e1576001546001600160a01b0381163303610f175760ff60a01b1916600155337fdb333f8de8435249d224d186f58a6cb30292b00a2897688694c176f2cde512b0600080a2005b60405163b9e5ac5f60e01b8152600490fd5b346101e15760003660031901126101e1576000546040516001600160a01b039091168152602090f35b346101e15760003660031901126101e1576001546001600160a01b0381163303610f175760ff60a01b1916600160a01b17600155337f0b907d122e4db865e49bc04c7f1e84a1ae29e024ee225bc08c69104520c5f3f9600080a2005b346101e15760003660031901126101e157610fc7611cb3565b600080546001600160a01b0319811682556001600160a01b03167f8be0079c531659141344cd1fd0a4f28419497f9722a3daafe3b4186f6b6457e08280a3005b346101e15760403660031901126101e15767ffffffffffffffff6004358181116101e157611039903690600401611c6c565b906024358181116101e157611052903690600401611c6c565b9160015460ff8160a01c166103dd576001600160a01b0316156103cb5733600052602092600c8452604060002054600454116106a457600854926000198085146105305760018501600855846000526009865260406000209385855560018501336001600160601b0360a01b8254161790556002850190805190848211610c775781906110df8454611ace565b601f81116112ff575b508990601f831160011461129c57600092611291575b5050838260011b9260031b1c19161790555b60038401928051928311610c77576111288454611ace565b601f811161124b575b508690601f84116001146111dc57926009949281926000979588936111d1575b50508260011b9260031b1c19161790555b42600482015561117460065442611d5b565b60058201556008810161ff01600160b81b0319815416905501556040516000815260008382015260006040820152817fb956772e7b554d19bb961f4303b6c0c5cd7592c0c06fd08f15a56a0f304e6c0d60603393a3604051908152f35b015191508980611151565b9190601f1984169285600052886000209360005b8a8282106112355750509285926009979592600099976001961061121d575b50505050811b019055611162565b01519060f88460031b161c191690558880808061120f565b60018597829396860151815501960193016111f0565b8460005287600020601f850160051c810191898610611287575b601f0160051c01905b81811061127b5750611131565b6000815560010161126e565b9091508190611265565b0151905089806110fe565b60008581528b81209350601f198516905b8c8282106112e95750509084600195949392106112d2575b505050811b019055611110565b01518560f88460031b161c191690558980806112c5565b60018596829396860151815501950193016112ad565b9091508360005289600020601f840160051c8101918b8510611346575b90601f859493920160051c01905b81811061133757506110e8565b6000815584935060010161132a565b909150819061131c565b346101e15760003660031901126101e157602060ff60015460a01c166040519015158152f35b346101e15760203660031901126101e157600435600081815260096020526040902060018101546001600160a01b0316156106f057600881019081549060ff821660038110156106da576106c857600581015442106106c8577f34a42c4ce0a88d16ad098de6406057747139a2a3dd8dd8616ee7bbabcecb768e92602092826007600660ff950154910154106000146114275750600182198254161781555b54166114246040518092611c2d565ba2005b8219166002178155611415565b346101e1576020806003193601126101e157600435906001549060ff8260a01c166103dd576001600160a01b03918216156103cb5733600052600b815260406000208315801561153d575b6106a457611494600182015460055490611d5b565b421061152c576114a5848254611d68565b905560405163a9059cbb60e01b815233600482015260248101849052918190839060449082906000907f0000000000000000000000000000000000000000000000000000000000000000165af19182156103ad577fb80625e1a6dfa23fbd22202898020767aaed44c2671f32cdb3473366b907321c92610375916000916103805750611d17565b6040516214930960e01b8152600490fd5b508054841161147f565b346101e15760403660031901126101e1576024356001600160a01b038116908190036101e157600435600052600a602052604060002090600052602052602060ff604060002054166040519015158152f35b346101e15760203660031901126101e1576115b2611c3a565b6115ba611cb3565b6001600160a01b031680156103b957600180546001600160a01b031916821790557f46304c2bdadb06c16e46b6dc771e062e19a4150c21aa984fa49930bca03267cf600080a2005b346101e15760003660031901126101e1576020600654604051908152f35b346101e15760c03660031901126101e15760443560243560043560a43560843560643561164b611cb3565b831580156116f3575b80156116eb575b80156116e3575b80156116db575b80156116d3575b6103b9577fb4e1fbeb0ffbfe92679bdf67bebeda0b781e7a37849484c69d99695f31e4b0299560c095856002558060035581600455826005558360065584600755604051958652602086015260408501526060840152608083015260a0820152a1005b508215611670565b508115611669565b508015611662565b50851561165b565b508415611654565b346101e15760003660031901126101e1576020600454604051908152f35b346101e15760203660031901126101e1576001600160a01b0361173a611c3a565b16600052600c6020526040806000206001815491015482519182526020820152f35b346101e1576020806003193601126101e157600435906001549060ff8260a01c166103dd576001600160a01b03918216156103cb5733600052600c8152604060002083158015611854575b6106a4576117bc600182015460055490611d5b565b421061152c576117cd848254611d68565b905560405163a9059cbb60e01b815233600482015260248101849052918190839060449082906000907f0000000000000000000000000000000000000000000000000000000000000000165af19182156103ad577fb09985bf5df21e3dee7a7e607cdcff3c444bb813524e2bad65f649b400056b0a92610375916000916103805750611d17565b50805484116117a7565b346101e15760003660031901126101e1576020600254604051908152f35b346101e15760203660031901126101e1576004356000908152600960205260409020805460018201546001600160a01b0390811692906118be60028301611b47565b906118cb60038401611b47565b92600481015493600582015460068301549061192260078501549361191460096008880154970154986040519c8d9c8d5260208d015260408c6101a091829101528c0190611bed565b908a820360608c0152611bed565b96608089015260a088015260c087015260e0860152611948610100860160ff8316611c2d565b60ff8160081c16151561012086015260ff8160101c16151561014086015260181c166101608401526101808301520390f35b346101e15760203660031901126101e15760043580600052600960205260406000206008810180549360ff8560101c1615611abf575060ff841660038110156106da57600114801590611ab2575b611aa0576009479201938454809310610d5d5761ff001916610100178082556001600160a01b03926000918291829182919060181c87165af13d15611a9b573d611a1181611c50565b90611a1f6040519283611b25565b8152600060203d92013e5b15611a64577f0bb768aa97fa4e8a8f73bfa7bc210f1a29f29c765d44f0c29acc04a549e32e43916020915460181c169354604051908152a3005b60405162461bcd60e51b815260206004820152600f60248201526e151c985b9cd9995c8819985a5b1959608a1b6044820152606490fd5b611a2a565b604051633c7e994560e11b8152600490fd5b5060ff8460081c166119c8565b631713da9d60e11b8152600490fd5b90600182811c92168015611afe575b6020831014611ae857565b634e487b7160e01b600052602260045260246000fd5b91607f1691611add565b6101a0810190811067ffffffffffffffff821117610c7757604052565b90601f8019910116810190811067ffffffffffffffff821117610c7757604052565b9060405191826000825492611b5b84611ace565b908184526001948581169081600014611bca5750600114611b87575b5050611b8592500383611b25565b565b9093915060005260209081600020936000915b818310611bb2575050611b8593508201013880611b77565b85548884018501529485019487945091830191611b9a565b915050611b8594506020925060ff191682840152151560051b8201013880611b77565b919082519283825260005b848110611c19575050826000602080949584010152601f8019910116010190565b602081830181015184830182015201611bf8565b9060038210156106da5752565b600435906001600160a01b03821682036101e157565b67ffffffffffffffff8111610c7757601f01601f191660200190565b81601f820112156101e157803590611c8382611c50565b92611c916040519485611b25565b828452602083830101116101e157816000926020809301838601378301015290565b6000546001600160a01b03163303611cc757565b60405163118cdaa760e01b8152336004820152602490fd5b8115611ce9570490565b634e487b7160e01b600052601260045260246000fd5b908160209103126101e1575180151581036101e15790565b15611d1e57565b60405162461bcd60e51b8152602060048201526015602482015274151bdad95b881d1c985b9cd9995c8819985a5b1959605a1b6044820152606490fd5b9190820180921161053057565b9190820391821161053057565b6001600160a01b03166000908152600b6020526040902054600754611d9991611cdf565b9056fea26469706673582212203e7bec5ddee3b27260780efa9cdbe552954fdfc7a25d4f50678bd70f5fcaa4e864736f6c63430008140033","opcodes":"PUSH1 0xA0 CALLVALUE PUSH3 0x20D JUMPI PUSH1 0x1F PUSH3 0x2010 CODESIZE DUP2 SWAP1 SUB SWAP2 DUP3 ADD PUSH1 0x1F NOT AND DUP4 ADD SWAP3 SWAP2 SWAP1 PUSH1 0x1 PUSH1 0x1 PUSH1 0x40 SHL SUB DUP5 GT DUP4 DUP6 LT OR PUSH3 0x212 JUMPI DUP2 PUSH2 0x100 SWAP3 DUP5 SWAP3 PUSH1 0x40 SWAP7 DUP8 MSTORE DUP4 CODECOPY DUP2 ADD SUB SLT PUSH3 0x20D JUMPI PUSH3 0x52 DUP2 PUSH3 0x228 JUMP JUMPDEST PUSH3 0x60 PUSH1 0x20 DUP4 ADD PUSH3 0x228 JUMP JUMPDEST SWAP2 DUP4 DUP2 ADD MLOAD SWAP3 PUSH1 0x60 DUP3 ADD MLOAD PUSH1 0x80 DUP4 ADD MLOAD SWAP1 PUSH1 0xA0 DUP5 ADD MLOAD SWAP3 PUSH1 0xE0 PUSH1 0xC0 DUP7 ADD MLOAD SWAP6 ADD MLOAD SWAP6 PUSH1 0x1 DUP1 PUSH1 0xA0 SHL SUB DUP1 SWAP2 AND SWAP2 DUP3 ISZERO PUSH3 0x1F5 JUMPI PUSH1 0x0 DUP1 SLOAD PUSH1 0x1 PUSH1 0x1 PUSH1 0xA0 SHL SUB NOT DUP2 AND DUP6 OR DUP3 SSTORE DUP12 MLOAD SWAP5 SWAP2 SWAP1 DUP5 AND SWAP1 PUSH32 0x8BE0079C531659141344CD1FD0A4F28419497F9722A3DAAFE3B4186F6B6457E0 SWAP1 DUP1 LOG3 AND SWAP1 DUP2 ISZERO PUSH3 0x1E6 JUMPI POP PUSH1 0x80 MSTORE DUP6 ISZERO DUP1 ISZERO PUSH3 0x1DD JUMPI JUMPDEST DUP1 ISZERO PUSH3 0x1D4 JUMPI JUMPDEST DUP1 ISZERO PUSH3 0x1CB JUMPI JUMPDEST DUP1 ISZERO PUSH3 0x1C2 JUMPI JUMPDEST DUP1 ISZERO PUSH3 0x1B9 JUMPI JUMPDEST PUSH3 0x1A8 JUMPI SWAP2 DUP6 SWAP4 SWAP2 PUSH1 0xC0 SWAP6 SWAP4 PUSH32 0xB4E1FBEB0FFBFE92679BDF67BEBEDA0B781E7A37849484C69D99695F31E4B029 SWAP8 PUSH1 0x2 SSTORE DUP1 PUSH1 0x3 SSTORE DUP2 PUSH1 0x4 SSTORE DUP3 PUSH1 0x5 SSTORE DUP4 PUSH1 0x6 SSTORE DUP5 PUSH1 0x7 SSTORE DUP9 MLOAD SWAP6 DUP7 MSTORE PUSH1 0x20 DUP7 ADD MSTORE DUP8 DUP6 ADD MSTORE PUSH1 0x60 DUP5 ADD MSTORE PUSH1 0x80 DUP4 ADD MSTORE PUSH1 0xA0 DUP3 ADD MSTORE LOG1 MLOAD PUSH2 0x1DD2 SWAP1 DUP2 PUSH3 0x23E DUP3 CODECOPY PUSH1 0x80 MLOAD DUP2 DUP2 DUP2 PUSH2 0x1B2 ADD MSTORE DUP2 DUP2 PUSH2 0x318 ADD MSTORE DUP2 DUP2 PUSH2 0x460 ADD MSTORE DUP2 DUP2 PUSH2 0xE04 ADD MSTORE DUP2 DUP2 PUSH2 0x14D0 ADD MSTORE PUSH2 0x17F8 ADD MSTORE RETURN JUMPDEST DUP7 MLOAD PUSH4 0x309CB87 PUSH1 0xE5 SHL DUP2 MSTORE PUSH1 0x4 SWAP1 REVERT JUMPDEST POP DUP5 ISZERO PUSH3 0x10A JUMP JUMPDEST POP DUP4 ISZERO PUSH3 0x102 JUMP JUMPDEST POP DUP3 ISZERO PUSH3 0xFA JUMP JUMPDEST POP DUP2 ISZERO PUSH3 0xF2 JUMP JUMPDEST POP DUP1 ISZERO PUSH3 0xEA JUMP JUMPDEST PUSH4 0x309CB87 PUSH1 0xE5 SHL DUP2 MSTORE PUSH1 0x4 SWAP1 REVERT JUMPDEST DUP10 MLOAD PUSH4 0x1E4FBDF7 PUSH1 0xE0 SHL DUP2 MSTORE PUSH1 0x0 PUSH1 0x4 DUP3 ADD MSTORE PUSH1 0x24 SWAP1 REVERT JUMPDEST PUSH1 0x0 DUP1 REVERT JUMPDEST PUSH4 0x4E487B71 PUSH1 0xE0 SHL PUSH1 0x0 MSTORE PUSH1 0x41 PUSH1 0x4 MSTORE PUSH1 0x24 PUSH1 0x0 REVERT JUMPDEST MLOAD SWAP1 PUSH1 0x1 PUSH1 0x1 PUSH1 0xA0 SHL SUB DUP3 AND DUP3 SUB PUSH3 0x20D JUMPI JUMP INVALID PUSH1 0x80 DUP1 PUSH1 0x40 MSTORE PUSH1 0x4 CALLDATASIZE LT ISZERO PUSH2 0x1A JUMPI JUMPDEST POP CALLDATASIZE ISZERO PUSH2 0x18 JUMPI STOP JUMPDEST STOP JUMPDEST PUSH1 0x0 CALLDATALOAD PUSH1 0xE0 SHR SWAP1 DUP2 PUSH3 0x7E637E EQ PUSH2 0x197A JUMPI POP DUP1 PUSH4 0x13CF08B EQ PUSH2 0x187C JUMPI DUP1 PUSH4 0x5D0F15B EQ PUSH2 0x185E JUMPI DUP1 PUSH4 0x627D425 EQ PUSH2 0x175C JUMPI DUP1 PUSH4 0xA5AF04B EQ PUSH2 0x1719 JUMPI DUP1 PUSH4 0xD346E9A EQ PUSH2 0x16FB JUMPI DUP1 PUSH4 0x282C8749 EQ PUSH2 0x1620 JUMPI DUP1 PUSH4 0x2AB09D14 EQ PUSH2 0xEA3 JUMPI DUP1 PUSH4 0x30109962 EQ PUSH2 0x1602 JUMPI DUP1 PUSH4 0x4091E8F0 EQ PUSH2 0x1599 JUMPI DUP1 PUSH4 0x43859632 EQ PUSH2 0x1547 JUMPI DUP1 PUSH4 0x542FFA7B EQ PUSH2 0x1434 JUMPI DUP1 PUSH4 0x5652077C EQ PUSH2 0x1376 JUMPI DUP1 PUSH4 0x5C975ABB EQ PUSH2 0x1350 JUMPI DUP1 PUSH4 0x65E481E2 EQ PUSH2 0x1007 JUMPI DUP1 PUSH4 0x715018A6 EQ PUSH2 0xFAE JUMPI DUP1 PUSH4 0x81E6830F EQ PUSH2 0xF52 JUMPI DUP1 PUSH4 0x8DA5CB5B EQ PUSH2 0xF29 JUMPI DUP1 PUSH4 0x97761382 EQ PUSH2 0xEC1 JUMPI DUP1 PUSH4 0x98E527D3 EQ PUSH2 0xEA3 JUMPI DUP1 PUSH4 0x9F45B133 EQ PUSH2 0xE60 JUMPI DUP1 PUSH4 0xA028699E EQ PUSH2 0xD79 JUMPI DUP1 PUSH4 0xA73079AC EQ PUSH2 0x996 JUMPI DUP1 PUSH4 0xAD3BCADE EQ PUSH2 0x96D JUMPI DUP1 PUSH4 0xC07473F6 EQ PUSH2 0x942 JUMPI DUP1 PUSH4 0xC2D66776 EQ PUSH2 0x924 JUMPI DUP1 PUSH4 0xC7F758A8 EQ PUSH2 0x702 JUMPI DUP1 PUSH4 0xC9D27AFE EQ PUSH2 0x564 JUMPI DUP1 PUSH4 0xD064A9A4 EQ PUSH2 0x546 JUMPI DUP1 PUSH4 0xD0FEBE4C EQ PUSH2 0x3EF JUMPI DUP1 PUSH4 0xD1B85B49 EQ PUSH2 0x28D JUMPI DUP1 PUSH4 0xF2FDE38B EQ PUSH2 0x204 JUMPI DUP1 PUSH4 0xF96DF52A EQ PUSH2 0x1E6 JUMPI PUSH4 0xFC0C546A EQ PUSH2 0x19C JUMPI CODESIZE PUSH2 0xF JUMP JUMPDEST CALLVALUE PUSH2 0x1E1 JUMPI PUSH1 0x0 CALLDATASIZE PUSH1 0x3 NOT ADD SLT PUSH2 0x1E1 JUMPI PUSH1 0x40 MLOAD PUSH32 0x0 PUSH1 0x1 PUSH1 0x1 PUSH1 0xA0 SHL SUB AND DUP2 MSTORE PUSH1 0x20 SWAP1 RETURN JUMPDEST PUSH1 0x0 DUP1 REVERT JUMPDEST CALLVALUE PUSH2 0x1E1 JUMPI PUSH1 0x0 CALLDATASIZE PUSH1 0x3 NOT ADD SLT PUSH2 0x1E1 JUMPI PUSH1 0x20 PUSH1 0x7 SLOAD PUSH1 0x40 MLOAD SWAP1 DUP2 MSTORE RETURN JUMPDEST CALLVALUE PUSH2 0x1E1 JUMPI PUSH1 0x20 CALLDATASIZE PUSH1 0x3 NOT ADD SLT PUSH2 0x1E1 JUMPI PUSH2 0x21D PUSH2 0x1C3A JUMP JUMPDEST PUSH2 0x225 PUSH2 0x1CB3 JUMP JUMPDEST PUSH1 0x1 PUSH1 0x1 PUSH1 0xA0 SHL SUB SWAP1 DUP2 AND SWAP1 DUP2 ISZERO PUSH2 0x274 JUMPI PUSH1 0x0 SLOAD DUP3 PUSH1 0x1 PUSH1 0x1 PUSH1 0x60 SHL SUB PUSH1 0xA0 SHL DUP3 AND OR PUSH1 0x0 SSTORE AND PUSH32 0x8BE0079C531659141344CD1FD0A4F28419497F9722A3DAAFE3B4186F6B6457E0 PUSH1 0x0 DUP1 LOG3 STOP JUMPDEST PUSH1 0x40 MLOAD PUSH4 0x1E4FBDF7 PUSH1 0xE0 SHL DUP2 MSTORE PUSH1 0x0 PUSH1 0x4 DUP3 ADD MSTORE PUSH1 0x24 SWAP1 REVERT JUMPDEST CALLVALUE PUSH2 0x1E1 JUMPI PUSH1 0x20 DUP1 PUSH1 0x3 NOT CALLDATASIZE ADD SLT PUSH2 0x1E1 JUMPI PUSH1 0x4 CALLDATALOAD SWAP1 PUSH1 0x1 SLOAD SWAP1 PUSH1 0xFF DUP3 PUSH1 0xA0 SHR AND PUSH2 0x3DD JUMPI PUSH1 0x1 PUSH1 0x1 PUSH1 0xA0 SHL SUB SWAP2 DUP3 AND ISZERO PUSH2 0x3CB JUMPI DUP3 ISZERO PUSH2 0x3B9 JUMPI CALLER PUSH1 0x0 MSTORE PUSH1 0xB DUP2 MSTORE PUSH1 0x40 PUSH1 0x0 KECCAK256 PUSH2 0x2E0 DUP5 DUP3 SLOAD PUSH2 0x1D5B JUMP JUMPDEST DUP2 SSTORE TIMESTAMP PUSH1 0x1 SWAP1 SWAP2 ADD SSTORE PUSH1 0x40 MLOAD PUSH4 0x23B872DD PUSH1 0xE0 SHL DUP2 MSTORE CALLER PUSH1 0x4 DUP3 ADD MSTORE ADDRESS PUSH1 0x24 DUP3 ADD MSTORE PUSH1 0x44 DUP2 ADD DUP5 SWAP1 MSTORE SWAP2 DUP2 SWAP1 DUP4 SWAP1 PUSH1 0x64 SWAP1 DUP3 SWAP1 PUSH1 0x0 SWAP1 PUSH32 0x0 AND GAS CALL SWAP2 DUP3 ISZERO PUSH2 0x3AD JUMPI PUSH32 0xEC53A80F7FD2E0AD362F205AA59D80DF1F44DDBB229BBE3591A1BF8D34FB5B6F SWAP3 PUSH2 0x375 SWAP2 PUSH1 0x0 SWAP2 PUSH2 0x380 JUMPI JUMPDEST POP PUSH2 0x1D17 JUMP JUMPDEST PUSH1 0x40 MLOAD SWAP3 DUP4 MSTORE CALLER SWAP3 LOG2 STOP JUMPDEST PUSH2 0x3A0 SWAP2 POP DUP4 RETURNDATASIZE DUP6 GT PUSH2 0x3A6 JUMPI JUMPDEST PUSH2 0x398 DUP2 DUP4 PUSH2 0x1B25 JUMP JUMPDEST DUP2 ADD SWAP1 PUSH2 0x1CFF JUMP JUMPDEST DUP6 PUSH2 0x36F JUMP JUMPDEST POP RETURNDATASIZE PUSH2 0x38E JUMP JUMPDEST PUSH1 0x40 MLOAD RETURNDATASIZE PUSH1 0x0 DUP3 RETURNDATACOPY RETURNDATASIZE SWAP1 REVERT JUMPDEST PUSH1 0x40 MLOAD PUSH4 0x309CB87 PUSH1 0xE5 SHL DUP2 MSTORE PUSH1 0x4 SWAP1 REVERT JUMPDEST PUSH1 0x40 MLOAD PUSH4 0x28EECF3 PUSH1 0xE1 SHL DUP2 MSTORE PUSH1 0x4 SWAP1 REVERT JUMPDEST PUSH1 0x40 MLOAD PUSH4 0x2795C279 PUSH1 0xE2 SHL DUP2 MSTORE PUSH1 0x4 SWAP1 REVERT JUMPDEST PUSH1 0x0 CALLDATASIZE PUSH1 0x3 NOT ADD SLT PUSH2 0x1E1 JUMPI PUSH1 0x1 SLOAD PUSH1 0xFF DUP2 PUSH1 0xA0 SHR AND PUSH2 0x3DD JUMPI PUSH1 0x1 PUSH1 0x1 PUSH1 0xA0 SHL SUB SWAP1 DUP2 AND ISZERO PUSH2 0x3CB JUMPI CALLVALUE ISZERO PUSH2 0x3B9 JUMPI PUSH8 0xDE0B6B3A7640000 DUP1 CALLVALUE MUL SWAP1 CALLVALUE DUP3 DIV SUB PUSH2 0x530 JUMPI PUSH1 0x2 SLOAD PUSH2 0x440 SWAP2 PUSH2 0x1CDF JUMP JUMPDEST SWAP1 DUP2 ISZERO PUSH2 0x3B9 JUMPI PUSH1 0x40 MLOAD PUSH4 0x70A08231 PUSH1 0xE0 SHL DUP2 MSTORE ADDRESS PUSH1 0x4 DUP3 ADD MSTORE PUSH1 0x20 SWAP3 SWAP2 PUSH32 0x0 AND SWAP1 DUP4 DUP2 PUSH1 0x24 DUP2 DUP6 GAS STATICCALL DUP1 ISZERO PUSH2 0x3AD JUMPI DUP4 SWAP2 PUSH1 0x0 SWAP2 PUSH2 0x4FF JUMPI JUMPDEST POP LT PUSH2 0x3B9 JUMPI PUSH1 0x40 MLOAD PUSH4 0xA9059CBB PUSH1 0xE0 SHL DUP2 MSTORE CALLER PUSH1 0x4 DUP3 ADD MSTORE PUSH1 0x24 DUP2 ADD SWAP3 SWAP1 SWAP3 MSTORE DUP3 SWAP1 DUP3 SWAP1 PUSH1 0x44 SWAP1 DUP3 SWAP1 PUSH1 0x0 SWAP1 GAS CALL SWAP1 DUP2 ISZERO PUSH2 0x3AD JUMPI PUSH2 0x18 SWAP3 PUSH1 0x0 SWAP3 PUSH2 0x4E2 JUMPI JUMPDEST POP POP PUSH2 0x1D17 JUMP JUMPDEST PUSH2 0x4F8 SWAP3 POP DUP1 RETURNDATASIZE LT PUSH2 0x3A6 JUMPI PUSH2 0x398 DUP2 DUP4 PUSH2 0x1B25 JUMP JUMPDEST DUP3 DUP1 PUSH2 0x4DB JUMP JUMPDEST DUP1 SWAP3 POP DUP6 DUP1 SWAP3 POP RETURNDATASIZE DUP4 GT PUSH2 0x529 JUMPI JUMPDEST PUSH2 0x518 DUP2 DUP4 PUSH2 0x1B25 JUMP JUMPDEST DUP2 ADD SUB SLT PUSH2 0x1E1 JUMPI DUP3 SWAP1 MLOAD DUP6 PUSH2 0x499 JUMP JUMPDEST POP RETURNDATASIZE PUSH2 0x50E JUMP JUMPDEST PUSH4 0x4E487B71 PUSH1 0xE0 SHL PUSH1 0x0 MSTORE PUSH1 0x11 PUSH1 0x4 MSTORE PUSH1 0x24 PUSH1 0x0 REVERT JUMPDEST CALLVALUE PUSH2 0x1E1 JUMPI PUSH1 0x0 CALLDATASIZE PUSH1 0x3 NOT ADD SLT PUSH2 0x1E1 JUMPI PUSH1 0x20 PUSH1 0x5 SLOAD PUSH1 0x40 MLOAD SWAP1 DUP2 MSTORE RETURN JUMPDEST CALLVALUE PUSH2 0x1E1 JUMPI PUSH1 0x40 CALLDATASIZE PUSH1 0x3 NOT ADD SLT PUSH2 0x1E1 JUMPI PUSH1 0x4 CALLDATALOAD PUSH1 0x24 CALLDATALOAD SWAP1 DUP2 ISZERO ISZERO SWAP2 DUP3 DUP2 SUB PUSH2 0x1E1 JUMPI PUSH1 0x1 SLOAD PUSH1 0xFF DUP2 PUSH1 0xA0 SHR AND PUSH2 0x3DD JUMPI PUSH1 0x1 PUSH1 0x1 PUSH1 0xA0 SHL SUB SWAP1 DUP2 AND ISZERO PUSH2 0x3CB JUMPI DUP3 PUSH1 0x0 MSTORE PUSH1 0x20 SWAP1 PUSH1 0x9 DUP3 MSTORE PUSH1 0x40 PUSH1 0x0 KECCAK256 SWAP1 PUSH1 0x1 DUP3 ADD SLOAD AND ISZERO PUSH2 0x6F0 JUMPI PUSH1 0xFF PUSH1 0x8 DUP3 ADD SLOAD AND PUSH1 0x3 DUP2 LT ISZERO PUSH2 0x6DA JUMPI PUSH2 0x6C8 JUMPI PUSH1 0x5 DUP2 ADD SLOAD TIMESTAMP LT ISZERO PUSH2 0x6C8 JUMPI DUP4 PUSH1 0x0 MSTORE PUSH1 0xA DUP3 MSTORE PUSH1 0x40 PUSH1 0x0 KECCAK256 CALLER PUSH1 0x0 MSTORE DUP3 MSTORE PUSH1 0xFF PUSH1 0x40 PUSH1 0x0 KECCAK256 SLOAD AND PUSH2 0x6B6 JUMPI CALLER PUSH1 0x0 MSTORE PUSH1 0xB DUP3 MSTORE PUSH1 0x40 PUSH1 0x0 KECCAK256 SLOAD PUSH1 0x3 SLOAD GT PUSH2 0x6A4 JUMPI PUSH2 0x621 CALLER PUSH2 0x1D75 JUMP JUMPDEST SWAP3 DUP4 ISZERO PUSH2 0x6A4 JUMPI PUSH1 0x0 DUP6 DUP2 MSTORE PUSH1 0xA DUP5 MSTORE PUSH1 0x40 DUP1 DUP3 KECCAK256 CALLER DUP4 MSTORE DUP6 MSTORE SWAP1 KECCAK256 DUP1 SLOAD PUSH1 0xFF NOT AND PUSH1 0x1 OR SWAP1 SSTORE ISZERO PUSH2 0x68F JUMPI PUSH1 0x6 ADD PUSH2 0x65B DUP4 DUP3 SLOAD PUSH2 0x1D5B JUMP JUMPDEST SWAP1 SSTORE JUMPDEST PUSH1 0x40 MLOAD SWAP4 DUP5 MSTORE DUP4 ADD MSTORE PUSH32 0xCBDF6214089CBA887ECBF35A0B6A734589959C9763342C756BB2A80CA2BC9F6E PUSH1 0x40 CALLER SWAP4 LOG3 STOP JUMPDEST PUSH1 0x7 ADD PUSH2 0x69D DUP4 DUP3 SLOAD PUSH2 0x1D5B JUMP JUMPDEST SWAP1 SSTORE PUSH2 0x65E JUMP JUMPDEST PUSH1 0x40 MLOAD PUSH4 0x78DE4A69 PUSH1 0xE1 SHL DUP2 MSTORE PUSH1 0x4 SWAP1 REVERT JUMPDEST PUSH1 0x40 MLOAD PUSH4 0x7C9A1CF9 PUSH1 0xE0 SHL DUP2 MSTORE PUSH1 0x4 SWAP1 REVERT JUMPDEST PUSH1 0x40 MLOAD PUSH4 0xEEB4F15 PUSH1 0xE0 SHL DUP2 MSTORE PUSH1 0x4 SWAP1 REVERT JUMPDEST PUSH4 0x4E487B71 PUSH1 0xE0 SHL PUSH1 0x0 MSTORE PUSH1 0x21 PUSH1 0x4 MSTORE PUSH1 0x24 PUSH1 0x0 REVERT JUMPDEST PUSH1 0x40 MLOAD PUSH4 0x1DC06501 PUSH1 0xE3 SHL DUP2 MSTORE PUSH1 0x4 SWAP1 REVERT JUMPDEST CALLVALUE PUSH2 0x1E1 JUMPI PUSH1 0x20 CALLDATASIZE PUSH1 0x3 NOT ADD SLT PUSH2 0x1E1 JUMPI PUSH1 0x0 PUSH2 0x180 PUSH1 0x40 MLOAD PUSH2 0x724 DUP2 PUSH2 0x1B08 JUMP JUMPDEST DUP3 DUP2 MSTORE DUP3 PUSH1 0x20 DUP3 ADD MSTORE PUSH1 0x60 PUSH1 0x40 DUP3 ADD MSTORE PUSH1 0x60 DUP1 DUP3 ADD MSTORE DUP3 PUSH1 0x80 DUP3 ADD MSTORE DUP3 PUSH1 0xA0 DUP3 ADD MSTORE DUP3 PUSH1 0xC0 DUP3 ADD MSTORE DUP3 PUSH1 0xE0 DUP3 ADD MSTORE DUP3 PUSH2 0x100 DUP3 ADD MSTORE DUP3 PUSH2 0x120 DUP3 ADD MSTORE DUP3 PUSH2 0x140 DUP3 ADD MSTORE DUP3 PUSH2 0x160 DUP3 ADD MSTORE ADD MSTORE PUSH1 0x4 CALLDATALOAD PUSH1 0x0 MSTORE PUSH1 0x9 PUSH1 0x20 MSTORE PUSH1 0x40 PUSH1 0x0 KECCAK256 PUSH1 0x40 MLOAD SWAP1 PUSH2 0x78D DUP3 PUSH2 0x1B08 JUMP JUMPDEST DUP1 SLOAD DUP3 MSTORE PUSH1 0x1 DUP2 ADD SLOAD PUSH1 0x1 PUSH1 0x1 PUSH1 0xA0 SHL SUB AND PUSH1 0x20 DUP4 ADD MSTORE PUSH2 0x7B0 PUSH1 0x2 DUP3 ADD PUSH2 0x1B47 JUMP JUMPDEST PUSH1 0x40 DUP4 ADD MSTORE PUSH2 0x7C1 PUSH1 0x3 DUP3 ADD PUSH2 0x1B47 JUMP JUMPDEST PUSH1 0x60 DUP4 ADD MSTORE PUSH1 0x4 DUP2 ADD SLOAD PUSH1 0x80 DUP4 ADD MSTORE PUSH1 0x5 DUP2 ADD SLOAD PUSH1 0xA0 DUP4 ADD MSTORE PUSH1 0x6 DUP2 ADD SLOAD PUSH1 0xC0 DUP4 ADD MSTORE PUSH1 0x7 DUP2 ADD SLOAD PUSH1 0xE0 DUP4 ADD MSTORE PUSH1 0x8 DUP2 ADD SLOAD SWAP1 PUSH1 0x3 PUSH1 0xFF DUP4 AND LT ISZERO PUSH2 0x6DA JUMPI PUSH1 0xFF DUP3 DUP2 AND PUSH2 0x100 DUP6 ADD MSTORE PUSH1 0x8 DUP4 SWAP1 SHR DUP2 AND ISZERO ISZERO PUSH2 0x120 DUP6 ADD MSTORE PUSH1 0x10 DUP4 SWAP1 SHR AND ISZERO ISZERO PUSH2 0x140 DUP5 ADD MSTORE PUSH1 0x1 PUSH1 0x1 PUSH1 0xA0 SHL SUB PUSH1 0x18 SWAP3 SWAP1 SWAP3 SHR DUP3 AND PUSH2 0x160 DUP5 ADD MSTORE PUSH1 0x9 ADD SLOAD PUSH2 0x180 DUP4 ADD MSTORE PUSH1 0x20 DUP3 ADD MLOAD AND ISZERO PUSH2 0x6F0 JUMPI PUSH1 0x40 MLOAD DUP1 SWAP2 PUSH1 0x20 DUP3 MSTORE DUP1 MLOAD PUSH1 0x20 DUP4 ADD MSTORE PUSH1 0x1 DUP1 PUSH1 0xA0 SHL SUB PUSH1 0x20 DUP3 ADD MLOAD AND PUSH1 0x40 DUP4 ADD MSTORE PUSH2 0x180 PUSH2 0x8AC PUSH2 0x896 PUSH1 0x40 DUP5 ADD MLOAD PUSH2 0x1A0 PUSH1 0x60 DUP8 ADD MSTORE PUSH2 0x1C0 DUP7 ADD SWAP1 PUSH2 0x1BED JUMP JUMPDEST PUSH1 0x60 DUP5 ADD MLOAD DUP6 DUP3 SUB PUSH1 0x1F NOT ADD PUSH1 0x80 DUP8 ADD MSTORE PUSH2 0x1BED JUMP JUMPDEST SWAP2 PUSH1 0x80 DUP2 ADD MLOAD PUSH1 0xA0 DUP6 ADD MSTORE PUSH1 0xA0 DUP2 ADD MLOAD PUSH1 0xC0 DUP6 ADD MSTORE PUSH1 0xC0 DUP2 ADD MLOAD PUSH1 0xE0 DUP6 ADD MSTORE PUSH1 0xE0 DUP2 ADD MLOAD PUSH2 0x100 DUP6 ADD MSTORE PUSH2 0x8EA PUSH2 0x100 DUP3 ADD MLOAD PUSH2 0x120 DUP7 ADD SWAP1 PUSH2 0x1C2D JUMP JUMPDEST PUSH2 0x120 DUP2 ADD MLOAD ISZERO ISZERO PUSH2 0x140 DUP6 ADD MSTORE PUSH2 0x140 DUP2 ADD MLOAD ISZERO ISZERO PUSH2 0x160 DUP6 ADD MSTORE PUSH1 0x1 DUP1 PUSH1 0xA0 SHL SUB PUSH2 0x160 DUP3 ADD MLOAD AND DUP3 DUP6 ADD MSTORE ADD MLOAD PUSH2 0x1A0 DUP4 ADD MSTORE SUB SWAP1 RETURN JUMPDEST CALLVALUE PUSH2 0x1E1 JUMPI PUSH1 0x0 CALLDATASIZE PUSH1 0x3 NOT ADD SLT PUSH2 0x1E1 JUMPI PUSH1 0x20 PUSH1 0x3 SLOAD PUSH1 0x40 MLOAD SWAP1 DUP2 MSTORE RETURN JUMPDEST CALLVALUE PUSH2 0x1E1 JUMPI PUSH1 0x20 CALLDATASIZE PUSH1 0x3 NOT ADD SLT PUSH2 0x1E1 JUMPI PUSH1 0x20 PUSH2 0x965 PUSH2 0x960 PUSH2 0x1C3A JUMP JUMPDEST PUSH2 0x1D75 JUMP JUMPDEST PUSH1 0x40 MLOAD SWAP1 DUP2 MSTORE RETURN JUMPDEST CALLVALUE PUSH2 0x1E1 JUMPI PUSH1 0x0 CALLDATASIZE PUSH1 0x3 NOT ADD SLT PUSH2 0x1E1 JUMPI PUSH1 0x1 SLOAD PUSH1 0x40 MLOAD PUSH1 0x1 PUSH1 0x1 PUSH1 0xA0 SHL SUB SWAP1 SWAP2 AND DUP2 MSTORE PUSH1 0x20 SWAP1 RETURN JUMPDEST CALLVALUE PUSH2 0x1E1 JUMPI PUSH1 0x80 CALLDATASIZE PUSH1 0x3 NOT ADD SLT PUSH2 0x1E1 JUMPI PUSH1 0x4 CALLDATALOAD PUSH8 0xFFFFFFFFFFFFFFFF DUP2 GT PUSH2 0x1E1 JUMPI PUSH2 0x9C7 SWAP1 CALLDATASIZE SWAP1 PUSH1 0x4 ADD PUSH2 0x1C6C JUMP JUMPDEST PUSH1 0x24 CALLDATALOAD PUSH8 0xFFFFFFFFFFFFFFFF DUP2 GT PUSH2 0x1E1 JUMPI PUSH2 0x9E7 SWAP1 CALLDATASIZE SWAP1 PUSH1 0x4 ADD PUSH2 0x1C6C JUMP JUMPDEST SWAP1 PUSH1 0x1 PUSH1 0x1 PUSH1 0xA0 SHL SUB PUSH1 0x44 CALLDATALOAD DUP1 DUP3 AND SWAP1 SUB PUSH2 0x1E1 JUMPI PUSH1 0x1 SLOAD PUSH1 0xFF DUP2 PUSH1 0xA0 SHR AND PUSH2 0x3DD JUMPI DUP2 AND ISZERO PUSH2 0x3CB JUMPI DUP1 PUSH1 0x44 CALLDATALOAD AND ISZERO DUP1 ISZERO PUSH2 0xD6F JUMPI JUMPDEST PUSH2 0xD5D JUMPI CALLER PUSH1 0x0 MSTORE PUSH1 0xC PUSH1 0x20 MSTORE PUSH1 0x40 PUSH1 0x0 KECCAK256 SLOAD PUSH1 0x4 SLOAD GT PUSH2 0x6A4 JUMPI PUSH1 0x8 SLOAD SWAP2 PUSH1 0x0 NOT DUP4 EQ PUSH2 0x530 JUMPI PUSH1 0x1 DUP4 ADD PUSH1 0x8 SSTORE DUP3 PUSH1 0x0 MSTORE PUSH1 0x9 PUSH1 0x20 MSTORE PUSH1 0x40 PUSH1 0x0 KECCAK256 SWAP1 DUP4 DUP3 SSTORE PUSH1 0x1 DUP3 ADD CALLER PUSH1 0x1 PUSH1 0x1 PUSH1 0x60 SHL SUB PUSH1 0xA0 SHL DUP3 SLOAD AND OR SWAP1 SSTORE DUP1 MLOAD SWAP1 PUSH8 0xFFFFFFFFFFFFFFFF DUP3 GT PUSH2 0xC77 JUMPI DUP2 SWAP1 PUSH2 0xA96 PUSH1 0x2 DUP6 ADD SLOAD PUSH2 0x1ACE JUMP JUMPDEST PUSH1 0x1F DUP2 GT PUSH2 0xD0A JUMPI JUMPDEST POP PUSH1 0x20 SWAP1 PUSH1 0x1F DUP4 GT PUSH1 0x1 EQ PUSH2 0xC98 JUMPI PUSH1 0x0 SWAP3 PUSH2 0xC8D JUMPI JUMPDEST POP POP DUP2 PUSH1 0x1 SHL SWAP2 PUSH1 0x0 NOT SWAP1 PUSH1 0x3 SHL SHR NOT AND OR PUSH1 0x2 DUP3 ADD SSTORE JUMPDEST DUP4 MLOAD PUSH8 0xFFFFFFFFFFFFFFFF DUP2 GT PUSH2 0xC77 JUMPI PUSH1 0x3 DUP3 ADD SWAP1 PUSH2 0xAEE DUP3 SLOAD PUSH2 0x1ACE JUMP JUMPDEST SWAP6 PUSH1 0x1F DUP8 GT PUSH2 0xC31 JUMPI JUMPDEST PUSH1 0x20 SWAP7 POP DUP7 SWAP1 PUSH1 0x1F DUP4 GT PUSH1 0x1 EQ PUSH2 0xBC7 JUMPI PUSH1 0x9 SWAP5 SWAP4 SWAP3 SWAP2 PUSH1 0x0 SWAP2 DUP4 PUSH2 0xBBC JUMPI JUMPDEST POP POP DUP2 PUSH1 0x1 SHL SWAP2 PUSH1 0x0 NOT SWAP1 PUSH1 0x3 SHL SHR NOT AND OR SWAP1 SSTORE JUMPDEST TIMESTAMP PUSH1 0x4 DUP3 ADD SSTORE PUSH2 0xB3F PUSH1 0x6 SLOAD TIMESTAMP PUSH2 0x1D5B JUMP JUMPDEST PUSH1 0x5 DUP3 ADD SSTORE PUSH1 0x8 DUP2 ADD PUSH3 0x10000 DUP2 SLOAD PUSH4 0x1000000 PUSH1 0x1 PUSH1 0xB8 SHL SUB PUSH1 0x44 CALLDATALOAD PUSH1 0x18 SHL AND SWAP1 PUSH2 0xFF01 PUSH1 0x1 PUSH1 0xB8 SHL SUB NOT AND OR OR SWAP1 SSTORE PUSH1 0x64 CALLDATALOAD SWAP2 DUP3 SWAP2 ADD SSTORE PUSH1 0x40 MLOAD SWAP2 PUSH1 0x1 DUP4 MSTORE PUSH1 0x44 CALLDATALOAD AND DUP5 DUP4 ADD MSTORE PUSH1 0x40 DUP3 ADD MSTORE DUP2 PUSH32 0xB956772E7B554D19BB961F4303B6C0C5CD7592C0C06FD08F15A56A0F304E6C0D PUSH1 0x60 CALLER SWAP4 LOG3 PUSH1 0x40 MLOAD SWAP1 DUP2 MSTORE RETURN JUMPDEST ADD MLOAD SWAP1 POP DUP9 DUP1 PUSH2 0xB18 JUMP JUMPDEST SWAP1 PUSH1 0x1F NOT DUP4 AND SWAP2 DUP5 PUSH1 0x0 MSTORE DUP9 PUSH1 0x0 KECCAK256 SWAP3 PUSH1 0x0 JUMPDEST DUP2 DUP2 LT PUSH2 0xC1A JUMPI POP SWAP2 PUSH1 0x1 SWAP4 SWAP2 DUP6 PUSH1 0x9 SWAP9 SWAP8 SWAP7 SWAP5 LT PUSH2 0xC01 JUMPI JUMPDEST POP POP POP DUP2 SHL ADD SWAP1 SSTORE PUSH2 0xB2D JUMP JUMPDEST ADD MLOAD PUSH1 0x0 NOT PUSH1 0xF8 DUP5 PUSH1 0x3 SHL AND SHR NOT AND SWAP1 SSTORE DUP9 DUP1 DUP1 PUSH2 0xBF4 JUMP JUMPDEST SWAP3 SWAP4 DUP11 PUSH1 0x1 DUP2 SWAP3 DUP8 DUP7 ADD MLOAD DUP2 SSTORE ADD SWAP6 ADD SWAP4 ADD PUSH2 0xBDA JUMP JUMPDEST DUP3 PUSH1 0x0 MSTORE PUSH1 0x20 PUSH1 0x0 KECCAK256 PUSH1 0x1F DUP4 ADD PUSH1 0x5 SHR DUP2 ADD PUSH1 0x20 DUP5 LT PUSH2 0xC70 JUMPI JUMPDEST PUSH1 0x1F SWAP1 SWAP9 ADD PUSH1 0x5 SHR ADD SWAP7 JUMPDEST DUP8 DUP2 LT PUSH2 0xC64 JUMPI POP PUSH2 0xAF8 JUMP JUMPDEST PUSH1 0x0 DUP2 SSTORE PUSH1 0x1 ADD PUSH2 0xC57 JUMP JUMPDEST POP DUP1 PUSH2 0xC4C JUMP JUMPDEST PUSH4 0x4E487B71 PUSH1 0xE0 SHL PUSH1 0x0 MSTORE PUSH1 0x41 PUSH1 0x4 MSTORE PUSH1 0x24 PUSH1 0x0 REVERT JUMPDEST ADD MLOAD SWAP1 POP DUP7 DUP1 PUSH2 0xAB6 JUMP JUMPDEST SWAP3 POP PUSH1 0x2 DUP5 ADD PUSH1 0x0 MSTORE PUSH1 0x20 PUSH1 0x0 KECCAK256 SWAP1 PUSH1 0x0 SWAP4 JUMPDEST PUSH1 0x1F NOT DUP5 AND DUP6 LT PUSH2 0xCEF JUMPI PUSH1 0x1 SWAP5 POP DUP4 PUSH1 0x1F NOT DUP2 AND LT PUSH2 0xCD6 JUMPI JUMPDEST POP POP POP DUP2 SHL ADD PUSH1 0x2 DUP3 ADD SSTORE PUSH2 0xACE JUMP JUMPDEST ADD MLOAD PUSH1 0x0 NOT PUSH1 0xF8 DUP5 PUSH1 0x3 SHL AND SHR NOT AND SWAP1 SSTORE DUP7 DUP1 DUP1 PUSH2 0xCC6 JUMP JUMPDEST DUP2 DUP2 ADD MLOAD DUP4 SSTORE PUSH1 0x20 SWAP5 DUP6 ADD SWAP5 PUSH1 0x1 SWAP1 SWAP4 ADD SWAP3 SWAP1 SWAP2 ADD SWAP1 PUSH2 0xCAB JUMP JUMPDEST SWAP1 SWAP2 POP PUSH1 0x2 DUP5 ADD PUSH1 0x0 MSTORE PUSH1 0x20 PUSH1 0x0 KECCAK256 PUSH1 0x1F DUP5 ADD PUSH1 0x5 SHR DUP2 ADD PUSH1 0x20 DUP6 LT PUSH2 0xD56 JUMPI JUMPDEST SWAP1 DUP5 SWAP4 SWAP3 SWAP2 JUMPDEST PUSH1 0x1F DUP4 ADD PUSH1 0x5 SHR DUP3 ADD DUP2 LT PUSH2 0xD47 JUMPI POP POP PUSH2 0xA9F JUMP JUMPDEST PUSH1 0x0 DUP2 SSTORE DUP6 SWAP5 POP PUSH1 0x1 ADD PUSH2 0xD31 JUMP JUMPDEST POP DUP1 PUSH2 0xD2B JUMP JUMPDEST PUSH1 0x40 MLOAD PUSH4 0x1713DA9D PUSH1 0xE1 SHL DUP2 MSTORE PUSH1 0x4 SWAP1 REVERT JUMPDEST POP PUSH1 0x64 CALLDATALOAD ISZERO PUSH2 0xA1E JUMP JUMPDEST CALLVALUE PUSH2 0x1E1 JUMPI PUSH1 0x20 DUP1 PUSH1 0x3 NOT CALLDATASIZE ADD SLT PUSH2 0x1E1 JUMPI PUSH1 0x4 CALLDATALOAD SWAP1 PUSH1 0x1 SLOAD SWAP1 PUSH1 0xFF DUP3 PUSH1 0xA0 SHR AND PUSH2 0x3DD JUMPI PUSH1 0x1 PUSH1 0x1 PUSH1 0xA0 SHL SUB SWAP2 DUP3 AND ISZERO PUSH2 0x3CB JUMPI DUP3 ISZERO PUSH2 0x3B9 JUMPI CALLER PUSH1 0x0 MSTORE PUSH1 0xC DUP2 MSTORE PUSH1 0x40 PUSH1 0x0 KECCAK256 PUSH2 0xDCC DUP5 DUP3 SLOAD PUSH2 0x1D5B JUMP JUMPDEST DUP2 SSTORE TIMESTAMP PUSH1 0x1 SWAP1 SWAP2 ADD SSTORE PUSH1 0x40 MLOAD PUSH4 0x23B872DD PUSH1 0xE0 SHL DUP2 MSTORE CALLER PUSH1 0x4 DUP3 ADD MSTORE ADDRESS PUSH1 0x24 DUP3 ADD MSTORE PUSH1 0x44 DUP2 ADD DUP5 SWAP1 MSTORE SWAP2 DUP2 SWAP1 DUP4 SWAP1 PUSH1 0x64 SWAP1 DUP3 SWAP1 PUSH1 0x0 SWAP1 PUSH32 0x0 AND GAS CALL SWAP2 DUP3 ISZERO PUSH2 0x3AD JUMPI PUSH32 0xFB98BD47DCFD31E8D0C0E3558FFB823C6AD6DDCBA96E48E82608E567B21CB1DD SWAP3 PUSH2 0x375 SWAP2 PUSH1 0x0 SWAP2 PUSH2 0x380 JUMPI POP PUSH2 0x1D17 JUMP JUMPDEST CALLVALUE PUSH2 0x1E1 JUMPI PUSH1 0x20 CALLDATASIZE PUSH1 0x3 NOT ADD SLT PUSH2 0x1E1 JUMPI PUSH1 0x1 PUSH1 0x1 PUSH1 0xA0 SHL SUB PUSH2 0xE81 PUSH2 0x1C3A JUMP JUMPDEST AND PUSH1 0x0 MSTORE PUSH1 0xB PUSH1 0x20 MSTORE PUSH1 0x40 DUP1 PUSH1 0x0 KECCAK256 PUSH1 0x1 DUP2 SLOAD SWAP2 ADD SLOAD DUP3 MLOAD SWAP2 DUP3 MSTORE PUSH1 0x20 DUP3 ADD MSTORE RETURN JUMPDEST CALLVALUE PUSH2 0x1E1 JUMPI PUSH1 0x0 CALLDATASIZE PUSH1 0x3 NOT ADD SLT PUSH2 0x1E1 JUMPI PUSH1 0x20 PUSH1 0x8 SLOAD PUSH1 0x40 MLOAD SWAP1 DUP2 MSTORE RETURN JUMPDEST CALLVALUE PUSH2 0x1E1 JUMPI PUSH1 0x0 CALLDATASIZE PUSH1 0x3 NOT ADD SLT PUSH2 0x1E1 JUMPI PUSH1 0x1 SLOAD PUSH1 0x1 PUSH1 0x1 PUSH1 0xA0 SHL SUB DUP2 AND CALLER SUB PUSH2 0xF17 JUMPI PUSH1 0xFF PUSH1 0xA0 SHL NOT AND PUSH1 0x1 SSTORE CALLER PUSH32 0xDB333F8DE8435249D224D186F58A6CB30292B00A2897688694C176F2CDE512B0 PUSH1 0x0 DUP1 LOG2 STOP JUMPDEST PUSH1 0x40 MLOAD PUSH4 0xB9E5AC5F PUSH1 0xE0 SHL DUP2 MSTORE PUSH1 0x4 SWAP1 REVERT JUMPDEST CALLVALUE PUSH2 0x1E1 JUMPI PUSH1 0x0 CALLDATASIZE PUSH1 0x3 NOT ADD SLT PUSH2 0x1E1 JUMPI PUSH1 0x0 SLOAD PUSH1 0x40 MLOAD PUSH1 0x1 PUSH1 0x1 PUSH1 0xA0 SHL SUB SWAP1 SWAP2 AND DUP2 MSTORE PUSH1 0x20 SWAP1 RETURN JUMPDEST CALLVALUE PUSH2 0x1E1 JUMPI PUSH1 0x0 CALLDATASIZE PUSH1 0x3 NOT ADD SLT PUSH2 0x1E1 JUMPI PUSH1 0x1 SLOAD PUSH1 0x1 PUSH1 0x1 PUSH1 0xA0 SHL SUB DUP2 AND CALLER SUB PUSH2 0xF17 JUMPI PUSH1 0xFF PUSH1 0xA0 SHL NOT AND PUSH1 0x1 PUSH1 0xA0 SHL OR PUSH1 0x1 SSTORE CALLER PUSH32 0xB907D122E4DB865E49BC04C7F1E84A1AE29E024EE225BC08C69104520C5F3F9 PUSH1 0x0 DUP1 LOG2 STOP JUMPDEST CALLVALUE PUSH2 0x1E1 JUMPI PUSH1 0x0 CALLDATASIZE PUSH1 0x3 NOT ADD SLT PUSH2 0x1E1 JUMPI PUSH2 0xFC7 PUSH2 0x1CB3 JUMP JUMPDEST PUSH1 0x0 DUP1 SLOAD PUSH1 0x1 PUSH1 0x1 PUSH1 0xA0 SHL SUB NOT DUP2 AND DUP3 SSTORE PUSH1 0x1 PUSH1 0x1 PUSH1 0xA0 SHL SUB AND PUSH32 0x8BE0079C531659141344CD1FD0A4F28419497F9722A3DAAFE3B4186F6B6457E0 DUP3 DUP1 LOG3 STOP JUMPDEST CALLVALUE PUSH2 0x1E1 JUMPI PUSH1 0x40 CALLDATASIZE PUSH1 0x3 NOT ADD SLT PUSH2 0x1E1 JUMPI PUSH8 0xFFFFFFFFFFFFFFFF PUSH1 0x4 CALLDATALOAD DUP2 DUP2 GT PUSH2 0x1E1 JUMPI PUSH2 0x1039 SWAP1 CALLDATASIZE SWAP1 PUSH1 0x4 ADD PUSH2 0x1C6C JUMP JUMPDEST SWAP1 PUSH1 0x24 CALLDATALOAD DUP2 DUP2 GT PUSH2 0x1E1 JUMPI PUSH2 0x1052 SWAP1 CALLDATASIZE SWAP1 PUSH1 0x4 ADD PUSH2 0x1C6C JUMP JUMPDEST SWAP2 PUSH1 0x1 SLOAD PUSH1 0xFF DUP2 PUSH1 0xA0 SHR AND PUSH2 0x3DD JUMPI PUSH1 0x1 PUSH1 0x1 PUSH1 0xA0 SHL SUB AND ISZERO PUSH2 0x3CB JUMPI CALLER PUSH1 0x0 MSTORE PUSH1 0x20 SWAP3 PUSH1 0xC DUP5 MSTORE PUSH1 0x40 PUSH1 0x0 KECCAK256 SLOAD PUSH1 0x4 SLOAD GT PUSH2 0x6A4 JUMPI PUSH1 0x8 SLOAD SWAP3 PUSH1 0x0 NOT DUP1 DUP6 EQ PUSH2 0x530 JUMPI PUSH1 0x1 DUP6 ADD PUSH1 0x8 SSTORE DUP5 PUSH1 0x0 MSTORE PUSH1 0x9 DUP7 MSTORE PUSH1 0x40 PUSH1 0x0 KECCAK256 SWAP4 DUP6 DUP6 SSTORE PUSH1 0x1 DUP6 ADD CALLER PUSH1 0x1 PUSH1 0x1 PUSH1 0x60 SHL SUB PUSH1 0xA0 SHL DUP3 SLOAD AND OR SWAP1 SSTORE PUSH1 0x2 DUP6 ADD SWAP1 DUP1 MLOAD SWAP1 DUP5 DUP3 GT PUSH2 0xC77 JUMPI DUP2 SWAP1 PUSH2 0x10DF DUP5 SLOAD PUSH2 0x1ACE JUMP JUMPDEST PUSH1 0x1F DUP2 GT PUSH2 0x12FF JUMPI JUMPDEST POP DUP10 SWAP1 PUSH1 0x1F DUP4 GT PUSH1 0x1 EQ PUSH2 0x129C JUMPI PUSH1 0x0 SWAP3 PUSH2 0x1291 JUMPI JUMPDEST POP POP DUP4 DUP3 PUSH1 0x1 SHL SWAP3 PUSH1 0x3 SHL SHR NOT AND OR SWAP1 SSTORE JUMPDEST PUSH1 0x3 DUP5 ADD SWAP3 DUP1 MLOAD SWAP3 DUP4 GT PUSH2 0xC77 JUMPI PUSH2 0x1128 DUP5 SLOAD PUSH2 0x1ACE JUMP JUMPDEST PUSH1 0x1F DUP2 GT PUSH2 0x124B JUMPI JUMPDEST POP DUP7 SWAP1 PUSH1 0x1F DUP5 GT PUSH1 0x1 EQ PUSH2 0x11DC JUMPI SWAP3 PUSH1 0x9 SWAP5 SWAP3 DUP2 SWAP3 PUSH1 0x0 SWAP8 SWAP6 DUP9 SWAP4 PUSH2 0x11D1 JUMPI JUMPDEST POP POP DUP3 PUSH1 0x1 SHL SWAP3 PUSH1 0x3 SHL SHR NOT AND OR SWAP1 SSTORE JUMPDEST TIMESTAMP PUSH1 0x4 DUP3 ADD SSTORE PUSH2 0x1174 PUSH1 0x6 SLOAD TIMESTAMP PUSH2 0x1D5B JUMP JUMPDEST PUSH1 0x5 DUP3 ADD SSTORE PUSH1 0x8 DUP2 ADD PUSH2 0xFF01 PUSH1 0x1 PUSH1 0xB8 SHL SUB NOT DUP2 SLOAD AND SWAP1 SSTORE ADD SSTORE PUSH1 0x40 MLOAD PUSH1 0x0 DUP2 MSTORE PUSH1 0x0 DUP4 DUP3 ADD MSTORE PUSH1 0x0 PUSH1 0x40 DUP3 ADD MSTORE DUP2 PUSH32 0xB956772E7B554D19BB961F4303B6C0C5CD7592C0C06FD08F15A56A0F304E6C0D PUSH1 0x60 CALLER SWAP4 LOG3 PUSH1 0x40 MLOAD SWAP1 DUP2 MSTORE RETURN JUMPDEST ADD MLOAD SWAP2 POP DUP10 DUP1 PUSH2 0x1151 JUMP JUMPDEST SWAP2 SWAP1 PUSH1 0x1F NOT DUP5 AND SWAP3 DUP6 PUSH1 0x0 MSTORE DUP9 PUSH1 0x0 KECCAK256 SWAP4 PUSH1 0x0 JUMPDEST DUP11 DUP3 DUP3 LT PUSH2 0x1235 JUMPI POP POP SWAP3 DUP6 SWAP3 PUSH1 0x9 SWAP8 SWAP6 SWAP3 PUSH1 0x0 SWAP10 SWAP8 PUSH1 0x1 SWAP7 LT PUSH2 0x121D JUMPI JUMPDEST POP POP POP POP DUP2 SHL ADD SWAP1 SSTORE PUSH2 0x1162 JUMP JUMPDEST ADD MLOAD SWAP1 PUSH1 0xF8 DUP5 PUSH1 0x3 SHL AND SHR NOT AND SWAP1 SSTORE DUP9 DUP1 DUP1 DUP1 PUSH2 0x120F JUMP JUMPDEST PUSH1 0x1 DUP6 SWAP8 DUP3 SWAP4 SWAP7 DUP7 ADD MLOAD DUP2 SSTORE ADD SWAP7 ADD SWAP4 ADD PUSH2 0x11F0 JUMP JUMPDEST DUP5 PUSH1 0x0 MSTORE DUP8 PUSH1 0x0 KECCAK256 PUSH1 0x1F DUP6 ADD PUSH1 0x5 SHR DUP2 ADD SWAP2 DUP10 DUP7 LT PUSH2 0x1287 JUMPI JUMPDEST PUSH1 0x1F ADD PUSH1 0x5 SHR ADD SWAP1 JUMPDEST DUP2 DUP2 LT PUSH2 0x127B JUMPI POP PUSH2 0x1131 JUMP JUMPDEST PUSH1 0x0 DUP2 SSTORE PUSH1 0x1 ADD PUSH2 0x126E JUMP JUMPDEST SWAP1 SWAP2 POP DUP2 SWAP1 PUSH2 0x1265 JUMP JUMPDEST ADD MLOAD SWAP1 POP DUP10 DUP1 PUSH2 0x10FE JUMP JUMPDEST PUSH1 0x0 DUP6 DUP2 MSTORE DUP12 DUP2 KECCAK256 SWAP4 POP PUSH1 0x1F NOT DUP6 AND SWAP1 JUMPDEST DUP13 DUP3 DUP3 LT PUSH2 0x12E9 JUMPI POP POP SWAP1 DUP5 PUSH1 0x1 SWAP6 SWAP5 SWAP4 SWAP3 LT PUSH2 0x12D2 JUMPI JUMPDEST POP POP POP DUP2 SHL ADD SWAP1 SSTORE PUSH2 0x1110 JUMP JUMPDEST ADD MLOAD DUP6 PUSH1 0xF8 DUP5 PUSH1 0x3 SHL AND SHR NOT AND SWAP1 SSTORE DUP10 DUP1 DUP1 PUSH2 0x12C5 JUMP JUMPDEST PUSH1 0x1 DUP6 SWAP7 DUP3 SWAP4 SWAP7 DUP7 ADD MLOAD DUP2 SSTORE ADD SWAP6 ADD SWAP4 ADD PUSH2 0x12AD JUMP JUMPDEST SWAP1 SWAP2 POP DUP4 PUSH1 0x0 MSTORE DUP10 PUSH1 0x0 KECCAK256 PUSH1 0x1F DUP5 ADD PUSH1 0x5 SHR DUP2 ADD SWAP2 DUP12 DUP6 LT PUSH2 0x1346 JUMPI JUMPDEST SWAP1 PUSH1 0x1F DUP6 SWAP5 SWAP4 SWAP3 ADD PUSH1 0x5 SHR ADD SWAP1 JUMPDEST DUP2 DUP2 LT PUSH2 0x1337 JUMPI POP PUSH2 0x10E8 JUMP JUMPDEST PUSH1 0x0 DUP2 SSTORE DUP5 SWAP4 POP PUSH1 0x1 ADD PUSH2 0x132A JUMP JUMPDEST SWAP1 SWAP2 POP DUP2 SWAP1 PUSH2 0x131C JUMP JUMPDEST CALLVALUE PUSH2 0x1E1 JUMPI PUSH1 0x0 CALLDATASIZE PUSH1 0x3 NOT ADD SLT PUSH2 0x1E1 JUMPI PUSH1 0x20 PUSH1 0xFF PUSH1 0x1 SLOAD PUSH1 0xA0 SHR AND PUSH1 0x40 MLOAD SWAP1 ISZERO ISZERO DUP2 MSTORE RETURN JUMPDEST CALLVALUE PUSH2 0x1E1 JUMPI PUSH1 0x20 CALLDATASIZE PUSH1 0x3 NOT ADD SLT PUSH2 0x1E1 JUMPI PUSH1 0x4 CALLDATALOAD PUSH1 0x0 DUP2 DUP2 MSTORE PUSH1 0x9 PUSH1 0x20 MSTORE PUSH1 0x40 SWAP1 KECCAK256 PUSH1 0x1 DUP2 ADD SLOAD PUSH1 0x1 PUSH1 0x1 PUSH1 0xA0 SHL SUB AND ISZERO PUSH2 0x6F0 JUMPI PUSH1 0x8 DUP2 ADD SWAP1 DUP2 SLOAD SWAP1 PUSH1 0xFF DUP3 AND PUSH1 0x3 DUP2 LT ISZERO PUSH2 0x6DA JUMPI PUSH2 0x6C8 JUMPI PUSH1 0x5 DUP2 ADD SLOAD TIMESTAMP LT PUSH2 0x6C8 JUMPI PUSH32 0x34A42C4CE0A88D16AD098DE6406057747139A2A3DD8DD8616EE7BBABCECB768E SWAP3 PUSH1 0x20 SWAP3 DUP3 PUSH1 0x7 PUSH1 0x6 PUSH1 0xFF SWAP6 ADD SLOAD SWAP2 ADD SLOAD LT PUSH1 0x0 EQ PUSH2 0x1427 JUMPI POP PUSH1 0x1 DUP3 NOT DUP3 SLOAD AND OR DUP2 SSTORE JUMPDEST SLOAD AND PUSH2 0x1424 PUSH1 0x40 MLOAD DUP1 SWAP3 PUSH2 0x1C2D JUMP JUMPDEST LOG2 STOP JUMPDEST DUP3 NOT AND PUSH1 0x2 OR DUP2 SSTORE PUSH2 0x1415 JUMP JUMPDEST CALLVALUE PUSH2 0x1E1 JUMPI PUSH1 0x20 DUP1 PUSH1 0x3 NOT CALLDATASIZE ADD SLT PUSH2 0x1E1 JUMPI PUSH1 0x4 CALLDATALOAD SWAP1 PUSH1 0x1 SLOAD SWAP1 PUSH1 0xFF DUP3 PUSH1 0xA0 SHR AND PUSH2 0x3DD JUMPI PUSH1 0x1 PUSH1 0x1 PUSH1 0xA0 SHL SUB SWAP2 DUP3 AND ISZERO PUSH2 0x3CB JUMPI CALLER PUSH1 0x0 MSTORE PUSH1 0xB DUP2 MSTORE PUSH1 0x40 PUSH1 0x0 KECCAK256 DUP4 ISZERO DUP1 ISZERO PUSH2 0x153D JUMPI JUMPDEST PUSH2 0x6A4 JUMPI PUSH2 0x1494 PUSH1 0x1 DUP3 ADD SLOAD PUSH1 0x5 SLOAD SWAP1 PUSH2 0x1D5B JUMP JUMPDEST TIMESTAMP LT PUSH2 0x152C JUMPI PUSH2 0x14A5 DUP5 DUP3 SLOAD PUSH2 0x1D68 JUMP JUMPDEST SWAP1 SSTORE PUSH1 0x40 MLOAD PUSH4 0xA9059CBB PUSH1 0xE0 SHL DUP2 MSTORE CALLER PUSH1 0x4 DUP3 ADD MSTORE PUSH1 0x24 DUP2 ADD DUP5 SWAP1 MSTORE SWAP2 DUP2 SWAP1 DUP4 SWAP1 PUSH1 0x44 SWAP1 DUP3 SWAP1 PUSH1 0x0 SWAP1 PUSH32 0x0 AND GAS CALL SWAP2 DUP3 ISZERO PUSH2 0x3AD JUMPI PUSH32 0xB80625E1A6DFA23FBD22202898020767AAED44C2671F32CDB3473366B907321C SWAP3 PUSH2 0x375 SWAP2 PUSH1 0x0 SWAP2 PUSH2 0x380 JUMPI POP PUSH2 0x1D17 JUMP JUMPDEST PUSH1 0x40 MLOAD PUSH3 0x149309 PUSH1 0xE0 SHL DUP2 MSTORE PUSH1 0x4 SWAP1 REVERT JUMPDEST POP DUP1 SLOAD DUP5 GT PUSH2 0x147F JUMP JUMPDEST CALLVALUE PUSH2 0x1E1 JUMPI PUSH1 0x40 CALLDATASIZE PUSH1 0x3 NOT ADD SLT PUSH2 0x1E1 JUMPI PUSH1 0x24 CALLDATALOAD PUSH1 0x1 PUSH1 0x1 PUSH1 0xA0 SHL SUB DUP2 AND SWAP1 DUP2 SWAP1 SUB PUSH2 0x1E1 JUMPI PUSH1 0x4 CALLDATALOAD PUSH1 0x0 MSTORE PUSH1 0xA PUSH1 0x20 MSTORE PUSH1 0x40 PUSH1 0x0 KECCAK256 SWAP1 PUSH1 0x0 MSTORE PUSH1 0x20 MSTORE PUSH1 0x20 PUSH1 0xFF PUSH1 0x40 PUSH1 0x0 KECCAK256 SLOAD AND PUSH1 0x40 MLOAD SWAP1 ISZERO ISZERO DUP2 MSTORE RETURN JUMPDEST CALLVALUE PUSH2 0x1E1 JUMPI PUSH1 0x20 CALLDATASIZE PUSH1 0x3 NOT ADD SLT PUSH2 0x1E1 JUMPI PUSH2 0x15B2 PUSH2 0x1C3A JUMP JUMPDEST PUSH2 0x15BA PUSH2 0x1CB3 JUMP JUMPDEST PUSH1 0x1 PUSH1 0x1 PUSH1 0xA0 SHL SUB AND DUP1 ISZERO PUSH2 0x3B9 JUMPI PUSH1 0x1 DUP1 SLOAD PUSH1 0x1 PUSH1 0x1 PUSH1 0xA0 SHL SUB NOT AND DUP3 OR SWAP1 SSTORE PUSH32 0x46304C2BDADB06C16E46B6DC771E062E19A4150C21AA984FA49930BCA03267CF PUSH1 0x0 DUP1 LOG2 STOP JUMPDEST CALLVALUE PUSH2 0x1E1 JUMPI PUSH1 0x0 CALLDATASIZE PUSH1 0x3 NOT ADD SLT PUSH2 0x1E1 JUMPI PUSH1 0x20 PUSH1 0x6 SLOAD PUSH1 0x40 MLOAD SWAP1 DUP2 MSTORE RETURN JUMPDEST CALLVALUE PUSH2 0x1E1 JUMPI PUSH1 0xC0 CALLDATASIZE PUSH1 0x3 NOT ADD SLT PUSH2 0x1E1 JUMPI PUSH1 0x44 CALLDATALOAD PUSH1 0x24 CALLDATALOAD PUSH1 0x4 CALLDATALOAD PUSH1 0xA4 CALLDATALOAD PUSH1 0x84 CALLDATALOAD PUSH1 0x64 CALLDATALOAD PUSH2 0x164B PUSH2 0x1CB3 JUMP JUMPDEST DUP4 ISZERO DUP1 ISZERO PUSH2 0x16F3 JUMPI JUMPDEST DUP1 ISZERO PUSH2 0x16EB JUMPI JUMPDEST DUP1 ISZERO PUSH2 0x16E3 JUMPI JUMPDEST DUP1 ISZERO PUSH2 0x16DB JUMPI JUMPDEST DUP1 ISZERO PUSH2 0x16D3 JUMPI JUMPDEST PUSH2 0x3B9 JUMPI PUSH32 0xB4E1FBEB0FFBFE92679BDF67BEBEDA0B781E7A37849484C69D99695F31E4B029 SWAP6 PUSH1 0xC0 SWAP6 DUP6 PUSH1 0x2 SSTORE DUP1 PUSH1 0x3 SSTORE DUP2 PUSH1 0x4 SSTORE DUP3 PUSH1 0x5 SSTORE DUP4 PUSH1 0x6 SSTORE DUP5 PUSH1 0x7 SSTORE PUSH1 0x40 MLOAD SWAP6 DUP7 MSTORE PUSH1 0x20 DUP7 ADD MSTORE PUSH1 0x40 DUP6 ADD MSTORE PUSH1 0x60 DUP5 ADD MSTORE PUSH1 0x80 DUP4 ADD MSTORE PUSH1 0xA0 DUP3 ADD MSTORE LOG1 STOP JUMPDEST POP DUP3 ISZERO PUSH2 0x1670 JUMP JUMPDEST POP DUP2 ISZERO PUSH2 0x1669 JUMP JUMPDEST POP DUP1 ISZERO PUSH2 0x1662 JUMP JUMPDEST POP DUP6 ISZERO PUSH2 0x165B JUMP JUMPDEST POP DUP5 ISZERO PUSH2 0x1654 JUMP JUMPDEST CALLVALUE PUSH2 0x1E1 JUMPI PUSH1 0x0 CALLDATASIZE PUSH1 0x3 NOT ADD SLT PUSH2 0x1E1 JUMPI PUSH1 0x20 PUSH1 0x4 SLOAD PUSH1 0x40 MLOAD SWAP1 DUP2 MSTORE RETURN JUMPDEST CALLVALUE PUSH2 0x1E1 JUMPI PUSH1 0x20 CALLDATASIZE PUSH1 0x3 NOT ADD SLT PUSH2 0x1E1 JUMPI PUSH1 0x1 PUSH1 0x1 PUSH1 0xA0 SHL SUB PUSH2 0x173A PUSH2 0x1C3A JUMP JUMPDEST AND PUSH1 0x0 MSTORE PUSH1 0xC PUSH1 0x20 MSTORE PUSH1 0x40 DUP1 PUSH1 0x0 KECCAK256 PUSH1 0x1 DUP2 SLOAD SWAP2 ADD SLOAD DUP3 MLOAD SWAP2 DUP3 MSTORE PUSH1 0x20 DUP3 ADD MSTORE RETURN JUMPDEST CALLVALUE PUSH2 0x1E1 JUMPI PUSH1 0x20 DUP1 PUSH1 0x3 NOT CALLDATASIZE ADD SLT PUSH2 0x1E1 JUMPI PUSH1 0x4 CALLDATALOAD SWAP1 PUSH1 0x1 SLOAD SWAP1 PUSH1 0xFF DUP3 PUSH1 0xA0 SHR AND PUSH2 0x3DD JUMPI PUSH1 0x1 PUSH1 0x1 PUSH1 0xA0 SHL SUB SWAP2 DUP3 AND ISZERO PUSH2 0x3CB JUMPI CALLER PUSH1 0x0 MSTORE PUSH1 0xC DUP2 MSTORE PUSH1 0x40 PUSH1 0x0 KECCAK256 DUP4 ISZERO DUP1 ISZERO PUSH2 0x1854 JUMPI JUMPDEST PUSH2 0x6A4 JUMPI PUSH2 0x17BC PUSH1 0x1 DUP3 ADD SLOAD PUSH1 0x5 SLOAD SWAP1 PUSH2 0x1D5B JUMP JUMPDEST TIMESTAMP LT PUSH2 0x152C JUMPI PUSH2 0x17CD DUP5 DUP3 SLOAD PUSH2 0x1D68 JUMP JUMPDEST SWAP1 SSTORE PUSH1 0x40 MLOAD PUSH4 0xA9059CBB PUSH1 0xE0 SHL DUP2 MSTORE CALLER PUSH1 0x4 DUP3 ADD MSTORE PUSH1 0x24 DUP2 ADD DUP5 SWAP1 MSTORE SWAP2 DUP2 SWAP1 DUP4 SWAP1 PUSH1 0x44 SWAP1 DUP3 SWAP1 PUSH1 0x0 SWAP1 PUSH32 0x0 AND GAS CALL SWAP2 DUP3 ISZERO PUSH2 0x3AD JUMPI PUSH32 0xB09985BF5DF21E3DEE7A7E607CDCFF3C444BB813524E2BAD65F649B400056B0A SWAP3 PUSH2 0x375 SWAP2 PUSH1 0x0 SWAP2 PUSH2 0x380 JUMPI POP PUSH2 0x1D17 JUMP JUMPDEST POP DUP1 SLOAD DUP5 GT PUSH2 0x17A7 JUMP JUMPDEST CALLVALUE PUSH2 0x1E1 JUMPI PUSH1 0x0 CALLDATASIZE PUSH1 0x3 NOT ADD SLT PUSH2 0x1E1 JUMPI PUSH1 0x20 PUSH1 0x2 SLOAD PUSH1 0x40 MLOAD SWAP1 DUP2 MSTORE RETURN JUMPDEST CALLVALUE PUSH2 0x1E1 JUMPI PUSH1 0x20 CALLDATASIZE PUSH1 0x3 NOT ADD SLT PUSH2 0x1E1 JUMPI PUSH1 0x4 CALLDATALOAD PUSH1 0x0 SWAP1 DUP2 MSTORE PUSH1 0x9 PUSH1 0x20 MSTORE PUSH1 0x40 SWAP1 KECCAK256 DUP1 SLOAD PUSH1 0x1 DUP3 ADD SLOAD PUSH1 0x1 PUSH1 0x1 PUSH1 0xA0 SHL SUB SWAP1 DUP2 AND SWAP3 SWAP1 PUSH2 0x18BE PUSH1 0x2 DUP4 ADD PUSH2 0x1B47 JUMP JUMPDEST SWAP1 PUSH2 0x18CB PUSH1 0x3 DUP5 ADD PUSH2 0x1B47 JUMP JUMPDEST SWAP3 PUSH1 0x4 DUP2 ADD SLOAD SWAP4 PUSH1 0x5 DUP3 ADD SLOAD PUSH1 0x6 DUP4 ADD SLOAD SWAP1 PUSH2 0x1922 PUSH1 0x7 DUP6 ADD SLOAD SWAP4 PUSH2 0x1914 PUSH1 0x9 PUSH1 0x8 DUP9 ADD SLOAD SWAP8 ADD SLOAD SWAP9 PUSH1 0x40 MLOAD SWAP13 DUP14 SWAP13 DUP14 MSTORE PUSH1 0x20 DUP14 ADD MSTORE PUSH1 0x40 DUP13 PUSH2 0x1A0 SWAP2 DUP3 SWAP2 ADD MSTORE DUP13 ADD SWAP1 PUSH2 0x1BED JUMP JUMPDEST SWAP1 DUP11 DUP3 SUB PUSH1 0x60 DUP13 ADD MSTORE PUSH2 0x1BED JUMP JUMPDEST SWAP7 PUSH1 0x80 DUP10 ADD MSTORE PUSH1 0xA0 DUP9 ADD MSTORE PUSH1 0xC0 DUP8 ADD MSTORE PUSH1 0xE0 DUP7 ADD MSTORE PUSH2 0x1948 PUSH2 0x100 DUP7 ADD PUSH1 0xFF DUP4 AND PUSH2 0x1C2D JUMP JUMPDEST PUSH1 0xFF DUP2 PUSH1 0x8 SHR AND ISZERO ISZERO PUSH2 0x120 DUP7 ADD MSTORE PUSH1 0xFF DUP2 PUSH1 0x10 SHR AND ISZERO ISZERO PUSH2 0x140 DUP7 ADD MSTORE PUSH1 0x18 SHR AND PUSH2 0x160 DUP5 ADD MSTORE PUSH2 0x180 DUP4 ADD MSTORE SUB SWAP1 RETURN JUMPDEST CALLVALUE PUSH2 0x1E1 JUMPI PUSH1 0x20 CALLDATASIZE PUSH1 0x3 NOT ADD SLT PUSH2 0x1E1 JUMPI PUSH1 0x4 CALLDATALOAD DUP1 PUSH1 0x0 MSTORE PUSH1 0x9 PUSH1 0x20 MSTORE PUSH1 0x40 PUSH1 0x0 KECCAK256 PUSH1 0x8 DUP2 ADD DUP1 SLOAD SWAP4 PUSH1 0xFF DUP6 PUSH1 0x10 SHR AND ISZERO PUSH2 0x1ABF JUMPI POP PUSH1 0xFF DUP5 AND PUSH1 0x3 DUP2 LT ISZERO PUSH2 0x6DA JUMPI PUSH1 0x1 EQ DUP1 ISZERO SWAP1 PUSH2 0x1AB2 JUMPI JUMPDEST PUSH2 0x1AA0 JUMPI PUSH1 0x9 SELFBALANCE SWAP3 ADD SWAP4 DUP5 SLOAD DUP1 SWAP4 LT PUSH2 0xD5D JUMPI PUSH2 0xFF00 NOT AND PUSH2 0x100 OR DUP1 DUP3 SSTORE PUSH1 0x1 PUSH1 0x1 PUSH1 0xA0 SHL SUB SWAP3 PUSH1 0x0 SWAP2 DUP3 SWAP2 DUP3 SWAP2 DUP3 SWAP2 SWAP1 PUSH1 0x18 SHR DUP8 AND GAS CALL RETURNDATASIZE ISZERO PUSH2 0x1A9B JUMPI RETURNDATASIZE PUSH2 0x1A11 DUP2 PUSH2 0x1C50 JUMP JUMPDEST SWAP1 PUSH2 0x1A1F PUSH1 0x40 MLOAD SWAP3 DUP4 PUSH2 0x1B25 JUMP JUMPDEST DUP2 MSTORE PUSH1 0x0 PUSH1 0x20 RETURNDATASIZE SWAP3 ADD RETURNDATACOPY JUMPDEST ISZERO PUSH2 0x1A64 JUMPI PUSH32 0xBB768AA97FA4E8A8F73BFA7BC210F1A29F29C765D44F0C29ACC04A549E32E43 SWAP2 PUSH1 0x20 SWAP2 SLOAD PUSH1 0x18 SHR AND SWAP4 SLOAD PUSH1 0x40 MLOAD SWAP1 DUP2 MSTORE LOG3 STOP JUMPDEST PUSH1 0x40 MLOAD PUSH3 0x461BCD PUSH1 0xE5 SHL DUP2 MSTORE PUSH1 0x20 PUSH1 0x4 DUP3 ADD MSTORE PUSH1 0xF PUSH1 0x24 DUP3 ADD MSTORE PUSH15 0x151C985B9CD9995C8819985A5B1959 PUSH1 0x8A SHL PUSH1 0x44 DUP3 ADD MSTORE PUSH1 0x64 SWAP1 REVERT JUMPDEST PUSH2 0x1A2A JUMP JUMPDEST PUSH1 0x40 MLOAD PUSH4 0x3C7E9945 PUSH1 0xE1 SHL DUP2 MSTORE PUSH1 0x4 SWAP1 REVERT JUMPDEST POP PUSH1 0xFF DUP5 PUSH1 0x8 SHR AND PUSH2 0x19C8 JUMP JUMPDEST PUSH4 0x1713DA9D PUSH1 0xE1 SHL DUP2 MSTORE PUSH1 0x4 SWAP1 REVERT JUMPDEST SWAP1 PUSH1 0x1 DUP3 DUP2 SHR SWAP3 AND DUP1 ISZERO PUSH2 0x1AFE JUMPI JUMPDEST PUSH1 0x20 DUP4 LT EQ PUSH2 0x1AE8 JUMPI JUMP JUMPDEST PUSH4 0x4E487B71 PUSH1 0xE0 SHL PUSH1 0x0 MSTORE PUSH1 0x22 PUSH1 0x4 MSTORE PUSH1 0x24 PUSH1 0x0 REVERT JUMPDEST SWAP2 PUSH1 0x7F AND SWAP2 PUSH2 0x1ADD JUMP JUMPDEST PUSH2 0x1A0 DUP2 ADD SWAP1 DUP2 LT PUSH8 0xFFFFFFFFFFFFFFFF DUP3 GT OR PUSH2 0xC77 JUMPI PUSH1 0x40 MSTORE JUMP JUMPDEST SWAP1 PUSH1 0x1F DUP1 NOT SWAP2 ADD AND DUP2 ADD SWAP1 DUP2 LT PUSH8 0xFFFFFFFFFFFFFFFF DUP3 GT OR PUSH2 0xC77 JUMPI PUSH1 0x40 MSTORE JUMP JUMPDEST SWAP1 PUSH1 0x40 MLOAD SWAP2 DUP3 PUSH1 0x0 DUP3 SLOAD SWAP3 PUSH2 0x1B5B DUP5 PUSH2 0x1ACE JUMP JUMPDEST SWAP1 DUP2 DUP5 MSTORE PUSH1 0x1 SWAP5 DUP6 DUP2 AND SWAP1 DUP2 PUSH1 0x0 EQ PUSH2 0x1BCA JUMPI POP PUSH1 0x1 EQ PUSH2 0x1B87 JUMPI JUMPDEST POP POP PUSH2 0x1B85 SWAP3 POP SUB DUP4 PUSH2 0x1B25 JUMP JUMPDEST JUMP JUMPDEST SWAP1 SWAP4 SWAP2 POP PUSH1 0x0 MSTORE PUSH1 0x20 SWAP1 DUP2 PUSH1 0x0 KECCAK256 SWAP4 PUSH1 0x0 SWAP2 JUMPDEST DUP2 DUP4 LT PUSH2 0x1BB2 JUMPI POP POP PUSH2 0x1B85 SWAP4 POP DUP3 ADD ADD CODESIZE DUP1 PUSH2 0x1B77 JUMP JUMPDEST DUP6 SLOAD DUP9 DUP5 ADD DUP6 ADD MSTORE SWAP5 DUP6 ADD SWAP5 DUP8 SWAP5 POP SWAP2 DUP4 ADD SWAP2 PUSH2 0x1B9A JUMP JUMPDEST SWAP2 POP POP PUSH2 0x1B85 SWAP5 POP PUSH1 0x20 SWAP3 POP PUSH1 0xFF NOT AND DUP3 DUP5 ADD MSTORE ISZERO ISZERO PUSH1 0x5 SHL DUP3 ADD ADD CODESIZE DUP1 PUSH2 0x1B77 JUMP JUMPDEST SWAP2 SWAP1 DUP3 MLOAD SWAP3 DUP4 DUP3 MSTORE PUSH1 0x0 JUMPDEST DUP5 DUP2 LT PUSH2 0x1C19 JUMPI POP POP DUP3 PUSH1 0x0 PUSH1 0x20 DUP1 SWAP5 SWAP6 DUP5 ADD ADD MSTORE PUSH1 0x1F DUP1 NOT SWAP2 ADD AND ADD ADD SWAP1 JUMP JUMPDEST PUSH1 0x20 DUP2 DUP4 ADD DUP2 ADD MLOAD DUP5 DUP4 ADD DUP3 ADD MSTORE ADD PUSH2 0x1BF8 JUMP JUMPDEST SWAP1 PUSH1 0x3 DUP3 LT ISZERO PUSH2 0x6DA JUMPI MSTORE JUMP JUMPDEST PUSH1 0x4 CALLDATALOAD SWAP1 PUSH1 0x1 PUSH1 0x1 PUSH1 0xA0 SHL SUB DUP3 AND DUP3 SUB PUSH2 0x1E1 JUMPI JUMP JUMPDEST PUSH8 0xFFFFFFFFFFFFFFFF DUP2 GT PUSH2 0xC77 JUMPI PUSH1 0x1F ADD PUSH1 0x1F NOT AND PUSH1 0x20 ADD SWAP1 JUMP JUMPDEST DUP2 PUSH1 0x1F DUP3 ADD SLT ISZERO PUSH2 0x1E1 JUMPI DUP1 CALLDATALOAD SWAP1 PUSH2 0x1C83 DUP3 PUSH2 0x1C50 JUMP JUMPDEST SWAP3 PUSH2 0x1C91 PUSH1 0x40 MLOAD SWAP5 DUP6 PUSH2 0x1B25 JUMP JUMPDEST DUP3 DUP5 MSTORE PUSH1 0x20 DUP4 DUP4 ADD ADD GT PUSH2 0x1E1 JUMPI DUP2 PUSH1 0x0 SWAP3 PUSH1 0x20 DUP1 SWAP4 ADD DUP4 DUP7 ADD CALLDATACOPY DUP4 ADD ADD MSTORE SWAP1 JUMP JUMPDEST PUSH1 0x0 SLOAD PUSH1 0x1 PUSH1 0x1 PUSH1 0xA0 SHL SUB AND CALLER SUB PUSH2 0x1CC7 JUMPI JUMP JUMPDEST PUSH1 0x40 MLOAD PUSH4 0x118CDAA7 PUSH1 0xE0 SHL DUP2 MSTORE CALLER PUSH1 0x4 DUP3 ADD MSTORE PUSH1 0x24 SWAP1 REVERT JUMPDEST DUP2 ISZERO PUSH2 0x1CE9 JUMPI DIV SWAP1 JUMP JUMPDEST PUSH4 0x4E487B71 PUSH1 0xE0 SHL PUSH1 0x0 MSTORE PUSH1 0x12 PUSH1 0x4 MSTORE PUSH1 0x24 PUSH1 0x0 REVERT JUMPDEST SWAP1 DUP2 PUSH1 0x20 SWAP2 SUB SLT PUSH2 0x1E1 JUMPI MLOAD DUP1 ISZERO ISZERO DUP2 SUB PUSH2 0x1E1 JUMPI SWAP1 JUMP JUMPDEST ISZERO PUSH2 0x1D1E JUMPI JUMP JUMPDEST PUSH1 0x40 MLOAD PUSH3 0x461BCD PUSH1 0xE5 SHL DUP2 MSTORE PUSH1 0x20 PUSH1 0x4 DUP3 ADD MSTORE PUSH1 0x15 PUSH1 0x24 DUP3 ADD MSTORE PUSH21 0x151BDAD95B881D1C985B9CD9995C8819985A5B1959 PUSH1 0x5A SHL PUSH1 0x44 DUP3 ADD MSTORE PUSH1 0x64 SWAP1 REVERT JUMPDEST SWAP2 SWAP1 DUP3 ADD DUP1 SWAP3 GT PUSH2 0x530 JUMPI JUMP JUMPDEST SWAP2 SWAP1 DUP3 SUB SWAP2 DUP3 GT PUSH2 0x530 JUMPI JUMP JUMPDEST PUSH1 0x1 PUSH1 0x1 PUSH1 0xA0 SHL SUB AND PUSH1 0x0 SWAP1 DUP2 MSTORE PUSH1 0xB PUSH1 0x20 MSTORE PUSH1 0x40 SWAP1 KECCAK256 SLOAD PUSH1 0x7 SLOAD PUSH2 0x1D99 SWAP2 PUSH2 0x1CDF JUMP JUMPDEST SWAP1 JUMP INVALID LOG2 PUSH5 0x6970667358 0x22 SLT KECCAK256 RETURNDATACOPY PUSH28 0xEC5DDEE3B27260780EFA9CDBE552954FDFC7A25D4F50678BD70F5FCA LOG4 0xE8 PUSH5 0x736F6C6343 STOP ADDMOD EQ STOP CALLER "},"methodIdentifiers":{"buyTokens()":"d0febe4c","createProposal(string,string)":"65e481e2","createTreasuryProposal(string,string,address,uint256)":"a73079ac","executeTreasuryProposal(uint256)":"007e637e","finalizeProposal(uint256)":"5652077c","getProposal(uint256)":"c7f758a8","getProposalsCount()":"98e527d3","hasVoted(uint256,address)":"43859632","minStakeForProposing()":"0d346e9a","minStakeForVoting()":"c2d66776","minStakeLockTime()":"d064a9a4","nextProposalId()":"2ab09d14","owner()":"8da5cb5b","panicWallet()":"ad3bcade","panico()":"81e6830f","paused()":"5c975abb","proposalDuration()":"30109962","proposals(uint256)":"013cf08b","proposingStake(address)":"0a5af04b","renounceOwnership()":"715018a6","setPanicWallet(address)":"4091e8f0","setParameters(uint256,uint256,uint256,uint256,uint256,uint256)":"282c8749","stakeForProposing(uint256)":"a028699e","stakeForVoting(uint256)":"d1b85b49","token()":"fc0c546a","tokenPriceWei()":"05d0f15b","tokensPerVotePower()":"f96df52a","tranquilidad()":"97761382","transferOwnership(address)":"f2fde38b","unstakeFromProposing(uint256)":"0627d425","unstakeFromVoting(uint256)":"542ffa7b","vote(uint256,bool)":"c9d27afe","votingPower(address)":"c07473f6","votingStake(address)":"9f45b133"}}}}}