{"src/contracts/GovernanceDAO.sol":{"GovernanceDAO":{"abi":[{"inputs":[{"internalType":"address","name":"initialOwner","type":"address"},{"internalType":"address","name":"tokenAddress","type":"address"},{"internalType":"uint256","name":"_tokenPriceWei","type":"uint256"},{"internalType":"uint256","name":"_minStakeForVoting","type":"uint256"},{"internalType":"uint256","name":"_minStakeForProposing","type":"uint256"},{"internalType":"uint256","name":"_minStakeLockTime","type":"uint256"},{"internalType":"uint256","name":"_proposalDuration","type":"uint256"},{"internalType":"uint256","name":"_tokensPerVotePower","type":"uint256"},{"internalType":"uint256","name":"_quorumPercentage","type":"uint256"},{"internalType":"uint256","name":"_approvalPercentage","type":"uint256"}],"stateMutability":"nonpayable","type":"constructor"},{"inputs":[],"name":"AlreadyVoted","type":"error"},{"inputs":[],"name":"ApprovalThresholdNotReached","type":"error"},{"inputs":[],"name":"DAOIsPaused","type":"error"},{"inputs":[],"name":"InsufficientStake","type":"error"},{"inputs":[],"name":"InvalidParameter","type":"error"},{"inputs":[],"name":"InvalidProposal","type":"error"},{"inputs":[],"name":"InvalidTreasuryProposal","type":"error"},{"inputs":[],"name":"LockTimeNotReached","type":"error"},{"inputs":[],"name":"NotPanicWallet","type":"error"},{"inputs":[{"internalType":"address","name":"owner","type":"address"}],"name":"OwnableInvalidOwner","type":"error"},{"inputs":[{"internalType":"address","name":"account","type":"address"}],"name":"OwnableUnauthorizedAccount","type":"error"},{"inputs":[],"name":"PanicWalletNotSet","type":"error"},{"inputs":[],"name":"ProposalNotExecutable","type":"error"},{"inputs":[],"name":"QuorumNotReached","type":"error"},{"inputs":[],"name":"VotingNotAllowed","type":"error"},{"anonymous":false,"inputs":[{"indexed":true,"internalType":"address","name":"caller","type":"address"}],"name":"CalmActivated","type":"event"},{"anonymous":false,"inputs":[{"indexed":true,"internalType":"address","name":"previousOwner","type":"address"},{"indexed":true,"internalType":"address","name":"newOwner","type":"address"}],"name":"OwnershipTransferred","type":"event"},{"anonymous":false,"inputs":[{"indexed":true,"internalType":"address","name":"caller","type":"address"}],"name":"PanicActivated","type":"event"},{"anonymous":false,"inputs":[{"indexed":true,"internalType":"address","name":"newPanicWallet","type":"address"}],"name":"PanicWalletUpdated","type":"event"},{"anonymous":false,"inputs":[{"indexed":false,"internalType":"uint256","name":"tokenPriceWei","type":"uint256"},{"indexed":false,"internalType":"uint256","name":"minStakeForVoting","type":"uint256"},{"indexed":false,"internalType":"uint256","name":"minStakeForProposing","type":"uint256"},{"indexed":false,"internalType":"uint256","name":"minStakeLockTime","type":"uint256"},{"indexed":false,"internalType":"uint256","name":"proposalDuration","type":"uint256"},{"indexed":false,"internalType":"uint256","name":"tokensPerVotePower","type":"uint256"}],"name":"ParametersUpdated","type":"event"},{"anonymous":false,"inputs":[{"indexed":true,"internalType":"uint256","name":"id","type":"uint256"},{"indexed":true,"internalType":"address","name":"proposer","type":"address"},{"indexed":false,"internalType":"bool","name":"isTreasury","type":"bool"},{"indexed":false,"internalType":"address","name":"treasuryRecipient","type":"address"},{"indexed":false,"internalType":"uint256","name":"treasuryAmount","type":"uint256"}],"name":"ProposalCreated","type":"event"},{"anonymous":false,"inputs":[{"indexed":true,"internalType":"uint256","name":"proposalId","type":"uint256"},{"indexed":false,"internalType":"enum GovernanceBase.ProposalStatus","name":"status","type":"uint8"}],"name":"ProposalFinalized","type":"event"},{"anonymous":false,"inputs":[{"indexed":false,"internalType":"uint256","name":"quorumPercentage","type":"uint256"},{"indexed":false,"internalType":"uint256","name":"approvalPercentage","type":"uint256"}],"name":"QuorumUpdated","type":"event"},{"anonymous":false,"inputs":[{"indexed":true,"internalType":"address","name":"user","type":"address"},{"indexed":false,"internalType":"uint256","name":"amount","type":"uint256"}],"name":"StakedForProposing","type":"event"},{"anonymous":false,"inputs":[{"indexed":true,"internalType":"address","name":"user","type":"address"},{"indexed":false,"internalType":"uint256","name":"amount","type":"uint256"}],"name":"StakedForVoting","type":"event"},{"anonymous":false,"inputs":[{"indexed":true,"internalType":"uint256","name":"proposalId","type":"uint256"},{"indexed":true,"internalType":"address","name":"recipient","type":"address"},{"indexed":false,"internalType":"uint256","name":"amount","type":"uint256"}],"name":"TreasuryProposalExecuted","type":"event"},{"anonymous":false,"inputs":[{"indexed":true,"internalType":"address","name":"user","type":"address"},{"indexed":false,"internalType":"uint256","name":"amount","type":"uint256"}],"name":"UnstakedFromProposing","type":"event"},{"anonymous":false,"inputs":[{"indexed":true,"internalType":"address","name":"user","type":"address"},{"indexed":false,"internalType":"uint256","name":"amount","type":"uint256"}],"name":"UnstakedFromVoting","type":"event"},{"anonymous":false,"inputs":[{"indexed":true,"internalType":"uint256","name":"proposalId","type":"uint256"},{"indexed":true,"internalType":"address","name":"voter","type":"address"},{"indexed":false,"internalType":"bool","name":"support","type":"bool"},{"indexed":false,"internalType":"uint256","name":"votePower","type":"uint256"}],"name":"VoteCast","type":"event"},{"stateMutability":"payable","type":"fallback"},{"inputs":[],"name":"approvalPercentage","outputs":[{"internalType":"uint256","name":"","type":"uint256"}],"stateMutability":"view","type":"function"},{"inputs":[],"name":"buyTokens","outputs":[],"stateMutability":"payable","type":"function"},{"inputs":[{"internalType":"string","name":"title","type":"string"},{"internalType":"string","name":"description","type":"string"}],"name":"createProposal","outputs":[{"internalType":"uint256","name":"","type":"uint256"}],"stateMutability":"nonpayable","type":"function"},{"inputs":[{"internalType":"string","name":"title","type":"string"},{"internalType":"string","name":"description","type":"string"},{"internalType":"address","name":"recipient","type":"address"},{"internalType":"uint256","name":"amount","type":"uint256"}],"name":"createTreasuryProposal","outputs":[{"internalType":"uint256","name":"","type":"uint256"}],"stateMutability":"nonpayable","type":"function"},{"inputs":[{"internalType":"uint256","name":"proposalId","type":"uint256"}],"name":"executeTreasuryProposal","outputs":[],"stateMutability":"nonpayable","type":"function"},{"inputs":[{"internalType":"uint256","name":"proposalId","type":"uint256"}],"name":"finalizeProposal","outputs":[],"stateMutability":"nonpayable","type":"function"},{"inputs":[{"internalType":"uint256","name":"proposalId","type":"uint256"}],"name":"getProposal","outputs":[{"components":[{"internalType":"uint256","name":"id","type":"uint256"},{"internalType":"address","name":"proposer","type":"address"},{"internalType":"string","name":"title","type":"string"},{"internalType":"string","name":"description","type":"string"},{"internalType":"uint256","name":"startTime","type":"uint256"},{"internalType":"uint256","name":"endTime","type":"uint256"},{"internalType":"uint256","name":"forVotes","type":"uint256"},{"internalType":"uint256","name":"againstVotes","type":"uint256"},{"internalType":"enum GovernanceBase.ProposalStatus","name":"status","type":"uint8"},{"internalType":"bool","name":"executed","type":"bool"},{"internalType":"bool","name":"isTreasury","type":"bool"},{"internalType":"address","name":"treasuryRecipient","type":"address"},{"internalType":"uint256","name":"treasuryAmount","type":"uint256"}],"internalType":"struct GovernanceBase.Proposal","name":"","type":"tuple"}],"stateMutability":"view","type":"function"},{"inputs":[],"name":"getProposalsCount","outputs":[{"internalType":"uint256","name":"","type":"uint256"}],"stateMutability":"view","type":"function"},{"inputs":[{"internalType":"uint256","name":"proposalId","type":"uint256"},{"internalType":"address","name":"voter","type":"address"}],"name":"hasVoted","outputs":[{"internalType":"bool","name":"","type":"bool"}],"stateMutability":"view","type":"function"},{"inputs":[],"name":"minStakeForProposing","outputs":[{"internalType":"uint256","name":"","type":"uint256"}],"stateMutability":"view","type":"function"},{"inputs":[],"name":"minStakeForVoting","outputs":[{"internalType":"uint256","name":"","type":"uint256"}],"stateMutability":"view","type":"function"},{"inputs":[],"name":"minStakeLockTime","outputs":[{"internalType":"uint256","name":"","type":"uint256"}],"stateMutability":"view","type":"function"},{"inputs":[{"internalType":"address","name":"to","type":"address"},{"internalType":"uint256","name":"amount","type":"uint256"}],"name":"mintDaoTokens","outputs":[],"stateMutability":"nonpayable","type":"function"},{"inputs":[],"name":"nextProposalId","outputs":[{"internalType":"uint256","name":"","type":"uint256"}],"stateMutability":"view","type":"function"},{"inputs":[],"name":"owner","outputs":[{"internalType":"address","name":"","type":"address"}],"stateMutability":"view","type":"function"},{"inputs":[],"name":"panicWallet","outputs":[{"internalType":"address","name":"","type":"address"}],"stateMutability":"view","type":"function"},{"inputs":[],"name":"panico","outputs":[],"stateMutability":"nonpayable","type":"function"},{"inputs":[],"name":"paused","outputs":[{"internalType":"bool","name":"","type":"bool"}],"stateMutability":"view","type":"function"},{"inputs":[],"name":"proposalDuration","outputs":[{"internalType":"uint256","name":"","type":"uint256"}],"stateMutability":"view","type":"function"},{"inputs":[{"internalType":"uint256","name":"proposalId","type":"uint256"}],"name":"proposals","outputs":[{"internalType":"uint256","name":"id","type":"uint256"},{"internalType":"address","name":"proposer","type":"address"},{"internalType":"string","name":"title","type":"string"},{"internalType":"string","name":"description","type":"string"},{"internalType":"uint256","name":"startTime","type":"uint256"},{"internalType":"uint256","name":"endTime","type":"uint256"},{"internalType":"uint256","name":"forVotes","type":"uint256"},{"internalType":"uint256","name":"againstVotes","type":"uint256"},{"internalType":"enum GovernanceBase.ProposalStatus","name":"status","type":"uint8"},{"internalType":"bool","name":"executed","type":"bool"},{"internalType":"bool","name":"isTreasury","type":"bool"},{"internalType":"address","name":"treasuryRecipient","type":"address"},{"internalType":"uint256","name":"treasuryAmount","type":"uint256"}],"stateMutability":"view","type":"function"},{"inputs":[{"internalType":"address","name":"user","type":"address"}],"name":"proposingStake","outputs":[{"internalType":"uint256","name":"amount","type":"uint256"},{"internalType":"uint256","name":"since","type":"uint256"}],"stateMutability":"view","type":"function"},{"inputs":[],"name":"quorumPercentage","outputs":[{"internalType":"uint256","name":"","type":"uint256"}],"stateMutability":"view","type":"function"},{"inputs":[],"name":"renounceOwnership","outputs":[],"stateMutability":"nonpayable","type":"function"},{"inputs":[{"internalType":"address","name":"newPanicWallet","type":"address"}],"name":"setPanicWallet","outputs":[],"stateMutability":"nonpayable","type":"function"},{"inputs":[{"internalType":"uint256","name":"_tokenPriceWei","type":"uint256"},{"internalType":"uint256","name":"_minStakeForVoting","type":"uint256"},{"internalType":"uint256","name":"_minStakeForProposing","type":"uint256"},{"internalType":"uint256","name":"_minStakeLockTime","type":"uint256"},{"internalType":"uint256","name":"_proposalDuration","type":"uint256"},{"internalType":"uint256","name":"_tokensPerVotePower","type":"uint256"}],"name":"setParameters","outputs":[],"stateMutability":"nonpayable","type":"function"},{"inputs":[{"internalType":"uint256","name":"_quorumPercentage","type":"uint256"},{"internalType":"uint256","name":"_approvalPercentage","type":"uint256"}],"name":"setQuorum","outputs":[],"stateMutability":"nonpayable","type":"function"},{"inputs":[{"internalType":"uint256","name":"amount","type":"uint256"}],"name":"stakeForProposing","outputs":[],"stateMutability":"nonpayable","type":"function"},{"inputs":[{"internalType":"uint256","name":"amount","type":"uint256"}],"name":"stakeForVoting","outputs":[],"stateMutability":"nonpayable","type":"function"},{"inputs":[],"name":"token","outputs":[{"internalType":"contract IDaoToken","name":"","type":"address"}],"stateMutability":"view","type":"function"},{"inputs":[],"name":"tokenPriceWei","outputs":[{"internalType":"uint256","name":"","type":"uint256"}],"stateMutability":"view","type":"function"},{"inputs":[],"name":"tokensPerVotePower","outputs":[{"internalType":"uint256","name":"","type":"uint256"}],"stateMutability":"view","type":"function"},{"inputs":[],"name":"totalVotingPower","outputs":[{"internalType":"uint256","name":"","type":"uint256"}],"stateMutability":"view","type":"function"},{"inputs":[],"name":"tranquilidad","outputs":[],"stateMutability":"nonpayable","type":"function"},{"inputs":[{"internalType":"address","name":"newOwner","type":"address"}],"name":"transferOwnership","outputs":[],"stateMutability":"nonpayable","type":"function"},{"inputs":[{"internalType":"uint256","name":"amount","type":"uint256"}],"name":"unstakeFromProposing","outputs":[],"stateMutability":"nonpayable","type":"function"},{"inputs":[{"internalType":"uint256","name":"amount","type":"uint256"}],"name":"unstakeFromVoting","outputs":[],"stateMutability":"nonpayable","type":"function"},{"inputs":[{"internalType":"uint256","name":"proposalId","type":"uint256"},{"internalType":"bool","name":"support","type":"bool"}],"name":"vote","outputs":[],"stateMutability":"nonpayable","type":"function"},{"inputs":[{"internalType":"address","name":"account","type":"address"}],"name":"votingPower","outputs":[{"internalType":"uint256","name":"","type":"uint256"}],"stateMutability":"view","type":"function"},{"inputs":[{"internalType":"address","name":"user","type":"address"}],"name":"votingStake","outputs":[{"internalType":"uint256","name":"amount","type":"uint256"},{"internalType":"uint256","name":"since","type":"uint256"}],"stateMutability":"view","type":"function"},{"stateMutability":"payable","type":"receive"}],"evm":{"bytecode":{"linkReferences":{},"object":"60a0346200099657601f6200652338819003918201601f191683019291906001600160401b038411838510176200099b5781610140928492604096875283398101031262000996576200005281620009cd565b9060209162000063838301620009cd565b848301516060840151608085015160a086015160c08701519160e0880151936101206101008a01519901519760018060a01b038091169788156200097e578c918991620001358e60009562000102875460018060a01b03199780898316178a5587845192167f8be0079c531659141344cd1fd0a4f28419497f9722a3daafe3b4186f6b6457e08b80a36720701118ac22290b84820152838152620009b1565b6200011e81516792e5c8dbb123fc8784820152838152620009b1565b519067fce35f3e8705855c818301528152620009b1565b1680620001855760048e620001788f62000160835167c0987673e918f13983820152828152620009b1565b8251906746d5bf58d899294d818301528152620009b1565b51630309cb8760e51b8152fd5b7f46304c2bdadb06c16e46b6dc771e062e19a4150c21aa984fa49930bca03267cf8e6200024a8f6200026496958e95620001d08551675d9a72030ac8002685820152848152620009b1565b620001ec855167fede8236cb49a40785820152848152620009b1565b6080526200020b845167cdd2908427c81fbe84820152838152620009b1565b60019e8f9182541617905562000232835167cab742c400d2eab283820152828152620009b1565b825190670fb6132f2e30f113818301528152620009b1565b519280a2677ee3332c00e925778c8201528b8152620009b1565b620002808b51677f2eb5dfa529a7f68c8201528b8152620009b1565b6200029c8b516772f1fce2d819dc1d8c8201528b8152620009b1565b620002b88b5167501115ed5ad84e558c8201528b8152620009b1565b620002d48b51679b9ce79ccb76aeb68c8201528b8152620009b1565b85158062000957575b8015620008f6575b801562000895575b801562000834575b801562000802575b156200033f5760048b620001788c620003278351676e92be53d34169a583820152828152620009b1565b8251906745ca32fc48cf2ddb818301528152620009b1565b917fb4e1fbeb0ffbfe92679bdf67bebeda0b781e7a37849484c69d99695f31e4b02995939160c095936200047d8c671c61ecba1dde319e8f620003938151673670e6460fe74b1785820152848152620009b1565b620003af8151677d538b8b57cac57285820152848152620009b1565b89600255620003cf81516706a171bca9a52a0985820152848152620009b1565b84600355620003ef815167c0a371ad12c4d98385820152848152620009b1565b856004556200040f81516748a59a8b5a466ba585820152848152620009b1565b866005556200042f815167636d5f63e4ec27ea85820152848152620009b1565b876006556200044f815167e239fae5052eb03885820152848152620009b1565b886007556200046f8151677513dbd1176a113085820152848152620009b1565b51918201528d8152620009b1565b8c519586528b8601528b8501526060840152608083015260a0820152a1620004b685516740bddce58611b33d86820152858152620009b1565b620004d2855167434562c6cd4b691586820152858152620009b1565b620004ee855167dd3ef2f34c11594986820152858152620009b1565b6200050a855167db16a5d909a944a186820152858152620009b1565b62000526855167fc06e06d268e5a8286820152858152620009b1565b821580620007db575b8015620007a7575b1562000579576004856200017886620005618351672eab5bf4c87925c583820152828152620009b1565b82519067bc58c962da225e3a818301528152620009b1565b620005958551673f0aab5738ad16a786820152858152620009b1565b620005b1855167f2f6505f872c5d0386820152858152620009b1565b620005cd855167f74a11ec28dd218586820152858152620009b1565b811590816200077f575b811562000742575b5015620006225760048462000178856200060a835167b75951ceaa2423dd83820152828152620009b1565b8251906758e4731d2d248348818301528152620009b1565b836200070193927f6784e9bcb845caaa98267d7b0918f97d3d17f7cb35a05b52010f7eb587a0acb092620006678351675f9091aeb5a8463f87820152868152620009b1565b62000683835167cefd37e6e4bd25b987820152868152620009b1565b81600855620006a3835167eba0a504d030b19287820152868152620009b1565b80600955620006c383516756fea3a34a58fa0b87820152868152620009b1565b620006df83516799af20dc3f3568aa87820152868152620009b1565b825191825284820152a1825190671def95f891fb8c01818301528152620009b1565b51615b409081620009e382396080518181816101ff0152818161070f01528181610b9c0152818161265a0152818161424301528181614b9a015261508f0152f35b6064831191508162000757575b5038620005df565b9050620007788551671a1fde8ee186979160c01b86820152858152620009b1565b386200074f565b9050620007a08551671e59b318f81a486760c31b86820152858152620009b1565b80620005d7565b506064831180156200053757508451673ebc070459a9cd7560c01b85820152848152620007d490620009b1565b8062000537565b50845166de286980802e1960c51b85820152848152620007fb90620009b1565b806200052f565b5084158015620002fd57508a5167f30df79f4678905f60c01b8b8201528a81526200082d90620009b1565b86620002fd565b508315806200086d575b8015620002f557508a51673d6e3e8884f015fb60c21b8b8201528a81526200086690620009b1565b86620002f5565b508a516727e12bda275e2e3760c01b8b8201528a81526200088e90620009b1565b866200083e565b50811580620008ce575b8015620002ed57508a5167065d65609d6537ad60c41b8b8201528a8152620008c790620009b1565b86620002ed565b508a5167109f800444ccfb0960c31b8b8201528a8152620008ef90620009b1565b866200089f565b508015806200092f575b8015620002e557508a5167213400d122b3944160c11b8b8201528a81526200092890620009b1565b86620002e5565b508a51673bed8da6694bcb2d60c21b8b8201528a81526200095090620009b1565b8662000900565b508a5166161a8aa422161160c81b8b8201528a81526200097790620009b1565b86620002dd565b8c51631e4fbdf760e01b815260006004820152602490fd5b600080fd5b634e487b7160e01b600052604160045260246000fd5b604081019081106001600160401b038211176200099b57604052565b51906001600160a01b0382168203620009965756fe6080806040526004361015610035575b503615610033576100336040516797da196c0033ff876020820152602081526157fc565b005b600090813560e01c9081627e637e1461531857508063013cf08b1461521c57806305d0f15b146151fe5780630627d42514614cec5780630a5af04b14614ca95780630d346e9a14614c8b5780631638468614614a3e578063282c8749146146145780632ab09d14146145f65780633008d437146145d857806330109962146145ba5780634091e8f01461442257806343859632146143d05780634fa76ec9146143b2578063542ffa7b14613dec5780635652077c1461373d5780635c975abb1461371757806365e481e214612f8b578063671b379314612f6d578063715018a614612f135780637a3d546814612bc257806381e6830f14612a185780638da5cb5b146129f1578063977613821461282357806398e527d3146127b35780639f45b13314612770578063a028699e14612340578063a73079ac14611991578063ad3bcade14611968578063c07473f61461193c578063c2d667761461191e578063c7f758a8146115c3578063c9d27afe14610df6578063d064a9a414610dd8578063d0febe4c14610855578063d1b85b49146102da578063f2fde38b1461024f578063f96df52a146102315763fc0c546a0361000f573461022e578060031936011261022e576040517f00000000000000000000000000000000000000000000000000000000000000006001600160a01b03168152602090f35b80fd5b503461022e578060031936011261022e576020600754604051908152f35b503461022e57602036600319011261022e57610269615943565b6102716159bc565b6001600160a01b039081169081156102c157600054826001600160601b0360a01b821617600055167f8be0079c531659141344cd1fd0a4f28419497f9722a3daafe3b4186f6b6457e0600080a380f35b604051631e4fbdf760e01b815260048101849052602490fd5b503461022e576020806003193601126108515760043561030b60405167f2be5a8ee83ffc13848201528381526157fc565b6103266040516723a6aa57f260cee6848201528381526157fc565b6103416040516738f9d058737588aa848201528381526157fc565b61035c6040516798dbd418d87fb6d3848201528381526157fc565b60015460ff8160a01c166000146103b6576103a48361038c6040516706d22a1603cc66af838201528281526157fc565b604051906789152c472df81d158183015281526157fc565b604051632795c27960e21b8152600490fd5b6103d1604051673392708b065c4978858201528481526157fc565b6103ec60405167215f2bced65eb339858201528481526157fc565b6104076040516771a6b24264ec116e858201528481526157fc565b6001600160a01b0390811661045f5761044d8361043560405167f4dbdb29e7311b48838201528281526157fc565b60405190675e5fde16bb0797b98183015281526157fc565b60405163028eecf360e11b8152600490fd5b61047a604051679876c41ef0ccdf57858201528481526157fc565b610495604051678a7063d64d1c73c8858201528481526157fc565b6104b060405167f7e5c56964f17222858201528481526157fc565b6104cb60405167773fd2faadda0382858201528481526157fc565b6104e66040516715669f87e197bc80858201528481526157fc565b61050160405167e5c7e41d8a6f9929858201528481526157fc565b8161054f5761053d8361052560405167c01c81a7093739b0838201528281526157fc565b6040519067da233670972eecb78183015281526157fc565b604051630309cb8760e51b8152600490fd5b909161056c60405167725c281de7f9f000838201528281526157fc565b61058760405167d17c70dc03b73c35838201528281526157fc565b6105a260405167450f1c5aa5713086838201528281526157fc565b338452600e81526106a8604085206105cb60405167ab6d619fcb8effa8858201528481526157fc565b6105e66040516768d235163ea32506858201528481526157fc565b61061b610684825492610620886105ff600754876159fb565b9561061b60405167ac4fe974bcd39ccc8b8201528a81526157fc565b615a77565b9081815561063f60405167981bb5173ecfbaae898201528881526157fc565b60014291015561066060405167a95c04ff82103bc7888201528781526157fc565b61067b6040516734510220458fb19c888201528781526157fc565b600754906159fb565b916106a060405167da9e5becdc016fa3878201528681526157fc565b600b54615a84565b600b556106c6604051673e0b9c1d2f285290838201528281526157fc565b6106e1604051677090d6486e984a9e838201528281526157fc565b6040516323b872dd60e01b8152336004820152306024820152604481018490529181908390606490829088907f0000000000000000000000000000000000000000000000000000000000000000165af1918215610846577fec53a80f7fd2e0ad362f205aa59d80df1f44ddbb229bbe3591a1bf8d34fb5b6f926107bc918691610819575b50610781604051679e859a795ba12f2a858201528481526157fc565b61079c60405167d48a66dafc46fe9e858201528481526157fc565b6107b76040516776716fd441b6c05b858201528481526157fc565b615a33565b6107d760405167fb0b0591582fb387838201528281526157fc565b6107f260405167b1612cec300aceff838201528281526157fc565b61080d604051679760e5fd6fee8a25838201528281526157fc565b6040519283523392a280f35b6108399150833d851161083f575b6108318183615818565b810190615a1b565b38610765565b503d610827565b6040513d86823e3d90fd5b5080fd5b508060031936011261022e576040519061088060209267770e6d8fc6fab224848201528381526157fc565b61089b6040516723a6aa57f260cee6848201528381526157fc565b6108b66040516738f9d058737588aa848201528381526157fc565b6108d16040516798dbd418d87fb6d3848201528381526157fc565b60015460ff8160a01c16600014610901576103a48361038c6040516706d22a1603cc66af838201528281526157fc565b61091c604051673392708b065c4978858201528481526157fc565b61093760405167215f2bced65eb339858201528481526157fc565b6109526040516771a6b24264ec116e858201528481526157fc565b6001600160a01b039081166109805761044d8361043560405167f4dbdb29e7311b48838201528281526157fc565b61099b604051679876c41ef0ccdf57858201528481526157fc565b6109b6604051678a7063d64d1c73c8858201528481526157fc565b6109d160405167d0cd36ca3e1aa2d8858201528481526157fc565b6109ec6040516792166a27746fff20858201528481526157fc565b610a07604051679998c20bcc9bb286858201528481526157fc565b610a2260405167a1b7490e9252122d858201528481526157fc565b34158015610a615761053d84610a4960405167e5cb03edfa874318838201528281526157fc565b60405190672d9843a99937d9248183015281526157fc565b610a7c6040516773016140494242d3868201528581526157fc565b610a976040516756d062e916e92734868201528581526157fc565b610ab260405167d530dab68705a557868201528581526157fc565b670de0b6b3a76400009081340291348304141715610dc457600254610ad6916159fb565b90610af2604051676b35b80ab6a075e3868201528581526157fc565b610b0d60405167570cadbc8ee0e7fc868201528581526157fc565b81610b495761053d84610b31604051676f89b11aeb99cc5f838201528281526157fc565b60405190671a238561849246f88183015281526157fc565b610b64604051679cc47f97117048c1868201528581526157fc565b610b7f6040516788911bf06768e056868201528581526157fc565b610b9a60405167931a4c05121a90de868201528581526157fc565b7f000000000000000000000000000000000000000000000000000000000000000016906040516370a0823160e01b81523060048201528481602481865afa908115610846579082918591610d8f575b50610c05604051672e694bc87179b4ec888201528781526157fc565b610c2060405167bdb18d53a5ba2eb3888201528781526157fc565b1015610c5d5761053d84610c4560405167c7901dd12fa0f80f838201528281526157fc565b60405190670c87bbafed521cf98183015281526157fc565b92610ce081928495610c80604051673af087c09c41e336868201528581526157fc565b610c9b6040516771647dab0e5d4daa868201528581526157fc565b610cb6604051670b65c2d5ba5a7ca3868201528581526157fc565b60405163a9059cbb60e01b8152336004820152602481019190915294859283919082906044820190565b03925af1918215610d8457610d6492610d4c918591610d67575b50610d1660405167ee15fc0058dc8e5a858201528481526157fc565b610d31604051675d829ae4e741a5a3858201528481526157fc565b6107b76040516738c26480e6aa5ae4858201528481526157fc565b60405190670c5989231d1647a08183015281526157fc565b80f35b610d7e9150833d851161083f576108318183615818565b38610cfa565b6040513d85823e3d90fd5b809250868092503d8311610dbd575b610da88183615818565b81010312610db95781905138610be9565b8380fd5b503d610d9e565b634e487b7160e01b83526011600452602483fd5b503461022e578060031936011261022e576020600554604051908152f35b503461022e57604036600319011261022e57602435801515600435818303610db95760405192610e37602094672fae7e79379027b3868201528581526157fc565b610e526040516723a6aa57f260cee6868201528581526157fc565b610e6d6040516738f9d058737588aa868201528581526157fc565b610e886040516798dbd418d87fb6d3868201528581526157fc565b60015460ff8160a01c16600014610eb8576103a48561038c6040516706d22a1603cc66af838201528281526157fc565b610ed3604051673392708b065c4978878201528681526157fc565b610eee60405167215f2bced65eb339878201528681526157fc565b610f096040516771a6b24264ec116e878201528681526157fc565b6001600160a01b03908116610f375761044d8561043560405167f4dbdb29e7311b48838201528281526157fc565b610f52604051679876c41ef0ccdf57878201528681526157fc565b610f6d604051678a7063d64d1c73c8878201528681526157fc565b610f8860405167fe9016c6515662c6878201528681526157fc565b610fa3604051679ab74f433f258e85878201528681526157fc565b610fbe60405167bec9e58f76e56541878201528681526157fc565b610fd960405167272a0cfd3d951641878201528681526157fc565b828652600c8552604086209061100060405167eb71f3cec20cdb20888201528781526157fc565b61101b60405167f0ef278b0575d837888201528781526157fc565b60018201541661106e5761105c8561104460405167911b5bb8434e067d838201528281526157fc565b60405190675287ccd9a558eb298183015281526157fc565b604051631dc0650160e31b8152600490fd5b611089604051677c24ada633b2bb69878201528681526157fc565b6110a4604051674ca526fce85a3951878201528681526157fc565b6110bf6040516789881391ad4d3893878201528681526157fc565b60ff60088201541660038110156115af571561111e5761110c856110f4604051673c03913d81c5621f838201528281526157fc565b6040519067a2501d8dc502b8538183015281526157fc565b604051630eeb4f1560e01b8152600490fd5b61113960405167d70215d0002fbb75878201528681526157fc565b61115460405167762720b5c184cab6878201528681526157fc565b61116f604051670e4f8581375c3cd2878201528681526157fc565b600581015442106111b15761110c8561119960405167ca3df2adb5c51e01838201528281526157fc565b60405190674e2e6b901d40dc748183015281526157fc565b6111cc604051672e6fc3dd061872ad878201528681526157fc565b6111e760405167555774988f968270878201528681526157fc565b61120260405167c7d80d86de340045878201528681526157fc565b828652600d85526040862033600052855260ff6040600020541660001461126c5761125a856112426040516798edf93877adb376838201528281526157fc565b60405190679bfad8c29936bf038183015281526157fc565b604051637c9a1cf960e01b8152600490fd5b6112876040516789c45aa7396f1189878201528681526157fc565b6112a260405167cf4305f26de15329878201528681526157fc565b6112bd60405167faa30fbf20beb391878201528681526157fc565b338652600e8552604086206112e3604051675aa387c6331ed508888201528781526157fc565b6112fd60405166bc2cb247e14ee6888201528781526157fc565b5460035411156113505761133e856113266040516760ecefdd650f2126838201528281526157fc565b604051906729bb345d386e2bed8183015281526157fc565b6040516378de4a6960e11b8152600490fd5b61136b6040516754e2cc8f32b4a26a878201528681526157fc565b611386604051674763e48b20937a3c878201528681526157fc565b6113a160405167652983794fb6f3c0878201528681526157fc565b6113aa33615a91565b916113c660405167802040b18a15254e888201528781526157fc565b6113e160405167073355f172e84991888201528781526157fc565b8261141d5761133e866114056040516799eedf134ff13061838201528281526157fc565b6040519067a8b2e8cdf821e1988183015281526157fc565b9086959161143c60405167af2b5ae53de9c25c858201528481526157fc565b611457604051674cc858fbfd0fd2f0858201528481526157fc565b848752600d8352604087203360005283526040600020600160ff19825416179055611493604051678a05040609fdf3e6858201528481526157fc565b6114ae60405167259926c2a06f0a88858201528481526157fc565b15611563576006906114d16040516728b535aead4e5edf858201528481526157fc565b6114ec604051673e2ae21996b18772858201528481526157fc565b016114f8838254615a77565b90555b611516604051673a863b0055338842838201528281526157fc565b61153160405167889c0e7a5ada84fc838201528281526157fc565b6040519384528301527fcbdf6214089cba887ecbf35a0b6a734589959c9763342c756bb2a80ca2bc9f6e60403393a380f35b60079061158160405167c517e0ddf44af2b8858201528481526157fc565b61159c6040516796434d5a839c62e6858201528481526157fc565b016115a8838254615a77565b90556114fb565b634e487b7160e01b87526021600452602487fd5b503461022e57602036600319011261022e57806101806040516115e5816157df565b828152826020820152606060408201526060808201528260808201528260a08201528260c08201528260e082015282610100820152826101208201528261014082015282610160820152015261164e60405167f360d9c3ea2353b56020820152602081526157fc565b61166b604051671b9b832dfd03b34f6020820152602081526157fc565b611688604051670577bd968a9a12076020820152602081526157fc565b6004358152600c60205260408120604051906116a3826157df565b8054825260018101546001600160a01b031660208301526116c66002820161583a565b60408301526116d76003820161583a565b606083015260048101546080830152600581015460a0830152600681015460c0830152600781015460e08301526008810154600360ff8216101561190a5760ff808216610100850152600882901c81161515610120850152601082901c16151561014084015260181c6001600160a01b03166101608301526009015461018082015260405167f433ab25717582656020808301919091528152611779906157fc565b61179660405167797f9dbdb8b7845b6020820152602081526157fc565b60208101516001600160a01b03166117e2576117c560405167e375853bce81fbe86020820152602081526157fc565b61105c60405167047137d64bf7bb8e6020820152602081526157fc565b6117ff6040516792dee994dc3f2efe6020820152602081526157fc565b61181c604051671c325851089214176020820152602081526157fc565b61183960405167cbb761f7c7a3b3fe6020820152602081526157fc565b6040518091602082528051602083015260018060a01b03602082015116604083015261018061189261187c60408401516101a060608701526101c08601906158e0565b6060840151858203601f190160808701526158e0565b91608081015160a085015260a081015160c085015260c081015160e085015260e08101516101008501526118d0610100820151610120860190615920565b6101208101511515610140850152610140810151151561016085015260018060a01b03610160820151168285015201516101a08301520390f35b634e487b7160e01b84526021600452602484fd5b503461022e578060031936011261022e576020600354604051908152f35b503461022e57602036600319011261022e57602061196061195b615943565b615a91565b604051908152f35b503461022e578060031936011261022e576001546040516001600160a01b039091168152602090f35b503461022e57608036600319011261022e5760043567ffffffffffffffff8111610851576119c3903690600401615975565b906024359067ffffffffffffffff821161022e57506119e6903690600401615975565b906001600160a01b03604435808216900361233b57611a18604051676c44818082a0d2006020820152602081526157fc565b611a356040516723a6aa57f260cee66020820152602081526157fc565b611a526040516738f9d058737588aa6020820152602081526157fc565b611a6f6040516798dbd418d87fb6d36020820152602081526157fc565b60015460ff8160a01c16600014611aba57611a9d6040516706d22a1603cc66af6020820152602081526157fc565b6103a46040516789152c472df81d156020820152602081526157fc565b8190611ad9604051673392708b065c49786020820152602081526157fc565b611af660405167215f2bced65eb3396020820152602081526157fc565b611b136040516771a6b24264ec116e6020820152602081526157fc565b16611b5257611b3560405167f4dbdb29e7311b486020820152602081526157fc565b61044d604051675e5fde16bb0797b96020820152602081526157fc565b611b6f604051679876c41ef0ccdf576020820152602081526157fc565b611b8c604051678a7063d64d1c73c86020820152602081526157fc565b611ba960405167b9ade9e937dd573c6020820152602081526157fc565b611bc660405167abb29e29c91ce94e6020820152602081526157fc565b611be3604051675114c40f73c75a5e6020820152602081526157fc565b611c0060405167de68b8d951cb7c006020820152602081526157fc565b80604435161580612313575b80156122e0575b15611c6457611c35604051674664f81c377b4d0f6020820152602081526157fc565b611c526040516731a4f82099b56ea36020820152602081526157fc565b604051631713da9d60e11b8152600490fd5b611c81604051677bc745a30ed0e6346020820152602081526157fc565b611c9e60405167c529a3a0e846e3ba6020820152602081526157fc565b611cbb604051673142f9eddcd37dc26020820152602081526157fc565b611cd860405167a40c93dc08dfbe586020820152602081526157fc565b611cf560405167c8d27382081a59856020820152602081526157fc565b611d126040516798af0a14673f2f826020820152602081526157fc565b33600052600f6020526040600020611d3d60405167ac8a14d2034742906020820152602081526157fc565b611d5a60405167d8ce26b2d21b8da76020820152602081526157fc565b546004541115611d9e57611d81604051676603b02773c537c46020820152602081526157fc565b61133e6040516713724890f20ffbbc6020820152602081526157fc565b611dbb6040516722155d35b9609cdc6020820152602081526157fc565b611dd8604051675834b715c15ca4aa6020820152602081526157fc565b611df5604051672b9cd1e119ed69216020820152602081526157fc565b600a549160001983146122ca5760018301600a55611e2660405167aaec691e840ce15b6020820152602081526157fc565b611e43604051677c599ab0019ecff46020820152602081526157fc565b82600052600c602052604060002090611e6f60405167e3e0377415184feb6020820152602081526157fc565b838255611e8f604051676fac893fb38e6e9c6020820152602081526157fc565b60018201336001600160601b0360a01b825416179055611ec26040516714f870ef3bd5bad86020820152602081526157fc565b80519067ffffffffffffffff82116121e9578190611ee360028501546157a5565b601f8111612277575b50602090601f831160011461220a576000926121ff575b50508160011b916000199060031b1c19161760028201555b611f3860405167903342180d709e4d6020820152602081526157fc565b835167ffffffffffffffff81116121e9576003820190611f5882546157a5565b95601f87116121a1575b602096508690601f8311600114612137576009949392916000918361212c575b50508160011b916000199060031b1c19161790555b611fb26040516794df3347a03aafcb878201528681526157fc565b426004820155611fd3604051670672f86d6455373d878201528681526157fc565b611fdf60065442615a77565b6005820155611fff60405167c444a11ee9a8fc6f878201528681526157fc565b600881016201000081546120246040516778e4dd3c4757aa518a8201528981526157fc565b61203f60405167b66e8b38bba55f6e8a8201528981526157fc565b61ff01600160b81b03191660443560181b6301000000600160b81b03161717905560405167783d7a708fb853d78682015285815261207c906157fc565b606435918291015561209f60405167eca2005c7aff570d868201528581526157fc565b6120ba60405167fab4b9f47ecc5609868201528581526157fc565b604051916001835260443516848301526040820152817fb956772e7b554d19bb961f4303b6c0c5cd7592c0c06fd08f15a56a0f304e6c0d60603393a36121116040516797167ef0eeb7510a848201528381526157fc565b61196060405167776c3a0cbce36eb1848201528381526157fc565b015190503880611f82565b90601f1983169184600052886000209260005b81811061218a575091600193918560099897969410612171575b505050811b019055611f97565b015160001960f88460031b161c19169055388080612164565b92938a60018192878601518155019501930161214a565b826000526020600020601f830160051c810197602084106121df575b601f0160051c01965b8781106121d35750611f62565b600081556001016121c6565b90975087906121bd565b634e487b7160e01b600052604160045260246000fd5b015190503880611f03565b600285016000908152602081209350601f198516905b81811061225f5750908460019594939210612246575b505050811b016002820155611f1b565b015160001960f88460031b161c19169055388080612236565b92936020600181928786015181550195019301612220565b909150600284016000526020600020601f840160051c8101602085106122c3575b90849392915b601f830160051c820181106122b4575050611eec565b6000815585945060010161229e565b5080612298565b634e487b7160e01b600052601160045260246000fd5b50606435158015611c13575061230c60405167092767e04c3f798d60c31b6020820152602081526157fc565b6001611c13565b50612334604051670e87b74e6d3c26d560c41b6020820152602081526157fc565b6001611c0c565b600080fd5b503461022e5760208060031936011261085157600435612371604051677a1bfaee5ed4260d848201528381526157fc565b61238c6040516723a6aa57f260cee6848201528381526157fc565b6123a76040516738f9d058737588aa848201528381526157fc565b6123c26040516798dbd418d87fb6d3848201528381526157fc565b60015460ff8160a01c166000146123f2576103a48361038c6040516706d22a1603cc66af838201528281526157fc565b61240d604051673392708b065c4978858201528481526157fc565b61242860405167215f2bced65eb339858201528481526157fc565b6124436040516771a6b24264ec116e858201528481526157fc565b6001600160a01b039081166124715761044d8361043560405167f4dbdb29e7311b48838201528281526157fc565b61248c604051679876c41ef0ccdf57858201528481526157fc565b6124a7604051678a7063d64d1c73c8858201528481526157fc565b6124c260405167cd4240bba1f78a79858201528481526157fc565b6124dd60405167f48a66b8bd6d48a0858201528481526157fc565b6124f8604051675e10b1a08c87803e858201528481526157fc565b612513604051678322f09cf09c9835858201528481526157fc565b8161254f5761053d83612537604051670f825e19249991ed838201528281526157fc565b6040519067b1bdd962f400392f8183015281526157fc565b909161256c604051671d51a28f8e996726838201528281526157fc565b612587604051672022ee568b41420b838201528281526157fc565b6125a2604051676c6964d1d4cea928838201528281526157fc565b338452600f8152604084206125c860405167500074fed95bebd4848201528381526157fc565b6125d3848254615a77565b81556125f060405167426d7daf9909d258848201528381526157fc565b60014291015561261160405167f614b1d2ff20f5d3838201528281526157fc565b61262c60405167d88d7aca37d9e9d8838201528281526157fc565b6040516323b872dd60e01b8152336004820152306024820152604481018490529181908390606490829088907f0000000000000000000000000000000000000000000000000000000000000000165af1918215610846577ffb98bd47dcfd31e8d0c0e3558ffb823c6ad6ddcba96e48e82608e567b21cb1dd92612702918691612753575b506126cc60405167dfa53e62a77c6139858201528481526157fc565b6126e76040516726a8af3cdb18774f858201528481526157fc565b6107b760405167ea7c000a84079b85858201528481526157fc565b61271d604051670ab34b14e8ae04df838201528281526157fc565b61273860405167438c2e2c3d07a81a838201528281526157fc565b61080d6040516717b478d36b9c87c0838201528281526157fc565b61276a9150833d851161083f576108318183615818565b386126b0565b503461022e57602036600319011261022e5760409081906001600160a01b03612797615943565b168152600e602052206001815491015482519182526020820152f35b503461022e578060031936011261022e576040516127e260209167ff79803b88b37f9e838201528281526157fc565b6127fd6040516764cdfb3aaaac0bba838201528281526157fc565b61281860405167e815a041fcdd32ea838201528281526157fc565b600a54604051908152f35b503461022e578060031936011261022e57604051612852602091671b4b07558ad3d481838201528281526157fc565b61286d6040516752f6b0b383f2940d838201528281526157fc565b6128886040516772fadd286d0c89cf838201528281526157fc565b6128a360405167634c9e39a942b0ed838201528281526157fc565b600154336001600160a01b038216146128ff576128ed826128d560405167e693c4aed39bb965838201528281526157fc565b60405190672c4e70c45f3e00878183015281526157fc565b60405163b9e5ac5f60e01b8152600490fd5b906129c99161291f604051672b146a1be10fa642848201528381526157fc565b61293a604051672d4d1e22e713b2cb848201528381526157fc565b61295560405167940f792ff0add0fe848201528381526157fc565b61297060405167ce73c59e11628a45848201528381526157fc565b61298b60405167e05fddf26cec4fb0848201528381526157fc565b60ff60a01b191660015560405167fb992e631873cc8b828201528181526129b1906157fc565b60405190674208b328433202c28183015281526157fc565b337fdb333f8de8435249d224d186f58a6cb30292b00a2897688694c176f2cde512b08280a280f35b503461022e578060031936011261022e57546040516001600160a01b039091168152602090f35b503461022e578060031936011261022e57604051612a4760209167de550f64fc9acca9838201528281526157fc565b612a626040516752f6b0b383f2940d838201528281526157fc565b612a7d6040516772fadd286d0c89cf838201528281526157fc565b612a9860405167634c9e39a942b0ed838201528281526157fc565b600154336001600160a01b03821614612aca576128ed826128d560405167e693c4aed39bb965838201528281526157fc565b90612b9a91612aea604051672b146a1be10fa642848201528381526157fc565b612b05604051672d4d1e22e713b2cb848201528381526157fc565b612b20604051670d7b40aa6c60f1d1848201528381526157fc565b612b3b6040516797d1d3bc59bc4486848201528381526157fc565b612b5660405167144e5b8e69fc449a848201528381526157fc565b60ff60a01b1916600160a01b17600155604051671b97ec3746f5647b82820152818152612b82906157fc565b604051906786efe69453898df48183015281526157fc565b337f0b907d122e4db865e49bc04c7f1e84a1ae29e024ee225bc08c69104520c5f3f98280a280f35b503461022e57604036600319011261022e576004356024359060405191612bfa602093678cb8dd73bad60e8b858201528481526157fc565b612c026159bc565b612c1d604051671b32692575755abc858201528481526157fc565b612c38604051672f2590c75f74b55b858201528481526157fc565b612c5360405167a34d542293a48eb3858201528481526157fc565b612c6e60405167bf96671367c51d43858201528481526157fc565b612c8960405167dd3ef2f34c115949858201528481526157fc565b612ca460405167db16a5d909a944a1858201528481526157fc565b612cbf60405167fc06e06d268e5a82858201528481526157fc565b811580612eed575b8015612ebb575b15612d0a5761053d83612cf2604051672eab5bf4c87925c5838201528281526157fc565b6040519067bc58c962da225e3a8183015281526157fc565b612d25604051673f0aab5738ad16a7858201528481526157fc565b612d4060405167f2f6505f872c5d03858201528481526157fc565b612d5b60405167f74a11ec28dd2185858201528481526157fc565b801580612e94575b8015612e62575b15612da65761053d83612d8e60405167b75951ceaa2423dd838201528281526157fc565b604051906758e4731d2d2483488183015281526157fc565b906040917f6784e9bcb845caaa98267d7b0918f97d3d17f7cb35a05b52010f7eb587a0acb093612de68451675f9091aeb5a8463f838201528281526157fc565b612e00845167cefd37e6e4bd25b9838201528281526157fc565b82600855612e1e845167eba0a504d030b192838201528281526157fc565b81600955612e3c84516756fea3a34a58fa0b838201528281526157fc565b612e5684516799af20dc3f3568aa838201528281526157fc565b8351928352820152a180f35b50606481118015612d6a5750604051671a1fde8ee186979160c01b84820152838152612e8d906157fc565b6001612d6a565b50604051671e59b318f81a486760c31b84820152838152612eb4906157fc565b6001612d63565b50606482118015612cce5750604051673ebc070459a9cd7560c01b84820152838152612ee6906157fc565b6001612cce565b5060405166de286980802e1960c51b84820152838152612f0c906157fc565b6001612cc7565b503461022e578060031936011261022e57612f2c6159bc565b600080546001600160a01b0319811682556001600160a01b03167f8be0079c531659141344cd1fd0a4f28419497f9722a3daafe3b4186f6b6457e08280a380f35b503461022e578060031936011261022e576020600b54604051908152f35b503461022e57604036600319011261022e5767ffffffffffffffff60043581811161371357612fbe903690600401615975565b916024359082821161022e5750612fd9903690600401615975565b9160405192612ff9602094677d0a8177ab5cbe5f868201528581526157fc565b6130146040516723a6aa57f260cee6868201528581526157fc565b61302f6040516738f9d058737588aa868201528581526157fc565b61304a6040516798dbd418d87fb6d3868201528581526157fc565b600192835460ff8160a01c1660001461307c576103a48661038c6040516706d22a1603cc66af838201528281526157fc565b613097604051673392708b065c4978888201528781526157fc565b6130b260405167215f2bced65eb339888201528781526157fc565b6130cd6040516771a6b24264ec116e888201528781526157fc565b6001600160a01b03166130f95761044d8561043560405167f4dbdb29e7311b48838201528281526157fc565b613114604051679876c41ef0ccdf57878201528681526157fc565b61312f604051678a7063d64d1c73c8878201528681526157fc565b61314a60405167e86342d87165fa59878201528681526157fc565b613165604051671fcb6a41c6c69858878201528681526157fc565b61317f60405166e5ffa32b24c898878201528681526157fc565b61319a60405167b8956612c495a018878201528681526157fc565b6131b560405167a40c93dc08dfbe58878201528681526157fc565b6131d060405167c8d27382081a5985878201528681526157fc565b6131eb6040516798af0a14673f2f82878201528681526157fc565b33600052600f8552604060002061321360405167ac8a14d203474290888201528781526157fc565b61322e60405167d8ce26b2d21b8da7888201528781526157fc565b54600454111561326f5761133e85613257604051676603b02773c537c4838201528281526157fc565b604051906713724890f20ffbbc8183015281526157fc565b61328a6040516722155d35b9609cdc878201528681526157fc565b6132a5604051675834b715c15ca4aa878201528681526157fc565b6132c0604051672b9cd1e119ed6921878201528681526157fc565b600a5493600019908186146122ca57808601600a556132f060405167aaec691e840ce15b898201528881526157fc565b61330b604051677c599ab0019ecff4898201528881526157fc565b85600052600c875260406000209461333460405167e3e0377415184feb8a8201528981526157fc565b868655613352604051676fac893fb38e6e9c8a8201528981526157fc565b85820180546001600160a01b031916331790556040516714f870ef3bd5bad889820152888152613381906157fc565b805160028701918582116121e957819061339b84546157a5565b601f81116136c0575b508a90601f831160011461365f57600092613654575b50508482851b9260031b1c19161790555b6133e660405167903342180d709e4d898201528881526157fc565b600385019380519384116121e9576133fe85546157a5565b601f811161360b575b508790601f851160011461359d57928480936000989693600998968a95613592575b50501b9260031b1c19161790555b6134526040516794df3347a03aafcb878201528681526157fc565b426004820155613473604051670672f86d6455373d878201528681526157fc565b61347f60065442615a77565b600582015561349f60405167c444a11ee9a8fc6f878201528681526157fc565b6008810180546134c06040516778e4dd3c4757aa51898201528881526157fc565b6134db60405167b66e8b38bba55f6e898201528881526157fc565b61ff01600160b81b031916905560405167783d7a708fb853d786820152858152613504906157fc565b015561352160405167eca2005c7aff570d848201528381526157fc565b61353c60405167fab4b9f47ecc5609848201528381526157fc565b6040516000815260008382015260006040820152817fb956772e7b554d19bb961f4303b6c0c5cd7592c0c06fd08f15a56a0f304e6c0d60603393a36121116040516797167ef0eeb7510a848201528381526157fc565b015193503880613429565b91939290601f1984169286600052896000209360005b8b8282106135f7575050918593916009989660009a989694106135df575b50505050811b019055613437565b01519060f88460031b161c19169055388080806135d1565b8385015187559588019593840193016135b3565b8560005288600020601f860160051c8101918a871061364a575b601f0160051c019083905b82811061363e575050613407565b60008155018390613630565b9091508190613625565b0151905038806133ba565b60008581528c8120879550929190601f198516908e5b8282106136a95750508411613692575b505050811b0190556133cb565b01518660f88460031b161c19169055388080613685565b83850151865589979095019493840193018e613675565b909150836000528a600020601f840160051c8101918c8510613709575b84939291601f88920160051c01915b8281106136fa5750506133a4565b600081558594508791016136ec565b90915081906136dd565b8280fd5b503461022e578060031936011261022e57602060ff60015460a01c166040519015158152f35b503461022e576020806003193601126108515760043561376e6040516729bfea2db3841d45848201528381526157fc565b61378960405167b929751c4a787b78848201528381526157fc565b6137a46040516793875fa05d90fafe848201528381526157fc565b808352600c8252604083206137ca604051676fcc2a00d8ee39eb858201528481526157fc565b6137e56040516714e634b3e71f4e6e858201528481526157fc565b60018101546001600160a01b031661382e5761105c8361381660405167e4c03eeef1531a84838201528281526157fc565b604051906799bf2c6c0b2a929f8183015281526157fc565b613849604051670c7040fdd86c8c71858201528481526157fc565b61386460405167bb61c1e726367e15858201528481526157fc565b61387f6040516775c13795ff8714bc858201528481526157fc565b6008810190815460ff811660038110156115af57156138cf5761110c856138b760405167a674fe8fe5c0cbf9838201528281526157fc565b60405190670d91b0b214c251178183015281526157fc565b6138ea604051674113cb3dfc34ba23878201528681526157fc565b613905604051672d3e68b9a3df2975878201528681526157fc565b613920604051679511d073c66857d9878201528681526157fc565b60058201544210156139635761110c8561394b6040516770d0f6977c9b4a55838201528281526157fc565b6040519067d58df4fcc5a7096c8183015281526157fc565b61397e604051675d18052cb5e4d5d2878201528681526157fc565b61399960405167e5dbde152ffce104878201528681526157fc565b6139b46040516794531a8d0519b218878201528681526157fc565b6139c960068301926007845491015490615a77565b906139e5604051671f3f77a731298804888201528781526157fc565b613a006040516757e916a2117b665e888201528781526157fc565b600b548015613da257613a69606491613a2a60405167ebda226b3bddd3bd8b8201528a81526157fc565b613a45604051674d0bd7e6eb0ed2568b8201528a81526157fc565b613a6060405167e8ddec26884db8bc8b8201528a81526157fc565b600854906159e8565b04613a8560405167e3c4bb2918f2f97c898201528881526157fc565b613aa060405167adcbbe631ca1f208898201528881526157fc565b821015613b6c57613b5a8686613ac760405167428b5e81371064ac848201528381526157fc565b613ae26040516710554a07bc248e77848201528381526157fc565b613afd60405167353d500ae48b05ea848201528381526157fc565b613b1860405167a0df3ce5f4c1aca8848201528381526157fc565b7f34a42c4ce0a88d16ad098de6406057747139a2a3dd8dd8616ee7bbabcecb768e8260405160028152a260405190672bd77a22725acd028183015281526157fc565b60405163aa26a69360e01b8152600490fd5b917f34a42c4ce0a88d16ad098de6406057747139a2a3dd8dd8616ee7bbabcecb768e9495939160ff93613bb0604051671a29202b2d3df6aa888201528781526157fc565b613bcb60405167ef43ac4e68a56c69888201528781526157fc565b613be660405167d51fe87f84879e57888201528781526157fc565b8115613d5b5750613c4d606491613c0e604051672cdbf4b6809bdac5898201528881526157fc565b613c296040516703994763b048eda8898201528881526157fc565b613c4460405167c38f6e1e2eb175d6898201528881526157fc565b600954906159e8565b0490613c6a60405167bdd3c73cb59d019c878201528681526157fc565b613c85604051670ccae6e5c4400a1d878201528681526157fc565b541115613d1657613ca760405167199eb2fe1acf4f07858201528481526157fc565b613cc2604051678108ce35c6aab164858201528481526157fc565b600182198254161781555b613ce860405167cf2251ef07e4f214858201528481526157fc565b613d036040516710ed8ce21bb9ff9f858201528481526157fc565b5416613d126040518092615920565ba280f35b613d3160405167b4793fb69f7a0c89858201528481526157fc565b613d4c60405167b4cafd4b627f6b2c858201528481526157fc565b60028219825416178155613ccd565b905060029150613d7c60405167057bd64727128a5a878201528681526157fc565b613d976040516747dc461ad977eb67878201528681526157fc565b831916178155613ccd565b50917f34a42c4ce0a88d16ad098de6406057747139a2a3dd8dd8616ee7bbabcecb768e9495939160ff93613de760405167c9e038fe26f58870888201528781526157fc565b613bb0565b503461022e5760208060031936011261085157600435613e1d604051671803bc6518bfa42d848201528381526157fc565b613e386040516723a6aa57f260cee6848201528381526157fc565b613e536040516738f9d058737588aa848201528381526157fc565b613e6e6040516798dbd418d87fb6d3848201528381526157fc565b60015460ff8160a01c16600014613e9e576103a48361038c6040516706d22a1603cc66af838201528281526157fc565b613eb9604051673392708b065c4978858201528481526157fc565b613ed460405167215f2bced65eb339858201528481526157fc565b613eef6040516771a6b24264ec116e858201528481526157fc565b6001600160a01b03908116613f1d5761044d8361043560405167f4dbdb29e7311b48838201528281526157fc565b613f38604051679876c41ef0ccdf57858201528481526157fc565b613f53604051678a7063d64d1c73c8858201528481526157fc565b613f6e6040516720eaeaa04917a700858201528481526157fc565b613f8960405167ce6ad02650a5e12a858201528481526157fc565b613fa460405167b959a22b5d34f2de858201528481526157fc565b613fbf6040516734d3516da7b3bafb858201528481526157fc565b338452600e835260408420613fe560405167a7b6815437896d5e868201528581526157fc565b6140006040516703d1562ce3e6e85f868201528581526157fc565b82158061438b575b8015614359575b1561404b5761133e84614033604051672e5b4dbc650134fb838201528281526157fc565b60405190671ce7c299b05903038183015281526157fc565b614066604051674ca4059554e4eebc868201528581526157fc565b61408160405167f0dfb08a65185d43868201528581526157fc565b61409c60405167df216c575e29ede2868201528581526157fc565b6140ad600182015460055490615a77565b4210156140fc576140eb846140d3604051677446ca5a14d12f26838201528281526157fc565b60405190679e9e878326fd72678183015281526157fc565b6040516214930960e01b8152600490fd5b926141e2859461411d604051677600aed34251165d858201528481526157fc565b61413860405167ab438eb077cf7d6e858201528481526157fc565b61415360405167eeea9f48e5f85df6858201528481526157fc565b61061b6141c682549261418d8861416c600754876159fb565b9561418860405167fbc935750562c64a8b8201528a81526157fc565b615a84565b8091556141ab60405167f8b4722cc3b6d852888201528781526157fc565b61067b60405167398c7336cec4c150888201528781526157fc565b916106a0604051672be40794e8aab2ba878201528681526157fc565b600b556142006040516765feba5c0f2db2d1838201528281526157fc565b61421b6040516771183d5018c614d9838201528281526157fc565b60405163a9059cbb60e01b8152336004820152602481018490529181908390604490829088907f0000000000000000000000000000000000000000000000000000000000000000165af1918215610846577fb80625e1a6dfa23fbd22202898020767aaed44c2671f32cdb3473366b907321c926142eb91869161433c575b506142b56040516742cd94d9a163663a858201528481526157fc565b6142d06040516732cfe049c1a8abff858201528481526157fc565b6107b760405167437cace7c0a7e49d858201528481526157fc565b61430660405167568d592764489418838201528281526157fc565b61432160405167ae87a9b4a03acfde838201528281526157fc565b61080d604051673f0a017e838376db838201528281526157fc565b6143539150833d851161083f576108318183615818565b86614299565b5080548311801561400f575060405167667eef5cedd65e4360c01b85820152848152614384906157fc565b600161400f565b506040516782c15d08e389f9f160c01b858201528481526143ab906157fc565b6001614008565b503461022e578060031936011261022e576020600854604051908152f35b503461022e57604036600319011261022e576024356001600160a01b038116919082900361233b576040906004358152600d6020522090600052602052602060ff604060002054166040519015158152f35b503461022e576020806003193601126108515761443d615943565b61445860405167cefcf07ee7d58f83848201528381526157fc565b6144606159bc565b61447b60405167e6c55c1fea2eb20c848201528381526157fc565b614496604051675cc9343b863cb701848201528381526157fc565b6144b160405167352696ff0eb84de8848201528381526157fc565b6144cc60405167c4f7ef02a43f4112848201528381526157fc565b6001600160a01b0316806145115761053d826144f960405167238583a847a670b2838201528281526157fc565b6040519067c21cc47485b744018183015281526157fc565b906145939061453160405167f40d1689a0663f2e838201528281526157fc565b61454c6040516705288a67fe0deffd838201528281526157fc565b826001600160601b0360a01b600154161760015561457b60405167aee06fb87ea9d37d838201528281526157fc565b6040519067942fccf479a2ed8a8183015281526157fc565b7f46304c2bdadb06c16e46b6dc771e062e19a4150c21aa984fa49930bca03267cf8280a280f35b503461022e578060031936011261022e576020600654604051908152f35b503461022e578060031936011261022e576020600954604051908152f35b503461022e578060031936011261022e576020600a54604051908152f35b503461022e5760c036600319011261022e57600435602435916044359160643560843560a435916040519561465a602097676354cfb04e71d3a5898201528881526157fc565b6146626159bc565b61467d604051673658da199bfa42bd898201528881526157fc565b61469860405167241c4eda086d7578898201528881526157fc565b6146b36040516764eb18e7071e3087898201528881526157fc565b6146ce60405167f04ea7bab18bd913898201528881526157fc565b6146e96040516772f1fce2d819dc1d898201528881526157fc565b61470460405167501115ed5ad84e55898201528881526157fc565b61471f604051679b9ce79ccb76aeb6898201528881526157fc565b841580614a18575b80156149bb575b801561495e575b8015614901575b80156148d1575b1561477f5761053d87614767604051676e92be53d34169a5838201528281526157fc565b604051906745ca32fc48cf2ddb8183015281526157fc565b60c095977fb4e1fbeb0ffbfe92679bdf67bebeda0b781e7a37849484c69d99695f31e4b029976147c0604051673670e6460fe74b17838201528281526157fc565b6147db604051677d538b8b57cac572838201528281526157fc565b866002556147fa6040516706a171bca9a52a09838201528281526157fc565b8160035561481960405167c0a371ad12c4d983838201528281526157fc565b826004556148386040516748a59a8b5a466ba5838201528281526157fc565b8360055561485760405167636d5f63e4ec27ea838201528281526157fc565b8460065561487660405167e239fae5052eb038838201528281526157fc565b85600755614895604051677513dbd1176a1130838201528281526157fc565b6148b0604051671c61ecba1dde319e838201528281526157fc565b60405196875286015260408501526060840152608083015260a0820152a180f35b5083158015614743575060405167f30df79f4678905f60c01b888201528781526148fa906157fc565b6001614743565b50821580614937575b801561473c5750604051673d6e3e8884f015fb60c21b88820152878152614930906157fc565b600161473c565b506040516727e12bda275e2e3760c01b88820152878152614957906157fc565b600161490a565b50801580614994575b8015614735575060405167065d65609d6537ad60c41b8882015287815261498d906157fc565b6001614735565b5060405167109f800444ccfb0960c31b888201528781526149b4906157fc565b6001614967565b508715806149f1575b801561472e575060405167213400d122b3944160c11b888201528781526149ea906157fc565b600161472e565b50604051673bed8da6694bcb2d60c21b88820152878152614a11906157fc565b60016149c4565b5060405166161a8aa422161160c81b88820152878152614a37906157fc565b6001614727565b503461022e57604036600319011261022e57614a58615943565b6024359060405191614a7b60209367c7b91e2f5e27ffaa858201528481526157fc565b614a836159bc565b614a9e60405167e8cc9d9f122ea360858201528481526157fc565b614ab96040516752b3e9db0046e458858201528481526157fc565b614ad460405167caff5dbdf60c946a858201528481526157fc565b614aef60405167ee7575c804dd005c858201528481526157fc565b6001600160a01b038281161580614c64575b8015614c34575b15614b445761053d84614b2c604051676e7f3419359b5202838201528281526157fc565b60405190676514b312211d531c8183015281526157fc565b614b98859394614b65604051675e32a81147640bbc838201528281526157fc565b614b80604051679d9593f6fa3ea3f6838201528281526157fc565b6040519067d12b7dbb4a56f9988183015281526157fc565b7f000000000000000000000000000000000000000000000000000000000000000016803b15613713576040516340c10f1960e01b81526001600160a01b0394909416600485015260248401919091528290604490829084905af18015614c2957614c00575080f35b67ffffffffffffffff8111614c155760405280f35b634e487b7160e01b82526041600452602482fd5b6040513d84823e3d90fd5b5081158015614b08575060405167042e008685ab637160c41b85820152848152614c5d906157fc565b6001614b08565b5060405167640af29d2d236e2d60c11b85820152848152614c84906157fc565b6001614b01565b503461022e578060031936011261022e576020600454604051908152f35b503461022e57602036600319011261022e5760409081906001600160a01b03614cd0615943565b168152600f602052206001815491015482519182526020820152f35b503461022e5760208060031936011261085157600435614d1d6040516707762c8942ac4671848201528381526157fc565b614d386040516723a6aa57f260cee6848201528381526157fc565b614d536040516738f9d058737588aa848201528381526157fc565b614d6e6040516798dbd418d87fb6d3848201528381526157fc565b60015460ff8160a01c16600014614d9e576103a48361038c6040516706d22a1603cc66af838201528281526157fc565b614db9604051673392708b065c4978858201528481526157fc565b614dd460405167215f2bced65eb339858201528481526157fc565b614def6040516771a6b24264ec116e858201528481526157fc565b6001600160a01b03908116614e1d5761044d8361043560405167f4dbdb29e7311b48838201528281526157fc565b614e38604051679876c41ef0ccdf57858201528481526157fc565b614e53604051678a7063d64d1c73c8858201528481526157fc565b614e6e6040516764889323dbb96e10858201528481526157fc565b614e89604051670b7031ec4dcff75b858201528481526157fc565b614ea4604051673d957d460f9e15d2858201528481526157fc565b614ebf60405167b2f718766d22c1b7858201528481526157fc565b338452600f835260408420614ee56040516789f88e05692a2854868201528581526157fc565b614f0060405167398c5d272c94ab31868201528581526157fc565b8215806151d7575b80156151a5575b15614f4b5761133e84614f3360405167f4e6b19d994b5771838201528281526157fc565b6040519067e999c6a05fb337028183015281526157fc565b614f6660405167760708da34ae4815868201528581526157fc565b614f81604051679e3857ee535a3bea868201528581526157fc565b614f9c604051678e061fcaf6da98c2868201528581526157fc565b614fad600182015460055490615a77565b421015614feb576140eb84614fd360405167139ba8b456039ad6838201528281526157fc565b6040519067ad10d7c76325b1a78183015281526157fc565b92849361500960405167e57474e6ffc9384d848201528381526157fc565b61502460405167018c63c97483f193848201528381526157fc565b61502f848254615a84565b905561504c604051673241a186e8cc8395838201528281526157fc565b615067604051674ff7eb1de56a4db0838201528281526157fc565b60405163a9059cbb60e01b8152336004820152602481018490529181908390604490829088907f0000000000000000000000000000000000000000000000000000000000000000165af1918215610846577fb09985bf5df21e3dee7a7e607cdcff3c444bb813524e2bad65f649b400056b0a92615137918691615188575b506151016040516753b8207c169f402d858201528481526157fc565b61511c604051678a0b6d608531813c858201528481526157fc565b6107b7604051678ad699c54abba7cd858201528481526157fc565b61515260405167314afe48ce329ada838201528281526157fc565b61516d604051673f5f5ef68c954294838201528281526157fc565b61080d60405167ed3cfc7a55868f69838201528281526157fc565b61519f9150833d851161083f576108318183615818565b866150e5565b50805483118015614f0f5750604051674b036bd3f87ff1a960c11b858201528481526151d0906157fc565b6001614f0f565b5060405167351812acd023bb4160c01b858201528481526151f7906157fc565b6001614f08565b503461022e578060031936011261022e576020600254604051908152f35b503461022e57602036600319011261022e576004358152600c60205260409020805460018201546001600160a01b03908116929061525c6002830161583a565b906152696003840161583a565b9260048101549360058201546006830154906152c06007850154936152b260096008880154970154986040519c8d9c8d5260208d015260408c6101a091829101528c01906158e0565b908a820360608c01526158e0565b96608089015260a088015260c087015260e08601526152e6610100860160ff8316615920565b60ff8160081c16151561012086015260ff8160101c16151561014086015260181c166101608401526101808301520390f35b823461022e5760209182600319360112610851576153486004359167b69614f8fbdd8a93858201528481526157fc565b61536360405167b88599df8fbb722d858201528481526157fc565b61537e60405167efc5b836e8513631858201528481526157fc565b808252600c835260408220906153a560405167e9e0b355b7e15d80868201528581526157fc565b6153c06040516710c1b8221ad03983868201528581526157fc565b600882019182549260ff8460101c161560001461540e57611c52866153f660405167506837f37f6470a8838201528281526157fc565b60405190672060f771264da0058183015281526157fc565b6154296040516799c55ec7e23bcf27888201528781526157fc565b6154446040516753b1f328e5afd1b7888201528781526157fc565b61545f6040516798f9400eeb3219a2888201528781526157fc565b60ff8416600381101561579157600114158061576a575b8015615735575b156154cb576154b9866154a1604051679e217a90412808d3838201528281526157fc565b6040519067129aebd5e867f7e38183015281526157fc565b604051633c7e994560e11b8152600490fd5b6154e6604051679eb5eb455da4360f888201528781526157fc565b615501604051673dc727588ec75b06888201528781526157fc565b61551c604051674094f1c690e176f7888201528781526157fc565b600947920193845480931060001461556557611c528761554d60405167ebbd16763fbac338838201528281526157fc565b6040519067d9a1e3aa7878471e8183015281526157fc565b90858080806101008b979661558b604051670a444958b10f8cfc8b8201528a81526157fc565b6155a6604051674adb9beeeff989838b8201528a81526157fc565b61ff00191617958686556155cb6040516799847a70aa3d29eb8a8201528981526157fc565b6155e66040516730643dd6537dfd428a8201528981526157fc565b6001600160a01b039660181c87165af13d15615730573d61560681615959565b906156146040519283615818565b815287853d92013e5b615638604051678d6cb4dfb56beded868201528581526157fc565b61565360405167df3adcf9d35d3266868201528581526157fc565b61566e604051675635a33fe9964419868201528581526157fc565b156156f957907f0bb768aa97fa4e8a8f73bfa7bc210f1a29f29c765d44f0c29acc04a549e32e4392916156b260405167c965c9ff48e60ea7858201528481526157fc565b6156cd604051677b073699717bd082858201528481526157fc565b6156e8604051671880bb8c03bd1a0d858201528481526157fc565b5460181c169354604051908152a380f35b60405162461bcd60e51b815260048101849052600f60248201526e151c985b9cd9995c8819985a5b1959608a1b6044820152606490fd5b61561d565b5060ff8460081c16801561547d57506040516714456de9db38f51b60c21b87820152868152615763906157fc565b600161547d565b5060405167f82e9b96ac3101cf60c01b8782015286815261578a906157fc565b6001615476565b634e487b7160e01b86526021600452602486fd5b90600182811c921680156157d5575b60208310146157bf57565b634e487b7160e01b600052602260045260246000fd5b91607f16916157b4565b6101a0810190811067ffffffffffffffff8211176121e957604052565b6040810190811067ffffffffffffffff8211176121e957604052565b90601f8019910116810190811067ffffffffffffffff8211176121e957604052565b906040519182600082549261584e846157a5565b9081845260019485811690816000146158bd575060011461587a575b505061587892500383615818565b565b9093915060005260209081600020936000915b8183106158a55750506158789350820101388061586a565b8554888401850152948501948794509183019161588d565b91505061587894506020925060ff191682840152151560051b820101388061586a565b919082519283825260005b84811061590c575050826000602080949584010152601f8019910116010190565b6020818301810151848301820152016158eb565b90600382101561592d5752565b634e487b7160e01b600052602160045260246000fd5b600435906001600160a01b038216820361233b57565b67ffffffffffffffff81116121e957601f01601f191660200190565b81601f8201121561233b5780359061598c82615959565b9261599a6040519485615818565b8284526020838301011161233b57816000926020809301838601378301015290565b6000546001600160a01b031633036159d057565b60405163118cdaa760e01b8152336004820152602490fd5b818102929181159184041417156122ca57565b8115615a05570490565b634e487b7160e01b600052601260045260246000fd5b9081602091031261233b5751801515810361233b5790565b15615a3a57565b60405162461bcd60e51b8152602060048201526015602482015274151bdad95b881d1c985b9cd9995c8819985a5b1959605a1b6044820152606490fd5b919082018092116122ca57565b919082039182116122ca57565b600e9060405190615ab3602092675a5a59e20ff71d70848201528381526157fc565b615ace604051672de3aa10739f2579848201528381526157fc565b615ae9604051677d1e6379262b1db2848201528381526157fc565b60018060a01b031660005252615b07604060002054600754906159fb565b9056fea2646970667358221220abaebafe31db20df16179895599492abaad9553c38cba6e5040db12143335b0564736f6c63430008140033","opcodes":"PUSH1 0xA0 CALLVALUE PUSH3 0x996 JUMPI PUSH1 0x1F PUSH3 0x6523 CODESIZE DUP2 SWAP1 SUB SWAP2 DUP3 ADD PUSH1 0x1F NOT AND DUP4 ADD SWAP3 SWAP2 SWAP1 PUSH1 0x1 PUSH1 0x1 PUSH1 0x40 SHL SUB DUP5 GT DUP4 DUP6 LT OR PUSH3 0x99B JUMPI DUP2 PUSH2 0x140 SWAP3 DUP5 SWAP3 PUSH1 0x40 SWAP7 DUP8 MSTORE DUP4 CODECOPY DUP2 ADD SUB SLT PUSH3 0x996 JUMPI PUSH3 0x52 DUP2 PUSH3 0x9CD JUMP JUMPDEST SWAP1 PUSH1 0x20 SWAP2 PUSH3 0x63 DUP4 DUP4 ADD PUSH3 0x9CD JUMP JUMPDEST DUP5 DUP4 ADD MLOAD PUSH1 0x60 DUP5 ADD MLOAD PUSH1 0x80 DUP6 ADD MLOAD PUSH1 0xA0 DUP7 ADD MLOAD PUSH1 0xC0 DUP8 ADD MLOAD SWAP2 PUSH1 0xE0 DUP9 ADD MLOAD SWAP4 PUSH2 0x120 PUSH2 0x100 DUP11 ADD MLOAD SWAP10 ADD MLOAD SWAP8 PUSH1 0x1 DUP1 PUSH1 0xA0 SHL SUB DUP1 SWAP2 AND SWAP8 DUP9 ISZERO PUSH3 0x97E JUMPI DUP13 SWAP2 DUP10 SWAP2 PUSH3 0x135 DUP15 PUSH1 0x0 SWAP6 PUSH3 0x102 DUP8 SLOAD PUSH1 0x1 DUP1 PUSH1 0xA0 SHL SUB NOT SWAP8 DUP1 DUP10 DUP4 AND OR DUP11 SSTORE DUP8 DUP5 MLOAD SWAP3 AND PUSH32 0x8BE0079C531659141344CD1FD0A4F28419497F9722A3DAAFE3B4186F6B6457E0 DUP12 DUP1 LOG3 PUSH8 0x20701118AC22290B DUP5 DUP3 ADD MSTORE DUP4 DUP2 MSTORE PUSH3 0x9B1 JUMP JUMPDEST PUSH3 0x11E DUP2 MLOAD PUSH8 0x92E5C8DBB123FC87 DUP5 DUP3 ADD MSTORE DUP4 DUP2 MSTORE PUSH3 0x9B1 JUMP JUMPDEST MLOAD SWAP1 PUSH8 0xFCE35F3E8705855C DUP2 DUP4 ADD MSTORE DUP2 MSTORE PUSH3 0x9B1 JUMP JUMPDEST AND DUP1 PUSH3 0x185 JUMPI PUSH1 0x4 DUP15 PUSH3 0x178 DUP16 PUSH3 0x160 DUP4 MLOAD PUSH8 0xC0987673E918F139 DUP4 DUP3 ADD MSTORE DUP3 DUP2 MSTORE PUSH3 0x9B1 JUMP JUMPDEST DUP3 MLOAD SWAP1 PUSH8 0x46D5BF58D899294D DUP2 DUP4 ADD MSTORE DUP2 MSTORE PUSH3 0x9B1 JUMP JUMPDEST MLOAD PUSH4 0x309CB87 PUSH1 0xE5 SHL DUP2 MSTORE REVERT JUMPDEST PUSH32 0x46304C2BDADB06C16E46B6DC771E062E19A4150C21AA984FA49930BCA03267CF DUP15 PUSH3 0x24A DUP16 PUSH3 0x264 SWAP7 SWAP6 DUP15 SWAP6 PUSH3 0x1D0 DUP6 MLOAD PUSH8 0x5D9A72030AC80026 DUP6 DUP3 ADD MSTORE DUP5 DUP2 MSTORE PUSH3 0x9B1 JUMP JUMPDEST PUSH3 0x1EC DUP6 MLOAD PUSH8 0xFEDE8236CB49A407 DUP6 DUP3 ADD MSTORE DUP5 DUP2 MSTORE PUSH3 0x9B1 JUMP JUMPDEST PUSH1 0x80 MSTORE PUSH3 0x20B DUP5 MLOAD PUSH8 0xCDD2908427C81FBE DUP5 DUP3 ADD MSTORE DUP4 DUP2 MSTORE PUSH3 0x9B1 JUMP JUMPDEST PUSH1 0x1 SWAP15 DUP16 SWAP2 DUP3 SLOAD AND OR SWAP1 SSTORE PUSH3 0x232 DUP4 MLOAD PUSH8 0xCAB742C400D2EAB2 DUP4 DUP3 ADD MSTORE DUP3 DUP2 MSTORE PUSH3 0x9B1 JUMP JUMPDEST DUP3 MLOAD SWAP1 PUSH8 0xFB6132F2E30F113 DUP2 DUP4 ADD MSTORE DUP2 MSTORE PUSH3 0x9B1 JUMP JUMPDEST MLOAD SWAP3 DUP1 LOG2 PUSH8 0x7EE3332C00E92577 DUP13 DUP3 ADD MSTORE DUP12 DUP2 MSTORE PUSH3 0x9B1 JUMP JUMPDEST PUSH3 0x280 DUP12 MLOAD PUSH8 0x7F2EB5DFA529A7F6 DUP13 DUP3 ADD MSTORE DUP12 DUP2 MSTORE PUSH3 0x9B1 JUMP JUMPDEST PUSH3 0x29C DUP12 MLOAD PUSH8 0x72F1FCE2D819DC1D DUP13 DUP3 ADD MSTORE DUP12 DUP2 MSTORE PUSH3 0x9B1 JUMP JUMPDEST PUSH3 0x2B8 DUP12 MLOAD PUSH8 0x501115ED5AD84E55 DUP13 DUP3 ADD MSTORE DUP12 DUP2 MSTORE PUSH3 0x9B1 JUMP JUMPDEST PUSH3 0x2D4 DUP12 MLOAD PUSH8 0x9B9CE79CCB76AEB6 DUP13 DUP3 ADD MSTORE DUP12 DUP2 MSTORE PUSH3 0x9B1 JUMP JUMPDEST DUP6 ISZERO DUP1 PUSH3 0x957 JUMPI JUMPDEST DUP1 ISZERO PUSH3 0x8F6 JUMPI JUMPDEST DUP1 ISZERO PUSH3 0x895 JUMPI JUMPDEST DUP1 ISZERO PUSH3 0x834 JUMPI JUMPDEST DUP1 ISZERO PUSH3 0x802 JUMPI JUMPDEST ISZERO PUSH3 0x33F JUMPI PUSH1 0x4 DUP12 PUSH3 0x178 DUP13 PUSH3 0x327 DUP4 MLOAD PUSH8 0x6E92BE53D34169A5 DUP4 DUP3 ADD MSTORE DUP3 DUP2 MSTORE PUSH3 0x9B1 JUMP JUMPDEST DUP3 MLOAD SWAP1 PUSH8 0x45CA32FC48CF2DDB DUP2 DUP4 ADD MSTORE DUP2 MSTORE PUSH3 0x9B1 JUMP JUMPDEST SWAP2 PUSH32 0xB4E1FBEB0FFBFE92679BDF67BEBEDA0B781E7A37849484C69D99695F31E4B029 SWAP6 SWAP4 SWAP2 PUSH1 0xC0 SWAP6 SWAP4 PUSH3 0x47D DUP13 PUSH8 0x1C61ECBA1DDE319E DUP16 PUSH3 0x393 DUP2 MLOAD PUSH8 0x3670E6460FE74B17 DUP6 DUP3 ADD MSTORE DUP5 DUP2 MSTORE PUSH3 0x9B1 JUMP JUMPDEST PUSH3 0x3AF DUP2 MLOAD PUSH8 0x7D538B8B57CAC572 DUP6 DUP3 ADD MSTORE DUP5 DUP2 MSTORE PUSH3 0x9B1 JUMP JUMPDEST DUP10 PUSH1 0x2 SSTORE PUSH3 0x3CF DUP2 MLOAD PUSH8 0x6A171BCA9A52A09 DUP6 DUP3 ADD MSTORE DUP5 DUP2 MSTORE PUSH3 0x9B1 JUMP JUMPDEST DUP5 PUSH1 0x3 SSTORE PUSH3 0x3EF DUP2 MLOAD PUSH8 0xC0A371AD12C4D983 DUP6 DUP3 ADD MSTORE DUP5 DUP2 MSTORE PUSH3 0x9B1 JUMP JUMPDEST DUP6 PUSH1 0x4 SSTORE PUSH3 0x40F DUP2 MLOAD PUSH8 0x48A59A8B5A466BA5 DUP6 DUP3 ADD MSTORE DUP5 DUP2 MSTORE PUSH3 0x9B1 JUMP JUMPDEST DUP7 PUSH1 0x5 SSTORE PUSH3 0x42F DUP2 MLOAD PUSH8 0x636D5F63E4EC27EA DUP6 DUP3 ADD MSTORE DUP5 DUP2 MSTORE PUSH3 0x9B1 JUMP JUMPDEST DUP8 PUSH1 0x6 SSTORE PUSH3 0x44F DUP2 MLOAD PUSH8 0xE239FAE5052EB038 DUP6 DUP3 ADD MSTORE DUP5 DUP2 MSTORE PUSH3 0x9B1 JUMP JUMPDEST DUP9 PUSH1 0x7 SSTORE PUSH3 0x46F DUP2 MLOAD PUSH8 0x7513DBD1176A1130 DUP6 DUP3 ADD MSTORE DUP5 DUP2 MSTORE PUSH3 0x9B1 JUMP JUMPDEST MLOAD SWAP2 DUP3 ADD MSTORE DUP14 DUP2 MSTORE PUSH3 0x9B1 JUMP JUMPDEST DUP13 MLOAD SWAP6 DUP7 MSTORE DUP12 DUP7 ADD MSTORE DUP12 DUP6 ADD MSTORE PUSH1 0x60 DUP5 ADD MSTORE PUSH1 0x80 DUP4 ADD MSTORE PUSH1 0xA0 DUP3 ADD MSTORE LOG1 PUSH3 0x4B6 DUP6 MLOAD PUSH8 0x40BDDCE58611B33D DUP7 DUP3 ADD MSTORE DUP6 DUP2 MSTORE PUSH3 0x9B1 JUMP JUMPDEST PUSH3 0x4D2 DUP6 MLOAD PUSH8 0x434562C6CD4B6915 DUP7 DUP3 ADD MSTORE DUP6 DUP2 MSTORE PUSH3 0x9B1 JUMP JUMPDEST PUSH3 0x4EE DUP6 MLOAD PUSH8 0xDD3EF2F34C115949 DUP7 DUP3 ADD MSTORE DUP6 DUP2 MSTORE PUSH3 0x9B1 JUMP JUMPDEST PUSH3 0x50A DUP6 MLOAD PUSH8 0xDB16A5D909A944A1 DUP7 DUP3 ADD MSTORE DUP6 DUP2 MSTORE PUSH3 0x9B1 JUMP JUMPDEST PUSH3 0x526 DUP6 MLOAD PUSH8 0xFC06E06D268E5A82 DUP7 DUP3 ADD MSTORE DUP6 DUP2 MSTORE PUSH3 0x9B1 JUMP JUMPDEST DUP3 ISZERO DUP1 PUSH3 0x7DB JUMPI JUMPDEST DUP1 ISZERO PUSH3 0x7A7 JUMPI JUMPDEST ISZERO PUSH3 0x579 JUMPI PUSH1 0x4 DUP6 PUSH3 0x178 DUP7 PUSH3 0x561 DUP4 MLOAD PUSH8 0x2EAB5BF4C87925C5 DUP4 DUP3 ADD MSTORE DUP3 DUP2 MSTORE PUSH3 0x9B1 JUMP JUMPDEST DUP3 MLOAD SWAP1 PUSH8 0xBC58C962DA225E3A DUP2 DUP4 ADD MSTORE DUP2 MSTORE PUSH3 0x9B1 JUMP JUMPDEST PUSH3 0x595 DUP6 MLOAD PUSH8 0x3F0AAB5738AD16A7 DUP7 DUP3 ADD MSTORE DUP6 DUP2 MSTORE PUSH3 0x9B1 JUMP JUMPDEST PUSH3 0x5B1 DUP6 MLOAD PUSH8 0xF2F6505F872C5D03 DUP7 DUP3 ADD MSTORE DUP6 DUP2 MSTORE PUSH3 0x9B1 JUMP JUMPDEST PUSH3 0x5CD DUP6 MLOAD PUSH8 0xF74A11EC28DD2185 DUP7 DUP3 ADD MSTORE DUP6 DUP2 MSTORE PUSH3 0x9B1 JUMP JUMPDEST DUP2 ISZERO SWAP1 DUP2 PUSH3 0x77F JUMPI JUMPDEST DUP2 ISZERO PUSH3 0x742 JUMPI JUMPDEST POP ISZERO PUSH3 0x622 JUMPI PUSH1 0x4 DUP5 PUSH3 0x178 DUP6 PUSH3 0x60A DUP4 MLOAD PUSH8 0xB75951CEAA2423DD DUP4 DUP3 ADD MSTORE DUP3 DUP2 MSTORE PUSH3 0x9B1 JUMP JUMPDEST DUP3 MLOAD SWAP1 PUSH8 0x58E4731D2D248348 DUP2 DUP4 ADD MSTORE DUP2 MSTORE PUSH3 0x9B1 JUMP JUMPDEST DUP4 PUSH3 0x701 SWAP4 SWAP3 PUSH32 0x6784E9BCB845CAAA98267D7B0918F97D3D17F7CB35A05B52010F7EB587A0ACB0 SWAP3 PUSH3 0x667 DUP4 MLOAD PUSH8 0x5F9091AEB5A8463F DUP8 DUP3 ADD MSTORE DUP7 DUP2 MSTORE PUSH3 0x9B1 JUMP JUMPDEST PUSH3 0x683 DUP4 MLOAD PUSH8 0xCEFD37E6E4BD25B9 DUP8 DUP3 ADD MSTORE DUP7 DUP2 MSTORE PUSH3 0x9B1 JUMP JUMPDEST DUP2 PUSH1 0x8 SSTORE PUSH3 0x6A3 DUP4 MLOAD PUSH8 0xEBA0A504D030B192 DUP8 DUP3 ADD MSTORE DUP7 DUP2 MSTORE PUSH3 0x9B1 JUMP JUMPDEST DUP1 PUSH1 0x9 SSTORE PUSH3 0x6C3 DUP4 MLOAD PUSH8 0x56FEA3A34A58FA0B DUP8 DUP3 ADD MSTORE DUP7 DUP2 MSTORE PUSH3 0x9B1 JUMP JUMPDEST PUSH3 0x6DF DUP4 MLOAD PUSH8 0x99AF20DC3F3568AA DUP8 DUP3 ADD MSTORE DUP7 DUP2 MSTORE PUSH3 0x9B1 JUMP JUMPDEST DUP3 MLOAD SWAP2 DUP3 MSTORE DUP5 DUP3 ADD MSTORE LOG1 DUP3 MLOAD SWAP1 PUSH8 0x1DEF95F891FB8C01 DUP2 DUP4 ADD MSTORE DUP2 MSTORE PUSH3 0x9B1 JUMP JUMPDEST MLOAD PUSH2 0x5B40 SWAP1 DUP2 PUSH3 0x9E3 DUP3 CODECOPY PUSH1 0x80 MLOAD DUP2 DUP2 DUP2 PUSH2 0x1FF ADD MSTORE DUP2 DUP2 PUSH2 0x70F ADD MSTORE DUP2 DUP2 PUSH2 0xB9C ADD MSTORE DUP2 DUP2 PUSH2 0x265A ADD MSTORE DUP2 DUP2 PUSH2 0x4243 ADD MSTORE DUP2 DUP2 PUSH2 0x4B9A ADD MSTORE PUSH2 0x508F ADD MSTORE RETURN JUMPDEST PUSH1 0x64 DUP4 GT SWAP2 POP DUP2 PUSH3 0x757 JUMPI JUMPDEST POP CODESIZE PUSH3 0x5DF JUMP JUMPDEST SWAP1 POP PUSH3 0x778 DUP6 MLOAD PUSH8 0x1A1FDE8EE1869791 PUSH1 0xC0 SHL DUP7 DUP3 ADD MSTORE DUP6 DUP2 MSTORE PUSH3 0x9B1 JUMP JUMPDEST CODESIZE PUSH3 0x74F JUMP JUMPDEST SWAP1 POP PUSH3 0x7A0 DUP6 MLOAD PUSH8 0x1E59B318F81A4867 PUSH1 0xC3 SHL DUP7 DUP3 ADD MSTORE DUP6 DUP2 MSTORE PUSH3 0x9B1 JUMP JUMPDEST DUP1 PUSH3 0x5D7 JUMP JUMPDEST POP PUSH1 0x64 DUP4 GT DUP1 ISZERO PUSH3 0x537 JUMPI POP DUP5 MLOAD PUSH8 0x3EBC070459A9CD75 PUSH1 0xC0 SHL DUP6 DUP3 ADD MSTORE DUP5 DUP2 MSTORE PUSH3 0x7D4 SWAP1 PUSH3 0x9B1 JUMP JUMPDEST DUP1 PUSH3 0x537 JUMP JUMPDEST POP DUP5 MLOAD PUSH7 0xDE286980802E19 PUSH1 0xC5 SHL DUP6 DUP3 ADD MSTORE DUP5 DUP2 MSTORE PUSH3 0x7FB SWAP1 PUSH3 0x9B1 JUMP JUMPDEST DUP1 PUSH3 0x52F JUMP JUMPDEST POP DUP5 ISZERO DUP1 ISZERO PUSH3 0x2FD JUMPI POP DUP11 MLOAD PUSH8 0xF30DF79F4678905F PUSH1 0xC0 SHL DUP12 DUP3 ADD MSTORE DUP11 DUP2 MSTORE PUSH3 0x82D SWAP1 PUSH3 0x9B1 JUMP JUMPDEST DUP7 PUSH3 0x2FD JUMP JUMPDEST POP DUP4 ISZERO DUP1 PUSH3 0x86D JUMPI JUMPDEST DUP1 ISZERO PUSH3 0x2F5 JUMPI POP DUP11 MLOAD PUSH8 0x3D6E3E8884F015FB PUSH1 0xC2 SHL DUP12 DUP3 ADD MSTORE DUP11 DUP2 MSTORE PUSH3 0x866 SWAP1 PUSH3 0x9B1 JUMP JUMPDEST DUP7 PUSH3 0x2F5 JUMP JUMPDEST POP DUP11 MLOAD PUSH8 0x27E12BDA275E2E37 PUSH1 0xC0 SHL DUP12 DUP3 ADD MSTORE DUP11 DUP2 MSTORE PUSH3 0x88E SWAP1 PUSH3 0x9B1 JUMP JUMPDEST DUP7 PUSH3 0x83E JUMP JUMPDEST POP DUP2 ISZERO DUP1 PUSH3 0x8CE JUMPI JUMPDEST DUP1 ISZERO PUSH3 0x2ED JUMPI POP DUP11 MLOAD PUSH8 0x65D65609D6537AD PUSH1 0xC4 SHL DUP12 DUP3 ADD MSTORE DUP11 DUP2 MSTORE PUSH3 0x8C7 SWAP1 PUSH3 0x9B1 JUMP JUMPDEST DUP7 PUSH3 0x2ED JUMP JUMPDEST POP DUP11 MLOAD PUSH8 0x109F800444CCFB09 PUSH1 0xC3 SHL DUP12 DUP3 ADD MSTORE DUP11 DUP2 MSTORE PUSH3 0x8EF SWAP1 PUSH3 0x9B1 JUMP JUMPDEST DUP7 PUSH3 0x89F JUMP JUMPDEST POP DUP1 ISZERO DUP1 PUSH3 0x92F JUMPI JUMPDEST DUP1 ISZERO PUSH3 0x2E5 JUMPI POP DUP11 MLOAD PUSH8 0x213400D122B39441 PUSH1 0xC1 SHL DUP12 DUP3 ADD MSTORE DUP11 DUP2 MSTORE PUSH3 0x928 SWAP1 PUSH3 0x9B1 JUMP JUMPDEST DUP7 PUSH3 0x2E5 JUMP JUMPDEST POP DUP11 MLOAD PUSH8 0x3BED8DA6694BCB2D PUSH1 0xC2 SHL DUP12 DUP3 ADD MSTORE DUP11 DUP2 MSTORE PUSH3 0x950 SWAP1 PUSH3 0x9B1 JUMP JUMPDEST DUP7 PUSH3 0x900 JUMP JUMPDEST POP DUP11 MLOAD PUSH7 0x161A8AA4221611 PUSH1 0xC8 SHL DUP12 DUP3 ADD MSTORE DUP11 DUP2 MSTORE PUSH3 0x977 SWAP1 PUSH3 0x9B1 JUMP JUMPDEST DUP7 PUSH3 0x2DD JUMP JUMPDEST DUP13 MLOAD PUSH4 0x1E4FBDF7 PUSH1 0xE0 SHL DUP2 MSTORE PUSH1 0x0 PUSH1 0x4 DUP3 ADD MSTORE PUSH1 0x24 SWAP1 REVERT JUMPDEST PUSH1 0x0 DUP1 REVERT JUMPDEST PUSH4 0x4E487B71 PUSH1 0xE0 SHL PUSH1 0x0 MSTORE PUSH1 0x41 PUSH1 0x4 MSTORE PUSH1 0x24 PUSH1 0x0 REVERT JUMPDEST PUSH1 0x40 DUP2 ADD SWAP1 DUP2 LT PUSH1 0x1 PUSH1 0x1 PUSH1 0x40 SHL SUB DUP3 GT OR PUSH3 0x99B JUMPI PUSH1 0x40 MSTORE JUMP JUMPDEST MLOAD SWAP1 PUSH1 0x1 PUSH1 0x1 PUSH1 0xA0 SHL SUB DUP3 AND DUP3 SUB PUSH3 0x996 JUMPI JUMP INVALID PUSH1 0x80 DUP1 PUSH1 0x40 MSTORE PUSH1 0x4 CALLDATASIZE LT ISZERO PUSH2 0x35 JUMPI JUMPDEST POP CALLDATASIZE ISZERO PUSH2 0x33 JUMPI PUSH2 0x33 PUSH1 0x40 MLOAD PUSH8 0x97DA196C0033FF87 PUSH1 0x20 DUP3 ADD MSTORE PUSH1 0x20 DUP2 MSTORE PUSH2 0x57FC JUMP JUMPDEST STOP JUMPDEST PUSH1 0x0 SWAP1 DUP2 CALLDATALOAD PUSH1 0xE0 SHR SWAP1 DUP2 PUSH3 0x7E637E EQ PUSH2 0x5318 JUMPI POP DUP1 PUSH4 0x13CF08B EQ PUSH2 0x521C JUMPI DUP1 PUSH4 0x5D0F15B EQ PUSH2 0x51FE JUMPI DUP1 PUSH4 0x627D425 EQ PUSH2 0x4CEC JUMPI DUP1 PUSH4 0xA5AF04B EQ PUSH2 0x4CA9 JUMPI DUP1 PUSH4 0xD346E9A EQ PUSH2 0x4C8B JUMPI DUP1 PUSH4 0x16384686 EQ PUSH2 0x4A3E JUMPI DUP1 PUSH4 0x282C8749 EQ PUSH2 0x4614 JUMPI DUP1 PUSH4 0x2AB09D14 EQ PUSH2 0x45F6 JUMPI DUP1 PUSH4 0x3008D437 EQ PUSH2 0x45D8 JUMPI DUP1 PUSH4 0x30109962 EQ PUSH2 0x45BA JUMPI DUP1 PUSH4 0x4091E8F0 EQ PUSH2 0x4422 JUMPI DUP1 PUSH4 0x43859632 EQ PUSH2 0x43D0 JUMPI DUP1 PUSH4 0x4FA76EC9 EQ PUSH2 0x43B2 JUMPI DUP1 PUSH4 0x542FFA7B EQ PUSH2 0x3DEC JUMPI DUP1 PUSH4 0x5652077C EQ PUSH2 0x373D JUMPI DUP1 PUSH4 0x5C975ABB EQ PUSH2 0x3717 JUMPI DUP1 PUSH4 0x65E481E2 EQ PUSH2 0x2F8B JUMPI DUP1 PUSH4 0x671B3793 EQ PUSH2 0x2F6D JUMPI DUP1 PUSH4 0x715018A6 EQ PUSH2 0x2F13 JUMPI DUP1 PUSH4 0x7A3D5468 EQ PUSH2 0x2BC2 JUMPI DUP1 PUSH4 0x81E6830F EQ PUSH2 0x2A18 JUMPI DUP1 PUSH4 0x8DA5CB5B EQ PUSH2 0x29F1 JUMPI DUP1 PUSH4 0x97761382 EQ PUSH2 0x2823 JUMPI DUP1 PUSH4 0x98E527D3 EQ PUSH2 0x27B3 JUMPI DUP1 PUSH4 0x9F45B133 EQ PUSH2 0x2770 JUMPI DUP1 PUSH4 0xA028699E EQ PUSH2 0x2340 JUMPI DUP1 PUSH4 0xA73079AC EQ PUSH2 0x1991 JUMPI DUP1 PUSH4 0xAD3BCADE EQ PUSH2 0x1968 JUMPI DUP1 PUSH4 0xC07473F6 EQ PUSH2 0x193C JUMPI DUP1 PUSH4 0xC2D66776 EQ PUSH2 0x191E JUMPI DUP1 PUSH4 0xC7F758A8 EQ PUSH2 0x15C3 JUMPI DUP1 PUSH4 0xC9D27AFE EQ PUSH2 0xDF6 JUMPI DUP1 PUSH4 0xD064A9A4 EQ PUSH2 0xDD8 JUMPI DUP1 PUSH4 0xD0FEBE4C EQ PUSH2 0x855 JUMPI DUP1 PUSH4 0xD1B85B49 EQ PUSH2 0x2DA JUMPI DUP1 PUSH4 0xF2FDE38B EQ PUSH2 0x24F JUMPI DUP1 PUSH4 0xF96DF52A EQ PUSH2 0x231 JUMPI PUSH4 0xFC0C546A SUB PUSH2 0xF JUMPI CALLVALUE PUSH2 0x22E JUMPI DUP1 PUSH1 0x3 NOT CALLDATASIZE ADD SLT PUSH2 0x22E JUMPI PUSH1 0x40 MLOAD PUSH32 0x0 PUSH1 0x1 PUSH1 0x1 PUSH1 0xA0 SHL SUB AND DUP2 MSTORE PUSH1 0x20 SWAP1 RETURN JUMPDEST DUP1 REVERT JUMPDEST POP CALLVALUE PUSH2 0x22E JUMPI DUP1 PUSH1 0x3 NOT CALLDATASIZE ADD SLT PUSH2 0x22E JUMPI PUSH1 0x20 PUSH1 0x7 SLOAD PUSH1 0x40 MLOAD SWAP1 DUP2 MSTORE RETURN JUMPDEST POP CALLVALUE PUSH2 0x22E JUMPI PUSH1 0x20 CALLDATASIZE PUSH1 0x3 NOT ADD SLT PUSH2 0x22E JUMPI PUSH2 0x269 PUSH2 0x5943 JUMP JUMPDEST PUSH2 0x271 PUSH2 0x59BC JUMP JUMPDEST PUSH1 0x1 PUSH1 0x1 PUSH1 0xA0 SHL SUB SWAP1 DUP2 AND SWAP1 DUP2 ISZERO PUSH2 0x2C1 JUMPI PUSH1 0x0 SLOAD DUP3 PUSH1 0x1 PUSH1 0x1 PUSH1 0x60 SHL SUB PUSH1 0xA0 SHL DUP3 AND OR PUSH1 0x0 SSTORE AND PUSH32 0x8BE0079C531659141344CD1FD0A4F28419497F9722A3DAAFE3B4186F6B6457E0 PUSH1 0x0 DUP1 LOG3 DUP1 RETURN JUMPDEST PUSH1 0x40 MLOAD PUSH4 0x1E4FBDF7 PUSH1 0xE0 SHL DUP2 MSTORE PUSH1 0x4 DUP2 ADD DUP5 SWAP1 MSTORE PUSH1 0x24 SWAP1 REVERT JUMPDEST POP CALLVALUE PUSH2 0x22E JUMPI PUSH1 0x20 DUP1 PUSH1 0x3 NOT CALLDATASIZE ADD SLT PUSH2 0x851 JUMPI PUSH1 0x4 CALLDATALOAD PUSH2 0x30B PUSH1 0x40 MLOAD PUSH8 0xF2BE5A8EE83FFC13 DUP5 DUP3 ADD MSTORE DUP4 DUP2 MSTORE PUSH2 0x57FC JUMP JUMPDEST PUSH2 0x326 PUSH1 0x40 MLOAD PUSH8 0x23A6AA57F260CEE6 DUP5 DUP3 ADD MSTORE DUP4 DUP2 MSTORE PUSH2 0x57FC JUMP JUMPDEST PUSH2 0x341 PUSH1 0x40 MLOAD PUSH8 0x38F9D058737588AA DUP5 DUP3 ADD MSTORE DUP4 DUP2 MSTORE PUSH2 0x57FC JUMP JUMPDEST PUSH2 0x35C PUSH1 0x40 MLOAD PUSH8 0x98DBD418D87FB6D3 DUP5 DUP3 ADD MSTORE DUP4 DUP2 MSTORE PUSH2 0x57FC JUMP JUMPDEST PUSH1 0x1 SLOAD PUSH1 0xFF DUP2 PUSH1 0xA0 SHR AND PUSH1 0x0 EQ PUSH2 0x3B6 JUMPI PUSH2 0x3A4 DUP4 PUSH2 0x38C PUSH1 0x40 MLOAD PUSH8 0x6D22A1603CC66AF DUP4 DUP3 ADD MSTORE DUP3 DUP2 MSTORE PUSH2 0x57FC JUMP JUMPDEST PUSH1 0x40 MLOAD SWAP1 PUSH8 0x89152C472DF81D15 DUP2 DUP4 ADD MSTORE DUP2 MSTORE PUSH2 0x57FC JUMP JUMPDEST PUSH1 0x40 MLOAD PUSH4 0x2795C279 PUSH1 0xE2 SHL DUP2 MSTORE PUSH1 0x4 SWAP1 REVERT JUMPDEST PUSH2 0x3D1 PUSH1 0x40 MLOAD PUSH8 0x3392708B065C4978 DUP6 DUP3 ADD MSTORE DUP5 DUP2 MSTORE PUSH2 0x57FC JUMP JUMPDEST PUSH2 0x3EC PUSH1 0x40 MLOAD PUSH8 0x215F2BCED65EB339 DUP6 DUP3 ADD MSTORE DUP5 DUP2 MSTORE PUSH2 0x57FC JUMP JUMPDEST PUSH2 0x407 PUSH1 0x40 MLOAD PUSH8 0x71A6B24264EC116E DUP6 DUP3 ADD MSTORE DUP5 DUP2 MSTORE PUSH2 0x57FC JUMP JUMPDEST PUSH1 0x1 PUSH1 0x1 PUSH1 0xA0 SHL SUB SWAP1 DUP2 AND PUSH2 0x45F JUMPI PUSH2 0x44D DUP4 PUSH2 0x435 PUSH1 0x40 MLOAD PUSH8 0xF4DBDB29E7311B48 DUP4 DUP3 ADD MSTORE DUP3 DUP2 MSTORE PUSH2 0x57FC JUMP JUMPDEST PUSH1 0x40 MLOAD SWAP1 PUSH8 0x5E5FDE16BB0797B9 DUP2 DUP4 ADD MSTORE DUP2 MSTORE PUSH2 0x57FC JUMP JUMPDEST PUSH1 0x40 MLOAD PUSH4 0x28EECF3 PUSH1 0xE1 SHL DUP2 MSTORE PUSH1 0x4 SWAP1 REVERT JUMPDEST PUSH2 0x47A PUSH1 0x40 MLOAD PUSH8 0x9876C41EF0CCDF57 DUP6 DUP3 ADD MSTORE DUP5 DUP2 MSTORE PUSH2 0x57FC JUMP JUMPDEST PUSH2 0x495 PUSH1 0x40 MLOAD PUSH8 0x8A7063D64D1C73C8 DUP6 DUP3 ADD MSTORE DUP5 DUP2 MSTORE PUSH2 0x57FC JUMP JUMPDEST PUSH2 0x4B0 PUSH1 0x40 MLOAD PUSH8 0xF7E5C56964F17222 DUP6 DUP3 ADD MSTORE DUP5 DUP2 MSTORE PUSH2 0x57FC JUMP JUMPDEST PUSH2 0x4CB PUSH1 0x40 MLOAD PUSH8 0x773FD2FAADDA0382 DUP6 DUP3 ADD MSTORE DUP5 DUP2 MSTORE PUSH2 0x57FC JUMP JUMPDEST PUSH2 0x4E6 PUSH1 0x40 MLOAD PUSH8 0x15669F87E197BC80 DUP6 DUP3 ADD MSTORE DUP5 DUP2 MSTORE PUSH2 0x57FC JUMP JUMPDEST PUSH2 0x501 PUSH1 0x40 MLOAD PUSH8 0xE5C7E41D8A6F9929 DUP6 DUP3 ADD MSTORE DUP5 DUP2 MSTORE PUSH2 0x57FC JUMP JUMPDEST DUP2 PUSH2 0x54F JUMPI PUSH2 0x53D DUP4 PUSH2 0x525 PUSH1 0x40 MLOAD PUSH8 0xC01C81A7093739B0 DUP4 DUP3 ADD MSTORE DUP3 DUP2 MSTORE PUSH2 0x57FC JUMP JUMPDEST PUSH1 0x40 MLOAD SWAP1 PUSH8 0xDA233670972EECB7 DUP2 DUP4 ADD MSTORE DUP2 MSTORE PUSH2 0x57FC JUMP JUMPDEST PUSH1 0x40 MLOAD PUSH4 0x309CB87 PUSH1 0xE5 SHL DUP2 MSTORE PUSH1 0x4 SWAP1 REVERT JUMPDEST SWAP1 SWAP2 PUSH2 0x56C PUSH1 0x40 MLOAD PUSH8 0x725C281DE7F9F000 DUP4 DUP3 ADD MSTORE DUP3 DUP2 MSTORE PUSH2 0x57FC JUMP JUMPDEST PUSH2 0x587 PUSH1 0x40 MLOAD PUSH8 0xD17C70DC03B73C35 DUP4 DUP3 ADD MSTORE DUP3 DUP2 MSTORE PUSH2 0x57FC JUMP JUMPDEST PUSH2 0x5A2 PUSH1 0x40 MLOAD PUSH8 0x450F1C5AA5713086 DUP4 DUP3 ADD MSTORE DUP3 DUP2 MSTORE PUSH2 0x57FC JUMP JUMPDEST CALLER DUP5 MSTORE PUSH1 0xE DUP2 MSTORE PUSH2 0x6A8 PUSH1 0x40 DUP6 KECCAK256 PUSH2 0x5CB PUSH1 0x40 MLOAD PUSH8 0xAB6D619FCB8EFFA8 DUP6 DUP3 ADD MSTORE DUP5 DUP2 MSTORE PUSH2 0x57FC JUMP JUMPDEST PUSH2 0x5E6 PUSH1 0x40 MLOAD PUSH8 0x68D235163EA32506 DUP6 DUP3 ADD MSTORE DUP5 DUP2 MSTORE PUSH2 0x57FC JUMP JUMPDEST PUSH2 0x61B PUSH2 0x684 DUP3 SLOAD SWAP3 PUSH2 0x620 DUP9 PUSH2 0x5FF PUSH1 0x7 SLOAD DUP8 PUSH2 0x59FB JUMP JUMPDEST SWAP6 PUSH2 0x61B PUSH1 0x40 MLOAD PUSH8 0xAC4FE974BCD39CCC DUP12 DUP3 ADD MSTORE DUP11 DUP2 MSTORE PUSH2 0x57FC JUMP JUMPDEST PUSH2 0x5A77 JUMP JUMPDEST SWAP1 DUP2 DUP2 SSTORE PUSH2 0x63F PUSH1 0x40 MLOAD PUSH8 0x981BB5173ECFBAAE DUP10 DUP3 ADD MSTORE DUP9 DUP2 MSTORE PUSH2 0x57FC JUMP JUMPDEST PUSH1 0x1 TIMESTAMP SWAP2 ADD SSTORE PUSH2 0x660 PUSH1 0x40 MLOAD PUSH8 0xA95C04FF82103BC7 DUP9 DUP3 ADD MSTORE DUP8 DUP2 MSTORE PUSH2 0x57FC JUMP JUMPDEST PUSH2 0x67B PUSH1 0x40 MLOAD PUSH8 0x34510220458FB19C DUP9 DUP3 ADD MSTORE DUP8 DUP2 MSTORE PUSH2 0x57FC JUMP JUMPDEST PUSH1 0x7 SLOAD SWAP1 PUSH2 0x59FB JUMP JUMPDEST SWAP2 PUSH2 0x6A0 PUSH1 0x40 MLOAD PUSH8 0xDA9E5BECDC016FA3 DUP8 DUP3 ADD MSTORE DUP7 DUP2 MSTORE PUSH2 0x57FC JUMP JUMPDEST PUSH1 0xB SLOAD PUSH2 0x5A84 JUMP JUMPDEST PUSH1 0xB SSTORE PUSH2 0x6C6 PUSH1 0x40 MLOAD PUSH8 0x3E0B9C1D2F285290 DUP4 DUP3 ADD MSTORE DUP3 DUP2 MSTORE PUSH2 0x57FC JUMP JUMPDEST PUSH2 0x6E1 PUSH1 0x40 MLOAD PUSH8 0x7090D6486E984A9E DUP4 DUP3 ADD MSTORE DUP3 DUP2 MSTORE PUSH2 0x57FC JUMP JUMPDEST PUSH1 0x40 MLOAD PUSH4 0x23B872DD PUSH1 0xE0 SHL DUP2 MSTORE CALLER PUSH1 0x4 DUP3 ADD MSTORE ADDRESS PUSH1 0x24 DUP3 ADD MSTORE PUSH1 0x44 DUP2 ADD DUP5 SWAP1 MSTORE SWAP2 DUP2 SWAP1 DUP4 SWAP1 PUSH1 0x64 SWAP1 DUP3 SWAP1 DUP9 SWAP1 PUSH32 0x0 AND GAS CALL SWAP2 DUP3 ISZERO PUSH2 0x846 JUMPI PUSH32 0xEC53A80F7FD2E0AD362F205AA59D80DF1F44DDBB229BBE3591A1BF8D34FB5B6F SWAP3 PUSH2 0x7BC SWAP2 DUP7 SWAP2 PUSH2 0x819 JUMPI JUMPDEST POP PUSH2 0x781 PUSH1 0x40 MLOAD PUSH8 0x9E859A795BA12F2A DUP6 DUP3 ADD MSTORE DUP5 DUP2 MSTORE PUSH2 0x57FC JUMP JUMPDEST PUSH2 0x79C PUSH1 0x40 MLOAD PUSH8 0xD48A66DAFC46FE9E DUP6 DUP3 ADD MSTORE DUP5 DUP2 MSTORE PUSH2 0x57FC JUMP JUMPDEST PUSH2 0x7B7 PUSH1 0x40 MLOAD PUSH8 0x76716FD441B6C05B DUP6 DUP3 ADD MSTORE DUP5 DUP2 MSTORE PUSH2 0x57FC JUMP JUMPDEST PUSH2 0x5A33 JUMP JUMPDEST PUSH2 0x7D7 PUSH1 0x40 MLOAD PUSH8 0xFB0B0591582FB387 DUP4 DUP3 ADD MSTORE DUP3 DUP2 MSTORE PUSH2 0x57FC JUMP JUMPDEST PUSH2 0x7F2 PUSH1 0x40 MLOAD PUSH8 0xB1612CEC300ACEFF DUP4 DUP3 ADD MSTORE DUP3 DUP2 MSTORE PUSH2 0x57FC JUMP JUMPDEST PUSH2 0x80D PUSH1 0x40 MLOAD PUSH8 0x9760E5FD6FEE8A25 DUP4 DUP3 ADD MSTORE DUP3 DUP2 MSTORE PUSH2 0x57FC JUMP JUMPDEST PUSH1 0x40 MLOAD SWAP3 DUP4 MSTORE CALLER SWAP3 LOG2 DUP1 RETURN JUMPDEST PUSH2 0x839 SWAP2 POP DUP4 RETURNDATASIZE DUP6 GT PUSH2 0x83F JUMPI JUMPDEST PUSH2 0x831 DUP2 DUP4 PUSH2 0x5818 JUMP JUMPDEST DUP2 ADD SWAP1 PUSH2 0x5A1B JUMP JUMPDEST CODESIZE PUSH2 0x765 JUMP JUMPDEST POP RETURNDATASIZE PUSH2 0x827 JUMP JUMPDEST PUSH1 0x40 MLOAD RETURNDATASIZE DUP7 DUP3 RETURNDATACOPY RETURNDATASIZE SWAP1 REVERT JUMPDEST POP DUP1 REVERT JUMPDEST POP DUP1 PUSH1 0x3 NOT CALLDATASIZE ADD SLT PUSH2 0x22E JUMPI PUSH1 0x40 MLOAD SWAP1 PUSH2 0x880 PUSH1 0x20 SWAP3 PUSH8 0x770E6D8FC6FAB224 DUP5 DUP3 ADD MSTORE DUP4 DUP2 MSTORE PUSH2 0x57FC JUMP JUMPDEST PUSH2 0x89B PUSH1 0x40 MLOAD PUSH8 0x23A6AA57F260CEE6 DUP5 DUP3 ADD MSTORE DUP4 DUP2 MSTORE PUSH2 0x57FC JUMP JUMPDEST PUSH2 0x8B6 PUSH1 0x40 MLOAD PUSH8 0x38F9D058737588AA DUP5 DUP3 ADD MSTORE DUP4 DUP2 MSTORE PUSH2 0x57FC JUMP JUMPDEST PUSH2 0x8D1 PUSH1 0x40 MLOAD PUSH8 0x98DBD418D87FB6D3 DUP5 DUP3 ADD MSTORE DUP4 DUP2 MSTORE PUSH2 0x57FC JUMP JUMPDEST PUSH1 0x1 SLOAD PUSH1 0xFF DUP2 PUSH1 0xA0 SHR AND PUSH1 0x0 EQ PUSH2 0x901 JUMPI PUSH2 0x3A4 DUP4 PUSH2 0x38C PUSH1 0x40 MLOAD PUSH8 0x6D22A1603CC66AF DUP4 DUP3 ADD MSTORE DUP3 DUP2 MSTORE PUSH2 0x57FC JUMP JUMPDEST PUSH2 0x91C PUSH1 0x40 MLOAD PUSH8 0x3392708B065C4978 DUP6 DUP3 ADD MSTORE DUP5 DUP2 MSTORE PUSH2 0x57FC JUMP JUMPDEST PUSH2 0x937 PUSH1 0x40 MLOAD PUSH8 0x215F2BCED65EB339 DUP6 DUP3 ADD MSTORE DUP5 DUP2 MSTORE PUSH2 0x57FC JUMP JUMPDEST PUSH2 0x952 PUSH1 0x40 MLOAD PUSH8 0x71A6B24264EC116E DUP6 DUP3 ADD MSTORE DUP5 DUP2 MSTORE PUSH2 0x57FC JUMP JUMPDEST PUSH1 0x1 PUSH1 0x1 PUSH1 0xA0 SHL SUB SWAP1 DUP2 AND PUSH2 0x980 JUMPI PUSH2 0x44D DUP4 PUSH2 0x435 PUSH1 0x40 MLOAD PUSH8 0xF4DBDB29E7311B48 DUP4 DUP3 ADD MSTORE DUP3 DUP2 MSTORE PUSH2 0x57FC JUMP JUMPDEST PUSH2 0x99B PUSH1 0x40 MLOAD PUSH8 0x9876C41EF0CCDF57 DUP6 DUP3 ADD MSTORE DUP5 DUP2 MSTORE PUSH2 0x57FC JUMP JUMPDEST PUSH2 0x9B6 PUSH1 0x40 MLOAD PUSH8 0x8A7063D64D1C73C8 DUP6 DUP3 ADD MSTORE DUP5 DUP2 MSTORE PUSH2 0x57FC JUMP JUMPDEST PUSH2 0x9D1 PUSH1 0x40 MLOAD PUSH8 0xD0CD36CA3E1AA2D8 DUP6 DUP3 ADD MSTORE DUP5 DUP2 MSTORE PUSH2 0x57FC JUMP JUMPDEST PUSH2 0x9EC PUSH1 0x40 MLOAD PUSH8 0x92166A27746FFF20 DUP6 DUP3 ADD MSTORE DUP5 DUP2 MSTORE PUSH2 0x57FC JUMP JUMPDEST PUSH2 0xA07 PUSH1 0x40 MLOAD PUSH8 0x9998C20BCC9BB286 DUP6 DUP3 ADD MSTORE DUP5 DUP2 MSTORE PUSH2 0x57FC JUMP JUMPDEST PUSH2 0xA22 PUSH1 0x40 MLOAD PUSH8 0xA1B7490E9252122D DUP6 DUP3 ADD MSTORE DUP5 DUP2 MSTORE PUSH2 0x57FC JUMP JUMPDEST CALLVALUE ISZERO DUP1 ISZERO PUSH2 0xA61 JUMPI PUSH2 0x53D DUP5 PUSH2 0xA49 PUSH1 0x40 MLOAD PUSH8 0xE5CB03EDFA874318 DUP4 DUP3 ADD MSTORE DUP3 DUP2 MSTORE PUSH2 0x57FC JUMP JUMPDEST PUSH1 0x40 MLOAD SWAP1 PUSH8 0x2D9843A99937D924 DUP2 DUP4 ADD MSTORE DUP2 MSTORE PUSH2 0x57FC JUMP JUMPDEST PUSH2 0xA7C PUSH1 0x40 MLOAD PUSH8 0x73016140494242D3 DUP7 DUP3 ADD MSTORE DUP6 DUP2 MSTORE PUSH2 0x57FC JUMP JUMPDEST PUSH2 0xA97 PUSH1 0x40 MLOAD PUSH8 0x56D062E916E92734 DUP7 DUP3 ADD MSTORE DUP6 DUP2 MSTORE PUSH2 0x57FC JUMP JUMPDEST PUSH2 0xAB2 PUSH1 0x40 MLOAD PUSH8 0xD530DAB68705A557 DUP7 DUP3 ADD MSTORE DUP6 DUP2 MSTORE PUSH2 0x57FC JUMP JUMPDEST PUSH8 0xDE0B6B3A7640000 SWAP1 DUP2 CALLVALUE MUL SWAP2 CALLVALUE DUP4 DIV EQ OR ISZERO PUSH2 0xDC4 JUMPI PUSH1 0x2 SLOAD PUSH2 0xAD6 SWAP2 PUSH2 0x59FB JUMP JUMPDEST SWAP1 PUSH2 0xAF2 PUSH1 0x40 MLOAD PUSH8 0x6B35B80AB6A075E3 DUP7 DUP3 ADD MSTORE DUP6 DUP2 MSTORE PUSH2 0x57FC JUMP JUMPDEST PUSH2 0xB0D PUSH1 0x40 MLOAD PUSH8 0x570CADBC8EE0E7FC DUP7 DUP3 ADD MSTORE DUP6 DUP2 MSTORE PUSH2 0x57FC JUMP JUMPDEST DUP2 PUSH2 0xB49 JUMPI PUSH2 0x53D DUP5 PUSH2 0xB31 PUSH1 0x40 MLOAD PUSH8 0x6F89B11AEB99CC5F DUP4 DUP3 ADD MSTORE DUP3 DUP2 MSTORE PUSH2 0x57FC JUMP JUMPDEST PUSH1 0x40 MLOAD SWAP1 PUSH8 0x1A238561849246F8 DUP2 DUP4 ADD MSTORE DUP2 MSTORE PUSH2 0x57FC JUMP JUMPDEST PUSH2 0xB64 PUSH1 0x40 MLOAD PUSH8 0x9CC47F97117048C1 DUP7 DUP3 ADD MSTORE DUP6 DUP2 MSTORE PUSH2 0x57FC JUMP JUMPDEST PUSH2 0xB7F PUSH1 0x40 MLOAD PUSH8 0x88911BF06768E056 DUP7 DUP3 ADD MSTORE DUP6 DUP2 MSTORE PUSH2 0x57FC JUMP JUMPDEST PUSH2 0xB9A PUSH1 0x40 MLOAD PUSH8 0x931A4C05121A90DE DUP7 DUP3 ADD MSTORE DUP6 DUP2 MSTORE PUSH2 0x57FC JUMP JUMPDEST PUSH32 0x0 AND SWAP1 PUSH1 0x40 MLOAD PUSH4 0x70A08231 PUSH1 0xE0 SHL DUP2 MSTORE ADDRESS PUSH1 0x4 DUP3 ADD MSTORE DUP5 DUP2 PUSH1 0x24 DUP2 DUP7 GAS STATICCALL SWAP1 DUP2 ISZERO PUSH2 0x846 JUMPI SWAP1 DUP3 SWAP2 DUP6 SWAP2 PUSH2 0xD8F JUMPI JUMPDEST POP PUSH2 0xC05 PUSH1 0x40 MLOAD PUSH8 0x2E694BC87179B4EC DUP9 DUP3 ADD MSTORE DUP8 DUP2 MSTORE PUSH2 0x57FC JUMP JUMPDEST PUSH2 0xC20 PUSH1 0x40 MLOAD PUSH8 0xBDB18D53A5BA2EB3 DUP9 DUP3 ADD MSTORE DUP8 DUP2 MSTORE PUSH2 0x57FC JUMP JUMPDEST LT ISZERO PUSH2 0xC5D JUMPI PUSH2 0x53D DUP5 PUSH2 0xC45 PUSH1 0x40 MLOAD PUSH8 0xC7901DD12FA0F80F DUP4 DUP3 ADD MSTORE DUP3 DUP2 MSTORE PUSH2 0x57FC JUMP JUMPDEST PUSH1 0x40 MLOAD SWAP1 PUSH8 0xC87BBAFED521CF9 DUP2 DUP4 ADD MSTORE DUP2 MSTORE PUSH2 0x57FC JUMP JUMPDEST SWAP3 PUSH2 0xCE0 DUP2 SWAP3 DUP5 SWAP6 PUSH2 0xC80 PUSH1 0x40 MLOAD PUSH8 0x3AF087C09C41E336 DUP7 DUP3 ADD MSTORE DUP6 DUP2 MSTORE PUSH2 0x57FC JUMP JUMPDEST PUSH2 0xC9B PUSH1 0x40 MLOAD PUSH8 0x71647DAB0E5D4DAA DUP7 DUP3 ADD MSTORE DUP6 DUP2 MSTORE PUSH2 0x57FC JUMP JUMPDEST PUSH2 0xCB6 PUSH1 0x40 MLOAD PUSH8 0xB65C2D5BA5A7CA3 DUP7 DUP3 ADD MSTORE DUP6 DUP2 MSTORE PUSH2 0x57FC JUMP JUMPDEST PUSH1 0x40 MLOAD PUSH4 0xA9059CBB PUSH1 0xE0 SHL DUP2 MSTORE CALLER PUSH1 0x4 DUP3 ADD MSTORE PUSH1 0x24 DUP2 ADD SWAP2 SWAP1 SWAP2 MSTORE SWAP5 DUP6 SWAP3 DUP4 SWAP2 SWAP1 DUP3 SWAP1 PUSH1 0x44 DUP3 ADD SWAP1 JUMP JUMPDEST SUB SWAP3 GAS CALL SWAP2 DUP3 ISZERO PUSH2 0xD84 JUMPI PUSH2 0xD64 SWAP3 PUSH2 0xD4C SWAP2 DUP6 SWAP2 PUSH2 0xD67 JUMPI JUMPDEST POP PUSH2 0xD16 PUSH1 0x40 MLOAD PUSH8 0xEE15FC0058DC8E5A DUP6 DUP3 ADD MSTORE DUP5 DUP2 MSTORE PUSH2 0x57FC JUMP JUMPDEST PUSH2 0xD31 PUSH1 0x40 MLOAD PUSH8 0x5D829AE4E741A5A3 DUP6 DUP3 ADD MSTORE DUP5 DUP2 MSTORE PUSH2 0x57FC JUMP JUMPDEST PUSH2 0x7B7 PUSH1 0x40 MLOAD PUSH8 0x38C26480E6AA5AE4 DUP6 DUP3 ADD MSTORE DUP5 DUP2 MSTORE PUSH2 0x57FC JUMP JUMPDEST PUSH1 0x40 MLOAD SWAP1 PUSH8 0xC5989231D1647A0 DUP2 DUP4 ADD MSTORE DUP2 MSTORE PUSH2 0x57FC JUMP JUMPDEST DUP1 RETURN JUMPDEST PUSH2 0xD7E SWAP2 POP DUP4 RETURNDATASIZE DUP6 GT PUSH2 0x83F JUMPI PUSH2 0x831 DUP2 DUP4 PUSH2 0x5818 JUMP JUMPDEST CODESIZE PUSH2 0xCFA JUMP JUMPDEST PUSH1 0x40 MLOAD RETURNDATASIZE DUP6 DUP3 RETURNDATACOPY RETURNDATASIZE SWAP1 REVERT JUMPDEST DUP1 SWAP3 POP DUP7 DUP1 SWAP3 POP RETURNDATASIZE DUP4 GT PUSH2 0xDBD JUMPI JUMPDEST PUSH2 0xDA8 DUP2 DUP4 PUSH2 0x5818 JUMP JUMPDEST DUP2 ADD SUB SLT PUSH2 0xDB9 JUMPI DUP2 SWAP1 MLOAD CODESIZE PUSH2 0xBE9 JUMP JUMPDEST DUP4 DUP1 REVERT JUMPDEST POP RETURNDATASIZE PUSH2 0xD9E JUMP JUMPDEST PUSH4 0x4E487B71 PUSH1 0xE0 SHL DUP4 MSTORE PUSH1 0x11 PUSH1 0x4 MSTORE PUSH1 0x24 DUP4 REVERT JUMPDEST POP CALLVALUE PUSH2 0x22E JUMPI DUP1 PUSH1 0x3 NOT CALLDATASIZE ADD SLT PUSH2 0x22E JUMPI PUSH1 0x20 PUSH1 0x5 SLOAD PUSH1 0x40 MLOAD SWAP1 DUP2 MSTORE RETURN JUMPDEST POP CALLVALUE PUSH2 0x22E JUMPI PUSH1 0x40 CALLDATASIZE PUSH1 0x3 NOT ADD SLT PUSH2 0x22E JUMPI PUSH1 0x24 CALLDATALOAD DUP1 ISZERO ISZERO PUSH1 0x4 CALLDATALOAD DUP2 DUP4 SUB PUSH2 0xDB9 JUMPI PUSH1 0x40 MLOAD SWAP3 PUSH2 0xE37 PUSH1 0x20 SWAP5 PUSH8 0x2FAE7E79379027B3 DUP7 DUP3 ADD MSTORE DUP6 DUP2 MSTORE PUSH2 0x57FC JUMP JUMPDEST PUSH2 0xE52 PUSH1 0x40 MLOAD PUSH8 0x23A6AA57F260CEE6 DUP7 DUP3 ADD MSTORE DUP6 DUP2 MSTORE PUSH2 0x57FC JUMP JUMPDEST PUSH2 0xE6D PUSH1 0x40 MLOAD PUSH8 0x38F9D058737588AA DUP7 DUP3 ADD MSTORE DUP6 DUP2 MSTORE PUSH2 0x57FC JUMP JUMPDEST PUSH2 0xE88 PUSH1 0x40 MLOAD PUSH8 0x98DBD418D87FB6D3 DUP7 DUP3 ADD MSTORE DUP6 DUP2 MSTORE PUSH2 0x57FC JUMP JUMPDEST PUSH1 0x1 SLOAD PUSH1 0xFF DUP2 PUSH1 0xA0 SHR AND PUSH1 0x0 EQ PUSH2 0xEB8 JUMPI PUSH2 0x3A4 DUP6 PUSH2 0x38C PUSH1 0x40 MLOAD PUSH8 0x6D22A1603CC66AF DUP4 DUP3 ADD MSTORE DUP3 DUP2 MSTORE PUSH2 0x57FC JUMP JUMPDEST PUSH2 0xED3 PUSH1 0x40 MLOAD PUSH8 0x3392708B065C4978 DUP8 DUP3 ADD MSTORE DUP7 DUP2 MSTORE PUSH2 0x57FC JUMP JUMPDEST PUSH2 0xEEE PUSH1 0x40 MLOAD PUSH8 0x215F2BCED65EB339 DUP8 DUP3 ADD MSTORE DUP7 DUP2 MSTORE PUSH2 0x57FC JUMP JUMPDEST PUSH2 0xF09 PUSH1 0x40 MLOAD PUSH8 0x71A6B24264EC116E DUP8 DUP3 ADD MSTORE DUP7 DUP2 MSTORE PUSH2 0x57FC JUMP JUMPDEST PUSH1 0x1 PUSH1 0x1 PUSH1 0xA0 SHL SUB SWAP1 DUP2 AND PUSH2 0xF37 JUMPI PUSH2 0x44D DUP6 PUSH2 0x435 PUSH1 0x40 MLOAD PUSH8 0xF4DBDB29E7311B48 DUP4 DUP3 ADD MSTORE DUP3 DUP2 MSTORE PUSH2 0x57FC JUMP JUMPDEST PUSH2 0xF52 PUSH1 0x40 MLOAD PUSH8 0x9876C41EF0CCDF57 DUP8 DUP3 ADD MSTORE DUP7 DUP2 MSTORE PUSH2 0x57FC JUMP JUMPDEST PUSH2 0xF6D PUSH1 0x40 MLOAD PUSH8 0x8A7063D64D1C73C8 DUP8 DUP3 ADD MSTORE DUP7 DUP2 MSTORE PUSH2 0x57FC JUMP JUMPDEST PUSH2 0xF88 PUSH1 0x40 MLOAD PUSH8 0xFE9016C6515662C6 DUP8 DUP3 ADD MSTORE DUP7 DUP2 MSTORE PUSH2 0x57FC JUMP JUMPDEST PUSH2 0xFA3 PUSH1 0x40 MLOAD PUSH8 0x9AB74F433F258E85 DUP8 DUP3 ADD MSTORE DUP7 DUP2 MSTORE PUSH2 0x57FC JUMP JUMPDEST PUSH2 0xFBE PUSH1 0x40 MLOAD PUSH8 0xBEC9E58F76E56541 DUP8 DUP3 ADD MSTORE DUP7 DUP2 MSTORE PUSH2 0x57FC JUMP JUMPDEST PUSH2 0xFD9 PUSH1 0x40 MLOAD PUSH8 0x272A0CFD3D951641 DUP8 DUP3 ADD MSTORE DUP7 DUP2 MSTORE PUSH2 0x57FC JUMP JUMPDEST DUP3 DUP7 MSTORE PUSH1 0xC DUP6 MSTORE PUSH1 0x40 DUP7 KECCAK256 SWAP1 PUSH2 0x1000 PUSH1 0x40 MLOAD PUSH8 0xEB71F3CEC20CDB20 DUP9 DUP3 ADD MSTORE DUP8 DUP2 MSTORE PUSH2 0x57FC JUMP JUMPDEST PUSH2 0x101B PUSH1 0x40 MLOAD PUSH8 0xF0EF278B0575D837 DUP9 DUP3 ADD MSTORE DUP8 DUP2 MSTORE PUSH2 0x57FC JUMP JUMPDEST PUSH1 0x1 DUP3 ADD SLOAD AND PUSH2 0x106E JUMPI PUSH2 0x105C DUP6 PUSH2 0x1044 PUSH1 0x40 MLOAD PUSH8 0x911B5BB8434E067D DUP4 DUP3 ADD MSTORE DUP3 DUP2 MSTORE PUSH2 0x57FC JUMP JUMPDEST PUSH1 0x40 MLOAD SWAP1 PUSH8 0x5287CCD9A558EB29 DUP2 DUP4 ADD MSTORE DUP2 MSTORE PUSH2 0x57FC JUMP JUMPDEST PUSH1 0x40 MLOAD PUSH4 0x1DC06501 PUSH1 0xE3 SHL DUP2 MSTORE PUSH1 0x4 SWAP1 REVERT JUMPDEST PUSH2 0x1089 PUSH1 0x40 MLOAD PUSH8 0x7C24ADA633B2BB69 DUP8 DUP3 ADD MSTORE DUP7 DUP2 MSTORE PUSH2 0x57FC JUMP JUMPDEST PUSH2 0x10A4 PUSH1 0x40 MLOAD PUSH8 0x4CA526FCE85A3951 DUP8 DUP3 ADD MSTORE DUP7 DUP2 MSTORE PUSH2 0x57FC JUMP JUMPDEST PUSH2 0x10BF PUSH1 0x40 MLOAD PUSH8 0x89881391AD4D3893 DUP8 DUP3 ADD MSTORE DUP7 DUP2 MSTORE PUSH2 0x57FC JUMP JUMPDEST PUSH1 0xFF PUSH1 0x8 DUP3 ADD SLOAD AND PUSH1 0x3 DUP2 LT ISZERO PUSH2 0x15AF JUMPI ISZERO PUSH2 0x111E JUMPI PUSH2 0x110C DUP6 PUSH2 0x10F4 PUSH1 0x40 MLOAD PUSH8 0x3C03913D81C5621F DUP4 DUP3 ADD MSTORE DUP3 DUP2 MSTORE PUSH2 0x57FC JUMP JUMPDEST PUSH1 0x40 MLOAD SWAP1 PUSH8 0xA2501D8DC502B853 DUP2 DUP4 ADD MSTORE DUP2 MSTORE PUSH2 0x57FC JUMP JUMPDEST PUSH1 0x40 MLOAD PUSH4 0xEEB4F15 PUSH1 0xE0 SHL DUP2 MSTORE PUSH1 0x4 SWAP1 REVERT JUMPDEST PUSH2 0x1139 PUSH1 0x40 MLOAD PUSH8 0xD70215D0002FBB75 DUP8 DUP3 ADD MSTORE DUP7 DUP2 MSTORE PUSH2 0x57FC JUMP JUMPDEST PUSH2 0x1154 PUSH1 0x40 MLOAD PUSH8 0x762720B5C184CAB6 DUP8 DUP3 ADD MSTORE DUP7 DUP2 MSTORE PUSH2 0x57FC JUMP JUMPDEST PUSH2 0x116F PUSH1 0x40 MLOAD PUSH8 0xE4F8581375C3CD2 DUP8 DUP3 ADD MSTORE DUP7 DUP2 MSTORE PUSH2 0x57FC JUMP JUMPDEST PUSH1 0x5 DUP2 ADD SLOAD TIMESTAMP LT PUSH2 0x11B1 JUMPI PUSH2 0x110C DUP6 PUSH2 0x1199 PUSH1 0x40 MLOAD PUSH8 0xCA3DF2ADB5C51E01 DUP4 DUP3 ADD MSTORE DUP3 DUP2 MSTORE PUSH2 0x57FC JUMP JUMPDEST PUSH1 0x40 MLOAD SWAP1 PUSH8 0x4E2E6B901D40DC74 DUP2 DUP4 ADD MSTORE DUP2 MSTORE PUSH2 0x57FC JUMP JUMPDEST PUSH2 0x11CC PUSH1 0x40 MLOAD PUSH8 0x2E6FC3DD061872AD DUP8 DUP3 ADD MSTORE DUP7 DUP2 MSTORE PUSH2 0x57FC JUMP JUMPDEST PUSH2 0x11E7 PUSH1 0x40 MLOAD PUSH8 0x555774988F968270 DUP8 DUP3 ADD MSTORE DUP7 DUP2 MSTORE PUSH2 0x57FC JUMP JUMPDEST PUSH2 0x1202 PUSH1 0x40 MLOAD PUSH8 0xC7D80D86DE340045 DUP8 DUP3 ADD MSTORE DUP7 DUP2 MSTORE PUSH2 0x57FC JUMP JUMPDEST DUP3 DUP7 MSTORE PUSH1 0xD DUP6 MSTORE PUSH1 0x40 DUP7 KECCAK256 CALLER PUSH1 0x0 MSTORE DUP6 MSTORE PUSH1 0xFF PUSH1 0x40 PUSH1 0x0 KECCAK256 SLOAD AND PUSH1 0x0 EQ PUSH2 0x126C JUMPI PUSH2 0x125A DUP6 PUSH2 0x1242 PUSH1 0x40 MLOAD PUSH8 0x98EDF93877ADB376 DUP4 DUP3 ADD MSTORE DUP3 DUP2 MSTORE PUSH2 0x57FC JUMP JUMPDEST PUSH1 0x40 MLOAD SWAP1 PUSH8 0x9BFAD8C29936BF03 DUP2 DUP4 ADD MSTORE DUP2 MSTORE PUSH2 0x57FC JUMP JUMPDEST PUSH1 0x40 MLOAD PUSH4 0x7C9A1CF9 PUSH1 0xE0 SHL DUP2 MSTORE PUSH1 0x4 SWAP1 REVERT JUMPDEST PUSH2 0x1287 PUSH1 0x40 MLOAD PUSH8 0x89C45AA7396F1189 DUP8 DUP3 ADD MSTORE DUP7 DUP2 MSTORE PUSH2 0x57FC JUMP JUMPDEST PUSH2 0x12A2 PUSH1 0x40 MLOAD PUSH8 0xCF4305F26DE15329 DUP8 DUP3 ADD MSTORE DUP7 DUP2 MSTORE PUSH2 0x57FC JUMP JUMPDEST PUSH2 0x12BD PUSH1 0x40 MLOAD PUSH8 0xFAA30FBF20BEB391 DUP8 DUP3 ADD MSTORE DUP7 DUP2 MSTORE PUSH2 0x57FC JUMP JUMPDEST CALLER DUP7 MSTORE PUSH1 0xE DUP6 MSTORE PUSH1 0x40 DUP7 KECCAK256 PUSH2 0x12E3 PUSH1 0x40 MLOAD PUSH8 0x5AA387C6331ED508 DUP9 DUP3 ADD MSTORE DUP8 DUP2 MSTORE PUSH2 0x57FC JUMP JUMPDEST PUSH2 0x12FD PUSH1 0x40 MLOAD PUSH7 0xBC2CB247E14EE6 DUP9 DUP3 ADD MSTORE DUP8 DUP2 MSTORE PUSH2 0x57FC JUMP JUMPDEST SLOAD PUSH1 0x3 SLOAD GT ISZERO PUSH2 0x1350 JUMPI PUSH2 0x133E DUP6 PUSH2 0x1326 PUSH1 0x40 MLOAD PUSH8 0x60ECEFDD650F2126 DUP4 DUP3 ADD MSTORE DUP3 DUP2 MSTORE PUSH2 0x57FC JUMP JUMPDEST PUSH1 0x40 MLOAD SWAP1 PUSH8 0x29BB345D386E2BED DUP2 DUP4 ADD MSTORE DUP2 MSTORE PUSH2 0x57FC JUMP JUMPDEST PUSH1 0x40 MLOAD PUSH4 0x78DE4A69 PUSH1 0xE1 SHL DUP2 MSTORE PUSH1 0x4 SWAP1 REVERT JUMPDEST PUSH2 0x136B PUSH1 0x40 MLOAD PUSH8 0x54E2CC8F32B4A26A DUP8 DUP3 ADD MSTORE DUP7 DUP2 MSTORE PUSH2 0x57FC JUMP JUMPDEST PUSH2 0x1386 PUSH1 0x40 MLOAD PUSH8 0x4763E48B20937A3C DUP8 DUP3 ADD MSTORE DUP7 DUP2 MSTORE PUSH2 0x57FC JUMP JUMPDEST PUSH2 0x13A1 PUSH1 0x40 MLOAD PUSH8 0x652983794FB6F3C0 DUP8 DUP3 ADD MSTORE DUP7 DUP2 MSTORE PUSH2 0x57FC JUMP JUMPDEST PUSH2 0x13AA CALLER PUSH2 0x5A91 JUMP JUMPDEST SWAP2 PUSH2 0x13C6 PUSH1 0x40 MLOAD PUSH8 0x802040B18A15254E DUP9 DUP3 ADD MSTORE DUP8 DUP2 MSTORE PUSH2 0x57FC JUMP JUMPDEST PUSH2 0x13E1 PUSH1 0x40 MLOAD PUSH8 0x73355F172E84991 DUP9 DUP3 ADD MSTORE DUP8 DUP2 MSTORE PUSH2 0x57FC JUMP JUMPDEST DUP3 PUSH2 0x141D JUMPI PUSH2 0x133E DUP7 PUSH2 0x1405 PUSH1 0x40 MLOAD PUSH8 0x99EEDF134FF13061 DUP4 DUP3 ADD MSTORE DUP3 DUP2 MSTORE PUSH2 0x57FC JUMP JUMPDEST PUSH1 0x40 MLOAD SWAP1 PUSH8 0xA8B2E8CDF821E198 DUP2 DUP4 ADD MSTORE DUP2 MSTORE PUSH2 0x57FC JUMP JUMPDEST SWAP1 DUP7 SWAP6 SWAP2 PUSH2 0x143C PUSH1 0x40 MLOAD PUSH8 0xAF2B5AE53DE9C25C DUP6 DUP3 ADD MSTORE DUP5 DUP2 MSTORE PUSH2 0x57FC JUMP JUMPDEST PUSH2 0x1457 PUSH1 0x40 MLOAD PUSH8 0x4CC858FBFD0FD2F0 DUP6 DUP3 ADD MSTORE DUP5 DUP2 MSTORE PUSH2 0x57FC JUMP JUMPDEST DUP5 DUP8 MSTORE PUSH1 0xD DUP4 MSTORE PUSH1 0x40 DUP8 KECCAK256 CALLER PUSH1 0x0 MSTORE DUP4 MSTORE PUSH1 0x40 PUSH1 0x0 KECCAK256 PUSH1 0x1 PUSH1 0xFF NOT DUP3 SLOAD AND OR SWAP1 SSTORE PUSH2 0x1493 PUSH1 0x40 MLOAD PUSH8 0x8A05040609FDF3E6 DUP6 DUP3 ADD MSTORE DUP5 DUP2 MSTORE PUSH2 0x57FC JUMP JUMPDEST PUSH2 0x14AE PUSH1 0x40 MLOAD PUSH8 0x259926C2A06F0A88 DUP6 DUP3 ADD MSTORE DUP5 DUP2 MSTORE PUSH2 0x57FC JUMP JUMPDEST ISZERO PUSH2 0x1563 JUMPI PUSH1 0x6 SWAP1 PUSH2 0x14D1 PUSH1 0x40 MLOAD PUSH8 0x28B535AEAD4E5EDF DUP6 DUP3 ADD MSTORE DUP5 DUP2 MSTORE PUSH2 0x57FC JUMP JUMPDEST PUSH2 0x14EC PUSH1 0x40 MLOAD PUSH8 0x3E2AE21996B18772 DUP6 DUP3 ADD MSTORE DUP5 DUP2 MSTORE PUSH2 0x57FC JUMP JUMPDEST ADD PUSH2 0x14F8 DUP4 DUP3 SLOAD PUSH2 0x5A77 JUMP JUMPDEST SWAP1 SSTORE JUMPDEST PUSH2 0x1516 PUSH1 0x40 MLOAD PUSH8 0x3A863B0055338842 DUP4 DUP3 ADD MSTORE DUP3 DUP2 MSTORE PUSH2 0x57FC JUMP JUMPDEST PUSH2 0x1531 PUSH1 0x40 MLOAD PUSH8 0x889C0E7A5ADA84FC DUP4 DUP3 ADD MSTORE DUP3 DUP2 MSTORE PUSH2 0x57FC JUMP JUMPDEST PUSH1 0x40 MLOAD SWAP4 DUP5 MSTORE DUP4 ADD MSTORE PUSH32 0xCBDF6214089CBA887ECBF35A0B6A734589959C9763342C756BB2A80CA2BC9F6E PUSH1 0x40 CALLER SWAP4 LOG3 DUP1 RETURN JUMPDEST PUSH1 0x7 SWAP1 PUSH2 0x1581 PUSH1 0x40 MLOAD PUSH8 0xC517E0DDF44AF2B8 DUP6 DUP3 ADD MSTORE DUP5 DUP2 MSTORE PUSH2 0x57FC JUMP JUMPDEST PUSH2 0x159C PUSH1 0x40 MLOAD PUSH8 0x96434D5A839C62E6 DUP6 DUP3 ADD MSTORE DUP5 DUP2 MSTORE PUSH2 0x57FC JUMP JUMPDEST ADD PUSH2 0x15A8 DUP4 DUP3 SLOAD PUSH2 0x5A77 JUMP JUMPDEST SWAP1 SSTORE PUSH2 0x14FB JUMP JUMPDEST PUSH4 0x4E487B71 PUSH1 0xE0 SHL DUP8 MSTORE PUSH1 0x21 PUSH1 0x4 MSTORE PUSH1 0x24 DUP8 REVERT JUMPDEST POP CALLVALUE PUSH2 0x22E JUMPI PUSH1 0x20 CALLDATASIZE PUSH1 0x3 NOT ADD SLT PUSH2 0x22E JUMPI DUP1 PUSH2 0x180 PUSH1 0x40 MLOAD PUSH2 0x15E5 DUP2 PUSH2 0x57DF JUMP JUMPDEST DUP3 DUP2 MSTORE DUP3 PUSH1 0x20 DUP3 ADD MSTORE PUSH1 0x60 PUSH1 0x40 DUP3 ADD MSTORE PUSH1 0x60 DUP1 DUP3 ADD MSTORE DUP3 PUSH1 0x80 DUP3 ADD MSTORE DUP3 PUSH1 0xA0 DUP3 ADD MSTORE DUP3 PUSH1 0xC0 DUP3 ADD MSTORE DUP3 PUSH1 0xE0 DUP3 ADD MSTORE DUP3 PUSH2 0x100 DUP3 ADD MSTORE DUP3 PUSH2 0x120 DUP3 ADD MSTORE DUP3 PUSH2 0x140 DUP3 ADD MSTORE DUP3 PUSH2 0x160 DUP3 ADD MSTORE ADD MSTORE PUSH2 0x164E PUSH1 0x40 MLOAD PUSH8 0xF360D9C3EA2353B5 PUSH1 0x20 DUP3 ADD MSTORE PUSH1 0x20 DUP2 MSTORE PUSH2 0x57FC JUMP JUMPDEST PUSH2 0x166B PUSH1 0x40 MLOAD PUSH8 0x1B9B832DFD03B34F PUSH1 0x20 DUP3 ADD MSTORE PUSH1 0x20 DUP2 MSTORE PUSH2 0x57FC JUMP JUMPDEST PUSH2 0x1688 PUSH1 0x40 MLOAD PUSH8 0x577BD968A9A1207 PUSH1 0x20 DUP3 ADD MSTORE PUSH1 0x20 DUP2 MSTORE PUSH2 0x57FC JUMP JUMPDEST PUSH1 0x4 CALLDATALOAD DUP2 MSTORE PUSH1 0xC PUSH1 0x20 MSTORE PUSH1 0x40 DUP2 KECCAK256 PUSH1 0x40 MLOAD SWAP1 PUSH2 0x16A3 DUP3 PUSH2 0x57DF JUMP JUMPDEST DUP1 SLOAD DUP3 MSTORE PUSH1 0x1 DUP2 ADD SLOAD PUSH1 0x1 PUSH1 0x1 PUSH1 0xA0 SHL SUB AND PUSH1 0x20 DUP4 ADD MSTORE PUSH2 0x16C6 PUSH1 0x2 DUP3 ADD PUSH2 0x583A JUMP JUMPDEST PUSH1 0x40 DUP4 ADD MSTORE PUSH2 0x16D7 PUSH1 0x3 DUP3 ADD PUSH2 0x583A JUMP JUMPDEST PUSH1 0x60 DUP4 ADD MSTORE PUSH1 0x4 DUP2 ADD SLOAD PUSH1 0x80 DUP4 ADD MSTORE PUSH1 0x5 DUP2 ADD SLOAD PUSH1 0xA0 DUP4 ADD MSTORE PUSH1 0x6 DUP2 ADD SLOAD PUSH1 0xC0 DUP4 ADD MSTORE PUSH1 0x7 DUP2 ADD SLOAD PUSH1 0xE0 DUP4 ADD MSTORE PUSH1 0x8 DUP2 ADD SLOAD PUSH1 0x3 PUSH1 0xFF DUP3 AND LT ISZERO PUSH2 0x190A JUMPI PUSH1 0xFF DUP1 DUP3 AND PUSH2 0x100 DUP6 ADD MSTORE PUSH1 0x8 DUP3 SWAP1 SHR DUP2 AND ISZERO ISZERO PUSH2 0x120 DUP6 ADD MSTORE PUSH1 0x10 DUP3 SWAP1 SHR AND ISZERO ISZERO PUSH2 0x140 DUP5 ADD MSTORE PUSH1 0x18 SHR PUSH1 0x1 PUSH1 0x1 PUSH1 0xA0 SHL SUB AND PUSH2 0x160 DUP4 ADD MSTORE PUSH1 0x9 ADD SLOAD PUSH2 0x180 DUP3 ADD MSTORE PUSH1 0x40 MLOAD PUSH8 0xF433AB2571758265 PUSH1 0x20 DUP1 DUP4 ADD SWAP2 SWAP1 SWAP2 MSTORE DUP2 MSTORE PUSH2 0x1779 SWAP1 PUSH2 0x57FC JUMP JUMPDEST PUSH2 0x1796 PUSH1 0x40 MLOAD PUSH8 0x797F9DBDB8B7845B PUSH1 0x20 DUP3 ADD MSTORE PUSH1 0x20 DUP2 MSTORE PUSH2 0x57FC JUMP JUMPDEST PUSH1 0x20 DUP2 ADD MLOAD PUSH1 0x1 PUSH1 0x1 PUSH1 0xA0 SHL SUB AND PUSH2 0x17E2 JUMPI PUSH2 0x17C5 PUSH1 0x40 MLOAD PUSH8 0xE375853BCE81FBE8 PUSH1 0x20 DUP3 ADD MSTORE PUSH1 0x20 DUP2 MSTORE PUSH2 0x57FC JUMP JUMPDEST PUSH2 0x105C PUSH1 0x40 MLOAD PUSH8 0x47137D64BF7BB8E PUSH1 0x20 DUP3 ADD MSTORE PUSH1 0x20 DUP2 MSTORE PUSH2 0x57FC JUMP JUMPDEST PUSH2 0x17FF PUSH1 0x40 MLOAD PUSH8 0x92DEE994DC3F2EFE PUSH1 0x20 DUP3 ADD MSTORE PUSH1 0x20 DUP2 MSTORE PUSH2 0x57FC JUMP JUMPDEST PUSH2 0x181C PUSH1 0x40 MLOAD PUSH8 0x1C32585108921417 PUSH1 0x20 DUP3 ADD MSTORE PUSH1 0x20 DUP2 MSTORE PUSH2 0x57FC JUMP JUMPDEST PUSH2 0x1839 PUSH1 0x40 MLOAD PUSH8 0xCBB761F7C7A3B3FE PUSH1 0x20 DUP3 ADD MSTORE PUSH1 0x20 DUP2 MSTORE PUSH2 0x57FC JUMP JUMPDEST PUSH1 0x40 MLOAD DUP1 SWAP2 PUSH1 0x20 DUP3 MSTORE DUP1 MLOAD PUSH1 0x20 DUP4 ADD MSTORE PUSH1 0x1 DUP1 PUSH1 0xA0 SHL SUB PUSH1 0x20 DUP3 ADD MLOAD AND PUSH1 0x40 DUP4 ADD MSTORE PUSH2 0x180 PUSH2 0x1892 PUSH2 0x187C PUSH1 0x40 DUP5 ADD MLOAD PUSH2 0x1A0 PUSH1 0x60 DUP8 ADD MSTORE PUSH2 0x1C0 DUP7 ADD SWAP1 PUSH2 0x58E0 JUMP JUMPDEST PUSH1 0x60 DUP5 ADD MLOAD DUP6 DUP3 SUB PUSH1 0x1F NOT ADD PUSH1 0x80 DUP8 ADD MSTORE PUSH2 0x58E0 JUMP JUMPDEST SWAP2 PUSH1 0x80 DUP2 ADD MLOAD PUSH1 0xA0 DUP6 ADD MSTORE PUSH1 0xA0 DUP2 ADD MLOAD PUSH1 0xC0 DUP6 ADD MSTORE PUSH1 0xC0 DUP2 ADD MLOAD PUSH1 0xE0 DUP6 ADD MSTORE PUSH1 0xE0 DUP2 ADD MLOAD PUSH2 0x100 DUP6 ADD MSTORE PUSH2 0x18D0 PUSH2 0x100 DUP3 ADD MLOAD PUSH2 0x120 DUP7 ADD SWAP1 PUSH2 0x5920 JUMP JUMPDEST PUSH2 0x120 DUP2 ADD MLOAD ISZERO ISZERO PUSH2 0x140 DUP6 ADD MSTORE PUSH2 0x140 DUP2 ADD MLOAD ISZERO ISZERO PUSH2 0x160 DUP6 ADD MSTORE PUSH1 0x1 DUP1 PUSH1 0xA0 SHL SUB PUSH2 0x160 DUP3 ADD MLOAD AND DUP3 DUP6 ADD MSTORE ADD MLOAD PUSH2 0x1A0 DUP4 ADD MSTORE SUB SWAP1 RETURN JUMPDEST PUSH4 0x4E487B71 PUSH1 0xE0 SHL DUP5 MSTORE PUSH1 0x21 PUSH1 0x4 MSTORE PUSH1 0x24 DUP5 REVERT JUMPDEST POP CALLVALUE PUSH2 0x22E JUMPI DUP1 PUSH1 0x3 NOT CALLDATASIZE ADD SLT PUSH2 0x22E JUMPI PUSH1 0x20 PUSH1 0x3 SLOAD PUSH1 0x40 MLOAD SWAP1 DUP2 MSTORE RETURN JUMPDEST POP CALLVALUE PUSH2 0x22E JUMPI PUSH1 0x20 CALLDATASIZE PUSH1 0x3 NOT ADD SLT PUSH2 0x22E JUMPI PUSH1 0x20 PUSH2 0x1960 PUSH2 0x195B PUSH2 0x5943 JUMP JUMPDEST PUSH2 0x5A91 JUMP JUMPDEST PUSH1 0x40 MLOAD SWAP1 DUP2 MSTORE RETURN JUMPDEST POP CALLVALUE PUSH2 0x22E JUMPI DUP1 PUSH1 0x3 NOT CALLDATASIZE ADD SLT PUSH2 0x22E JUMPI PUSH1 0x1 SLOAD PUSH1 0x40 MLOAD PUSH1 0x1 PUSH1 0x1 PUSH1 0xA0 SHL SUB SWAP1 SWAP2 AND DUP2 MSTORE PUSH1 0x20 SWAP1 RETURN JUMPDEST POP CALLVALUE PUSH2 0x22E JUMPI PUSH1 0x80 CALLDATASIZE PUSH1 0x3 NOT ADD SLT PUSH2 0x22E JUMPI PUSH1 0x4 CALLDATALOAD PUSH8 0xFFFFFFFFFFFFFFFF DUP2 GT PUSH2 0x851 JUMPI PUSH2 0x19C3 SWAP1 CALLDATASIZE SWAP1 PUSH1 0x4 ADD PUSH2 0x5975 JUMP JUMPDEST SWAP1 PUSH1 0x24 CALLDATALOAD SWAP1 PUSH8 0xFFFFFFFFFFFFFFFF DUP3 GT PUSH2 0x22E JUMPI POP PUSH2 0x19E6 SWAP1 CALLDATASIZE SWAP1 PUSH1 0x4 ADD PUSH2 0x5975 JUMP JUMPDEST SWAP1 PUSH1 0x1 PUSH1 0x1 PUSH1 0xA0 SHL SUB PUSH1 0x44 CALLDATALOAD DUP1 DUP3 AND SWAP1 SUB PUSH2 0x233B JUMPI PUSH2 0x1A18 PUSH1 0x40 MLOAD PUSH8 0x6C44818082A0D200 PUSH1 0x20 DUP3 ADD MSTORE PUSH1 0x20 DUP2 MSTORE PUSH2 0x57FC JUMP JUMPDEST PUSH2 0x1A35 PUSH1 0x40 MLOAD PUSH8 0x23A6AA57F260CEE6 PUSH1 0x20 DUP3 ADD MSTORE PUSH1 0x20 DUP2 MSTORE PUSH2 0x57FC JUMP JUMPDEST PUSH2 0x1A52 PUSH1 0x40 MLOAD PUSH8 0x38F9D058737588AA PUSH1 0x20 DUP3 ADD MSTORE PUSH1 0x20 DUP2 MSTORE PUSH2 0x57FC JUMP JUMPDEST PUSH2 0x1A6F PUSH1 0x40 MLOAD PUSH8 0x98DBD418D87FB6D3 PUSH1 0x20 DUP3 ADD MSTORE PUSH1 0x20 DUP2 MSTORE PUSH2 0x57FC JUMP JUMPDEST PUSH1 0x1 SLOAD PUSH1 0xFF DUP2 PUSH1 0xA0 SHR AND PUSH1 0x0 EQ PUSH2 0x1ABA JUMPI PUSH2 0x1A9D PUSH1 0x40 MLOAD PUSH8 0x6D22A1603CC66AF PUSH1 0x20 DUP3 ADD MSTORE PUSH1 0x20 DUP2 MSTORE PUSH2 0x57FC JUMP JUMPDEST PUSH2 0x3A4 PUSH1 0x40 MLOAD PUSH8 0x89152C472DF81D15 PUSH1 0x20 DUP3 ADD MSTORE PUSH1 0x20 DUP2 MSTORE PUSH2 0x57FC JUMP JUMPDEST DUP2 SWAP1 PUSH2 0x1AD9 PUSH1 0x40 MLOAD PUSH8 0x3392708B065C4978 PUSH1 0x20 DUP3 ADD MSTORE PUSH1 0x20 DUP2 MSTORE PUSH2 0x57FC JUMP JUMPDEST PUSH2 0x1AF6 PUSH1 0x40 MLOAD PUSH8 0x215F2BCED65EB339 PUSH1 0x20 DUP3 ADD MSTORE PUSH1 0x20 DUP2 MSTORE PUSH2 0x57FC JUMP JUMPDEST PUSH2 0x1B13 PUSH1 0x40 MLOAD PUSH8 0x71A6B24264EC116E PUSH1 0x20 DUP3 ADD MSTORE PUSH1 0x20 DUP2 MSTORE PUSH2 0x57FC JUMP JUMPDEST AND PUSH2 0x1B52 JUMPI PUSH2 0x1B35 PUSH1 0x40 MLOAD PUSH8 0xF4DBDB29E7311B48 PUSH1 0x20 DUP3 ADD MSTORE PUSH1 0x20 DUP2 MSTORE PUSH2 0x57FC JUMP JUMPDEST PUSH2 0x44D PUSH1 0x40 MLOAD PUSH8 0x5E5FDE16BB0797B9 PUSH1 0x20 DUP3 ADD MSTORE PUSH1 0x20 DUP2 MSTORE PUSH2 0x57FC JUMP JUMPDEST PUSH2 0x1B6F PUSH1 0x40 MLOAD PUSH8 0x9876C41EF0CCDF57 PUSH1 0x20 DUP3 ADD MSTORE PUSH1 0x20 DUP2 MSTORE PUSH2 0x57FC JUMP JUMPDEST PUSH2 0x1B8C PUSH1 0x40 MLOAD PUSH8 0x8A7063D64D1C73C8 PUSH1 0x20 DUP3 ADD MSTORE PUSH1 0x20 DUP2 MSTORE PUSH2 0x57FC JUMP JUMPDEST PUSH2 0x1BA9 PUSH1 0x40 MLOAD PUSH8 0xB9ADE9E937DD573C PUSH1 0x20 DUP3 ADD MSTORE PUSH1 0x20 DUP2 MSTORE PUSH2 0x57FC JUMP JUMPDEST PUSH2 0x1BC6 PUSH1 0x40 MLOAD PUSH8 0xABB29E29C91CE94E PUSH1 0x20 DUP3 ADD MSTORE PUSH1 0x20 DUP2 MSTORE PUSH2 0x57FC JUMP JUMPDEST PUSH2 0x1BE3 PUSH1 0x40 MLOAD PUSH8 0x5114C40F73C75A5E PUSH1 0x20 DUP3 ADD MSTORE PUSH1 0x20 DUP2 MSTORE PUSH2 0x57FC JUMP JUMPDEST PUSH2 0x1C00 PUSH1 0x40 MLOAD PUSH8 0xDE68B8D951CB7C00 PUSH1 0x20 DUP3 ADD MSTORE PUSH1 0x20 DUP2 MSTORE PUSH2 0x57FC JUMP JUMPDEST DUP1 PUSH1 0x44 CALLDATALOAD AND ISZERO DUP1 PUSH2 0x2313 JUMPI JUMPDEST DUP1 ISZERO PUSH2 0x22E0 JUMPI JUMPDEST ISZERO PUSH2 0x1C64 JUMPI PUSH2 0x1C35 PUSH1 0x40 MLOAD PUSH8 0x4664F81C377B4D0F PUSH1 0x20 DUP3 ADD MSTORE PUSH1 0x20 DUP2 MSTORE PUSH2 0x57FC JUMP JUMPDEST PUSH2 0x1C52 PUSH1 0x40 MLOAD PUSH8 0x31A4F82099B56EA3 PUSH1 0x20 DUP3 ADD MSTORE PUSH1 0x20 DUP2 MSTORE PUSH2 0x57FC JUMP JUMPDEST PUSH1 0x40 MLOAD PUSH4 0x1713DA9D PUSH1 0xE1 SHL DUP2 MSTORE PUSH1 0x4 SWAP1 REVERT JUMPDEST PUSH2 0x1C81 PUSH1 0x40 MLOAD PUSH8 0x7BC745A30ED0E634 PUSH1 0x20 DUP3 ADD MSTORE PUSH1 0x20 DUP2 MSTORE PUSH2 0x57FC JUMP JUMPDEST PUSH2 0x1C9E PUSH1 0x40 MLOAD PUSH8 0xC529A3A0E846E3BA PUSH1 0x20 DUP3 ADD MSTORE PUSH1 0x20 DUP2 MSTORE PUSH2 0x57FC JUMP JUMPDEST PUSH2 0x1CBB PUSH1 0x40 MLOAD PUSH8 0x3142F9EDDCD37DC2 PUSH1 0x20 DUP3 ADD MSTORE PUSH1 0x20 DUP2 MSTORE PUSH2 0x57FC JUMP JUMPDEST PUSH2 0x1CD8 PUSH1 0x40 MLOAD PUSH8 0xA40C93DC08DFBE58 PUSH1 0x20 DUP3 ADD MSTORE PUSH1 0x20 DUP2 MSTORE PUSH2 0x57FC JUMP JUMPDEST PUSH2 0x1CF5 PUSH1 0x40 MLOAD PUSH8 0xC8D27382081A5985 PUSH1 0x20 DUP3 ADD MSTORE PUSH1 0x20 DUP2 MSTORE PUSH2 0x57FC JUMP JUMPDEST PUSH2 0x1D12 PUSH1 0x40 MLOAD PUSH8 0x98AF0A14673F2F82 PUSH1 0x20 DUP3 ADD MSTORE PUSH1 0x20 DUP2 MSTORE PUSH2 0x57FC JUMP JUMPDEST CALLER PUSH1 0x0 MSTORE PUSH1 0xF PUSH1 0x20 MSTORE PUSH1 0x40 PUSH1 0x0 KECCAK256 PUSH2 0x1D3D PUSH1 0x40 MLOAD PUSH8 0xAC8A14D203474290 PUSH1 0x20 DUP3 ADD MSTORE PUSH1 0x20 DUP2 MSTORE PUSH2 0x57FC JUMP JUMPDEST PUSH2 0x1D5A PUSH1 0x40 MLOAD PUSH8 0xD8CE26B2D21B8DA7 PUSH1 0x20 DUP3 ADD MSTORE PUSH1 0x20 DUP2 MSTORE PUSH2 0x57FC JUMP JUMPDEST SLOAD PUSH1 0x4 SLOAD GT ISZERO PUSH2 0x1D9E JUMPI PUSH2 0x1D81 PUSH1 0x40 MLOAD PUSH8 0x6603B02773C537C4 PUSH1 0x20 DUP3 ADD MSTORE PUSH1 0x20 DUP2 MSTORE PUSH2 0x57FC JUMP JUMPDEST PUSH2 0x133E PUSH1 0x40 MLOAD PUSH8 0x13724890F20FFBBC PUSH1 0x20 DUP3 ADD MSTORE PUSH1 0x20 DUP2 MSTORE PUSH2 0x57FC JUMP JUMPDEST PUSH2 0x1DBB PUSH1 0x40 MLOAD PUSH8 0x22155D35B9609CDC PUSH1 0x20 DUP3 ADD MSTORE PUSH1 0x20 DUP2 MSTORE PUSH2 0x57FC JUMP JUMPDEST PUSH2 0x1DD8 PUSH1 0x40 MLOAD PUSH8 0x5834B715C15CA4AA PUSH1 0x20 DUP3 ADD MSTORE PUSH1 0x20 DUP2 MSTORE PUSH2 0x57FC JUMP JUMPDEST PUSH2 0x1DF5 PUSH1 0x40 MLOAD PUSH8 0x2B9CD1E119ED6921 PUSH1 0x20 DUP3 ADD MSTORE PUSH1 0x20 DUP2 MSTORE PUSH2 0x57FC JUMP JUMPDEST PUSH1 0xA SLOAD SWAP2 PUSH1 0x0 NOT DUP4 EQ PUSH2 0x22CA JUMPI PUSH1 0x1 DUP4 ADD PUSH1 0xA SSTORE PUSH2 0x1E26 PUSH1 0x40 MLOAD PUSH8 0xAAEC691E840CE15B PUSH1 0x20 DUP3 ADD MSTORE PUSH1 0x20 DUP2 MSTORE PUSH2 0x57FC JUMP JUMPDEST PUSH2 0x1E43 PUSH1 0x40 MLOAD PUSH8 0x7C599AB0019ECFF4 PUSH1 0x20 DUP3 ADD MSTORE PUSH1 0x20 DUP2 MSTORE PUSH2 0x57FC JUMP JUMPDEST DUP3 PUSH1 0x0 MSTORE PUSH1 0xC PUSH1 0x20 MSTORE PUSH1 0x40 PUSH1 0x0 KECCAK256 SWAP1 PUSH2 0x1E6F PUSH1 0x40 MLOAD PUSH8 0xE3E0377415184FEB PUSH1 0x20 DUP3 ADD MSTORE PUSH1 0x20 DUP2 MSTORE PUSH2 0x57FC JUMP JUMPDEST DUP4 DUP3 SSTORE PUSH2 0x1E8F PUSH1 0x40 MLOAD PUSH8 0x6FAC893FB38E6E9C PUSH1 0x20 DUP3 ADD MSTORE PUSH1 0x20 DUP2 MSTORE PUSH2 0x57FC JUMP JUMPDEST PUSH1 0x1 DUP3 ADD CALLER PUSH1 0x1 PUSH1 0x1 PUSH1 0x60 SHL SUB PUSH1 0xA0 SHL DUP3 SLOAD AND OR SWAP1 SSTORE PUSH2 0x1EC2 PUSH1 0x40 MLOAD PUSH8 0x14F870EF3BD5BAD8 PUSH1 0x20 DUP3 ADD MSTORE PUSH1 0x20 DUP2 MSTORE PUSH2 0x57FC JUMP JUMPDEST DUP1 MLOAD SWAP1 PUSH8 0xFFFFFFFFFFFFFFFF DUP3 GT PUSH2 0x21E9 JUMPI DUP2 SWAP1 PUSH2 0x1EE3 PUSH1 0x2 DUP6 ADD SLOAD PUSH2 0x57A5 JUMP JUMPDEST PUSH1 0x1F DUP2 GT PUSH2 0x2277 JUMPI JUMPDEST POP PUSH1 0x20 SWAP1 PUSH1 0x1F DUP4 GT PUSH1 0x1 EQ PUSH2 0x220A JUMPI PUSH1 0x0 SWAP3 PUSH2 0x21FF JUMPI JUMPDEST POP POP DUP2 PUSH1 0x1 SHL SWAP2 PUSH1 0x0 NOT SWAP1 PUSH1 0x3 SHL SHR NOT AND OR PUSH1 0x2 DUP3 ADD SSTORE JUMPDEST PUSH2 0x1F38 PUSH1 0x40 MLOAD PUSH8 0x903342180D709E4D PUSH1 0x20 DUP3 ADD MSTORE PUSH1 0x20 DUP2 MSTORE PUSH2 0x57FC JUMP JUMPDEST DUP4 MLOAD PUSH8 0xFFFFFFFFFFFFFFFF DUP2 GT PUSH2 0x21E9 JUMPI PUSH1 0x3 DUP3 ADD SWAP1 PUSH2 0x1F58 DUP3 SLOAD PUSH2 0x57A5 JUMP JUMPDEST SWAP6 PUSH1 0x1F DUP8 GT PUSH2 0x21A1 JUMPI JUMPDEST PUSH1 0x20 SWAP7 POP DUP7 SWAP1 PUSH1 0x1F DUP4 GT PUSH1 0x1 EQ PUSH2 0x2137 JUMPI PUSH1 0x9 SWAP5 SWAP4 SWAP3 SWAP2 PUSH1 0x0 SWAP2 DUP4 PUSH2 0x212C JUMPI JUMPDEST POP POP DUP2 PUSH1 0x1 SHL SWAP2 PUSH1 0x0 NOT SWAP1 PUSH1 0x3 SHL SHR NOT AND OR SWAP1 SSTORE JUMPDEST PUSH2 0x1FB2 PUSH1 0x40 MLOAD PUSH8 0x94DF3347A03AAFCB DUP8 DUP3 ADD MSTORE DUP7 DUP2 MSTORE PUSH2 0x57FC JUMP JUMPDEST TIMESTAMP PUSH1 0x4 DUP3 ADD SSTORE PUSH2 0x1FD3 PUSH1 0x40 MLOAD PUSH8 0x672F86D6455373D DUP8 DUP3 ADD MSTORE DUP7 DUP2 MSTORE PUSH2 0x57FC JUMP JUMPDEST PUSH2 0x1FDF PUSH1 0x6 SLOAD TIMESTAMP PUSH2 0x5A77 JUMP JUMPDEST PUSH1 0x5 DUP3 ADD SSTORE PUSH2 0x1FFF PUSH1 0x40 MLOAD PUSH8 0xC444A11EE9A8FC6F DUP8 DUP3 ADD MSTORE DUP7 DUP2 MSTORE PUSH2 0x57FC JUMP JUMPDEST PUSH1 0x8 DUP2 ADD PUSH3 0x10000 DUP2 SLOAD PUSH2 0x2024 PUSH1 0x40 MLOAD PUSH8 0x78E4DD3C4757AA51 DUP11 DUP3 ADD MSTORE DUP10 DUP2 MSTORE PUSH2 0x57FC JUMP JUMPDEST PUSH2 0x203F PUSH1 0x40 MLOAD PUSH8 0xB66E8B38BBA55F6E DUP11 DUP3 ADD MSTORE DUP10 DUP2 MSTORE PUSH2 0x57FC JUMP JUMPDEST PUSH2 0xFF01 PUSH1 0x1 PUSH1 0xB8 SHL SUB NOT AND PUSH1 0x44 CALLDATALOAD PUSH1 0x18 SHL PUSH4 0x1000000 PUSH1 0x1 PUSH1 0xB8 SHL SUB AND OR OR SWAP1 SSTORE PUSH1 0x40 MLOAD PUSH8 0x783D7A708FB853D7 DUP7 DUP3 ADD MSTORE DUP6 DUP2 MSTORE PUSH2 0x207C SWAP1 PUSH2 0x57FC JUMP JUMPDEST PUSH1 0x64 CALLDATALOAD SWAP2 DUP3 SWAP2 ADD SSTORE PUSH2 0x209F PUSH1 0x40 MLOAD PUSH8 0xECA2005C7AFF570D DUP7 DUP3 ADD MSTORE DUP6 DUP2 MSTORE PUSH2 0x57FC JUMP JUMPDEST PUSH2 0x20BA PUSH1 0x40 MLOAD PUSH8 0xFAB4B9F47ECC5609 DUP7 DUP3 ADD MSTORE DUP6 DUP2 MSTORE PUSH2 0x57FC JUMP JUMPDEST PUSH1 0x40 MLOAD SWAP2 PUSH1 0x1 DUP4 MSTORE PUSH1 0x44 CALLDATALOAD AND DUP5 DUP4 ADD MSTORE PUSH1 0x40 DUP3 ADD MSTORE DUP2 PUSH32 0xB956772E7B554D19BB961F4303B6C0C5CD7592C0C06FD08F15A56A0F304E6C0D PUSH1 0x60 CALLER SWAP4 LOG3 PUSH2 0x2111 PUSH1 0x40 MLOAD PUSH8 0x97167EF0EEB7510A DUP5 DUP3 ADD MSTORE DUP4 DUP2 MSTORE PUSH2 0x57FC JUMP JUMPDEST PUSH2 0x1960 PUSH1 0x40 MLOAD PUSH8 0x776C3A0CBCE36EB1 DUP5 DUP3 ADD MSTORE DUP4 DUP2 MSTORE PUSH2 0x57FC JUMP JUMPDEST ADD MLOAD SWAP1 POP CODESIZE DUP1 PUSH2 0x1F82 JUMP JUMPDEST SWAP1 PUSH1 0x1F NOT DUP4 AND SWAP2 DUP5 PUSH1 0x0 MSTORE DUP9 PUSH1 0x0 KECCAK256 SWAP3 PUSH1 0x0 JUMPDEST DUP2 DUP2 LT PUSH2 0x218A JUMPI POP SWAP2 PUSH1 0x1 SWAP4 SWAP2 DUP6 PUSH1 0x9 SWAP9 SWAP8 SWAP7 SWAP5 LT PUSH2 0x2171 JUMPI JUMPDEST POP POP POP DUP2 SHL ADD SWAP1 SSTORE PUSH2 0x1F97 JUMP JUMPDEST ADD MLOAD PUSH1 0x0 NOT PUSH1 0xF8 DUP5 PUSH1 0x3 SHL AND SHR NOT AND SWAP1 SSTORE CODESIZE DUP1 DUP1 PUSH2 0x2164 JUMP JUMPDEST SWAP3 SWAP4 DUP11 PUSH1 0x1 DUP2 SWAP3 DUP8 DUP7 ADD MLOAD DUP2 SSTORE ADD SWAP6 ADD SWAP4 ADD PUSH2 0x214A JUMP JUMPDEST DUP3 PUSH1 0x0 MSTORE PUSH1 0x20 PUSH1 0x0 KECCAK256 PUSH1 0x1F DUP4 ADD PUSH1 0x5 SHR DUP2 ADD SWAP8 PUSH1 0x20 DUP5 LT PUSH2 0x21DF JUMPI JUMPDEST PUSH1 0x1F ADD PUSH1 0x5 SHR ADD SWAP7 JUMPDEST DUP8 DUP2 LT PUSH2 0x21D3 JUMPI POP PUSH2 0x1F62 JUMP JUMPDEST PUSH1 0x0 DUP2 SSTORE PUSH1 0x1 ADD PUSH2 0x21C6 JUMP JUMPDEST SWAP1 SWAP8 POP DUP8 SWAP1 PUSH2 0x21BD JUMP JUMPDEST PUSH4 0x4E487B71 PUSH1 0xE0 SHL PUSH1 0x0 MSTORE PUSH1 0x41 PUSH1 0x4 MSTORE PUSH1 0x24 PUSH1 0x0 REVERT JUMPDEST ADD MLOAD SWAP1 POP CODESIZE DUP1 PUSH2 0x1F03 JUMP JUMPDEST PUSH1 0x2 DUP6 ADD PUSH1 0x0 SWAP1 DUP2 MSTORE PUSH1 0x20 DUP2 KECCAK256 SWAP4 POP PUSH1 0x1F NOT DUP6 AND SWAP1 JUMPDEST DUP2 DUP2 LT PUSH2 0x225F JUMPI POP SWAP1 DUP5 PUSH1 0x1 SWAP6 SWAP5 SWAP4 SWAP3 LT PUSH2 0x2246 JUMPI JUMPDEST POP POP POP DUP2 SHL ADD PUSH1 0x2 DUP3 ADD SSTORE PUSH2 0x1F1B JUMP JUMPDEST ADD MLOAD PUSH1 0x0 NOT PUSH1 0xF8 DUP5 PUSH1 0x3 SHL AND SHR NOT AND SWAP1 SSTORE CODESIZE DUP1 DUP1 PUSH2 0x2236 JUMP JUMPDEST SWAP3 SWAP4 PUSH1 0x20 PUSH1 0x1 DUP2 SWAP3 DUP8 DUP7 ADD MLOAD DUP2 SSTORE ADD SWAP6 ADD SWAP4 ADD PUSH2 0x2220 JUMP JUMPDEST SWAP1 SWAP2 POP PUSH1 0x2 DUP5 ADD PUSH1 0x0 MSTORE PUSH1 0x20 PUSH1 0x0 KECCAK256 PUSH1 0x1F DUP5 ADD PUSH1 0x5 SHR DUP2 ADD PUSH1 0x20 DUP6 LT PUSH2 0x22C3 JUMPI JUMPDEST SWAP1 DUP5 SWAP4 SWAP3 SWAP2 JUMPDEST PUSH1 0x1F DUP4 ADD PUSH1 0x5 SHR DUP3 ADD DUP2 LT PUSH2 0x22B4 JUMPI POP POP PUSH2 0x1EEC JUMP JUMPDEST PUSH1 0x0 DUP2 SSTORE DUP6 SWAP5 POP PUSH1 0x1 ADD PUSH2 0x229E JUMP JUMPDEST POP DUP1 PUSH2 0x2298 JUMP JUMPDEST PUSH4 0x4E487B71 PUSH1 0xE0 SHL PUSH1 0x0 MSTORE PUSH1 0x11 PUSH1 0x4 MSTORE PUSH1 0x24 PUSH1 0x0 REVERT JUMPDEST POP PUSH1 0x64 CALLDATALOAD ISZERO DUP1 ISZERO PUSH2 0x1C13 JUMPI POP PUSH2 0x230C PUSH1 0x40 MLOAD PUSH8 0x92767E04C3F798D PUSH1 0xC3 SHL PUSH1 0x20 DUP3 ADD MSTORE PUSH1 0x20 DUP2 MSTORE PUSH2 0x57FC JUMP JUMPDEST PUSH1 0x1 PUSH2 0x1C13 JUMP JUMPDEST POP PUSH2 0x2334 PUSH1 0x40 MLOAD PUSH8 0xE87B74E6D3C26D5 PUSH1 0xC4 SHL PUSH1 0x20 DUP3 ADD MSTORE PUSH1 0x20 DUP2 MSTORE PUSH2 0x57FC JUMP JUMPDEST PUSH1 0x1 PUSH2 0x1C0C JUMP JUMPDEST PUSH1 0x0 DUP1 REVERT JUMPDEST POP CALLVALUE PUSH2 0x22E JUMPI PUSH1 0x20 DUP1 PUSH1 0x3 NOT CALLDATASIZE ADD SLT PUSH2 0x851 JUMPI PUSH1 0x4 CALLDATALOAD PUSH2 0x2371 PUSH1 0x40 MLOAD PUSH8 0x7A1BFAEE5ED4260D DUP5 DUP3 ADD MSTORE DUP4 DUP2 MSTORE PUSH2 0x57FC JUMP JUMPDEST PUSH2 0x238C PUSH1 0x40 MLOAD PUSH8 0x23A6AA57F260CEE6 DUP5 DUP3 ADD MSTORE DUP4 DUP2 MSTORE PUSH2 0x57FC JUMP JUMPDEST PUSH2 0x23A7 PUSH1 0x40 MLOAD PUSH8 0x38F9D058737588AA DUP5 DUP3 ADD MSTORE DUP4 DUP2 MSTORE PUSH2 0x57FC JUMP JUMPDEST PUSH2 0x23C2 PUSH1 0x40 MLOAD PUSH8 0x98DBD418D87FB6D3 DUP5 DUP3 ADD MSTORE DUP4 DUP2 MSTORE PUSH2 0x57FC JUMP JUMPDEST PUSH1 0x1 SLOAD PUSH1 0xFF DUP2 PUSH1 0xA0 SHR AND PUSH1 0x0 EQ PUSH2 0x23F2 JUMPI PUSH2 0x3A4 DUP4 PUSH2 0x38C PUSH1 0x40 MLOAD PUSH8 0x6D22A1603CC66AF DUP4 DUP3 ADD MSTORE DUP3 DUP2 MSTORE PUSH2 0x57FC JUMP JUMPDEST PUSH2 0x240D PUSH1 0x40 MLOAD PUSH8 0x3392708B065C4978 DUP6 DUP3 ADD MSTORE DUP5 DUP2 MSTORE PUSH2 0x57FC JUMP JUMPDEST PUSH2 0x2428 PUSH1 0x40 MLOAD PUSH8 0x215F2BCED65EB339 DUP6 DUP3 ADD MSTORE DUP5 DUP2 MSTORE PUSH2 0x57FC JUMP JUMPDEST PUSH2 0x2443 PUSH1 0x40 MLOAD PUSH8 0x71A6B24264EC116E DUP6 DUP3 ADD MSTORE DUP5 DUP2 MSTORE PUSH2 0x57FC JUMP JUMPDEST PUSH1 0x1 PUSH1 0x1 PUSH1 0xA0 SHL SUB SWAP1 DUP2 AND PUSH2 0x2471 JUMPI PUSH2 0x44D DUP4 PUSH2 0x435 PUSH1 0x40 MLOAD PUSH8 0xF4DBDB29E7311B48 DUP4 DUP3 ADD MSTORE DUP3 DUP2 MSTORE PUSH2 0x57FC JUMP JUMPDEST PUSH2 0x248C PUSH1 0x40 MLOAD PUSH8 0x9876C41EF0CCDF57 DUP6 DUP3 ADD MSTORE DUP5 DUP2 MSTORE PUSH2 0x57FC JUMP JUMPDEST PUSH2 0x24A7 PUSH1 0x40 MLOAD PUSH8 0x8A7063D64D1C73C8 DUP6 DUP3 ADD MSTORE DUP5 DUP2 MSTORE PUSH2 0x57FC JUMP JUMPDEST PUSH2 0x24C2 PUSH1 0x40 MLOAD PUSH8 0xCD4240BBA1F78A79 DUP6 DUP3 ADD MSTORE DUP5 DUP2 MSTORE PUSH2 0x57FC JUMP JUMPDEST PUSH2 0x24DD PUSH1 0x40 MLOAD PUSH8 0xF48A66B8BD6D48A0 DUP6 DUP3 ADD MSTORE DUP5 DUP2 MSTORE PUSH2 0x57FC JUMP JUMPDEST PUSH2 0x24F8 PUSH1 0x40 MLOAD PUSH8 0x5E10B1A08C87803E DUP6 DUP3 ADD MSTORE DUP5 DUP2 MSTORE PUSH2 0x57FC JUMP JUMPDEST PUSH2 0x2513 PUSH1 0x40 MLOAD PUSH8 0x8322F09CF09C9835 DUP6 DUP3 ADD MSTORE DUP5 DUP2 MSTORE PUSH2 0x57FC JUMP JUMPDEST DUP2 PUSH2 0x254F JUMPI PUSH2 0x53D DUP4 PUSH2 0x2537 PUSH1 0x40 MLOAD PUSH8 0xF825E19249991ED DUP4 DUP3 ADD MSTORE DUP3 DUP2 MSTORE PUSH2 0x57FC JUMP JUMPDEST PUSH1 0x40 MLOAD SWAP1 PUSH8 0xB1BDD962F400392F DUP2 DUP4 ADD MSTORE DUP2 MSTORE PUSH2 0x57FC JUMP JUMPDEST SWAP1 SWAP2 PUSH2 0x256C PUSH1 0x40 MLOAD PUSH8 0x1D51A28F8E996726 DUP4 DUP3 ADD MSTORE DUP3 DUP2 MSTORE PUSH2 0x57FC JUMP JUMPDEST PUSH2 0x2587 PUSH1 0x40 MLOAD PUSH8 0x2022EE568B41420B DUP4 DUP3 ADD MSTORE DUP3 DUP2 MSTORE PUSH2 0x57FC JUMP JUMPDEST PUSH2 0x25A2 PUSH1 0x40 MLOAD PUSH8 0x6C6964D1D4CEA928 DUP4 DUP3 ADD MSTORE DUP3 DUP2 MSTORE PUSH2 0x57FC JUMP JUMPDEST CALLER DUP5 MSTORE PUSH1 0xF DUP2 MSTORE PUSH1 0x40 DUP5 KECCAK256 PUSH2 0x25C8 PUSH1 0x40 MLOAD PUSH8 0x500074FED95BEBD4 DUP5 DUP3 ADD MSTORE DUP4 DUP2 MSTORE PUSH2 0x57FC JUMP JUMPDEST PUSH2 0x25D3 DUP5 DUP3 SLOAD PUSH2 0x5A77 JUMP JUMPDEST DUP2 SSTORE PUSH2 0x25F0 PUSH1 0x40 MLOAD PUSH8 0x426D7DAF9909D258 DUP5 DUP3 ADD MSTORE DUP4 DUP2 MSTORE PUSH2 0x57FC JUMP JUMPDEST PUSH1 0x1 TIMESTAMP SWAP2 ADD SSTORE PUSH2 0x2611 PUSH1 0x40 MLOAD PUSH8 0xF614B1D2FF20F5D3 DUP4 DUP3 ADD MSTORE DUP3 DUP2 MSTORE PUSH2 0x57FC JUMP JUMPDEST PUSH2 0x262C PUSH1 0x40 MLOAD PUSH8 0xD88D7ACA37D9E9D8 DUP4 DUP3 ADD MSTORE DUP3 DUP2 MSTORE PUSH2 0x57FC JUMP JUMPDEST PUSH1 0x40 MLOAD PUSH4 0x23B872DD PUSH1 0xE0 SHL DUP2 MSTORE CALLER PUSH1 0x4 DUP3 ADD MSTORE ADDRESS PUSH1 0x24 DUP3 ADD MSTORE PUSH1 0x44 DUP2 ADD DUP5 SWAP1 MSTORE SWAP2 DUP2 SWAP1 DUP4 SWAP1 PUSH1 0x64 SWAP1 DUP3 SWAP1 DUP9 SWAP1 PUSH32 0x0 AND GAS CALL SWAP2 DUP3 ISZERO PUSH2 0x846 JUMPI PUSH32 0xFB98BD47DCFD31E8D0C0E3558FFB823C6AD6DDCBA96E48E82608E567B21CB1DD SWAP3 PUSH2 0x2702 SWAP2 DUP7 SWAP2 PUSH2 0x2753 JUMPI JUMPDEST POP PUSH2 0x26CC PUSH1 0x40 MLOAD PUSH8 0xDFA53E62A77C6139 DUP6 DUP3 ADD MSTORE DUP5 DUP2 MSTORE PUSH2 0x57FC JUMP JUMPDEST PUSH2 0x26E7 PUSH1 0x40 MLOAD PUSH8 0x26A8AF3CDB18774F DUP6 DUP3 ADD MSTORE DUP5 DUP2 MSTORE PUSH2 0x57FC JUMP JUMPDEST PUSH2 0x7B7 PUSH1 0x40 MLOAD PUSH8 0xEA7C000A84079B85 DUP6 DUP3 ADD MSTORE DUP5 DUP2 MSTORE PUSH2 0x57FC JUMP JUMPDEST PUSH2 0x271D PUSH1 0x40 MLOAD PUSH8 0xAB34B14E8AE04DF DUP4 DUP3 ADD MSTORE DUP3 DUP2 MSTORE PUSH2 0x57FC JUMP JUMPDEST PUSH2 0x2738 PUSH1 0x40 MLOAD PUSH8 0x438C2E2C3D07A81A DUP4 DUP3 ADD MSTORE DUP3 DUP2 MSTORE PUSH2 0x57FC JUMP JUMPDEST PUSH2 0x80D PUSH1 0x40 MLOAD PUSH8 0x17B478D36B9C87C0 DUP4 DUP3 ADD MSTORE DUP3 DUP2 MSTORE PUSH2 0x57FC JUMP JUMPDEST PUSH2 0x276A SWAP2 POP DUP4 RETURNDATASIZE DUP6 GT PUSH2 0x83F JUMPI PUSH2 0x831 DUP2 DUP4 PUSH2 0x5818 JUMP JUMPDEST CODESIZE PUSH2 0x26B0 JUMP JUMPDEST POP CALLVALUE PUSH2 0x22E JUMPI PUSH1 0x20 CALLDATASIZE PUSH1 0x3 NOT ADD SLT PUSH2 0x22E JUMPI PUSH1 0x40 SWAP1 DUP2 SWAP1 PUSH1 0x1 PUSH1 0x1 PUSH1 0xA0 SHL SUB PUSH2 0x2797 PUSH2 0x5943 JUMP JUMPDEST AND DUP2 MSTORE PUSH1 0xE PUSH1 0x20 MSTORE KECCAK256 PUSH1 0x1 DUP2 SLOAD SWAP2 ADD SLOAD DUP3 MLOAD SWAP2 DUP3 MSTORE PUSH1 0x20 DUP3 ADD MSTORE RETURN JUMPDEST POP CALLVALUE PUSH2 0x22E JUMPI DUP1 PUSH1 0x3 NOT CALLDATASIZE ADD SLT PUSH2 0x22E JUMPI PUSH1 0x40 MLOAD PUSH2 0x27E2 PUSH1 0x20 SWAP2 PUSH8 0xFF79803B88B37F9E DUP4 DUP3 ADD MSTORE DUP3 DUP2 MSTORE PUSH2 0x57FC JUMP JUMPDEST PUSH2 0x27FD PUSH1 0x40 MLOAD PUSH8 0x64CDFB3AAAAC0BBA DUP4 DUP3 ADD MSTORE DUP3 DUP2 MSTORE PUSH2 0x57FC JUMP JUMPDEST PUSH2 0x2818 PUSH1 0x40 MLOAD PUSH8 0xE815A041FCDD32EA DUP4 DUP3 ADD MSTORE DUP3 DUP2 MSTORE PUSH2 0x57FC JUMP JUMPDEST PUSH1 0xA SLOAD PUSH1 0x40 MLOAD SWAP1 DUP2 MSTORE RETURN JUMPDEST POP CALLVALUE PUSH2 0x22E JUMPI DUP1 PUSH1 0x3 NOT CALLDATASIZE ADD SLT PUSH2 0x22E JUMPI PUSH1 0x40 MLOAD PUSH2 0x2852 PUSH1 0x20 SWAP2 PUSH8 0x1B4B07558AD3D481 DUP4 DUP3 ADD MSTORE DUP3 DUP2 MSTORE PUSH2 0x57FC JUMP JUMPDEST PUSH2 0x286D PUSH1 0x40 MLOAD PUSH8 0x52F6B0B383F2940D DUP4 DUP3 ADD MSTORE DUP3 DUP2 MSTORE PUSH2 0x57FC JUMP JUMPDEST PUSH2 0x2888 PUSH1 0x40 MLOAD PUSH8 0x72FADD286D0C89CF DUP4 DUP3 ADD MSTORE DUP3 DUP2 MSTORE PUSH2 0x57FC JUMP JUMPDEST PUSH2 0x28A3 PUSH1 0x40 MLOAD PUSH8 0x634C9E39A942B0ED DUP4 DUP3 ADD MSTORE DUP3 DUP2 MSTORE PUSH2 0x57FC JUMP JUMPDEST PUSH1 0x1 SLOAD CALLER PUSH1 0x1 PUSH1 0x1 PUSH1 0xA0 SHL SUB DUP3 AND EQ PUSH2 0x28FF JUMPI PUSH2 0x28ED DUP3 PUSH2 0x28D5 PUSH1 0x40 MLOAD PUSH8 0xE693C4AED39BB965 DUP4 DUP3 ADD MSTORE DUP3 DUP2 MSTORE PUSH2 0x57FC JUMP JUMPDEST PUSH1 0x40 MLOAD SWAP1 PUSH8 0x2C4E70C45F3E0087 DUP2 DUP4 ADD MSTORE DUP2 MSTORE PUSH2 0x57FC JUMP JUMPDEST PUSH1 0x40 MLOAD PUSH4 0xB9E5AC5F PUSH1 0xE0 SHL DUP2 MSTORE PUSH1 0x4 SWAP1 REVERT JUMPDEST SWAP1 PUSH2 0x29C9 SWAP2 PUSH2 0x291F PUSH1 0x40 MLOAD PUSH8 0x2B146A1BE10FA642 DUP5 DUP3 ADD MSTORE DUP4 DUP2 MSTORE PUSH2 0x57FC JUMP JUMPDEST PUSH2 0x293A PUSH1 0x40 MLOAD PUSH8 0x2D4D1E22E713B2CB DUP5 DUP3 ADD MSTORE DUP4 DUP2 MSTORE PUSH2 0x57FC JUMP JUMPDEST PUSH2 0x2955 PUSH1 0x40 MLOAD PUSH8 0x940F792FF0ADD0FE DUP5 DUP3 ADD MSTORE DUP4 DUP2 MSTORE PUSH2 0x57FC JUMP JUMPDEST PUSH2 0x2970 PUSH1 0x40 MLOAD PUSH8 0xCE73C59E11628A45 DUP5 DUP3 ADD MSTORE DUP4 DUP2 MSTORE PUSH2 0x57FC JUMP JUMPDEST PUSH2 0x298B PUSH1 0x40 MLOAD PUSH8 0xE05FDDF26CEC4FB0 DUP5 DUP3 ADD MSTORE DUP4 DUP2 MSTORE PUSH2 0x57FC JUMP JUMPDEST PUSH1 0xFF PUSH1 0xA0 SHL NOT AND PUSH1 0x1 SSTORE PUSH1 0x40 MLOAD PUSH8 0xFB992E631873CC8B DUP3 DUP3 ADD MSTORE DUP2 DUP2 MSTORE PUSH2 0x29B1 SWAP1 PUSH2 0x57FC JUMP JUMPDEST PUSH1 0x40 MLOAD SWAP1 PUSH8 0x4208B328433202C2 DUP2 DUP4 ADD MSTORE DUP2 MSTORE PUSH2 0x57FC JUMP JUMPDEST CALLER PUSH32 0xDB333F8DE8435249D224D186F58A6CB30292B00A2897688694C176F2CDE512B0 DUP3 DUP1 LOG2 DUP1 RETURN JUMPDEST POP CALLVALUE PUSH2 0x22E JUMPI DUP1 PUSH1 0x3 NOT CALLDATASIZE ADD SLT PUSH2 0x22E JUMPI SLOAD PUSH1 0x40 MLOAD PUSH1 0x1 PUSH1 0x1 PUSH1 0xA0 SHL SUB SWAP1 SWAP2 AND DUP2 MSTORE PUSH1 0x20 SWAP1 RETURN JUMPDEST POP CALLVALUE PUSH2 0x22E JUMPI DUP1 PUSH1 0x3 NOT CALLDATASIZE ADD SLT PUSH2 0x22E JUMPI PUSH1 0x40 MLOAD PUSH2 0x2A47 PUSH1 0x20 SWAP2 PUSH8 0xDE550F64FC9ACCA9 DUP4 DUP3 ADD MSTORE DUP3 DUP2 MSTORE PUSH2 0x57FC JUMP JUMPDEST PUSH2 0x2A62 PUSH1 0x40 MLOAD PUSH8 0x52F6B0B383F2940D DUP4 DUP3 ADD MSTORE DUP3 DUP2 MSTORE PUSH2 0x57FC JUMP JUMPDEST PUSH2 0x2A7D PUSH1 0x40 MLOAD PUSH8 0x72FADD286D0C89CF DUP4 DUP3 ADD MSTORE DUP3 DUP2 MSTORE PUSH2 0x57FC JUMP JUMPDEST PUSH2 0x2A98 PUSH1 0x40 MLOAD PUSH8 0x634C9E39A942B0ED DUP4 DUP3 ADD MSTORE DUP3 DUP2 MSTORE PUSH2 0x57FC JUMP JUMPDEST PUSH1 0x1 SLOAD CALLER PUSH1 0x1 PUSH1 0x1 PUSH1 0xA0 SHL SUB DUP3 AND EQ PUSH2 0x2ACA JUMPI PUSH2 0x28ED DUP3 PUSH2 0x28D5 PUSH1 0x40 MLOAD PUSH8 0xE693C4AED39BB965 DUP4 DUP3 ADD MSTORE DUP3 DUP2 MSTORE PUSH2 0x57FC JUMP JUMPDEST SWAP1 PUSH2 0x2B9A SWAP2 PUSH2 0x2AEA PUSH1 0x40 MLOAD PUSH8 0x2B146A1BE10FA642 DUP5 DUP3 ADD MSTORE DUP4 DUP2 MSTORE PUSH2 0x57FC JUMP JUMPDEST PUSH2 0x2B05 PUSH1 0x40 MLOAD PUSH8 0x2D4D1E22E713B2CB DUP5 DUP3 ADD MSTORE DUP4 DUP2 MSTORE PUSH2 0x57FC JUMP JUMPDEST PUSH2 0x2B20 PUSH1 0x40 MLOAD PUSH8 0xD7B40AA6C60F1D1 DUP5 DUP3 ADD MSTORE DUP4 DUP2 MSTORE PUSH2 0x57FC JUMP JUMPDEST PUSH2 0x2B3B PUSH1 0x40 MLOAD PUSH8 0x97D1D3BC59BC4486 DUP5 DUP3 ADD MSTORE DUP4 DUP2 MSTORE PUSH2 0x57FC JUMP JUMPDEST PUSH2 0x2B56 PUSH1 0x40 MLOAD PUSH8 0x144E5B8E69FC449A DUP5 DUP3 ADD MSTORE DUP4 DUP2 MSTORE PUSH2 0x57FC JUMP JUMPDEST PUSH1 0xFF PUSH1 0xA0 SHL NOT AND PUSH1 0x1 PUSH1 0xA0 SHL OR PUSH1 0x1 SSTORE PUSH1 0x40 MLOAD PUSH8 0x1B97EC3746F5647B DUP3 DUP3 ADD MSTORE DUP2 DUP2 MSTORE PUSH2 0x2B82 SWAP1 PUSH2 0x57FC JUMP JUMPDEST PUSH1 0x40 MLOAD SWAP1 PUSH8 0x86EFE69453898DF4 DUP2 DUP4 ADD MSTORE DUP2 MSTORE PUSH2 0x57FC JUMP JUMPDEST CALLER PUSH32 0xB907D122E4DB865E49BC04C7F1E84A1AE29E024EE225BC08C69104520C5F3F9 DUP3 DUP1 LOG2 DUP1 RETURN JUMPDEST POP CALLVALUE PUSH2 0x22E JUMPI PUSH1 0x40 CALLDATASIZE PUSH1 0x3 NOT ADD SLT PUSH2 0x22E JUMPI PUSH1 0x4 CALLDATALOAD PUSH1 0x24 CALLDATALOAD SWAP1 PUSH1 0x40 MLOAD SWAP2 PUSH2 0x2BFA PUSH1 0x20 SWAP4 PUSH8 0x8CB8DD73BAD60E8B DUP6 DUP3 ADD MSTORE DUP5 DUP2 MSTORE PUSH2 0x57FC JUMP JUMPDEST PUSH2 0x2C02 PUSH2 0x59BC JUMP JUMPDEST PUSH2 0x2C1D PUSH1 0x40 MLOAD PUSH8 0x1B32692575755ABC DUP6 DUP3 ADD MSTORE DUP5 DUP2 MSTORE PUSH2 0x57FC JUMP JUMPDEST PUSH2 0x2C38 PUSH1 0x40 MLOAD PUSH8 0x2F2590C75F74B55B DUP6 DUP3 ADD MSTORE DUP5 DUP2 MSTORE PUSH2 0x57FC JUMP JUMPDEST PUSH2 0x2C53 PUSH1 0x40 MLOAD PUSH8 0xA34D542293A48EB3 DUP6 DUP3 ADD MSTORE DUP5 DUP2 MSTORE PUSH2 0x57FC JUMP JUMPDEST PUSH2 0x2C6E PUSH1 0x40 MLOAD PUSH8 0xBF96671367C51D43 DUP6 DUP3 ADD MSTORE DUP5 DUP2 MSTORE PUSH2 0x57FC JUMP JUMPDEST PUSH2 0x2C89 PUSH1 0x40 MLOAD PUSH8 0xDD3EF2F34C115949 DUP6 DUP3 ADD MSTORE DUP5 DUP2 MSTORE PUSH2 0x57FC JUMP JUMPDEST PUSH2 0x2CA4 PUSH1 0x40 MLOAD PUSH8 0xDB16A5D909A944A1 DUP6 DUP3 ADD MSTORE DUP5 DUP2 MSTORE PUSH2 0x57FC JUMP JUMPDEST PUSH2 0x2CBF PUSH1 0x40 MLOAD PUSH8 0xFC06E06D268E5A82 DUP6 DUP3 ADD MSTORE DUP5 DUP2 MSTORE PUSH2 0x57FC JUMP JUMPDEST DUP2 ISZERO DUP1 PUSH2 0x2EED JUMPI JUMPDEST DUP1 ISZERO PUSH2 0x2EBB JUMPI JUMPDEST ISZERO PUSH2 0x2D0A JUMPI PUSH2 0x53D DUP4 PUSH2 0x2CF2 PUSH1 0x40 MLOAD PUSH8 0x2EAB5BF4C87925C5 DUP4 DUP3 ADD MSTORE DUP3 DUP2 MSTORE PUSH2 0x57FC JUMP JUMPDEST PUSH1 0x40 MLOAD SWAP1 PUSH8 0xBC58C962DA225E3A DUP2 DUP4 ADD MSTORE DUP2 MSTORE PUSH2 0x57FC JUMP JUMPDEST PUSH2 0x2D25 PUSH1 0x40 MLOAD PUSH8 0x3F0AAB5738AD16A7 DUP6 DUP3 ADD MSTORE DUP5 DUP2 MSTORE PUSH2 0x57FC JUMP JUMPDEST PUSH2 0x2D40 PUSH1 0x40 MLOAD PUSH8 0xF2F6505F872C5D03 DUP6 DUP3 ADD MSTORE DUP5 DUP2 MSTORE PUSH2 0x57FC JUMP JUMPDEST PUSH2 0x2D5B PUSH1 0x40 MLOAD PUSH8 0xF74A11EC28DD2185 DUP6 DUP3 ADD MSTORE DUP5 DUP2 MSTORE PUSH2 0x57FC JUMP JUMPDEST DUP1 ISZERO DUP1 PUSH2 0x2E94 JUMPI JUMPDEST DUP1 ISZERO PUSH2 0x2E62 JUMPI JUMPDEST ISZERO PUSH2 0x2DA6 JUMPI PUSH2 0x53D DUP4 PUSH2 0x2D8E PUSH1 0x40 MLOAD PUSH8 0xB75951CEAA2423DD DUP4 DUP3 ADD MSTORE DUP3 DUP2 MSTORE PUSH2 0x57FC JUMP JUMPDEST PUSH1 0x40 MLOAD SWAP1 PUSH8 0x58E4731D2D248348 DUP2 DUP4 ADD MSTORE DUP2 MSTORE PUSH2 0x57FC JUMP JUMPDEST SWAP1 PUSH1 0x40 SWAP2 PUSH32 0x6784E9BCB845CAAA98267D7B0918F97D3D17F7CB35A05B52010F7EB587A0ACB0 SWAP4 PUSH2 0x2DE6 DUP5 MLOAD PUSH8 0x5F9091AEB5A8463F DUP4 DUP3 ADD MSTORE DUP3 DUP2 MSTORE PUSH2 0x57FC JUMP JUMPDEST PUSH2 0x2E00 DUP5 MLOAD PUSH8 0xCEFD37E6E4BD25B9 DUP4 DUP3 ADD MSTORE DUP3 DUP2 MSTORE PUSH2 0x57FC JUMP JUMPDEST DUP3 PUSH1 0x8 SSTORE PUSH2 0x2E1E DUP5 MLOAD PUSH8 0xEBA0A504D030B192 DUP4 DUP3 ADD MSTORE DUP3 DUP2 MSTORE PUSH2 0x57FC JUMP JUMPDEST DUP2 PUSH1 0x9 SSTORE PUSH2 0x2E3C DUP5 MLOAD PUSH8 0x56FEA3A34A58FA0B DUP4 DUP3 ADD MSTORE DUP3 DUP2 MSTORE PUSH2 0x57FC JUMP JUMPDEST PUSH2 0x2E56 DUP5 MLOAD PUSH8 0x99AF20DC3F3568AA DUP4 DUP3 ADD MSTORE DUP3 DUP2 MSTORE PUSH2 0x57FC JUMP JUMPDEST DUP4 MLOAD SWAP3 DUP4 MSTORE DUP3 ADD MSTORE LOG1 DUP1 RETURN JUMPDEST POP PUSH1 0x64 DUP2 GT DUP1 ISZERO PUSH2 0x2D6A JUMPI POP PUSH1 0x40 MLOAD PUSH8 0x1A1FDE8EE1869791 PUSH1 0xC0 SHL DUP5 DUP3 ADD MSTORE DUP4 DUP2 MSTORE PUSH2 0x2E8D SWAP1 PUSH2 0x57FC JUMP JUMPDEST PUSH1 0x1 PUSH2 0x2D6A JUMP JUMPDEST POP PUSH1 0x40 MLOAD PUSH8 0x1E59B318F81A4867 PUSH1 0xC3 SHL DUP5 DUP3 ADD MSTORE DUP4 DUP2 MSTORE PUSH2 0x2EB4 SWAP1 PUSH2 0x57FC JUMP JUMPDEST PUSH1 0x1 PUSH2 0x2D63 JUMP JUMPDEST POP PUSH1 0x64 DUP3 GT DUP1 ISZERO PUSH2 0x2CCE JUMPI POP PUSH1 0x40 MLOAD PUSH8 0x3EBC070459A9CD75 PUSH1 0xC0 SHL DUP5 DUP3 ADD MSTORE DUP4 DUP2 MSTORE PUSH2 0x2EE6 SWAP1 PUSH2 0x57FC JUMP JUMPDEST PUSH1 0x1 PUSH2 0x2CCE JUMP JUMPDEST POP PUSH1 0x40 MLOAD PUSH7 0xDE286980802E19 PUSH1 0xC5 SHL DUP5 DUP3 ADD MSTORE DUP4 DUP2 MSTORE PUSH2 0x2F0C SWAP1 PUSH2 0x57FC JUMP JUMPDEST PUSH1 0x1 PUSH2 0x2CC7 JUMP JUMPDEST POP CALLVALUE PUSH2 0x22E JUMPI DUP1 PUSH1 0x3 NOT CALLDATASIZE ADD SLT PUSH2 0x22E JUMPI PUSH2 0x2F2C PUSH2 0x59BC JUMP JUMPDEST PUSH1 0x0 DUP1 SLOAD PUSH1 0x1 PUSH1 0x1 PUSH1 0xA0 SHL SUB NOT DUP2 AND DUP3 SSTORE PUSH1 0x1 PUSH1 0x1 PUSH1 0xA0 SHL SUB AND PUSH32 0x8BE0079C531659141344CD1FD0A4F28419497F9722A3DAAFE3B4186F6B6457E0 DUP3 DUP1 LOG3 DUP1 RETURN JUMPDEST POP CALLVALUE PUSH2 0x22E JUMPI DUP1 PUSH1 0x3 NOT CALLDATASIZE ADD SLT PUSH2 0x22E JUMPI PUSH1 0x20 PUSH1 0xB SLOAD PUSH1 0x40 MLOAD SWAP1 DUP2 MSTORE RETURN JUMPDEST POP CALLVALUE PUSH2 0x22E JUMPI PUSH1 0x40 CALLDATASIZE PUSH1 0x3 NOT ADD SLT PUSH2 0x22E JUMPI PUSH8 0xFFFFFFFFFFFFFFFF PUSH1 0x4 CALLDATALOAD DUP2 DUP2 GT PUSH2 0x3713 JUMPI PUSH2 0x2FBE SWAP1 CALLDATASIZE SWAP1 PUSH1 0x4 ADD PUSH2 0x5975 JUMP JUMPDEST SWAP2 PUSH1 0x24 CALLDATALOAD SWAP1 DUP3 DUP3 GT PUSH2 0x22E JUMPI POP PUSH2 0x2FD9 SWAP1 CALLDATASIZE SWAP1 PUSH1 0x4 ADD PUSH2 0x5975 JUMP JUMPDEST SWAP2 PUSH1 0x40 MLOAD SWAP3 PUSH2 0x2FF9 PUSH1 0x20 SWAP5 PUSH8 0x7D0A8177AB5CBE5F DUP7 DUP3 ADD MSTORE DUP6 DUP2 MSTORE PUSH2 0x57FC JUMP JUMPDEST PUSH2 0x3014 PUSH1 0x40 MLOAD PUSH8 0x23A6AA57F260CEE6 DUP7 DUP3 ADD MSTORE DUP6 DUP2 MSTORE PUSH2 0x57FC JUMP JUMPDEST PUSH2 0x302F PUSH1 0x40 MLOAD PUSH8 0x38F9D058737588AA DUP7 DUP3 ADD MSTORE DUP6 DUP2 MSTORE PUSH2 0x57FC JUMP JUMPDEST PUSH2 0x304A PUSH1 0x40 MLOAD PUSH8 0x98DBD418D87FB6D3 DUP7 DUP3 ADD MSTORE DUP6 DUP2 MSTORE PUSH2 0x57FC JUMP JUMPDEST PUSH1 0x1 SWAP3 DUP4 SLOAD PUSH1 0xFF DUP2 PUSH1 0xA0 SHR AND PUSH1 0x0 EQ PUSH2 0x307C JUMPI PUSH2 0x3A4 DUP7 PUSH2 0x38C PUSH1 0x40 MLOAD PUSH8 0x6D22A1603CC66AF DUP4 DUP3 ADD MSTORE DUP3 DUP2 MSTORE PUSH2 0x57FC JUMP JUMPDEST PUSH2 0x3097 PUSH1 0x40 MLOAD PUSH8 0x3392708B065C4978 DUP9 DUP3 ADD MSTORE DUP8 DUP2 MSTORE PUSH2 0x57FC JUMP JUMPDEST PUSH2 0x30B2 PUSH1 0x40 MLOAD PUSH8 0x215F2BCED65EB339 DUP9 DUP3 ADD MSTORE DUP8 DUP2 MSTORE PUSH2 0x57FC JUMP JUMPDEST PUSH2 0x30CD PUSH1 0x40 MLOAD PUSH8 0x71A6B24264EC116E DUP9 DUP3 ADD MSTORE DUP8 DUP2 MSTORE PUSH2 0x57FC JUMP JUMPDEST PUSH1 0x1 PUSH1 0x1 PUSH1 0xA0 SHL SUB AND PUSH2 0x30F9 JUMPI PUSH2 0x44D DUP6 PUSH2 0x435 PUSH1 0x40 MLOAD PUSH8 0xF4DBDB29E7311B48 DUP4 DUP3 ADD MSTORE DUP3 DUP2 MSTORE PUSH2 0x57FC JUMP JUMPDEST PUSH2 0x3114 PUSH1 0x40 MLOAD PUSH8 0x9876C41EF0CCDF57 DUP8 DUP3 ADD MSTORE DUP7 DUP2 MSTORE PUSH2 0x57FC JUMP JUMPDEST PUSH2 0x312F PUSH1 0x40 MLOAD PUSH8 0x8A7063D64D1C73C8 DUP8 DUP3 ADD MSTORE DUP7 DUP2 MSTORE PUSH2 0x57FC JUMP JUMPDEST PUSH2 0x314A PUSH1 0x40 MLOAD PUSH8 0xE86342D87165FA59 DUP8 DUP3 ADD MSTORE DUP7 DUP2 MSTORE PUSH2 0x57FC JUMP JUMPDEST PUSH2 0x3165 PUSH1 0x40 MLOAD PUSH8 0x1FCB6A41C6C69858 DUP8 DUP3 ADD MSTORE DUP7 DUP2 MSTORE PUSH2 0x57FC JUMP JUMPDEST PUSH2 0x317F PUSH1 0x40 MLOAD PUSH7 0xE5FFA32B24C898 DUP8 DUP3 ADD MSTORE DUP7 DUP2 MSTORE PUSH2 0x57FC JUMP JUMPDEST PUSH2 0x319A PUSH1 0x40 MLOAD PUSH8 0xB8956612C495A018 DUP8 DUP3 ADD MSTORE DUP7 DUP2 MSTORE PUSH2 0x57FC JUMP JUMPDEST PUSH2 0x31B5 PUSH1 0x40 MLOAD PUSH8 0xA40C93DC08DFBE58 DUP8 DUP3 ADD MSTORE DUP7 DUP2 MSTORE PUSH2 0x57FC JUMP JUMPDEST PUSH2 0x31D0 PUSH1 0x40 MLOAD PUSH8 0xC8D27382081A5985 DUP8 DUP3 ADD MSTORE DUP7 DUP2 MSTORE PUSH2 0x57FC JUMP JUMPDEST PUSH2 0x31EB PUSH1 0x40 MLOAD PUSH8 0x98AF0A14673F2F82 DUP8 DUP3 ADD MSTORE DUP7 DUP2 MSTORE PUSH2 0x57FC JUMP JUMPDEST CALLER PUSH1 0x0 MSTORE PUSH1 0xF DUP6 MSTORE PUSH1 0x40 PUSH1 0x0 KECCAK256 PUSH2 0x3213 PUSH1 0x40 MLOAD PUSH8 0xAC8A14D203474290 DUP9 DUP3 ADD MSTORE DUP8 DUP2 MSTORE PUSH2 0x57FC JUMP JUMPDEST PUSH2 0x322E PUSH1 0x40 MLOAD PUSH8 0xD8CE26B2D21B8DA7 DUP9 DUP3 ADD MSTORE DUP8 DUP2 MSTORE PUSH2 0x57FC JUMP JUMPDEST SLOAD PUSH1 0x4 SLOAD GT ISZERO PUSH2 0x326F JUMPI PUSH2 0x133E DUP6 PUSH2 0x3257 PUSH1 0x40 MLOAD PUSH8 0x6603B02773C537C4 DUP4 DUP3 ADD MSTORE DUP3 DUP2 MSTORE PUSH2 0x57FC JUMP JUMPDEST PUSH1 0x40 MLOAD SWAP1 PUSH8 0x13724890F20FFBBC DUP2 DUP4 ADD MSTORE DUP2 MSTORE PUSH2 0x57FC JUMP JUMPDEST PUSH2 0x328A PUSH1 0x40 MLOAD PUSH8 0x22155D35B9609CDC DUP8 DUP3 ADD MSTORE DUP7 DUP2 MSTORE PUSH2 0x57FC JUMP JUMPDEST PUSH2 0x32A5 PUSH1 0x40 MLOAD PUSH8 0x5834B715C15CA4AA DUP8 DUP3 ADD MSTORE DUP7 DUP2 MSTORE PUSH2 0x57FC JUMP JUMPDEST PUSH2 0x32C0 PUSH1 0x40 MLOAD PUSH8 0x2B9CD1E119ED6921 DUP8 DUP3 ADD MSTORE DUP7 DUP2 MSTORE PUSH2 0x57FC JUMP JUMPDEST PUSH1 0xA SLOAD SWAP4 PUSH1 0x0 NOT SWAP1 DUP2 DUP7 EQ PUSH2 0x22CA JUMPI DUP1 DUP7 ADD PUSH1 0xA SSTORE PUSH2 0x32F0 PUSH1 0x40 MLOAD PUSH8 0xAAEC691E840CE15B DUP10 DUP3 ADD MSTORE DUP9 DUP2 MSTORE PUSH2 0x57FC JUMP JUMPDEST PUSH2 0x330B PUSH1 0x40 MLOAD PUSH8 0x7C599AB0019ECFF4 DUP10 DUP3 ADD MSTORE DUP9 DUP2 MSTORE PUSH2 0x57FC JUMP JUMPDEST DUP6 PUSH1 0x0 MSTORE PUSH1 0xC DUP8 MSTORE PUSH1 0x40 PUSH1 0x0 KECCAK256 SWAP5 PUSH2 0x3334 PUSH1 0x40 MLOAD PUSH8 0xE3E0377415184FEB DUP11 DUP3 ADD MSTORE DUP10 DUP2 MSTORE PUSH2 0x57FC JUMP JUMPDEST DUP7 DUP7 SSTORE PUSH2 0x3352 PUSH1 0x40 MLOAD PUSH8 0x6FAC893FB38E6E9C DUP11 DUP3 ADD MSTORE DUP10 DUP2 MSTORE PUSH2 0x57FC JUMP JUMPDEST DUP6 DUP3 ADD DUP1 SLOAD PUSH1 0x1 PUSH1 0x1 PUSH1 0xA0 SHL SUB NOT AND CALLER OR SWAP1 SSTORE PUSH1 0x40 MLOAD PUSH8 0x14F870EF3BD5BAD8 DUP10 DUP3 ADD MSTORE DUP9 DUP2 MSTORE PUSH2 0x3381 SWAP1 PUSH2 0x57FC JUMP JUMPDEST DUP1 MLOAD PUSH1 0x2 DUP8 ADD SWAP2 DUP6 DUP3 GT PUSH2 0x21E9 JUMPI DUP2 SWAP1 PUSH2 0x339B DUP5 SLOAD PUSH2 0x57A5 JUMP JUMPDEST PUSH1 0x1F DUP2 GT PUSH2 0x36C0 JUMPI JUMPDEST POP DUP11 SWAP1 PUSH1 0x1F DUP4 GT PUSH1 0x1 EQ PUSH2 0x365F JUMPI PUSH1 0x0 SWAP3 PUSH2 0x3654 JUMPI JUMPDEST POP POP DUP5 DUP3 DUP6 SHL SWAP3 PUSH1 0x3 SHL SHR NOT AND OR SWAP1 SSTORE JUMPDEST PUSH2 0x33E6 PUSH1 0x40 MLOAD PUSH8 0x903342180D709E4D DUP10 DUP3 ADD MSTORE DUP9 DUP2 MSTORE PUSH2 0x57FC JUMP JUMPDEST PUSH1 0x3 DUP6 ADD SWAP4 DUP1 MLOAD SWAP4 DUP5 GT PUSH2 0x21E9 JUMPI PUSH2 0x33FE DUP6 SLOAD PUSH2 0x57A5 JUMP JUMPDEST PUSH1 0x1F DUP2 GT PUSH2 0x360B JUMPI JUMPDEST POP DUP8 SWAP1 PUSH1 0x1F DUP6 GT PUSH1 0x1 EQ PUSH2 0x359D JUMPI SWAP3 DUP5 DUP1 SWAP4 PUSH1 0x0 SWAP9 SWAP7 SWAP4 PUSH1 0x9 SWAP9 SWAP7 DUP11 SWAP6 PUSH2 0x3592 JUMPI JUMPDEST POP POP SHL SWAP3 PUSH1 0x3 SHL SHR NOT AND OR SWAP1 SSTORE JUMPDEST PUSH2 0x3452 PUSH1 0x40 MLOAD PUSH8 0x94DF3347A03AAFCB DUP8 DUP3 ADD MSTORE DUP7 DUP2 MSTORE PUSH2 0x57FC JUMP JUMPDEST TIMESTAMP PUSH1 0x4 DUP3 ADD SSTORE PUSH2 0x3473 PUSH1 0x40 MLOAD PUSH8 0x672F86D6455373D DUP8 DUP3 ADD MSTORE DUP7 DUP2 MSTORE PUSH2 0x57FC JUMP JUMPDEST PUSH2 0x347F PUSH1 0x6 SLOAD TIMESTAMP PUSH2 0x5A77 JUMP JUMPDEST PUSH1 0x5 DUP3 ADD SSTORE PUSH2 0x349F PUSH1 0x40 MLOAD PUSH8 0xC444A11EE9A8FC6F DUP8 DUP3 ADD MSTORE DUP7 DUP2 MSTORE PUSH2 0x57FC JUMP JUMPDEST PUSH1 0x8 DUP2 ADD DUP1 SLOAD PUSH2 0x34C0 PUSH1 0x40 MLOAD PUSH8 0x78E4DD3C4757AA51 DUP10 DUP3 ADD MSTORE DUP9 DUP2 MSTORE PUSH2 0x57FC JUMP JUMPDEST PUSH2 0x34DB PUSH1 0x40 MLOAD PUSH8 0xB66E8B38BBA55F6E DUP10 DUP3 ADD MSTORE DUP9 DUP2 MSTORE PUSH2 0x57FC JUMP JUMPDEST PUSH2 0xFF01 PUSH1 0x1 PUSH1 0xB8 SHL SUB NOT AND SWAP1 SSTORE PUSH1 0x40 MLOAD PUSH8 0x783D7A708FB853D7 DUP7 DUP3 ADD MSTORE DUP6 DUP2 MSTORE PUSH2 0x3504 SWAP1 PUSH2 0x57FC JUMP JUMPDEST ADD SSTORE PUSH2 0x3521 PUSH1 0x40 MLOAD PUSH8 0xECA2005C7AFF570D DUP5 DUP3 ADD MSTORE DUP4 DUP2 MSTORE PUSH2 0x57FC JUMP JUMPDEST PUSH2 0x353C PUSH1 0x40 MLOAD PUSH8 0xFAB4B9F47ECC5609 DUP5 DUP3 ADD MSTORE DUP4 DUP2 MSTORE PUSH2 0x57FC JUMP JUMPDEST PUSH1 0x40 MLOAD PUSH1 0x0 DUP2 MSTORE PUSH1 0x0 DUP4 DUP3 ADD MSTORE PUSH1 0x0 PUSH1 0x40 DUP3 ADD MSTORE DUP2 PUSH32 0xB956772E7B554D19BB961F4303B6C0C5CD7592C0C06FD08F15A56A0F304E6C0D PUSH1 0x60 CALLER SWAP4 LOG3 PUSH2 0x2111 PUSH1 0x40 MLOAD PUSH8 0x97167EF0EEB7510A DUP5 DUP3 ADD MSTORE DUP4 DUP2 MSTORE PUSH2 0x57FC JUMP JUMPDEST ADD MLOAD SWAP4 POP CODESIZE DUP1 PUSH2 0x3429 JUMP JUMPDEST SWAP2 SWAP4 SWAP3 SWAP1 PUSH1 0x1F NOT DUP5 AND SWAP3 DUP7 PUSH1 0x0 MSTORE DUP10 PUSH1 0x0 KECCAK256 SWAP4 PUSH1 0x0 JUMPDEST DUP12 DUP3 DUP3 LT PUSH2 0x35F7 JUMPI POP POP SWAP2 DUP6 SWAP4 SWAP2 PUSH1 0x9 SWAP9 SWAP7 PUSH1 0x0 SWAP11 SWAP9 SWAP7 SWAP5 LT PUSH2 0x35DF JUMPI JUMPDEST POP POP POP POP DUP2 SHL ADD SWAP1 SSTORE PUSH2 0x3437 JUMP JUMPDEST ADD MLOAD SWAP1 PUSH1 0xF8 DUP5 PUSH1 0x3 SHL AND SHR NOT AND SWAP1 SSTORE CODESIZE DUP1 DUP1 DUP1 PUSH2 0x35D1 JUMP JUMPDEST DUP4 DUP6 ADD MLOAD DUP8 SSTORE SWAP6 DUP9 ADD SWAP6 SWAP4 DUP5 ADD SWAP4 ADD PUSH2 0x35B3 JUMP JUMPDEST DUP6 PUSH1 0x0 MSTORE DUP9 PUSH1 0x0 KECCAK256 PUSH1 0x1F DUP7 ADD PUSH1 0x5 SHR DUP2 ADD SWAP2 DUP11 DUP8 LT PUSH2 0x364A JUMPI JUMPDEST PUSH1 0x1F ADD PUSH1 0x5 SHR ADD SWAP1 DUP4 SWAP1 JUMPDEST DUP3 DUP2 LT PUSH2 0x363E JUMPI POP POP PUSH2 0x3407 JUMP JUMPDEST PUSH1 0x0 DUP2 SSTORE ADD DUP4 SWAP1 PUSH2 0x3630 JUMP JUMPDEST SWAP1 SWAP2 POP DUP2 SWAP1 PUSH2 0x3625 JUMP JUMPDEST ADD MLOAD SWAP1 POP CODESIZE DUP1 PUSH2 0x33BA JUMP JUMPDEST PUSH1 0x0 DUP6 DUP2 MSTORE DUP13 DUP2 KECCAK256 DUP8 SWAP6 POP SWAP3 SWAP2 SWAP1 PUSH1 0x1F NOT DUP6 AND SWAP1 DUP15 JUMPDEST DUP3 DUP3 LT PUSH2 0x36A9 JUMPI POP POP DUP5 GT PUSH2 0x3692 JUMPI JUMPDEST POP POP POP DUP2 SHL ADD SWAP1 SSTORE PUSH2 0x33CB JUMP JUMPDEST ADD MLOAD DUP7 PUSH1 0xF8 DUP5 PUSH1 0x3 SHL AND SHR NOT AND SWAP1 SSTORE CODESIZE DUP1 DUP1 PUSH2 0x3685 JUMP JUMPDEST DUP4 DUP6 ADD MLOAD DUP7 SSTORE DUP10 SWAP8 SWAP1 SWAP6 ADD SWAP5 SWAP4 DUP5 ADD SWAP4 ADD DUP15 PUSH2 0x3675 JUMP JUMPDEST SWAP1 SWAP2 POP DUP4 PUSH1 0x0 MSTORE DUP11 PUSH1 0x0 KECCAK256 PUSH1 0x1F DUP5 ADD PUSH1 0x5 SHR DUP2 ADD SWAP2 DUP13 DUP6 LT PUSH2 0x3709 JUMPI JUMPDEST DUP5 SWAP4 SWAP3 SWAP2 PUSH1 0x1F DUP9 SWAP3 ADD PUSH1 0x5 SHR ADD SWAP2 JUMPDEST DUP3 DUP2 LT PUSH2 0x36FA JUMPI POP POP PUSH2 0x33A4 JUMP JUMPDEST PUSH1 0x0 DUP2 SSTORE DUP6 SWAP5 POP DUP8 SWAP2 ADD PUSH2 0x36EC JUMP JUMPDEST SWAP1 SWAP2 POP DUP2 SWAP1 PUSH2 0x36DD JUMP JUMPDEST DUP3 DUP1 REVERT JUMPDEST POP CALLVALUE PUSH2 0x22E JUMPI DUP1 PUSH1 0x3 NOT CALLDATASIZE ADD SLT PUSH2 0x22E JUMPI PUSH1 0x20 PUSH1 0xFF PUSH1 0x1 SLOAD PUSH1 0xA0 SHR AND PUSH1 0x40 MLOAD SWAP1 ISZERO ISZERO DUP2 MSTORE RETURN JUMPDEST POP CALLVALUE PUSH2 0x22E JUMPI PUSH1 0x20 DUP1 PUSH1 0x3 NOT CALLDATASIZE ADD SLT PUSH2 0x851 JUMPI PUSH1 0x4 CALLDATALOAD PUSH2 0x376E PUSH1 0x40 MLOAD PUSH8 0x29BFEA2DB3841D45 DUP5 DUP3 ADD MSTORE DUP4 DUP2 MSTORE PUSH2 0x57FC JUMP JUMPDEST PUSH2 0x3789 PUSH1 0x40 MLOAD PUSH8 0xB929751C4A787B78 DUP5 DUP3 ADD MSTORE DUP4 DUP2 MSTORE PUSH2 0x57FC JUMP JUMPDEST PUSH2 0x37A4 PUSH1 0x40 MLOAD PUSH8 0x93875FA05D90FAFE DUP5 DUP3 ADD MSTORE DUP4 DUP2 MSTORE PUSH2 0x57FC JUMP JUMPDEST DUP1 DUP4 MSTORE PUSH1 0xC DUP3 MSTORE PUSH1 0x40 DUP4 KECCAK256 PUSH2 0x37CA PUSH1 0x40 MLOAD PUSH8 0x6FCC2A00D8EE39EB DUP6 DUP3 ADD MSTORE DUP5 DUP2 MSTORE PUSH2 0x57FC JUMP JUMPDEST PUSH2 0x37E5 PUSH1 0x40 MLOAD PUSH8 0x14E634B3E71F4E6E DUP6 DUP3 ADD MSTORE DUP5 DUP2 MSTORE PUSH2 0x57FC JUMP JUMPDEST PUSH1 0x1 DUP2 ADD SLOAD PUSH1 0x1 PUSH1 0x1 PUSH1 0xA0 SHL SUB AND PUSH2 0x382E JUMPI PUSH2 0x105C DUP4 PUSH2 0x3816 PUSH1 0x40 MLOAD PUSH8 0xE4C03EEEF1531A84 DUP4 DUP3 ADD MSTORE DUP3 DUP2 MSTORE PUSH2 0x57FC JUMP JUMPDEST PUSH1 0x40 MLOAD SWAP1 PUSH8 0x99BF2C6C0B2A929F DUP2 DUP4 ADD MSTORE DUP2 MSTORE PUSH2 0x57FC JUMP JUMPDEST PUSH2 0x3849 PUSH1 0x40 MLOAD PUSH8 0xC7040FDD86C8C71 DUP6 DUP3 ADD MSTORE DUP5 DUP2 MSTORE PUSH2 0x57FC JUMP JUMPDEST PUSH2 0x3864 PUSH1 0x40 MLOAD PUSH8 0xBB61C1E726367E15 DUP6 DUP3 ADD MSTORE DUP5 DUP2 MSTORE PUSH2 0x57FC JUMP JUMPDEST PUSH2 0x387F PUSH1 0x40 MLOAD PUSH8 0x75C13795FF8714BC DUP6 DUP3 ADD MSTORE DUP5 DUP2 MSTORE PUSH2 0x57FC JUMP JUMPDEST PUSH1 0x8 DUP2 ADD SWAP1 DUP2 SLOAD PUSH1 0xFF DUP2 AND PUSH1 0x3 DUP2 LT ISZERO PUSH2 0x15AF JUMPI ISZERO PUSH2 0x38CF JUMPI PUSH2 0x110C DUP6 PUSH2 0x38B7 PUSH1 0x40 MLOAD PUSH8 0xA674FE8FE5C0CBF9 DUP4 DUP3 ADD MSTORE DUP3 DUP2 MSTORE PUSH2 0x57FC JUMP JUMPDEST PUSH1 0x40 MLOAD SWAP1 PUSH8 0xD91B0B214C25117 DUP2 DUP4 ADD MSTORE DUP2 MSTORE PUSH2 0x57FC JUMP JUMPDEST PUSH2 0x38EA PUSH1 0x40 MLOAD PUSH8 0x4113CB3DFC34BA23 DUP8 DUP3 ADD MSTORE DUP7 DUP2 MSTORE PUSH2 0x57FC JUMP JUMPDEST PUSH2 0x3905 PUSH1 0x40 MLOAD PUSH8 0x2D3E68B9A3DF2975 DUP8 DUP3 ADD MSTORE DUP7 DUP2 MSTORE PUSH2 0x57FC JUMP JUMPDEST PUSH2 0x3920 PUSH1 0x40 MLOAD PUSH8 0x9511D073C66857D9 DUP8 DUP3 ADD MSTORE DUP7 DUP2 MSTORE PUSH2 0x57FC JUMP JUMPDEST PUSH1 0x5 DUP3 ADD SLOAD TIMESTAMP LT ISZERO PUSH2 0x3963 JUMPI PUSH2 0x110C DUP6 PUSH2 0x394B PUSH1 0x40 MLOAD PUSH8 0x70D0F6977C9B4A55 DUP4 DUP3 ADD MSTORE DUP3 DUP2 MSTORE PUSH2 0x57FC JUMP JUMPDEST PUSH1 0x40 MLOAD SWAP1 PUSH8 0xD58DF4FCC5A7096C DUP2 DUP4 ADD MSTORE DUP2 MSTORE PUSH2 0x57FC JUMP JUMPDEST PUSH2 0x397E PUSH1 0x40 MLOAD PUSH8 0x5D18052CB5E4D5D2 DUP8 DUP3 ADD MSTORE DUP7 DUP2 MSTORE PUSH2 0x57FC JUMP JUMPDEST PUSH2 0x3999 PUSH1 0x40 MLOAD PUSH8 0xE5DBDE152FFCE104 DUP8 DUP3 ADD MSTORE DUP7 DUP2 MSTORE PUSH2 0x57FC JUMP JUMPDEST PUSH2 0x39B4 PUSH1 0x40 MLOAD PUSH8 0x94531A8D0519B218 DUP8 DUP3 ADD MSTORE DUP7 DUP2 MSTORE PUSH2 0x57FC JUMP JUMPDEST PUSH2 0x39C9 PUSH1 0x6 DUP4 ADD SWAP3 PUSH1 0x7 DUP5 SLOAD SWAP2 ADD SLOAD SWAP1 PUSH2 0x5A77 JUMP JUMPDEST SWAP1 PUSH2 0x39E5 PUSH1 0x40 MLOAD PUSH8 0x1F3F77A731298804 DUP9 DUP3 ADD MSTORE DUP8 DUP2 MSTORE PUSH2 0x57FC JUMP JUMPDEST PUSH2 0x3A00 PUSH1 0x40 MLOAD PUSH8 0x57E916A2117B665E DUP9 DUP3 ADD MSTORE DUP8 DUP2 MSTORE PUSH2 0x57FC JUMP JUMPDEST PUSH1 0xB SLOAD DUP1 ISZERO PUSH2 0x3DA2 JUMPI PUSH2 0x3A69 PUSH1 0x64 SWAP2 PUSH2 0x3A2A PUSH1 0x40 MLOAD PUSH8 0xEBDA226B3BDDD3BD DUP12 DUP3 ADD MSTORE DUP11 DUP2 MSTORE PUSH2 0x57FC JUMP JUMPDEST PUSH2 0x3A45 PUSH1 0x40 MLOAD PUSH8 0x4D0BD7E6EB0ED256 DUP12 DUP3 ADD MSTORE DUP11 DUP2 MSTORE PUSH2 0x57FC JUMP JUMPDEST PUSH2 0x3A60 PUSH1 0x40 MLOAD PUSH8 0xE8DDEC26884DB8BC DUP12 DUP3 ADD MSTORE DUP11 DUP2 MSTORE PUSH2 0x57FC JUMP JUMPDEST PUSH1 0x8 SLOAD SWAP1 PUSH2 0x59E8 JUMP JUMPDEST DIV PUSH2 0x3A85 PUSH1 0x40 MLOAD PUSH8 0xE3C4BB2918F2F97C DUP10 DUP3 ADD MSTORE DUP9 DUP2 MSTORE PUSH2 0x57FC JUMP JUMPDEST PUSH2 0x3AA0 PUSH1 0x40 MLOAD PUSH8 0xADCBBE631CA1F208 DUP10 DUP3 ADD MSTORE DUP9 DUP2 MSTORE PUSH2 0x57FC JUMP JUMPDEST DUP3 LT ISZERO PUSH2 0x3B6C JUMPI PUSH2 0x3B5A DUP7 DUP7 PUSH2 0x3AC7 PUSH1 0x40 MLOAD PUSH8 0x428B5E81371064AC DUP5 DUP3 ADD MSTORE DUP4 DUP2 MSTORE PUSH2 0x57FC JUMP JUMPDEST PUSH2 0x3AE2 PUSH1 0x40 MLOAD PUSH8 0x10554A07BC248E77 DUP5 DUP3 ADD MSTORE DUP4 DUP2 MSTORE PUSH2 0x57FC JUMP JUMPDEST PUSH2 0x3AFD PUSH1 0x40 MLOAD PUSH8 0x353D500AE48B05EA DUP5 DUP3 ADD MSTORE DUP4 DUP2 MSTORE PUSH2 0x57FC JUMP JUMPDEST PUSH2 0x3B18 PUSH1 0x40 MLOAD PUSH8 0xA0DF3CE5F4C1ACA8 DUP5 DUP3 ADD MSTORE DUP4 DUP2 MSTORE PUSH2 0x57FC JUMP JUMPDEST PUSH32 0x34A42C4CE0A88D16AD098DE6406057747139A2A3DD8DD8616EE7BBABCECB768E DUP3 PUSH1 0x40 MLOAD PUSH1 0x2 DUP2 MSTORE LOG2 PUSH1 0x40 MLOAD SWAP1 PUSH8 0x2BD77A22725ACD02 DUP2 DUP4 ADD MSTORE DUP2 MSTORE PUSH2 0x57FC JUMP JUMPDEST PUSH1 0x40 MLOAD PUSH4 0xAA26A693 PUSH1 0xE0 SHL DUP2 MSTORE PUSH1 0x4 SWAP1 REVERT JUMPDEST SWAP2 PUSH32 0x34A42C4CE0A88D16AD098DE6406057747139A2A3DD8DD8616EE7BBABCECB768E SWAP5 SWAP6 SWAP4 SWAP2 PUSH1 0xFF SWAP4 PUSH2 0x3BB0 PUSH1 0x40 MLOAD PUSH8 0x1A29202B2D3DF6AA DUP9 DUP3 ADD MSTORE DUP8 DUP2 MSTORE PUSH2 0x57FC JUMP JUMPDEST PUSH2 0x3BCB PUSH1 0x40 MLOAD PUSH8 0xEF43AC4E68A56C69 DUP9 DUP3 ADD MSTORE DUP8 DUP2 MSTORE PUSH2 0x57FC JUMP JUMPDEST PUSH2 0x3BE6 PUSH1 0x40 MLOAD PUSH8 0xD51FE87F84879E57 DUP9 DUP3 ADD MSTORE DUP8 DUP2 MSTORE PUSH2 0x57FC JUMP JUMPDEST DUP2 ISZERO PUSH2 0x3D5B JUMPI POP PUSH2 0x3C4D PUSH1 0x64 SWAP2 PUSH2 0x3C0E PUSH1 0x40 MLOAD PUSH8 0x2CDBF4B6809BDAC5 DUP10 DUP3 ADD MSTORE DUP9 DUP2 MSTORE PUSH2 0x57FC JUMP JUMPDEST PUSH2 0x3C29 PUSH1 0x40 MLOAD PUSH8 0x3994763B048EDA8 DUP10 DUP3 ADD MSTORE DUP9 DUP2 MSTORE PUSH2 0x57FC JUMP JUMPDEST PUSH2 0x3C44 PUSH1 0x40 MLOAD PUSH8 0xC38F6E1E2EB175D6 DUP10 DUP3 ADD MSTORE DUP9 DUP2 MSTORE PUSH2 0x57FC JUMP JUMPDEST PUSH1 0x9 SLOAD SWAP1 PUSH2 0x59E8 JUMP JUMPDEST DIV SWAP1 PUSH2 0x3C6A PUSH1 0x40 MLOAD PUSH8 0xBDD3C73CB59D019C DUP8 DUP3 ADD MSTORE DUP7 DUP2 MSTORE PUSH2 0x57FC JUMP JUMPDEST PUSH2 0x3C85 PUSH1 0x40 MLOAD PUSH8 0xCCAE6E5C4400A1D DUP8 DUP3 ADD MSTORE DUP7 DUP2 MSTORE PUSH2 0x57FC JUMP JUMPDEST SLOAD GT ISZERO PUSH2 0x3D16 JUMPI PUSH2 0x3CA7 PUSH1 0x40 MLOAD PUSH8 0x199EB2FE1ACF4F07 DUP6 DUP3 ADD MSTORE DUP5 DUP2 MSTORE PUSH2 0x57FC JUMP JUMPDEST PUSH2 0x3CC2 PUSH1 0x40 MLOAD PUSH8 0x8108CE35C6AAB164 DUP6 DUP3 ADD MSTORE DUP5 DUP2 MSTORE PUSH2 0x57FC JUMP JUMPDEST PUSH1 0x1 DUP3 NOT DUP3 SLOAD AND OR DUP2 SSTORE JUMPDEST PUSH2 0x3CE8 PUSH1 0x40 MLOAD PUSH8 0xCF2251EF07E4F214 DUP6 DUP3 ADD MSTORE DUP5 DUP2 MSTORE PUSH2 0x57FC JUMP JUMPDEST PUSH2 0x3D03 PUSH1 0x40 MLOAD PUSH8 0x10ED8CE21BB9FF9F DUP6 DUP3 ADD MSTORE DUP5 DUP2 MSTORE PUSH2 0x57FC JUMP JUMPDEST SLOAD AND PUSH2 0x3D12 PUSH1 0x40 MLOAD DUP1 SWAP3 PUSH2 0x5920 JUMP JUMPDEST LOG2 DUP1 RETURN JUMPDEST PUSH2 0x3D31 PUSH1 0x40 MLOAD PUSH8 0xB4793FB69F7A0C89 DUP6 DUP3 ADD MSTORE DUP5 DUP2 MSTORE PUSH2 0x57FC JUMP JUMPDEST PUSH2 0x3D4C PUSH1 0x40 MLOAD PUSH8 0xB4CAFD4B627F6B2C DUP6 DUP3 ADD MSTORE DUP5 DUP2 MSTORE PUSH2 0x57FC JUMP JUMPDEST PUSH1 0x2 DUP3 NOT DUP3 SLOAD AND OR DUP2 SSTORE PUSH2 0x3CCD JUMP JUMPDEST SWAP1 POP PUSH1 0x2 SWAP2 POP PUSH2 0x3D7C PUSH1 0x40 MLOAD PUSH8 0x57BD64727128A5A DUP8 DUP3 ADD MSTORE DUP7 DUP2 MSTORE PUSH2 0x57FC JUMP JUMPDEST PUSH2 0x3D97 PUSH1 0x40 MLOAD PUSH8 0x47DC461AD977EB67 DUP8 DUP3 ADD MSTORE DUP7 DUP2 MSTORE PUSH2 0x57FC JUMP JUMPDEST DUP4 NOT AND OR DUP2 SSTORE PUSH2 0x3CCD JUMP JUMPDEST POP SWAP2 PUSH32 0x34A42C4CE0A88D16AD098DE6406057747139A2A3DD8DD8616EE7BBABCECB768E SWAP5 SWAP6 SWAP4 SWAP2 PUSH1 0xFF SWAP4 PUSH2 0x3DE7 PUSH1 0x40 MLOAD PUSH8 0xC9E038FE26F58870 DUP9 DUP3 ADD MSTORE DUP8 DUP2 MSTORE PUSH2 0x57FC JUMP JUMPDEST PUSH2 0x3BB0 JUMP JUMPDEST POP CALLVALUE PUSH2 0x22E JUMPI PUSH1 0x20 DUP1 PUSH1 0x3 NOT CALLDATASIZE ADD SLT PUSH2 0x851 JUMPI PUSH1 0x4 CALLDATALOAD PUSH2 0x3E1D PUSH1 0x40 MLOAD PUSH8 0x1803BC6518BFA42D DUP5 DUP3 ADD MSTORE DUP4 DUP2 MSTORE PUSH2 0x57FC JUMP JUMPDEST PUSH2 0x3E38 PUSH1 0x40 MLOAD PUSH8 0x23A6AA57F260CEE6 DUP5 DUP3 ADD MSTORE DUP4 DUP2 MSTORE PUSH2 0x57FC JUMP JUMPDEST PUSH2 0x3E53 PUSH1 0x40 MLOAD PUSH8 0x38F9D058737588AA DUP5 DUP3 ADD MSTORE DUP4 DUP2 MSTORE PUSH2 0x57FC JUMP JUMPDEST PUSH2 0x3E6E PUSH1 0x40 MLOAD PUSH8 0x98DBD418D87FB6D3 DUP5 DUP3 ADD MSTORE DUP4 DUP2 MSTORE PUSH2 0x57FC JUMP JUMPDEST PUSH1 0x1 SLOAD PUSH1 0xFF DUP2 PUSH1 0xA0 SHR AND PUSH1 0x0 EQ PUSH2 0x3E9E JUMPI PUSH2 0x3A4 DUP4 PUSH2 0x38C PUSH1 0x40 MLOAD PUSH8 0x6D22A1603CC66AF DUP4 DUP3 ADD MSTORE DUP3 DUP2 MSTORE PUSH2 0x57FC JUMP JUMPDEST PUSH2 0x3EB9 PUSH1 0x40 MLOAD PUSH8 0x3392708B065C4978 DUP6 DUP3 ADD MSTORE DUP5 DUP2 MSTORE PUSH2 0x57FC JUMP JUMPDEST PUSH2 0x3ED4 PUSH1 0x40 MLOAD PUSH8 0x215F2BCED65EB339 DUP6 DUP3 ADD MSTORE DUP5 DUP2 MSTORE PUSH2 0x57FC JUMP JUMPDEST PUSH2 0x3EEF PUSH1 0x40 MLOAD PUSH8 0x71A6B24264EC116E DUP6 DUP3 ADD MSTORE DUP5 DUP2 MSTORE PUSH2 0x57FC JUMP JUMPDEST PUSH1 0x1 PUSH1 0x1 PUSH1 0xA0 SHL SUB SWAP1 DUP2 AND PUSH2 0x3F1D JUMPI PUSH2 0x44D DUP4 PUSH2 0x435 PUSH1 0x40 MLOAD PUSH8 0xF4DBDB29E7311B48 DUP4 DUP3 ADD MSTORE DUP3 DUP2 MSTORE PUSH2 0x57FC JUMP JUMPDEST PUSH2 0x3F38 PUSH1 0x40 MLOAD PUSH8 0x9876C41EF0CCDF57 DUP6 DUP3 ADD MSTORE DUP5 DUP2 MSTORE PUSH2 0x57FC JUMP JUMPDEST PUSH2 0x3F53 PUSH1 0x40 MLOAD PUSH8 0x8A7063D64D1C73C8 DUP6 DUP3 ADD MSTORE DUP5 DUP2 MSTORE PUSH2 0x57FC JUMP JUMPDEST PUSH2 0x3F6E PUSH1 0x40 MLOAD PUSH8 0x20EAEAA04917A700 DUP6 DUP3 ADD MSTORE DUP5 DUP2 MSTORE PUSH2 0x57FC JUMP JUMPDEST PUSH2 0x3F89 PUSH1 0x40 MLOAD PUSH8 0xCE6AD02650A5E12A DUP6 DUP3 ADD MSTORE DUP5 DUP2 MSTORE PUSH2 0x57FC JUMP JUMPDEST PUSH2 0x3FA4 PUSH1 0x40 MLOAD PUSH8 0xB959A22B5D34F2DE DUP6 DUP3 ADD MSTORE DUP5 DUP2 MSTORE PUSH2 0x57FC JUMP JUMPDEST PUSH2 0x3FBF PUSH1 0x40 MLOAD PUSH8 0x34D3516DA7B3BAFB DUP6 DUP3 ADD MSTORE DUP5 DUP2 MSTORE PUSH2 0x57FC JUMP JUMPDEST CALLER DUP5 MSTORE PUSH1 0xE DUP4 MSTORE PUSH1 0x40 DUP5 KECCAK256 PUSH2 0x3FE5 PUSH1 0x40 MLOAD PUSH8 0xA7B6815437896D5E DUP7 DUP3 ADD MSTORE DUP6 DUP2 MSTORE PUSH2 0x57FC JUMP JUMPDEST PUSH2 0x4000 PUSH1 0x40 MLOAD PUSH8 0x3D1562CE3E6E85F DUP7 DUP3 ADD MSTORE DUP6 DUP2 MSTORE PUSH2 0x57FC JUMP JUMPDEST DUP3 ISZERO DUP1 PUSH2 0x438B JUMPI JUMPDEST DUP1 ISZERO PUSH2 0x4359 JUMPI JUMPDEST ISZERO PUSH2 0x404B JUMPI PUSH2 0x133E DUP5 PUSH2 0x4033 PUSH1 0x40 MLOAD PUSH8 0x2E5B4DBC650134FB DUP4 DUP3 ADD MSTORE DUP3 DUP2 MSTORE PUSH2 0x57FC JUMP JUMPDEST PUSH1 0x40 MLOAD SWAP1 PUSH8 0x1CE7C299B0590303 DUP2 DUP4 ADD MSTORE DUP2 MSTORE PUSH2 0x57FC JUMP JUMPDEST PUSH2 0x4066 PUSH1 0x40 MLOAD PUSH8 0x4CA4059554E4EEBC DUP7 DUP3 ADD MSTORE DUP6 DUP2 MSTORE PUSH2 0x57FC JUMP JUMPDEST PUSH2 0x4081 PUSH1 0x40 MLOAD PUSH8 0xF0DFB08A65185D43 DUP7 DUP3 ADD MSTORE DUP6 DUP2 MSTORE PUSH2 0x57FC JUMP JUMPDEST PUSH2 0x409C PUSH1 0x40 MLOAD PUSH8 0xDF216C575E29EDE2 DUP7 DUP3 ADD MSTORE DUP6 DUP2 MSTORE PUSH2 0x57FC JUMP JUMPDEST PUSH2 0x40AD PUSH1 0x1 DUP3 ADD SLOAD PUSH1 0x5 SLOAD SWAP1 PUSH2 0x5A77 JUMP JUMPDEST TIMESTAMP LT ISZERO PUSH2 0x40FC JUMPI PUSH2 0x40EB DUP5 PUSH2 0x40D3 PUSH1 0x40 MLOAD PUSH8 0x7446CA5A14D12F26 DUP4 DUP3 ADD MSTORE DUP3 DUP2 MSTORE PUSH2 0x57FC JUMP JUMPDEST PUSH1 0x40 MLOAD SWAP1 PUSH8 0x9E9E878326FD7267 DUP2 DUP4 ADD MSTORE DUP2 MSTORE PUSH2 0x57FC JUMP JUMPDEST PUSH1 0x40 MLOAD PUSH3 0x149309 PUSH1 0xE0 SHL DUP2 MSTORE PUSH1 0x4 SWAP1 REVERT JUMPDEST SWAP3 PUSH2 0x41E2 DUP6 SWAP5 PUSH2 0x411D PUSH1 0x40 MLOAD PUSH8 0x7600AED34251165D DUP6 DUP3 ADD MSTORE DUP5 DUP2 MSTORE PUSH2 0x57FC JUMP JUMPDEST PUSH2 0x4138 PUSH1 0x40 MLOAD PUSH8 0xAB438EB077CF7D6E DUP6 DUP3 ADD MSTORE DUP5 DUP2 MSTORE PUSH2 0x57FC JUMP JUMPDEST PUSH2 0x4153 PUSH1 0x40 MLOAD PUSH8 0xEEEA9F48E5F85DF6 DUP6 DUP3 ADD MSTORE DUP5 DUP2 MSTORE PUSH2 0x57FC JUMP JUMPDEST PUSH2 0x61B PUSH2 0x41C6 DUP3 SLOAD SWAP3 PUSH2 0x418D DUP9 PUSH2 0x416C PUSH1 0x7 SLOAD DUP8 PUSH2 0x59FB JUMP JUMPDEST SWAP6 PUSH2 0x4188 PUSH1 0x40 MLOAD PUSH8 0xFBC935750562C64A DUP12 DUP3 ADD MSTORE DUP11 DUP2 MSTORE PUSH2 0x57FC JUMP JUMPDEST PUSH2 0x5A84 JUMP JUMPDEST DUP1 SWAP2 SSTORE PUSH2 0x41AB PUSH1 0x40 MLOAD PUSH8 0xF8B4722CC3B6D852 DUP9 DUP3 ADD MSTORE DUP8 DUP2 MSTORE PUSH2 0x57FC JUMP JUMPDEST PUSH2 0x67B PUSH1 0x40 MLOAD PUSH8 0x398C7336CEC4C150 DUP9 DUP3 ADD MSTORE DUP8 DUP2 MSTORE PUSH2 0x57FC JUMP JUMPDEST SWAP2 PUSH2 0x6A0 PUSH1 0x40 MLOAD PUSH8 0x2BE40794E8AAB2BA DUP8 DUP3 ADD MSTORE DUP7 DUP2 MSTORE PUSH2 0x57FC JUMP JUMPDEST PUSH1 0xB SSTORE PUSH2 0x4200 PUSH1 0x40 MLOAD PUSH8 0x65FEBA5C0F2DB2D1 DUP4 DUP3 ADD MSTORE DUP3 DUP2 MSTORE PUSH2 0x57FC JUMP JUMPDEST PUSH2 0x421B PUSH1 0x40 MLOAD PUSH8 0x71183D5018C614D9 DUP4 DUP3 ADD MSTORE DUP3 DUP2 MSTORE PUSH2 0x57FC JUMP JUMPDEST PUSH1 0x40 MLOAD PUSH4 0xA9059CBB PUSH1 0xE0 SHL DUP2 MSTORE CALLER PUSH1 0x4 DUP3 ADD MSTORE PUSH1 0x24 DUP2 ADD DUP5 SWAP1 MSTORE SWAP2 DUP2 SWAP1 DUP4 SWAP1 PUSH1 0x44 SWAP1 DUP3 SWAP1 DUP9 SWAP1 PUSH32 0x0 AND GAS CALL SWAP2 DUP3 ISZERO PUSH2 0x846 JUMPI PUSH32 0xB80625E1A6DFA23FBD22202898020767AAED44C2671F32CDB3473366B907321C SWAP3 PUSH2 0x42EB SWAP2 DUP7 SWAP2 PUSH2 0x433C JUMPI JUMPDEST POP PUSH2 0x42B5 PUSH1 0x40 MLOAD PUSH8 0x42CD94D9A163663A DUP6 DUP3 ADD MSTORE DUP5 DUP2 MSTORE PUSH2 0x57FC JUMP JUMPDEST PUSH2 0x42D0 PUSH1 0x40 MLOAD PUSH8 0x32CFE049C1A8ABFF DUP6 DUP3 ADD MSTORE DUP5 DUP2 MSTORE PUSH2 0x57FC JUMP JUMPDEST PUSH2 0x7B7 PUSH1 0x40 MLOAD PUSH8 0x437CACE7C0A7E49D DUP6 DUP3 ADD MSTORE DUP5 DUP2 MSTORE PUSH2 0x57FC JUMP JUMPDEST PUSH2 0x4306 PUSH1 0x40 MLOAD PUSH8 0x568D592764489418 DUP4 DUP3 ADD MSTORE DUP3 DUP2 MSTORE PUSH2 0x57FC JUMP JUMPDEST PUSH2 0x4321 PUSH1 0x40 MLOAD PUSH8 0xAE87A9B4A03ACFDE DUP4 DUP3 ADD MSTORE DUP3 DUP2 MSTORE PUSH2 0x57FC JUMP JUMPDEST PUSH2 0x80D PUSH1 0x40 MLOAD PUSH8 0x3F0A017E838376DB DUP4 DUP3 ADD MSTORE DUP3 DUP2 MSTORE PUSH2 0x57FC JUMP JUMPDEST PUSH2 0x4353 SWAP2 POP DUP4 RETURNDATASIZE DUP6 GT PUSH2 0x83F JUMPI PUSH2 0x831 DUP2 DUP4 PUSH2 0x5818 JUMP JUMPDEST DUP7 PUSH2 0x4299 JUMP JUMPDEST POP DUP1 SLOAD DUP4 GT DUP1 ISZERO PUSH2 0x400F JUMPI POP PUSH1 0x40 MLOAD PUSH8 0x667EEF5CEDD65E43 PUSH1 0xC0 SHL DUP6 DUP3 ADD MSTORE DUP5 DUP2 MSTORE PUSH2 0x4384 SWAP1 PUSH2 0x57FC JUMP JUMPDEST PUSH1 0x1 PUSH2 0x400F JUMP JUMPDEST POP PUSH1 0x40 MLOAD PUSH8 0x82C15D08E389F9F1 PUSH1 0xC0 SHL DUP6 DUP3 ADD MSTORE DUP5 DUP2 MSTORE PUSH2 0x43AB SWAP1 PUSH2 0x57FC JUMP JUMPDEST PUSH1 0x1 PUSH2 0x4008 JUMP JUMPDEST POP CALLVALUE PUSH2 0x22E JUMPI DUP1 PUSH1 0x3 NOT CALLDATASIZE ADD SLT PUSH2 0x22E JUMPI PUSH1 0x20 PUSH1 0x8 SLOAD PUSH1 0x40 MLOAD SWAP1 DUP2 MSTORE RETURN JUMPDEST POP CALLVALUE PUSH2 0x22E JUMPI PUSH1 0x40 CALLDATASIZE PUSH1 0x3 NOT ADD SLT PUSH2 0x22E JUMPI PUSH1 0x24 CALLDATALOAD PUSH1 0x1 PUSH1 0x1 PUSH1 0xA0 SHL SUB DUP2 AND SWAP2 SWAP1 DUP3 SWAP1 SUB PUSH2 0x233B JUMPI PUSH1 0x40 SWAP1 PUSH1 0x4 CALLDATALOAD DUP2 MSTORE PUSH1 0xD PUSH1 0x20 MSTORE KECCAK256 SWAP1 PUSH1 0x0 MSTORE PUSH1 0x20 MSTORE PUSH1 0x20 PUSH1 0xFF PUSH1 0x40 PUSH1 0x0 KECCAK256 SLOAD AND PUSH1 0x40 MLOAD SWAP1 ISZERO ISZERO DUP2 MSTORE RETURN JUMPDEST POP CALLVALUE PUSH2 0x22E JUMPI PUSH1 0x20 DUP1 PUSH1 0x3 NOT CALLDATASIZE ADD SLT PUSH2 0x851 JUMPI PUSH2 0x443D PUSH2 0x5943 JUMP JUMPDEST PUSH2 0x4458 PUSH1 0x40 MLOAD PUSH8 0xCEFCF07EE7D58F83 DUP5 DUP3 ADD MSTORE DUP4 DUP2 MSTORE PUSH2 0x57FC JUMP JUMPDEST PUSH2 0x4460 PUSH2 0x59BC JUMP JUMPDEST PUSH2 0x447B PUSH1 0x40 MLOAD PUSH8 0xE6C55C1FEA2EB20C DUP5 DUP3 ADD MSTORE DUP4 DUP2 MSTORE PUSH2 0x57FC JUMP JUMPDEST PUSH2 0x4496 PUSH1 0x40 MLOAD PUSH8 0x5CC9343B863CB701 DUP5 DUP3 ADD MSTORE DUP4 DUP2 MSTORE PUSH2 0x57FC JUMP JUMPDEST PUSH2 0x44B1 PUSH1 0x40 MLOAD PUSH8 0x352696FF0EB84DE8 DUP5 DUP3 ADD MSTORE DUP4 DUP2 MSTORE PUSH2 0x57FC JUMP JUMPDEST PUSH2 0x44CC PUSH1 0x40 MLOAD PUSH8 0xC4F7EF02A43F4112 DUP5 DUP3 ADD MSTORE DUP4 DUP2 MSTORE PUSH2 0x57FC JUMP JUMPDEST PUSH1 0x1 PUSH1 0x1 PUSH1 0xA0 SHL SUB AND DUP1 PUSH2 0x4511 JUMPI PUSH2 0x53D DUP3 PUSH2 0x44F9 PUSH1 0x40 MLOAD PUSH8 0x238583A847A670B2 DUP4 DUP3 ADD MSTORE DUP3 DUP2 MSTORE PUSH2 0x57FC JUMP JUMPDEST PUSH1 0x40 MLOAD SWAP1 PUSH8 0xC21CC47485B74401 DUP2 DUP4 ADD MSTORE DUP2 MSTORE PUSH2 0x57FC JUMP JUMPDEST SWAP1 PUSH2 0x4593 SWAP1 PUSH2 0x4531 PUSH1 0x40 MLOAD PUSH8 0xF40D1689A0663F2E DUP4 DUP3 ADD MSTORE DUP3 DUP2 MSTORE PUSH2 0x57FC JUMP JUMPDEST PUSH2 0x454C PUSH1 0x40 MLOAD PUSH8 0x5288A67FE0DEFFD DUP4 DUP3 ADD MSTORE DUP3 DUP2 MSTORE PUSH2 0x57FC JUMP JUMPDEST DUP3 PUSH1 0x1 PUSH1 0x1 PUSH1 0x60 SHL SUB PUSH1 0xA0 SHL PUSH1 0x1 SLOAD AND OR PUSH1 0x1 SSTORE PUSH2 0x457B PUSH1 0x40 MLOAD PUSH8 0xAEE06FB87EA9D37D DUP4 DUP3 ADD MSTORE DUP3 DUP2 MSTORE PUSH2 0x57FC JUMP JUMPDEST PUSH1 0x40 MLOAD SWAP1 PUSH8 0x942FCCF479A2ED8A DUP2 DUP4 ADD MSTORE DUP2 MSTORE PUSH2 0x57FC JUMP JUMPDEST PUSH32 0x46304C2BDADB06C16E46B6DC771E062E19A4150C21AA984FA49930BCA03267CF DUP3 DUP1 LOG2 DUP1 RETURN JUMPDEST POP CALLVALUE PUSH2 0x22E JUMPI DUP1 PUSH1 0x3 NOT CALLDATASIZE ADD SLT PUSH2 0x22E JUMPI PUSH1 0x20 PUSH1 0x6 SLOAD PUSH1 0x40 MLOAD SWAP1 DUP2 MSTORE RETURN JUMPDEST POP CALLVALUE PUSH2 0x22E JUMPI DUP1 PUSH1 0x3 NOT CALLDATASIZE ADD SLT PUSH2 0x22E JUMPI PUSH1 0x20 PUSH1 0x9 SLOAD PUSH1 0x40 MLOAD SWAP1 DUP2 MSTORE RETURN JUMPDEST POP CALLVALUE PUSH2 0x22E JUMPI DUP1 PUSH1 0x3 NOT CALLDATASIZE ADD SLT PUSH2 0x22E JUMPI PUSH1 0x20 PUSH1 0xA SLOAD PUSH1 0x40 MLOAD SWAP1 DUP2 MSTORE RETURN JUMPDEST POP CALLVALUE PUSH2 0x22E JUMPI PUSH1 0xC0 CALLDATASIZE PUSH1 0x3 NOT ADD SLT PUSH2 0x22E JUMPI PUSH1 0x4 CALLDATALOAD PUSH1 0x24 CALLDATALOAD SWAP2 PUSH1 0x44 CALLDATALOAD SWAP2 PUSH1 0x64 CALLDATALOAD PUSH1 0x84 CALLDATALOAD PUSH1 0xA4 CALLDATALOAD SWAP2 PUSH1 0x40 MLOAD SWAP6 PUSH2 0x465A PUSH1 0x20 SWAP8 PUSH8 0x6354CFB04E71D3A5 DUP10 DUP3 ADD MSTORE DUP9 DUP2 MSTORE PUSH2 0x57FC JUMP JUMPDEST PUSH2 0x4662 PUSH2 0x59BC JUMP JUMPDEST PUSH2 0x467D PUSH1 0x40 MLOAD PUSH8 0x3658DA199BFA42BD DUP10 DUP3 ADD MSTORE DUP9 DUP2 MSTORE PUSH2 0x57FC JUMP JUMPDEST PUSH2 0x4698 PUSH1 0x40 MLOAD PUSH8 0x241C4EDA086D7578 DUP10 DUP3 ADD MSTORE DUP9 DUP2 MSTORE PUSH2 0x57FC JUMP JUMPDEST PUSH2 0x46B3 PUSH1 0x40 MLOAD PUSH8 0x64EB18E7071E3087 DUP10 DUP3 ADD MSTORE DUP9 DUP2 MSTORE PUSH2 0x57FC JUMP JUMPDEST PUSH2 0x46CE PUSH1 0x40 MLOAD PUSH8 0xF04EA7BAB18BD913 DUP10 DUP3 ADD MSTORE DUP9 DUP2 MSTORE PUSH2 0x57FC JUMP JUMPDEST PUSH2 0x46E9 PUSH1 0x40 MLOAD PUSH8 0x72F1FCE2D819DC1D DUP10 DUP3 ADD MSTORE DUP9 DUP2 MSTORE PUSH2 0x57FC JUMP JUMPDEST PUSH2 0x4704 PUSH1 0x40 MLOAD PUSH8 0x501115ED5AD84E55 DUP10 DUP3 ADD MSTORE DUP9 DUP2 MSTORE PUSH2 0x57FC JUMP JUMPDEST PUSH2 0x471F PUSH1 0x40 MLOAD PUSH8 0x9B9CE79CCB76AEB6 DUP10 DUP3 ADD MSTORE DUP9 DUP2 MSTORE PUSH2 0x57FC JUMP JUMPDEST DUP5 ISZERO DUP1 PUSH2 0x4A18 JUMPI JUMPDEST DUP1 ISZERO PUSH2 0x49BB JUMPI JUMPDEST DUP1 ISZERO PUSH2 0x495E JUMPI JUMPDEST DUP1 ISZERO PUSH2 0x4901 JUMPI JUMPDEST DUP1 ISZERO PUSH2 0x48D1 JUMPI JUMPDEST ISZERO PUSH2 0x477F JUMPI PUSH2 0x53D DUP8 PUSH2 0x4767 PUSH1 0x40 MLOAD PUSH8 0x6E92BE53D34169A5 DUP4 DUP3 ADD MSTORE DUP3 DUP2 MSTORE PUSH2 0x57FC JUMP JUMPDEST PUSH1 0x40 MLOAD SWAP1 PUSH8 0x45CA32FC48CF2DDB DUP2 DUP4 ADD MSTORE DUP2 MSTORE PUSH2 0x57FC JUMP JUMPDEST PUSH1 0xC0 SWAP6 SWAP8 PUSH32 0xB4E1FBEB0FFBFE92679BDF67BEBEDA0B781E7A37849484C69D99695F31E4B029 SWAP8 PUSH2 0x47C0 PUSH1 0x40 MLOAD PUSH8 0x3670E6460FE74B17 DUP4 DUP3 ADD MSTORE DUP3 DUP2 MSTORE PUSH2 0x57FC JUMP JUMPDEST PUSH2 0x47DB PUSH1 0x40 MLOAD PUSH8 0x7D538B8B57CAC572 DUP4 DUP3 ADD MSTORE DUP3 DUP2 MSTORE PUSH2 0x57FC JUMP JUMPDEST DUP7 PUSH1 0x2 SSTORE PUSH2 0x47FA PUSH1 0x40 MLOAD PUSH8 0x6A171BCA9A52A09 DUP4 DUP3 ADD MSTORE DUP3 DUP2 MSTORE PUSH2 0x57FC JUMP JUMPDEST DUP2 PUSH1 0x3 SSTORE PUSH2 0x4819 PUSH1 0x40 MLOAD PUSH8 0xC0A371AD12C4D983 DUP4 DUP3 ADD MSTORE DUP3 DUP2 MSTORE PUSH2 0x57FC JUMP JUMPDEST DUP3 PUSH1 0x4 SSTORE PUSH2 0x4838 PUSH1 0x40 MLOAD PUSH8 0x48A59A8B5A466BA5 DUP4 DUP3 ADD MSTORE DUP3 DUP2 MSTORE PUSH2 0x57FC JUMP JUMPDEST DUP4 PUSH1 0x5 SSTORE PUSH2 0x4857 PUSH1 0x40 MLOAD PUSH8 0x636D5F63E4EC27EA DUP4 DUP3 ADD MSTORE DUP3 DUP2 MSTORE PUSH2 0x57FC JUMP JUMPDEST DUP5 PUSH1 0x6 SSTORE PUSH2 0x4876 PUSH1 0x40 MLOAD PUSH8 0xE239FAE5052EB038 DUP4 DUP3 ADD MSTORE DUP3 DUP2 MSTORE PUSH2 0x57FC JUMP JUMPDEST DUP6 PUSH1 0x7 SSTORE PUSH2 0x4895 PUSH1 0x40 MLOAD PUSH8 0x7513DBD1176A1130 DUP4 DUP3 ADD MSTORE DUP3 DUP2 MSTORE PUSH2 0x57FC JUMP JUMPDEST PUSH2 0x48B0 PUSH1 0x40 MLOAD PUSH8 0x1C61ECBA1DDE319E DUP4 DUP3 ADD MSTORE DUP3 DUP2 MSTORE PUSH2 0x57FC JUMP JUMPDEST PUSH1 0x40 MLOAD SWAP7 DUP8 MSTORE DUP7 ADD MSTORE PUSH1 0x40 DUP6 ADD MSTORE PUSH1 0x60 DUP5 ADD MSTORE PUSH1 0x80 DUP4 ADD MSTORE PUSH1 0xA0 DUP3 ADD MSTORE LOG1 DUP1 RETURN JUMPDEST POP DUP4 ISZERO DUP1 ISZERO PUSH2 0x4743 JUMPI POP PUSH1 0x40 MLOAD PUSH8 0xF30DF79F4678905F PUSH1 0xC0 SHL DUP9 DUP3 ADD MSTORE DUP8 DUP2 MSTORE PUSH2 0x48FA SWAP1 PUSH2 0x57FC JUMP JUMPDEST PUSH1 0x1 PUSH2 0x4743 JUMP JUMPDEST POP DUP3 ISZERO DUP1 PUSH2 0x4937 JUMPI JUMPDEST DUP1 ISZERO PUSH2 0x473C JUMPI POP PUSH1 0x40 MLOAD PUSH8 0x3D6E3E8884F015FB PUSH1 0xC2 SHL DUP9 DUP3 ADD MSTORE DUP8 DUP2 MSTORE PUSH2 0x4930 SWAP1 PUSH2 0x57FC JUMP JUMPDEST PUSH1 0x1 PUSH2 0x473C JUMP JUMPDEST POP PUSH1 0x40 MLOAD PUSH8 0x27E12BDA275E2E37 PUSH1 0xC0 SHL DUP9 DUP3 ADD MSTORE DUP8 DUP2 MSTORE PUSH2 0x4957 SWAP1 PUSH2 0x57FC JUMP JUMPDEST PUSH1 0x1 PUSH2 0x490A JUMP JUMPDEST POP DUP1 ISZERO DUP1 PUSH2 0x4994 JUMPI JUMPDEST DUP1 ISZERO PUSH2 0x4735 JUMPI POP PUSH1 0x40 MLOAD PUSH8 0x65D65609D6537AD PUSH1 0xC4 SHL DUP9 DUP3 ADD MSTORE DUP8 DUP2 MSTORE PUSH2 0x498D SWAP1 PUSH2 0x57FC JUMP JUMPDEST PUSH1 0x1 PUSH2 0x4735 JUMP JUMPDEST POP PUSH1 0x40 MLOAD PUSH8 0x109F800444CCFB09 PUSH1 0xC3 SHL DUP9 DUP3 ADD MSTORE DUP8 DUP2 MSTORE PUSH2 0x49B4 SWAP1 PUSH2 0x57FC JUMP JUMPDEST PUSH1 0x1 PUSH2 0x4967 JUMP JUMPDEST POP DUP8 ISZERO DUP1 PUSH2 0x49F1 JUMPI JUMPDEST DUP1 ISZERO PUSH2 0x472E JUMPI POP PUSH1 0x40 MLOAD PUSH8 0x213400D122B39441 PUSH1 0xC1 SHL DUP9 DUP3 ADD MSTORE DUP8 DUP2 MSTORE PUSH2 0x49EA SWAP1 PUSH2 0x57FC JUMP JUMPDEST PUSH1 0x1 PUSH2 0x472E JUMP JUMPDEST POP PUSH1 0x40 MLOAD PUSH8 0x3BED8DA6694BCB2D PUSH1 0xC2 SHL DUP9 DUP3 ADD MSTORE DUP8 DUP2 MSTORE PUSH2 0x4A11 SWAP1 PUSH2 0x57FC JUMP JUMPDEST PUSH1 0x1 PUSH2 0x49C4 JUMP JUMPDEST POP PUSH1 0x40 MLOAD PUSH7 0x161A8AA4221611 PUSH1 0xC8 SHL DUP9 DUP3 ADD MSTORE DUP8 DUP2 MSTORE PUSH2 0x4A37 SWAP1 PUSH2 0x57FC JUMP JUMPDEST PUSH1 0x1 PUSH2 0x4727 JUMP JUMPDEST POP CALLVALUE PUSH2 0x22E JUMPI PUSH1 0x40 CALLDATASIZE PUSH1 0x3 NOT ADD SLT PUSH2 0x22E JUMPI PUSH2 0x4A58 PUSH2 0x5943 JUMP JUMPDEST PUSH1 0x24 CALLDATALOAD SWAP1 PUSH1 0x40 MLOAD SWAP2 PUSH2 0x4A7B PUSH1 0x20 SWAP4 PUSH8 0xC7B91E2F5E27FFAA DUP6 DUP3 ADD MSTORE DUP5 DUP2 MSTORE PUSH2 0x57FC JUMP JUMPDEST PUSH2 0x4A83 PUSH2 0x59BC JUMP JUMPDEST PUSH2 0x4A9E PUSH1 0x40 MLOAD PUSH8 0xE8CC9D9F122EA360 DUP6 DUP3 ADD MSTORE DUP5 DUP2 MSTORE PUSH2 0x57FC JUMP JUMPDEST PUSH2 0x4AB9 PUSH1 0x40 MLOAD PUSH8 0x52B3E9DB0046E458 DUP6 DUP3 ADD MSTORE DUP5 DUP2 MSTORE PUSH2 0x57FC JUMP JUMPDEST PUSH2 0x4AD4 PUSH1 0x40 MLOAD PUSH8 0xCAFF5DBDF60C946A DUP6 DUP3 ADD MSTORE DUP5 DUP2 MSTORE PUSH2 0x57FC JUMP JUMPDEST PUSH2 0x4AEF PUSH1 0x40 MLOAD PUSH8 0xEE7575C804DD005C DUP6 DUP3 ADD MSTORE DUP5 DUP2 MSTORE PUSH2 0x57FC JUMP JUMPDEST PUSH1 0x1 PUSH1 0x1 PUSH1 0xA0 SHL SUB DUP3 DUP2 AND ISZERO DUP1 PUSH2 0x4C64 JUMPI JUMPDEST DUP1 ISZERO PUSH2 0x4C34 JUMPI JUMPDEST ISZERO PUSH2 0x4B44 JUMPI PUSH2 0x53D DUP5 PUSH2 0x4B2C PUSH1 0x40 MLOAD PUSH8 0x6E7F3419359B5202 DUP4 DUP3 ADD MSTORE DUP3 DUP2 MSTORE PUSH2 0x57FC JUMP JUMPDEST PUSH1 0x40 MLOAD SWAP1 PUSH8 0x6514B312211D531C DUP2 DUP4 ADD MSTORE DUP2 MSTORE PUSH2 0x57FC JUMP JUMPDEST PUSH2 0x4B98 DUP6 SWAP4 SWAP5 PUSH2 0x4B65 PUSH1 0x40 MLOAD PUSH8 0x5E32A81147640BBC DUP4 DUP3 ADD MSTORE DUP3 DUP2 MSTORE PUSH2 0x57FC JUMP JUMPDEST PUSH2 0x4B80 PUSH1 0x40 MLOAD PUSH8 0x9D9593F6FA3EA3F6 DUP4 DUP3 ADD MSTORE DUP3 DUP2 MSTORE PUSH2 0x57FC JUMP JUMPDEST PUSH1 0x40 MLOAD SWAP1 PUSH8 0xD12B7DBB4A56F998 DUP2 DUP4 ADD MSTORE DUP2 MSTORE PUSH2 0x57FC JUMP JUMPDEST PUSH32 0x0 AND DUP1 EXTCODESIZE ISZERO PUSH2 0x3713 JUMPI PUSH1 0x40 MLOAD PUSH4 0x40C10F19 PUSH1 0xE0 SHL DUP2 MSTORE PUSH1 0x1 PUSH1 0x1 PUSH1 0xA0 SHL SUB SWAP5 SWAP1 SWAP5 AND PUSH1 0x4 DUP6 ADD MSTORE PUSH1 0x24 DUP5 ADD SWAP2 SWAP1 SWAP2 MSTORE DUP3 SWAP1 PUSH1 0x44 SWAP1 DUP3 SWAP1 DUP5 SWAP1 GAS CALL DUP1 ISZERO PUSH2 0x4C29 JUMPI PUSH2 0x4C00 JUMPI POP DUP1 RETURN JUMPDEST PUSH8 0xFFFFFFFFFFFFFFFF DUP2 GT PUSH2 0x4C15 JUMPI PUSH1 0x40 MSTORE DUP1 RETURN JUMPDEST PUSH4 0x4E487B71 PUSH1 0xE0 SHL DUP3 MSTORE PUSH1 0x41 PUSH1 0x4 MSTORE PUSH1 0x24 DUP3 REVERT JUMPDEST PUSH1 0x40 MLOAD RETURNDATASIZE DUP5 DUP3 RETURNDATACOPY RETURNDATASIZE SWAP1 REVERT JUMPDEST POP DUP2 ISZERO DUP1 ISZERO PUSH2 0x4B08 JUMPI POP PUSH1 0x40 MLOAD PUSH8 0x42E008685AB6371 PUSH1 0xC4 SHL DUP6 DUP3 ADD MSTORE DUP5 DUP2 MSTORE PUSH2 0x4C5D SWAP1 PUSH2 0x57FC JUMP JUMPDEST PUSH1 0x1 PUSH2 0x4B08 JUMP JUMPDEST POP PUSH1 0x40 MLOAD PUSH8 0x640AF29D2D236E2D PUSH1 0xC1 SHL DUP6 DUP3 ADD MSTORE DUP5 DUP2 MSTORE PUSH2 0x4C84 SWAP1 PUSH2 0x57FC JUMP JUMPDEST PUSH1 0x1 PUSH2 0x4B01 JUMP JUMPDEST POP CALLVALUE PUSH2 0x22E JUMPI DUP1 PUSH1 0x3 NOT CALLDATASIZE ADD SLT PUSH2 0x22E JUMPI PUSH1 0x20 PUSH1 0x4 SLOAD PUSH1 0x40 MLOAD SWAP1 DUP2 MSTORE RETURN JUMPDEST POP CALLVALUE PUSH2 0x22E JUMPI PUSH1 0x20 CALLDATASIZE PUSH1 0x3 NOT ADD SLT PUSH2 0x22E JUMPI PUSH1 0x40 SWAP1 DUP2 SWAP1 PUSH1 0x1 PUSH1 0x1 PUSH1 0xA0 SHL SUB PUSH2 0x4CD0 PUSH2 0x5943 JUMP JUMPDEST AND DUP2 MSTORE PUSH1 0xF PUSH1 0x20 MSTORE KECCAK256 PUSH1 0x1 DUP2 SLOAD SWAP2 ADD SLOAD DUP3 MLOAD SWAP2 DUP3 MSTORE PUSH1 0x20 DUP3 ADD MSTORE RETURN JUMPDEST POP CALLVALUE PUSH2 0x22E JUMPI PUSH1 0x20 DUP1 PUSH1 0x3 NOT CALLDATASIZE ADD SLT PUSH2 0x851 JUMPI PUSH1 0x4 CALLDATALOAD PUSH2 0x4D1D PUSH1 0x40 MLOAD PUSH8 0x7762C8942AC4671 DUP5 DUP3 ADD MSTORE DUP4 DUP2 MSTORE PUSH2 0x57FC JUMP JUMPDEST PUSH2 0x4D38 PUSH1 0x40 MLOAD PUSH8 0x23A6AA57F260CEE6 DUP5 DUP3 ADD MSTORE DUP4 DUP2 MSTORE PUSH2 0x57FC JUMP JUMPDEST PUSH2 0x4D53 PUSH1 0x40 MLOAD PUSH8 0x38F9D058737588AA DUP5 DUP3 ADD MSTORE DUP4 DUP2 MSTORE PUSH2 0x57FC JUMP JUMPDEST PUSH2 0x4D6E PUSH1 0x40 MLOAD PUSH8 0x98DBD418D87FB6D3 DUP5 DUP3 ADD MSTORE DUP4 DUP2 MSTORE PUSH2 0x57FC JUMP JUMPDEST PUSH1 0x1 SLOAD PUSH1 0xFF DUP2 PUSH1 0xA0 SHR AND PUSH1 0x0 EQ PUSH2 0x4D9E JUMPI PUSH2 0x3A4 DUP4 PUSH2 0x38C PUSH1 0x40 MLOAD PUSH8 0x6D22A1603CC66AF DUP4 DUP3 ADD MSTORE DUP3 DUP2 MSTORE PUSH2 0x57FC JUMP JUMPDEST PUSH2 0x4DB9 PUSH1 0x40 MLOAD PUSH8 0x3392708B065C4978 DUP6 DUP3 ADD MSTORE DUP5 DUP2 MSTORE PUSH2 0x57FC JUMP JUMPDEST PUSH2 0x4DD4 PUSH1 0x40 MLOAD PUSH8 0x215F2BCED65EB339 DUP6 DUP3 ADD MSTORE DUP5 DUP2 MSTORE PUSH2 0x57FC JUMP JUMPDEST PUSH2 0x4DEF PUSH1 0x40 MLOAD PUSH8 0x71A6B24264EC116E DUP6 DUP3 ADD MSTORE DUP5 DUP2 MSTORE PUSH2 0x57FC JUMP JUMPDEST PUSH1 0x1 PUSH1 0x1 PUSH1 0xA0 SHL SUB SWAP1 DUP2 AND PUSH2 0x4E1D JUMPI PUSH2 0x44D DUP4 PUSH2 0x435 PUSH1 0x40 MLOAD PUSH8 0xF4DBDB29E7311B48 DUP4 DUP3 ADD MSTORE DUP3 DUP2 MSTORE PUSH2 0x57FC JUMP JUMPDEST PUSH2 0x4E38 PUSH1 0x40 MLOAD PUSH8 0x9876C41EF0CCDF57 DUP6 DUP3 ADD MSTORE DUP5 DUP2 MSTORE PUSH2 0x57FC JUMP JUMPDEST PUSH2 0x4E53 PUSH1 0x40 MLOAD PUSH8 0x8A7063D64D1C73C8 DUP6 DUP3 ADD MSTORE DUP5 DUP2 MSTORE PUSH2 0x57FC JUMP JUMPDEST PUSH2 0x4E6E PUSH1 0x40 MLOAD PUSH8 0x64889323DBB96E10 DUP6 DUP3 ADD MSTORE DUP5 DUP2 MSTORE PUSH2 0x57FC JUMP JUMPDEST PUSH2 0x4E89 PUSH1 0x40 MLOAD PUSH8 0xB7031EC4DCFF75B DUP6 DUP3 ADD MSTORE DUP5 DUP2 MSTORE PUSH2 0x57FC JUMP JUMPDEST PUSH2 0x4EA4 PUSH1 0x40 MLOAD PUSH8 0x3D957D460F9E15D2 DUP6 DUP3 ADD MSTORE DUP5 DUP2 MSTORE PUSH2 0x57FC JUMP JUMPDEST PUSH2 0x4EBF PUSH1 0x40 MLOAD PUSH8 0xB2F718766D22C1B7 DUP6 DUP3 ADD MSTORE DUP5 DUP2 MSTORE PUSH2 0x57FC JUMP JUMPDEST CALLER DUP5 MSTORE PUSH1 0xF DUP4 MSTORE PUSH1 0x40 DUP5 KECCAK256 PUSH2 0x4EE5 PUSH1 0x40 MLOAD PUSH8 0x89F88E05692A2854 DUP7 DUP3 ADD MSTORE DUP6 DUP2 MSTORE PUSH2 0x57FC JUMP JUMPDEST PUSH2 0x4F00 PUSH1 0x40 MLOAD PUSH8 0x398C5D272C94AB31 DUP7 DUP3 ADD MSTORE DUP6 DUP2 MSTORE PUSH2 0x57FC JUMP JUMPDEST DUP3 ISZERO DUP1 PUSH2 0x51D7 JUMPI JUMPDEST DUP1 ISZERO PUSH2 0x51A5 JUMPI JUMPDEST ISZERO PUSH2 0x4F4B JUMPI PUSH2 0x133E DUP5 PUSH2 0x4F33 PUSH1 0x40 MLOAD PUSH8 0xF4E6B19D994B5771 DUP4 DUP3 ADD MSTORE DUP3 DUP2 MSTORE PUSH2 0x57FC JUMP JUMPDEST PUSH1 0x40 MLOAD SWAP1 PUSH8 0xE999C6A05FB33702 DUP2 DUP4 ADD MSTORE DUP2 MSTORE PUSH2 0x57FC JUMP JUMPDEST PUSH2 0x4F66 PUSH1 0x40 MLOAD PUSH8 0x760708DA34AE4815 DUP7 DUP3 ADD MSTORE DUP6 DUP2 MSTORE PUSH2 0x57FC JUMP JUMPDEST PUSH2 0x4F81 PUSH1 0x40 MLOAD PUSH8 0x9E3857EE535A3BEA DUP7 DUP3 ADD MSTORE DUP6 DUP2 MSTORE PUSH2 0x57FC JUMP JUMPDEST PUSH2 0x4F9C PUSH1 0x40 MLOAD PUSH8 0x8E061FCAF6DA98C2 DUP7 DUP3 ADD MSTORE DUP6 DUP2 MSTORE PUSH2 0x57FC JUMP JUMPDEST PUSH2 0x4FAD PUSH1 0x1 DUP3 ADD SLOAD PUSH1 0x5 SLOAD SWAP1 PUSH2 0x5A77 JUMP JUMPDEST TIMESTAMP LT ISZERO PUSH2 0x4FEB JUMPI PUSH2 0x40EB DUP5 PUSH2 0x4FD3 PUSH1 0x40 MLOAD PUSH8 0x139BA8B456039AD6 DUP4 DUP3 ADD MSTORE DUP3 DUP2 MSTORE PUSH2 0x57FC JUMP JUMPDEST PUSH1 0x40 MLOAD SWAP1 PUSH8 0xAD10D7C76325B1A7 DUP2 DUP4 ADD MSTORE DUP2 MSTORE PUSH2 0x57FC JUMP JUMPDEST SWAP3 DUP5 SWAP4 PUSH2 0x5009 PUSH1 0x40 MLOAD PUSH8 0xE57474E6FFC9384D DUP5 DUP3 ADD MSTORE DUP4 DUP2 MSTORE PUSH2 0x57FC JUMP JUMPDEST PUSH2 0x5024 PUSH1 0x40 MLOAD PUSH8 0x18C63C97483F193 DUP5 DUP3 ADD MSTORE DUP4 DUP2 MSTORE PUSH2 0x57FC JUMP JUMPDEST PUSH2 0x502F DUP5 DUP3 SLOAD PUSH2 0x5A84 JUMP JUMPDEST SWAP1 SSTORE PUSH2 0x504C PUSH1 0x40 MLOAD PUSH8 0x3241A186E8CC8395 DUP4 DUP3 ADD MSTORE DUP3 DUP2 MSTORE PUSH2 0x57FC JUMP JUMPDEST PUSH2 0x5067 PUSH1 0x40 MLOAD PUSH8 0x4FF7EB1DE56A4DB0 DUP4 DUP3 ADD MSTORE DUP3 DUP2 MSTORE PUSH2 0x57FC JUMP JUMPDEST PUSH1 0x40 MLOAD PUSH4 0xA9059CBB PUSH1 0xE0 SHL DUP2 MSTORE CALLER PUSH1 0x4 DUP3 ADD MSTORE PUSH1 0x24 DUP2 ADD DUP5 SWAP1 MSTORE SWAP2 DUP2 SWAP1 DUP4 SWAP1 PUSH1 0x44 SWAP1 DUP3 SWAP1 DUP9 SWAP1 PUSH32 0x0 AND GAS CALL SWAP2 DUP3 ISZERO PUSH2 0x846 JUMPI PUSH32 0xB09985BF5DF21E3DEE7A7E607CDCFF3C444BB813524E2BAD65F649B400056B0A SWAP3 PUSH2 0x5137 SWAP2 DUP7 SWAP2 PUSH2 0x5188 JUMPI JUMPDEST POP PUSH2 0x5101 PUSH1 0x40 MLOAD PUSH8 0x53B8207C169F402D DUP6 DUP3 ADD MSTORE DUP5 DUP2 MSTORE PUSH2 0x57FC JUMP JUMPDEST PUSH2 0x511C PUSH1 0x40 MLOAD PUSH8 0x8A0B6D608531813C DUP6 DUP3 ADD MSTORE DUP5 DUP2 MSTORE PUSH2 0x57FC JUMP JUMPDEST PUSH2 0x7B7 PUSH1 0x40 MLOAD PUSH8 0x8AD699C54ABBA7CD DUP6 DUP3 ADD MSTORE DUP5 DUP2 MSTORE PUSH2 0x57FC JUMP JUMPDEST PUSH2 0x5152 PUSH1 0x40 MLOAD PUSH8 0x314AFE48CE329ADA DUP4 DUP3 ADD MSTORE DUP3 DUP2 MSTORE PUSH2 0x57FC JUMP JUMPDEST PUSH2 0x516D PUSH1 0x40 MLOAD PUSH8 0x3F5F5EF68C954294 DUP4 DUP3 ADD MSTORE DUP3 DUP2 MSTORE PUSH2 0x57FC JUMP JUMPDEST PUSH2 0x80D PUSH1 0x40 MLOAD PUSH8 0xED3CFC7A55868F69 DUP4 DUP3 ADD MSTORE DUP3 DUP2 MSTORE PUSH2 0x57FC JUMP JUMPDEST PUSH2 0x519F SWAP2 POP DUP4 RETURNDATASIZE DUP6 GT PUSH2 0x83F JUMPI PUSH2 0x831 DUP2 DUP4 PUSH2 0x5818 JUMP JUMPDEST DUP7 PUSH2 0x50E5 JUMP JUMPDEST POP DUP1 SLOAD DUP4 GT DUP1 ISZERO PUSH2 0x4F0F JUMPI POP PUSH1 0x40 MLOAD PUSH8 0x4B036BD3F87FF1A9 PUSH1 0xC1 SHL DUP6 DUP3 ADD MSTORE DUP5 DUP2 MSTORE PUSH2 0x51D0 SWAP1 PUSH2 0x57FC JUMP JUMPDEST PUSH1 0x1 PUSH2 0x4F0F JUMP JUMPDEST POP PUSH1 0x40 MLOAD PUSH8 0x351812ACD023BB41 PUSH1 0xC0 SHL DUP6 DUP3 ADD MSTORE DUP5 DUP2 MSTORE PUSH2 0x51F7 SWAP1 PUSH2 0x57FC JUMP JUMPDEST PUSH1 0x1 PUSH2 0x4F08 JUMP JUMPDEST POP CALLVALUE PUSH2 0x22E JUMPI DUP1 PUSH1 0x3 NOT CALLDATASIZE ADD SLT PUSH2 0x22E JUMPI PUSH1 0x20 PUSH1 0x2 SLOAD PUSH1 0x40 MLOAD SWAP1 DUP2 MSTORE RETURN JUMPDEST POP CALLVALUE PUSH2 0x22E JUMPI PUSH1 0x20 CALLDATASIZE PUSH1 0x3 NOT ADD SLT PUSH2 0x22E JUMPI PUSH1 0x4 CALLDATALOAD DUP2 MSTORE PUSH1 0xC PUSH1 0x20 MSTORE PUSH1 0x40 SWAP1 KECCAK256 DUP1 SLOAD PUSH1 0x1 DUP3 ADD SLOAD PUSH1 0x1 PUSH1 0x1 PUSH1 0xA0 SHL SUB SWAP1 DUP2 AND SWAP3 SWAP1 PUSH2 0x525C PUSH1 0x2 DUP4 ADD PUSH2 0x583A JUMP JUMPDEST SWAP1 PUSH2 0x5269 PUSH1 0x3 DUP5 ADD PUSH2 0x583A JUMP JUMPDEST SWAP3 PUSH1 0x4 DUP2 ADD SLOAD SWAP4 PUSH1 0x5 DUP3 ADD SLOAD PUSH1 0x6 DUP4 ADD SLOAD SWAP1 PUSH2 0x52C0 PUSH1 0x7 DUP6 ADD SLOAD SWAP4 PUSH2 0x52B2 PUSH1 0x9 PUSH1 0x8 DUP9 ADD SLOAD SWAP8 ADD SLOAD SWAP9 PUSH1 0x40 MLOAD SWAP13 DUP14 SWAP13 DUP14 MSTORE PUSH1 0x20 DUP14 ADD MSTORE PUSH1 0x40 DUP13 PUSH2 0x1A0 SWAP2 DUP3 SWAP2 ADD MSTORE DUP13 ADD SWAP1 PUSH2 0x58E0 JUMP JUMPDEST SWAP1 DUP11 DUP3 SUB PUSH1 0x60 DUP13 ADD MSTORE PUSH2 0x58E0 JUMP JUMPDEST SWAP7 PUSH1 0x80 DUP10 ADD MSTORE PUSH1 0xA0 DUP9 ADD MSTORE PUSH1 0xC0 DUP8 ADD MSTORE PUSH1 0xE0 DUP7 ADD MSTORE PUSH2 0x52E6 PUSH2 0x100 DUP7 ADD PUSH1 0xFF DUP4 AND PUSH2 0x5920 JUMP JUMPDEST PUSH1 0xFF DUP2 PUSH1 0x8 SHR AND ISZERO ISZERO PUSH2 0x120 DUP7 ADD MSTORE PUSH1 0xFF DUP2 PUSH1 0x10 SHR AND ISZERO ISZERO PUSH2 0x140 DUP7 ADD MSTORE PUSH1 0x18 SHR AND PUSH2 0x160 DUP5 ADD MSTORE PUSH2 0x180 DUP4 ADD MSTORE SUB SWAP1 RETURN JUMPDEST DUP3 CALLVALUE PUSH2 0x22E JUMPI PUSH1 0x20 SWAP2 DUP3 PUSH1 0x3 NOT CALLDATASIZE ADD SLT PUSH2 0x851 JUMPI PUSH2 0x5348 PUSH1 0x4 CALLDATALOAD SWAP2 PUSH8 0xB69614F8FBDD8A93 DUP6 DUP3 ADD MSTORE DUP5 DUP2 MSTORE PUSH2 0x57FC JUMP JUMPDEST PUSH2 0x5363 PUSH1 0x40 MLOAD PUSH8 0xB88599DF8FBB722D DUP6 DUP3 ADD MSTORE DUP5 DUP2 MSTORE PUSH2 0x57FC JUMP JUMPDEST PUSH2 0x537E PUSH1 0x40 MLOAD PUSH8 0xEFC5B836E8513631 DUP6 DUP3 ADD MSTORE DUP5 DUP2 MSTORE PUSH2 0x57FC JUMP JUMPDEST DUP1 DUP3 MSTORE PUSH1 0xC DUP4 MSTORE PUSH1 0x40 DUP3 KECCAK256 SWAP1 PUSH2 0x53A5 PUSH1 0x40 MLOAD PUSH8 0xE9E0B355B7E15D80 DUP7 DUP3 ADD MSTORE DUP6 DUP2 MSTORE PUSH2 0x57FC JUMP JUMPDEST PUSH2 0x53C0 PUSH1 0x40 MLOAD PUSH8 0x10C1B8221AD03983 DUP7 DUP3 ADD MSTORE DUP6 DUP2 MSTORE PUSH2 0x57FC JUMP JUMPDEST PUSH1 0x8 DUP3 ADD SWAP2 DUP3 SLOAD SWAP3 PUSH1 0xFF DUP5 PUSH1 0x10 SHR AND ISZERO PUSH1 0x0 EQ PUSH2 0x540E JUMPI PUSH2 0x1C52 DUP7 PUSH2 0x53F6 PUSH1 0x40 MLOAD PUSH8 0x506837F37F6470A8 DUP4 DUP3 ADD MSTORE DUP3 DUP2 MSTORE PUSH2 0x57FC JUMP JUMPDEST PUSH1 0x40 MLOAD SWAP1 PUSH8 0x2060F771264DA005 DUP2 DUP4 ADD MSTORE DUP2 MSTORE PUSH2 0x57FC JUMP JUMPDEST PUSH2 0x5429 PUSH1 0x40 MLOAD PUSH8 0x99C55EC7E23BCF27 DUP9 DUP3 ADD MSTORE DUP8 DUP2 MSTORE PUSH2 0x57FC JUMP JUMPDEST PUSH2 0x5444 PUSH1 0x40 MLOAD PUSH8 0x53B1F328E5AFD1B7 DUP9 DUP3 ADD MSTORE DUP8 DUP2 MSTORE PUSH2 0x57FC JUMP JUMPDEST PUSH2 0x545F PUSH1 0x40 MLOAD PUSH8 0x98F9400EEB3219A2 DUP9 DUP3 ADD MSTORE DUP8 DUP2 MSTORE PUSH2 0x57FC JUMP JUMPDEST PUSH1 0xFF DUP5 AND PUSH1 0x3 DUP2 LT ISZERO PUSH2 0x5791 JUMPI PUSH1 0x1 EQ ISZERO DUP1 PUSH2 0x576A JUMPI JUMPDEST DUP1 ISZERO PUSH2 0x5735 JUMPI JUMPDEST ISZERO PUSH2 0x54CB JUMPI PUSH2 0x54B9 DUP7 PUSH2 0x54A1 PUSH1 0x40 MLOAD PUSH8 0x9E217A90412808D3 DUP4 DUP3 ADD MSTORE DUP3 DUP2 MSTORE PUSH2 0x57FC JUMP JUMPDEST PUSH1 0x40 MLOAD SWAP1 PUSH8 0x129AEBD5E867F7E3 DUP2 DUP4 ADD MSTORE DUP2 MSTORE PUSH2 0x57FC JUMP JUMPDEST PUSH1 0x40 MLOAD PUSH4 0x3C7E9945 PUSH1 0xE1 SHL DUP2 MSTORE PUSH1 0x4 SWAP1 REVERT JUMPDEST PUSH2 0x54E6 PUSH1 0x40 MLOAD PUSH8 0x9EB5EB455DA4360F DUP9 DUP3 ADD MSTORE DUP8 DUP2 MSTORE PUSH2 0x57FC JUMP JUMPDEST PUSH2 0x5501 PUSH1 0x40 MLOAD PUSH8 0x3DC727588EC75B06 DUP9 DUP3 ADD MSTORE DUP8 DUP2 MSTORE PUSH2 0x57FC JUMP JUMPDEST PUSH2 0x551C PUSH1 0x40 MLOAD PUSH8 0x4094F1C690E176F7 DUP9 DUP3 ADD MSTORE DUP8 DUP2 MSTORE PUSH2 0x57FC JUMP JUMPDEST PUSH1 0x9 SELFBALANCE SWAP3 ADD SWAP4 DUP5 SLOAD DUP1 SWAP4 LT PUSH1 0x0 EQ PUSH2 0x5565 JUMPI PUSH2 0x1C52 DUP8 PUSH2 0x554D PUSH1 0x40 MLOAD PUSH8 0xEBBD16763FBAC338 DUP4 DUP3 ADD MSTORE DUP3 DUP2 MSTORE PUSH2 0x57FC JUMP JUMPDEST PUSH1 0x40 MLOAD SWAP1 PUSH8 0xD9A1E3AA7878471E DUP2 DUP4 ADD MSTORE DUP2 MSTORE PUSH2 0x57FC JUMP JUMPDEST SWAP1 DUP6 DUP1 DUP1 DUP1 PUSH2 0x100 DUP12 SWAP8 SWAP7 PUSH2 0x558B PUSH1 0x40 MLOAD PUSH8 0xA444958B10F8CFC DUP12 DUP3 ADD MSTORE DUP11 DUP2 MSTORE PUSH2 0x57FC JUMP JUMPDEST PUSH2 0x55A6 PUSH1 0x40 MLOAD PUSH8 0x4ADB9BEEEFF98983 DUP12 DUP3 ADD MSTORE DUP11 DUP2 MSTORE PUSH2 0x57FC JUMP JUMPDEST PUSH2 0xFF00 NOT AND OR SWAP6 DUP7 DUP7 SSTORE PUSH2 0x55CB PUSH1 0x40 MLOAD PUSH8 0x99847A70AA3D29EB DUP11 DUP3 ADD MSTORE DUP10 DUP2 MSTORE PUSH2 0x57FC JUMP JUMPDEST PUSH2 0x55E6 PUSH1 0x40 MLOAD PUSH8 0x30643DD6537DFD42 DUP11 DUP3 ADD MSTORE DUP10 DUP2 MSTORE PUSH2 0x57FC JUMP JUMPDEST PUSH1 0x1 PUSH1 0x1 PUSH1 0xA0 SHL SUB SWAP7 PUSH1 0x18 SHR DUP8 AND GAS CALL RETURNDATASIZE ISZERO PUSH2 0x5730 JUMPI RETURNDATASIZE PUSH2 0x5606 DUP2 PUSH2 0x5959 JUMP JUMPDEST SWAP1 PUSH2 0x5614 PUSH1 0x40 MLOAD SWAP3 DUP4 PUSH2 0x5818 JUMP JUMPDEST DUP2 MSTORE DUP8 DUP6 RETURNDATASIZE SWAP3 ADD RETURNDATACOPY JUMPDEST PUSH2 0x5638 PUSH1 0x40 MLOAD PUSH8 0x8D6CB4DFB56BEDED DUP7 DUP3 ADD MSTORE DUP6 DUP2 MSTORE PUSH2 0x57FC JUMP JUMPDEST PUSH2 0x5653 PUSH1 0x40 MLOAD PUSH8 0xDF3ADCF9D35D3266 DUP7 DUP3 ADD MSTORE DUP6 DUP2 MSTORE PUSH2 0x57FC JUMP JUMPDEST PUSH2 0x566E PUSH1 0x40 MLOAD PUSH8 0x5635A33FE9964419 DUP7 DUP3 ADD MSTORE DUP6 DUP2 MSTORE PUSH2 0x57FC JUMP JUMPDEST ISZERO PUSH2 0x56F9 JUMPI SWAP1 PUSH32 0xBB768AA97FA4E8A8F73BFA7BC210F1A29F29C765D44F0C29ACC04A549E32E43 SWAP3 SWAP2 PUSH2 0x56B2 PUSH1 0x40 MLOAD PUSH8 0xC965C9FF48E60EA7 DUP6 DUP3 ADD MSTORE DUP5 DUP2 MSTORE PUSH2 0x57FC JUMP JUMPDEST PUSH2 0x56CD PUSH1 0x40 MLOAD PUSH8 0x7B073699717BD082 DUP6 DUP3 ADD MSTORE DUP5 DUP2 MSTORE PUSH2 0x57FC JUMP JUMPDEST PUSH2 0x56E8 PUSH1 0x40 MLOAD PUSH8 0x1880BB8C03BD1A0D DUP6 DUP3 ADD MSTORE DUP5 DUP2 MSTORE PUSH2 0x57FC JUMP JUMPDEST SLOAD PUSH1 0x18 SHR AND SWAP4 SLOAD PUSH1 0x40 MLOAD SWAP1 DUP2 MSTORE LOG3 DUP1 RETURN JUMPDEST PUSH1 0x40 MLOAD PUSH3 0x461BCD PUSH1 0xE5 SHL DUP2 MSTORE PUSH1 0x4 DUP2 ADD DUP5 SWAP1 MSTORE PUSH1 0xF PUSH1 0x24 DUP3 ADD MSTORE PUSH15 0x151C985B9CD9995C8819985A5B1959 PUSH1 0x8A SHL PUSH1 0x44 DUP3 ADD MSTORE PUSH1 0x64 SWAP1 REVERT JUMPDEST PUSH2 0x561D JUMP JUMPDEST POP PUSH1 0xFF DUP5 PUSH1 0x8 SHR AND DUP1 ISZERO PUSH2 0x547D JUMPI POP PUSH1 0x40 MLOAD PUSH8 0x14456DE9DB38F51B PUSH1 0xC2 SHL DUP8 DUP3 ADD MSTORE DUP7 DUP2 MSTORE PUSH2 0x5763 SWAP1 PUSH2 0x57FC JUMP JUMPDEST PUSH1 0x1 PUSH2 0x547D JUMP JUMPDEST POP PUSH1 0x40 MLOAD PUSH8 0xF82E9B96AC3101CF PUSH1 0xC0 SHL DUP8 DUP3 ADD MSTORE DUP7 DUP2 MSTORE PUSH2 0x578A SWAP1 PUSH2 0x57FC JUMP JUMPDEST PUSH1 0x1 PUSH2 0x5476 JUMP JUMPDEST PUSH4 0x4E487B71 PUSH1 0xE0 SHL DUP7 MSTORE PUSH1 0x21 PUSH1 0x4 MSTORE PUSH1 0x24 DUP7 REVERT JUMPDEST SWAP1 PUSH1 0x1 DUP3 DUP2 SHR SWAP3 AND DUP1 ISZERO PUSH2 0x57D5 JUMPI JUMPDEST PUSH1 0x20 DUP4 LT EQ PUSH2 0x57BF JUMPI JUMP JUMPDEST PUSH4 0x4E487B71 PUSH1 0xE0 SHL PUSH1 0x0 MSTORE PUSH1 0x22 PUSH1 0x4 MSTORE PUSH1 0x24 PUSH1 0x0 REVERT JUMPDEST SWAP2 PUSH1 0x7F AND SWAP2 PUSH2 0x57B4 JUMP JUMPDEST PUSH2 0x1A0 DUP2 ADD SWAP1 DUP2 LT PUSH8 0xFFFFFFFFFFFFFFFF DUP3 GT OR PUSH2 0x21E9 JUMPI PUSH1 0x40 MSTORE JUMP JUMPDEST PUSH1 0x40 DUP2 ADD SWAP1 DUP2 LT PUSH8 0xFFFFFFFFFFFFFFFF DUP3 GT OR PUSH2 0x21E9 JUMPI PUSH1 0x40 MSTORE JUMP JUMPDEST SWAP1 PUSH1 0x1F DUP1 NOT SWAP2 ADD AND DUP2 ADD SWAP1 DUP2 LT PUSH8 0xFFFFFFFFFFFFFFFF DUP3 GT OR PUSH2 0x21E9 JUMPI PUSH1 0x40 MSTORE JUMP JUMPDEST SWAP1 PUSH1 0x40 MLOAD SWAP2 DUP3 PUSH1 0x0 DUP3 SLOAD SWAP3 PUSH2 0x584E DUP5 PUSH2 0x57A5 JUMP JUMPDEST SWAP1 DUP2 DUP5 MSTORE PUSH1 0x1 SWAP5 DUP6 DUP2 AND SWAP1 DUP2 PUSH1 0x0 EQ PUSH2 0x58BD JUMPI POP PUSH1 0x1 EQ PUSH2 0x587A JUMPI JUMPDEST POP POP PUSH2 0x5878 SWAP3 POP SUB DUP4 PUSH2 0x5818 JUMP JUMPDEST JUMP JUMPDEST SWAP1 SWAP4 SWAP2 POP PUSH1 0x0 MSTORE PUSH1 0x20 SWAP1 DUP2 PUSH1 0x0 KECCAK256 SWAP4 PUSH1 0x0 SWAP2 JUMPDEST DUP2 DUP4 LT PUSH2 0x58A5 JUMPI POP POP PUSH2 0x5878 SWAP4 POP DUP3 ADD ADD CODESIZE DUP1 PUSH2 0x586A JUMP JUMPDEST DUP6 SLOAD DUP9 DUP5 ADD DUP6 ADD MSTORE SWAP5 DUP6 ADD SWAP5 DUP8 SWAP5 POP SWAP2 DUP4 ADD SWAP2 PUSH2 0x588D JUMP JUMPDEST SWAP2 POP POP PUSH2 0x5878 SWAP5 POP PUSH1 0x20 SWAP3 POP PUSH1 0xFF NOT AND DUP3 DUP5 ADD MSTORE ISZERO ISZERO PUSH1 0x5 SHL DUP3 ADD ADD CODESIZE DUP1 PUSH2 0x586A JUMP JUMPDEST SWAP2 SWAP1 DUP3 MLOAD SWAP3 DUP4 DUP3 MSTORE PUSH1 0x0 JUMPDEST DUP5 DUP2 LT PUSH2 0x590C JUMPI POP POP DUP3 PUSH1 0x0 PUSH1 0x20 DUP1 SWAP5 SWAP6 DUP5 ADD ADD MSTORE PUSH1 0x1F DUP1 NOT SWAP2 ADD AND ADD ADD SWAP1 JUMP JUMPDEST PUSH1 0x20 DUP2 DUP4 ADD DUP2 ADD MLOAD DUP5 DUP4 ADD DUP3 ADD MSTORE ADD PUSH2 0x58EB JUMP JUMPDEST SWAP1 PUSH1 0x3 DUP3 LT ISZERO PUSH2 0x592D JUMPI MSTORE JUMP JUMPDEST PUSH4 0x4E487B71 PUSH1 0xE0 SHL PUSH1 0x0 MSTORE PUSH1 0x21 PUSH1 0x4 MSTORE PUSH1 0x24 PUSH1 0x0 REVERT JUMPDEST PUSH1 0x4 CALLDATALOAD SWAP1 PUSH1 0x1 PUSH1 0x1 PUSH1 0xA0 SHL SUB DUP3 AND DUP3 SUB PUSH2 0x233B JUMPI JUMP JUMPDEST PUSH8 0xFFFFFFFFFFFFFFFF DUP2 GT PUSH2 0x21E9 JUMPI PUSH1 0x1F ADD PUSH1 0x1F NOT AND PUSH1 0x20 ADD SWAP1 JUMP JUMPDEST DUP2 PUSH1 0x1F DUP3 ADD SLT ISZERO PUSH2 0x233B JUMPI DUP1 CALLDATALOAD SWAP1 PUSH2 0x598C DUP3 PUSH2 0x5959 JUMP JUMPDEST SWAP3 PUSH2 0x599A PUSH1 0x40 MLOAD SWAP5 DUP6 PUSH2 0x5818 JUMP JUMPDEST DUP3 DUP5 MSTORE PUSH1 0x20 DUP4 DUP4 ADD ADD GT PUSH2 0x233B JUMPI DUP2 PUSH1 0x0 SWAP3 PUSH1 0x20 DUP1 SWAP4 ADD DUP4 DUP7 ADD CALLDATACOPY DUP4 ADD ADD MSTORE SWAP1 JUMP JUMPDEST PUSH1 0x0 SLOAD PUSH1 0x1 PUSH1 0x1 PUSH1 0xA0 SHL SUB AND CALLER SUB PUSH2 0x59D0 JUMPI JUMP JUMPDEST PUSH1 0x40 MLOAD PUSH4 0x118CDAA7 PUSH1 0xE0 SHL DUP2 MSTORE CALLER PUSH1 0x4 DUP3 ADD MSTORE PUSH1 0x24 SWAP1 REVERT JUMPDEST DUP2 DUP2 MUL SWAP3 SWAP2 DUP2 ISZERO SWAP2 DUP5 DIV EQ OR ISZERO PUSH2 0x22CA JUMPI JUMP JUMPDEST DUP2 ISZERO PUSH2 0x5A05 JUMPI DIV SWAP1 JUMP JUMPDEST PUSH4 0x4E487B71 PUSH1 0xE0 SHL PUSH1 0x0 MSTORE PUSH1 0x12 PUSH1 0x4 MSTORE PUSH1 0x24 PUSH1 0x0 REVERT JUMPDEST SWAP1 DUP2 PUSH1 0x20 SWAP2 SUB SLT PUSH2 0x233B JUMPI MLOAD DUP1 ISZERO ISZERO DUP2 SUB PUSH2 0x233B JUMPI SWAP1 JUMP JUMPDEST ISZERO PUSH2 0x5A3A JUMPI JUMP JUMPDEST PUSH1 0x40 MLOAD PUSH3 0x461BCD PUSH1 0xE5 SHL DUP2 MSTORE PUSH1 0x20 PUSH1 0x4 DUP3 ADD MSTORE PUSH1 0x15 PUSH1 0x24 DUP3 ADD MSTORE PUSH21 0x151BDAD95B881D1C985B9CD9995C8819985A5B1959 PUSH1 0x5A SHL PUSH1 0x44 DUP3 ADD MSTORE PUSH1 0x64 SWAP1 REVERT JUMPDEST SWAP2 SWAP1 DUP3 ADD DUP1 SWAP3 GT PUSH2 0x22CA JUMPI JUMP JUMPDEST SWAP2 SWAP1 DUP3 SUB SWAP2 DUP3 GT PUSH2 0x22CA JUMPI JUMP JUMPDEST PUSH1 0xE SWAP1 PUSH1 0x40 MLOAD SWAP1 PUSH2 0x5AB3 PUSH1 0x20 SWAP3 PUSH8 0x5A5A59E20FF71D70 DUP5 DUP3 ADD MSTORE DUP4 DUP2 MSTORE PUSH2 0x57FC JUMP JUMPDEST PUSH2 0x5ACE PUSH1 0x40 MLOAD PUSH8 0x2DE3AA10739F2579 DUP5 DUP3 ADD MSTORE DUP4 DUP2 MSTORE PUSH2 0x57FC JUMP JUMPDEST PUSH2 0x5AE9 PUSH1 0x40 MLOAD PUSH8 0x7D1E6379262B1DB2 DUP5 DUP3 ADD MSTORE DUP4 DUP2 MSTORE PUSH2 0x57FC JUMP JUMPDEST PUSH1 0x1 DUP1 PUSH1 0xA0 SHL SUB AND PUSH1 0x0 MSTORE MSTORE PUSH2 0x5B07 PUSH1 0x40 PUSH1 0x0 KECCAK256 SLOAD PUSH1 0x7 SLOAD SWAP1 PUSH2 0x59FB JUMP JUMPDEST SWAP1 JUMP INVALID LOG2 PUSH5 0x6970667358 0x22 SLT KECCAK256 0xAB 0xAE 0xBA INVALID BALANCE 0xDB KECCAK256 0xDF AND OR SWAP9 SWAP6 MSIZE SWAP5 SWAP3 0xAB 0xAA 0xD9 SSTORE EXTCODECOPY CODESIZE 0xCB 0xA6 0xE5 DIV 0xD 0xB1 0x21 NUMBER CALLER JUMPDEST SDIV PUSH5 0x736F6C6343 STOP ADDMOD EQ STOP CALLER "},"methodIdentifiers":{"approvalPercentage()":"3008d437","buyTokens()":"d0febe4c","createProposal(string,string)":"65e481e2","createTreasuryProposal(string,string,address,uint256)":"a73079ac","executeTreasuryProposal(uint256)":"007e637e","finalizeProposal(uint256)":"5652077c","getProposal(uint256)":"c7f758a8","getProposalsCount()":"98e527d3","hasVoted(uint256,address)":"43859632","minStakeForProposing()":"0d346e9a","minStakeForVoting()":"c2d66776","minStakeLockTime()":"d064a9a4","mintDaoTokens(address,uint256)":"16384686","nextProposalId()":"2ab09d14","owner()":"8da5cb5b","panicWallet()":"ad3bcade","panico()":"81e6830f","paused()":"5c975abb","proposalDuration()":"30109962","proposals(uint256)":"013cf08b","proposingStake(address)":"0a5af04b","quorumPercentage()":"4fa76ec9","renounceOwnership()":"715018a6","setPanicWallet(address)":"4091e8f0","setParameters(uint256,uint256,uint256,uint256,uint256,uint256)":"282c8749","setQuorum(uint256,uint256)":"7a3d5468","stakeForProposing(uint256)":"a028699e","stakeForVoting(uint256)":"d1b85b49","token()":"fc0c546a","tokenPriceWei()":"05d0f15b","tokensPerVotePower()":"f96df52a","totalVotingPower()":"671b3793","tranquilidad()":"97761382","transferOwnership(address)":"f2fde38b","unstakeFromProposing(uint256)":"0627d425","unstakeFromVoting(uint256)":"542ffa7b","vote(uint256,bool)":"c9d27afe","votingPower(address)":"c07473f6","votingStake(address)":"9f45b133"}}}}}