{
  "_format": "hh-sol-artifact-1",
  "contractName": "GovernanceDAO",
  "sourceName": "src/contracts/GovernanceDAO.sol",
  "abi": [
    {
      "inputs": [
        {
          "internalType": "address",
          "name": "initialOwner",
          "type": "address"
        },
        {
          "internalType": "address",
          "name": "tokenAddress",
          "type": "address"
        },
        {
          "internalType": "uint256",
          "name": "_tokenPriceWei",
          "type": "uint256"
        },
        {
          "internalType": "uint256",
          "name": "_minStakeForVoting",
          "type": "uint256"
        },
        {
          "internalType": "uint256",
          "name": "_minStakeForProposing",
          "type": "uint256"
        },
        {
          "internalType": "uint256",
          "name": "_minStakeLockTime",
          "type": "uint256"
        },
        {
          "internalType": "uint256",
          "name": "_proposalDuration",
          "type": "uint256"
        },
        {
          "internalType": "uint256",
          "name": "_tokensPerVotePower",
          "type": "uint256"
        }
      ],
      "stateMutability": "nonpayable",
      "type": "constructor"
    },
    {
      "inputs": [],
      "name": "AlreadyVoted",
      "type": "error"
    },
    {
      "inputs": [],
      "name": "DAOIsPaused",
      "type": "error"
    },
    {
      "inputs": [],
      "name": "InsufficientStake",
      "type": "error"
    },
    {
      "inputs": [],
      "name": "InvalidParameter",
      "type": "error"
    },
    {
      "inputs": [],
      "name": "InvalidProposal",
      "type": "error"
    },
    {
      "inputs": [],
      "name": "InvalidTreasuryProposal",
      "type": "error"
    },
    {
      "inputs": [],
      "name": "LockTimeNotReached",
      "type": "error"
    },
    {
      "inputs": [],
      "name": "NotPanicWallet",
      "type": "error"
    },
    {
      "inputs": [
        {
          "internalType": "address",
          "name": "owner",
          "type": "address"
        }
      ],
      "name": "OwnableInvalidOwner",
      "type": "error"
    },
    {
      "inputs": [
        {
          "internalType": "address",
          "name": "account",
          "type": "address"
        }
      ],
      "name": "OwnableUnauthorizedAccount",
      "type": "error"
    },
    {
      "inputs": [],
      "name": "PanicWalletNotSet",
      "type": "error"
    },
    {
      "inputs": [],
      "name": "ProposalNotExecutable",
      "type": "error"
    },
    {
      "inputs": [],
      "name": "VotingNotAllowed",
      "type": "error"
    },
    {
      "anonymous": false,
      "inputs": [
        {
          "indexed": true,
          "internalType": "address",
          "name": "caller",
          "type": "address"
        }
      ],
      "name": "CalmActivated",
      "type": "event"
    },
    {
      "anonymous": false,
      "inputs": [
        {
          "indexed": true,
          "internalType": "address",
          "name": "previousOwner",
          "type": "address"
        },
        {
          "indexed": true,
          "internalType": "address",
          "name": "newOwner",
          "type": "address"
        }
      ],
      "name": "OwnershipTransferred",
      "type": "event"
    },
    {
      "anonymous": false,
      "inputs": [
        {
          "indexed": true,
          "internalType": "address",
          "name": "caller",
          "type": "address"
        }
      ],
      "name": "PanicActivated",
      "type": "event"
    },
    {
      "anonymous": false,
      "inputs": [
        {
          "indexed": true,
          "internalType": "address",
          "name": "newPanicWallet",
          "type": "address"
        }
      ],
      "name": "PanicWalletUpdated",
      "type": "event"
    },
    {
      "anonymous": false,
      "inputs": [
        {
          "indexed": false,
          "internalType": "uint256",
          "name": "tokenPriceWei",
          "type": "uint256"
        },
        {
          "indexed": false,
          "internalType": "uint256",
          "name": "minStakeForVoting",
          "type": "uint256"
        },
        {
          "indexed": false,
          "internalType": "uint256",
          "name": "minStakeForProposing",
          "type": "uint256"
        },
        {
          "indexed": false,
          "internalType": "uint256",
          "name": "minStakeLockTime",
          "type": "uint256"
        },
        {
          "indexed": false,
          "internalType": "uint256",
          "name": "proposalDuration",
          "type": "uint256"
        },
        {
          "indexed": false,
          "internalType": "uint256",
          "name": "tokensPerVotePower",
          "type": "uint256"
        }
      ],
      "name": "ParametersUpdated",
      "type": "event"
    },
    {
      "anonymous": false,
      "inputs": [
        {
          "indexed": true,
          "internalType": "uint256",
          "name": "id",
          "type": "uint256"
        },
        {
          "indexed": true,
          "internalType": "address",
          "name": "proposer",
          "type": "address"
        },
        {
          "indexed": false,
          "internalType": "bool",
          "name": "isTreasury",
          "type": "bool"
        },
        {
          "indexed": false,
          "internalType": "address",
          "name": "treasuryRecipient",
          "type": "address"
        },
        {
          "indexed": false,
          "internalType": "uint256",
          "name": "treasuryAmount",
          "type": "uint256"
        }
      ],
      "name": "ProposalCreated",
      "type": "event"
    },
    {
      "anonymous": false,
      "inputs": [
        {
          "indexed": true,
          "internalType": "uint256",
          "name": "proposalId",
          "type": "uint256"
        },
        {
          "indexed": false,
          "internalType": "enum GovernanceBase.ProposalStatus",
          "name": "status",
          "type": "uint8"
        }
      ],
      "name": "ProposalFinalized",
      "type": "event"
    },
    {
      "anonymous": false,
      "inputs": [
        {
          "indexed": true,
          "internalType": "address",
          "name": "user",
          "type": "address"
        },
        {
          "indexed": false,
          "internalType": "uint256",
          "name": "amount",
          "type": "uint256"
        }
      ],
      "name": "StakedForProposing",
      "type": "event"
    },
    {
      "anonymous": false,
      "inputs": [
        {
          "indexed": true,
          "internalType": "address",
          "name": "user",
          "type": "address"
        },
        {
          "indexed": false,
          "internalType": "uint256",
          "name": "amount",
          "type": "uint256"
        }
      ],
      "name": "StakedForVoting",
      "type": "event"
    },
    {
      "anonymous": false,
      "inputs": [
        {
          "indexed": true,
          "internalType": "uint256",
          "name": "proposalId",
          "type": "uint256"
        },
        {
          "indexed": true,
          "internalType": "address",
          "name": "recipient",
          "type": "address"
        },
        {
          "indexed": false,
          "internalType": "uint256",
          "name": "amount",
          "type": "uint256"
        }
      ],
      "name": "TreasuryProposalExecuted",
      "type": "event"
    },
    {
      "anonymous": false,
      "inputs": [
        {
          "indexed": true,
          "internalType": "address",
          "name": "user",
          "type": "address"
        },
        {
          "indexed": false,
          "internalType": "uint256",
          "name": "amount",
          "type": "uint256"
        }
      ],
      "name": "UnstakedFromProposing",
      "type": "event"
    },
    {
      "anonymous": false,
      "inputs": [
        {
          "indexed": true,
          "internalType": "address",
          "name": "user",
          "type": "address"
        },
        {
          "indexed": false,
          "internalType": "uint256",
          "name": "amount",
          "type": "uint256"
        }
      ],
      "name": "UnstakedFromVoting",
      "type": "event"
    },
    {
      "anonymous": false,
      "inputs": [
        {
          "indexed": true,
          "internalType": "uint256",
          "name": "proposalId",
          "type": "uint256"
        },
        {
          "indexed": true,
          "internalType": "address",
          "name": "voter",
          "type": "address"
        },
        {
          "indexed": false,
          "internalType": "bool",
          "name": "support",
          "type": "bool"
        },
        {
          "indexed": false,
          "internalType": "uint256",
          "name": "votePower",
          "type": "uint256"
        }
      ],
      "name": "VoteCast",
      "type": "event"
    },
    {
      "stateMutability": "payable",
      "type": "fallback"
    },
    {
      "inputs": [],
      "name": "buyTokens",
      "outputs": [],
      "stateMutability": "payable",
      "type": "function"
    },
    {
      "inputs": [
        {
          "internalType": "string",
          "name": "title",
          "type": "string"
        },
        {
          "internalType": "string",
          "name": "description",
          "type": "string"
        }
      ],
      "name": "createProposal",
      "outputs": [
        {
          "internalType": "uint256",
          "name": "",
          "type": "uint256"
        }
      ],
      "stateMutability": "nonpayable",
      "type": "function"
    },
    {
      "inputs": [
        {
          "internalType": "string",
          "name": "title",
          "type": "string"
        },
        {
          "internalType": "string",
          "name": "description",
          "type": "string"
        },
        {
          "internalType": "address",
          "name": "recipient",
          "type": "address"
        },
        {
          "internalType": "uint256",
          "name": "amount",
          "type": "uint256"
        }
      ],
      "name": "createTreasuryProposal",
      "outputs": [
        {
          "internalType": "uint256",
          "name": "",
          "type": "uint256"
        }
      ],
      "stateMutability": "nonpayable",
      "type": "function"
    },
    {
      "inputs": [
        {
          "internalType": "uint256",
          "name": "proposalId",
          "type": "uint256"
        }
      ],
      "name": "executeTreasuryProposal",
      "outputs": [],
      "stateMutability": "nonpayable",
      "type": "function"
    },
    {
      "inputs": [
        {
          "internalType": "uint256",
          "name": "proposalId",
          "type": "uint256"
        }
      ],
      "name": "finalizeProposal",
      "outputs": [],
      "stateMutability": "nonpayable",
      "type": "function"
    },
    {
      "inputs": [
        {
          "internalType": "uint256",
          "name": "proposalId",
          "type": "uint256"
        }
      ],
      "name": "getProposal",
      "outputs": [
        {
          "components": [
            {
              "internalType": "uint256",
              "name": "id",
              "type": "uint256"
            },
            {
              "internalType": "address",
              "name": "proposer",
              "type": "address"
            },
            {
              "internalType": "string",
              "name": "title",
              "type": "string"
            },
            {
              "internalType": "string",
              "name": "description",
              "type": "string"
            },
            {
              "internalType": "uint256",
              "name": "startTime",
              "type": "uint256"
            },
            {
              "internalType": "uint256",
              "name": "endTime",
              "type": "uint256"
            },
            {
              "internalType": "uint256",
              "name": "forVotes",
              "type": "uint256"
            },
            {
              "internalType": "uint256",
              "name": "againstVotes",
              "type": "uint256"
            },
            {
              "internalType": "enum GovernanceBase.ProposalStatus",
              "name": "status",
              "type": "uint8"
            },
            {
              "internalType": "bool",
              "name": "executed",
              "type": "bool"
            },
            {
              "internalType": "bool",
              "name": "isTreasury",
              "type": "bool"
            },
            {
              "internalType": "address",
              "name": "treasuryRecipient",
              "type": "address"
            },
            {
              "internalType": "uint256",
              "name": "treasuryAmount",
              "type": "uint256"
            }
          ],
          "internalType": "struct GovernanceBase.Proposal",
          "name": "",
          "type": "tuple"
        }
      ],
      "stateMutability": "view",
      "type": "function"
    },
    {
      "inputs": [],
      "name": "getProposalsCount",
      "outputs": [
        {
          "internalType": "uint256",
          "name": "",
          "type": "uint256"
        }
      ],
      "stateMutability": "view",
      "type": "function"
    },
    {
      "inputs": [
        {
          "internalType": "uint256",
          "name": "proposalId",
          "type": "uint256"
        },
        {
          "internalType": "address",
          "name": "voter",
          "type": "address"
        }
      ],
      "name": "hasVoted",
      "outputs": [
        {
          "internalType": "bool",
          "name": "",
          "type": "bool"
        }
      ],
      "stateMutability": "view",
      "type": "function"
    },
    {
      "inputs": [],
      "name": "minStakeForProposing",
      "outputs": [
        {
          "internalType": "uint256",
          "name": "",
          "type": "uint256"
        }
      ],
      "stateMutability": "view",
      "type": "function"
    },
    {
      "inputs": [],
      "name": "minStakeForVoting",
      "outputs": [
        {
          "internalType": "uint256",
          "name": "",
          "type": "uint256"
        }
      ],
      "stateMutability": "view",
      "type": "function"
    },
    {
      "inputs": [],
      "name": "minStakeLockTime",
      "outputs": [
        {
          "internalType": "uint256",
          "name": "",
          "type": "uint256"
        }
      ],
      "stateMutability": "view",
      "type": "function"
    },
    {
      "inputs": [
        {
          "internalType": "address",
          "name": "to",
          "type": "address"
        },
        {
          "internalType": "uint256",
          "name": "amount",
          "type": "uint256"
        }
      ],
      "name": "mintDaoTokens",
      "outputs": [],
      "stateMutability": "nonpayable",
      "type": "function"
    },
    {
      "inputs": [],
      "name": "nextProposalId",
      "outputs": [
        {
          "internalType": "uint256",
          "name": "",
          "type": "uint256"
        }
      ],
      "stateMutability": "view",
      "type": "function"
    },
    {
      "inputs": [],
      "name": "owner",
      "outputs": [
        {
          "internalType": "address",
          "name": "",
          "type": "address"
        }
      ],
      "stateMutability": "view",
      "type": "function"
    },
    {
      "inputs": [],
      "name": "panicWallet",
      "outputs": [
        {
          "internalType": "address",
          "name": "",
          "type": "address"
        }
      ],
      "stateMutability": "view",
      "type": "function"
    },
    {
      "inputs": [],
      "name": "panico",
      "outputs": [],
      "stateMutability": "nonpayable",
      "type": "function"
    },
    {
      "inputs": [],
      "name": "paused",
      "outputs": [
        {
          "internalType": "bool",
          "name": "",
          "type": "bool"
        }
      ],
      "stateMutability": "view",
      "type": "function"
    },
    {
      "inputs": [],
      "name": "proposalDuration",
      "outputs": [
        {
          "internalType": "uint256",
          "name": "",
          "type": "uint256"
        }
      ],
      "stateMutability": "view",
      "type": "function"
    },
    {
      "inputs": [
        {
          "internalType": "uint256",
          "name": "proposalId",
          "type": "uint256"
        }
      ],
      "name": "proposals",
      "outputs": [
        {
          "internalType": "uint256",
          "name": "id",
          "type": "uint256"
        },
        {
          "internalType": "address",
          "name": "proposer",
          "type": "address"
        },
        {
          "internalType": "string",
          "name": "title",
          "type": "string"
        },
        {
          "internalType": "string",
          "name": "description",
          "type": "string"
        },
        {
          "internalType": "uint256",
          "name": "startTime",
          "type": "uint256"
        },
        {
          "internalType": "uint256",
          "name": "endTime",
          "type": "uint256"
        },
        {
          "internalType": "uint256",
          "name": "forVotes",
          "type": "uint256"
        },
        {
          "internalType": "uint256",
          "name": "againstVotes",
          "type": "uint256"
        },
        {
          "internalType": "enum GovernanceBase.ProposalStatus",
          "name": "status",
          "type": "uint8"
        },
        {
          "internalType": "bool",
          "name": "executed",
          "type": "bool"
        },
        {
          "internalType": "bool",
          "name": "isTreasury",
          "type": "bool"
        },
        {
          "internalType": "address",
          "name": "treasuryRecipient",
          "type": "address"
        },
        {
          "internalType": "uint256",
          "name": "treasuryAmount",
          "type": "uint256"
        }
      ],
      "stateMutability": "view",
      "type": "function"
    },
    {
      "inputs": [
        {
          "internalType": "address",
          "name": "user",
          "type": "address"
        }
      ],
      "name": "proposingStake",
      "outputs": [
        {
          "internalType": "uint256",
          "name": "amount",
          "type": "uint256"
        },
        {
          "internalType": "uint256",
          "name": "since",
          "type": "uint256"
        }
      ],
      "stateMutability": "view",
      "type": "function"
    },
    {
      "inputs": [],
      "name": "renounceOwnership",
      "outputs": [],
      "stateMutability": "nonpayable",
      "type": "function"
    },
    {
      "inputs": [
        {
          "internalType": "address",
          "name": "newPanicWallet",
          "type": "address"
        }
      ],
      "name": "setPanicWallet",
      "outputs": [],
      "stateMutability": "nonpayable",
      "type": "function"
    },
    {
      "inputs": [
        {
          "internalType": "uint256",
          "name": "_tokenPriceWei",
          "type": "uint256"
        },
        {
          "internalType": "uint256",
          "name": "_minStakeForVoting",
          "type": "uint256"
        },
        {
          "internalType": "uint256",
          "name": "_minStakeForProposing",
          "type": "uint256"
        },
        {
          "internalType": "uint256",
          "name": "_minStakeLockTime",
          "type": "uint256"
        },
        {
          "internalType": "uint256",
          "name": "_proposalDuration",
          "type": "uint256"
        },
        {
          "internalType": "uint256",
          "name": "_tokensPerVotePower",
          "type": "uint256"
        }
      ],
      "name": "setParameters",
      "outputs": [],
      "stateMutability": "nonpayable",
      "type": "function"
    },
    {
      "inputs": [
        {
          "internalType": "uint256",
          "name": "amount",
          "type": "uint256"
        }
      ],
      "name": "stakeForProposing",
      "outputs": [],
      "stateMutability": "nonpayable",
      "type": "function"
    },
    {
      "inputs": [
        {
          "internalType": "uint256",
          "name": "amount",
          "type": "uint256"
        }
      ],
      "name": "stakeForVoting",
      "outputs": [],
      "stateMutability": "nonpayable",
      "type": "function"
    },
    {
      "inputs": [],
      "name": "token",
      "outputs": [
        {
          "internalType": "contract IDaoToken",
          "name": "",
          "type": "address"
        }
      ],
      "stateMutability": "view",
      "type": "function"
    },
    {
      "inputs": [],
      "name": "tokenPriceWei",
      "outputs": [
        {
          "internalType": "uint256",
          "name": "",
          "type": "uint256"
        }
      ],
      "stateMutability": "view",
      "type": "function"
    },
    {
      "inputs": [],
      "name": "tokensPerVotePower",
      "outputs": [
        {
          "internalType": "uint256",
          "name": "",
          "type": "uint256"
        }
      ],
      "stateMutability": "view",
      "type": "function"
    },
    {
      "inputs": [],
      "name": "tranquilidad",
      "outputs": [],
      "stateMutability": "nonpayable",
      "type": "function"
    },
    {
      "inputs": [
        {
          "internalType": "address",
          "name": "newOwner",
          "type": "address"
        }
      ],
      "name": "transferOwnership",
      "outputs": [],
      "stateMutability": "nonpayable",
      "type": "function"
    },
    {
      "inputs": [
        {
          "internalType": "uint256",
          "name": "amount",
          "type": "uint256"
        }
      ],
      "name": "unstakeFromProposing",
      "outputs": [],
      "stateMutability": "nonpayable",
      "type": "function"
    },
    {
      "inputs": [
        {
          "internalType": "uint256",
          "name": "amount",
          "type": "uint256"
        }
      ],
      "name": "unstakeFromVoting",
      "outputs": [],
      "stateMutability": "nonpayable",
      "type": "function"
    },
    {
      "inputs": [
        {
          "internalType": "uint256",
          "name": "proposalId",
          "type": "uint256"
        },
        {
          "internalType": "bool",
          "name": "support",
          "type": "bool"
        }
      ],
      "name": "vote",
      "outputs": [],
      "stateMutability": "nonpayable",
      "type": "function"
    },
    {
      "inputs": [
        {
          "internalType": "address",
          "name": "account",
          "type": "address"
        }
      ],
      "name": "votingPower",
      "outputs": [
        {
          "internalType": "uint256",
          "name": "",
          "type": "uint256"
        }
      ],
      "stateMutability": "view",
      "type": "function"
    },
    {
      "inputs": [
        {
          "internalType": "address",
          "name": "user",
          "type": "address"
        }
      ],
      "name": "votingStake",
      "outputs": [
        {
          "internalType": "uint256",
          "name": "amount",
          "type": "uint256"
        },
        {
          "internalType": "uint256",
          "name": "since",
          "type": "uint256"
        }
      ],
      "stateMutability": "view",
      "type": "function"
    },
    {
      "stateMutability": "payable",
      "type": "receive"
    }
  ],
  "bytecode": "0x60a0346200022a57601f620021a838819003918201601f191683019291906001600160401b038411838510176200022f578161010092849260409687528339810103126200022a57620000528162000245565b90620000616020820162000245565b908381015192606082015160808301519060a08401519260e060c08601519501519560018060a01b038092169081156200021257600080546001600160a01b0319808216851783558c51929590939091859083167f8be0079c531659141344cd1fd0a4f28419497f9722a3daafe3b4186f6b6457e08880a316908115620001df575090829160805260015416176001557f46304c2bdadb06c16e46b6dc771e062e19a4150c21aa984fa49930bca03267cf89519280a28615801562000209575b801562000200575b8015620001f7575b8015620001ee575b620001df57509185939160c095937fb4e1fbeb0ffbfe92679bdf67bebeda0b781e7a37849484c69d99695f31e4b02997600255806003558160045582600555836006558460075588519586526020860152878501526060840152608083015260a0820152a151611f4d90816200025b82396080518181816101b80152818161031c0152818161046701528181610e5001528181611561015281816117c001526119610152f35b630309cb8760e51b8152600490fd5b50851562000139565b50841562000131565b50821562000129565b50811562000121565b8951631e4fbdf760e01b815260006004820152602490fd5b600080fd5b634e487b7160e01b600052604160045260246000fd5b51906001600160a01b03821682036200022a5756fe608080604052600436101561001a575b50361561001857005b005b600090813560e01c9081627e637e14611ae057508063013cf08b146119e457806305d0f15b146119c65780630627d425146118c75780630a5af04b146118845780630d346e9a14611866578063163846861461177f578063282c8749146116b15780632ab09d1414610eee57806330109962146116935780634091e8f01461162957806343859632146115d7578063542ffa7b146114c75780635652077c146113f55780635c975abb146113cf57806365e481e214611081578063715018a61461102757806381e6830f14610fb35780638da5cb5b14610f8c5780639776138214610f0c57806398e527d314610eee5780639f45b13314610eab578063a028699e14610dc7578063a73079ac146109c8578063ad3bcade1461099f578063c07473f614610973578063c2d6677614610955578063c7f758a814610722578063c9d27afe14610583578063d064a9a414610565578063d0febe4c146103f6578063d1b85b4914610293578063f2fde38b14610208578063f96df52a146101ea5763fc0c546a0361000f57346101e757806003193601126101e7576040517f00000000000000000000000000000000000000000000000000000000000000006001600160a01b03168152602090f35b80fd5b50346101e757806003193601126101e7576020600754604051908152f35b50346101e75760203660031901126101e757610222611db5565b61022a611e2e565b6001600160a01b0390811690811561027a57600054826001600160601b0360a01b821617600055167f8be0079c531659141344cd1fd0a4f28419497f9722a3daafe3b4186f6b6457e0600080a380f35b604051631e4fbdf760e01b815260048101849052602490fd5b50346101e7576020806003193601126103f257600435906001549060ff8260a01c166103e0576001600160a01b03918216156103ce5782156103bc57338452600b8152604084206102e5848254611ed6565b8155426001909101556040516323b872dd60e01b8152336004820152306024820152604481018490529181908390606490829088907f0000000000000000000000000000000000000000000000000000000000000000165af19182156103b1577fec53a80f7fd2e0ad362f205aa59d80df1f44ddbb229bbe3591a1bf8d34fb5b6f92610378918691610384575b50611e92565b6040519283523392a280f35b6103a49150833d85116103aa575b61039c8183611c8a565b810190611e7a565b38610372565b503d610392565b6040513d86823e3d90fd5b604051630309cb8760e51b8152600490fd5b60405163028eecf360e11b8152600490fd5b604051632795c27960e21b8152600490fd5b5080fd5b50806003193601126101e75760015460ff8160a01c166103e0576001600160a01b03908116156103ce5734156103bc57670de0b6b3a764000080340290348204036105515760025461044791611e5a565b9081156103bc576040516370a0823160e01b8152306004820152602092917f000000000000000000000000000000000000000000000000000000000000000016908381602481855afa80156105465783918691610511575b50106103bc5760405163a9059cbb60e01b8152336004820152602481019290925282908290604490829087905af1908115610506576104e69284926104e9575b5050611e92565b80f35b6104ff9250803d106103aa5761039c8183611c8a565b38806104df565b6040513d85823e3d90fd5b809250858092503d831161053f575b61052a8183611c8a565b8101031261053b578290513861049f565b8480fd5b503d610520565b6040513d87823e3d90fd5b634e487b7160e01b83526011600452602483fd5b50346101e757806003193601126101e7576020600554604051908152f35b50346101e75760403660031901126101e757600435602435908115159182810361071e5760015460ff8160a01c166103e0576001600160a01b03908116156103ce578285526020906009825260408620906001820154161561070c5760ff60088201541660038110156106f8576106e65760058101544210156106e657838652600a82526040862033600052825260ff604060002054166106d457338652600b82526040862054600354116106c25761063b33611ef0565b9283156106c257848752600a8352604087203360005283526040600020600160ff198254161790556000146106ad57600601610678838254611ed6565b90555b6040519384528301527fcbdf6214089cba887ecbf35a0b6a734589959c9763342c756bb2a80ca2bc9f6e60403393a380f35b6007016106bb838254611ed6565b905561067b565b6040516378de4a6960e11b8152600490fd5b604051637c9a1cf960e01b8152600490fd5b604051630eeb4f1560e01b8152600490fd5b634e487b7160e01b87526021600452602487fd5b604051631dc0650160e31b8152600490fd5b8380fd5b50346101e75760203660031901126101e7578061018060405161074481611c6d565b828152826020820152606060408201526060808201528260808201528260a08201528260c08201528260e08201528261010082015282610120820152826101408201528261016082015201526004358152600960205260408120604051906107ab82611c6d565b8054825260018101546001600160a01b031660208301526107ce60028201611cac565b60408301526107df60038201611cac565b606083015260048101546080830152600581015460a0830152600681015460c0830152600781015460e08301526008810154600360ff821610156109415760ff808216610100850152600882901c81161515610120850152601082901c16151561014084015260181c6001600160a01b039081166101608401526009909101546101808301526020820151161561070c576040518091602082528051602083015260018060a01b0360208201511660408301526101806108c96108b360408401516101a060608701526101c0860190611d52565b6060840151858203601f19016080870152611d52565b91608081015160a085015260a081015160c085015260c081015160e085015260e0810151610100850152610907610100820151610120860190611d92565b6101208101511515610140850152610140810151151561016085015260018060a01b03610160820151168285015201516101a08301520390f35b634e487b7160e01b84526021600452602484fd5b50346101e757806003193601126101e7576020600354604051908152f35b50346101e75760203660031901126101e7576020610997610992611db5565b611ef0565b604051908152f35b50346101e757806003193601126101e7576001546040516001600160a01b039091168152602090f35b50346101e75760803660031901126101e75760043567ffffffffffffffff81116103f2576109fa903690600401611de7565b906024359067ffffffffffffffff82116101e75750610a1d903690600401611de7565b906001600160a01b036044358082169003610dc25760015460ff8160a01c166103e0578116156103ce578060443516158015610db8575b610da65733600052600c602052604060002054600454116106c257600854916000198314610d90576001830160085582600052600960205260406000209083825560018201336001600160601b0360a01b82541617905580519067ffffffffffffffff8211610caf578190610acc6002850154611c33565b601f8111610d3d575b50602090601f8311600114610cd057600092610cc5575b50508160011b916000199060031b1c19161760028201555b835167ffffffffffffffff8111610caf576003820190610b248254611c33565b95601f8711610c67575b602096508690601f8311600114610bfd5760099493929160009183610bf2575b50508160011b916000199060031b1c19161790555b426004820155610b7560065442611ed6565b6005820155600881016201000081546301000000600160b81b0360443560181b169061ff01600160b81b031916171790556064359182910155604051916001835260443516848301526040820152817fb956772e7b554d19bb961f4303b6c0c5cd7592c0c06fd08f15a56a0f304e6c0d60603393a3604051908152f35b015190503880610b4e565b90601f1983169184600052886000209260005b818110610c50575091600193918560099897969410610c37575b505050811b019055610b63565b015160001960f88460031b161c19169055388080610c2a565b92938a600181928786015181550195019301610c10565b826000526020600020601f830160051c81019760208410610ca5575b601f0160051c01965b878110610c995750610b2e565b60008155600101610c8c565b9097508790610c83565b634e487b7160e01b600052604160045260246000fd5b015190503880610aec565b600285016000908152602081209350601f198516905b818110610d255750908460019594939210610d0c575b505050811b016002820155610b04565b015160001960f88460031b161c19169055388080610cfc565b92936020600181928786015181550195019301610ce6565b909150600284016000526020600020601f840160051c810160208510610d89575b90849392915b601f830160051c82018110610d7a575050610ad5565b60008155859450600101610d64565b5080610d5e565b634e487b7160e01b600052601160045260246000fd5b604051631713da9d60e11b8152600490fd5b5060643515610a54565b600080fd5b50346101e7576020806003193601126103f257600435906001549060ff8260a01c166103e0576001600160a01b03918216156103ce5782156103bc57338452600c815260408420610e19848254611ed6565b8155426001909101556040516323b872dd60e01b8152336004820152306024820152604481018490529181908390606490829088907f0000000000000000000000000000000000000000000000000000000000000000165af19182156103b1577ffb98bd47dcfd31e8d0c0e3558ffb823c6ad6ddcba96e48e82608e567b21cb1dd926103789186916103845750611e92565b50346101e75760203660031901126101e75760409081906001600160a01b03610ed2611db5565b168152600b602052206001815491015482519182526020820152f35b50346101e757806003193601126101e7576020600854604051908152f35b50346101e757806003193601126101e7576001546001600160a01b038082163314159081610f7e575b50610f6c5760ff60a01b1916600155337fdb333f8de8435249d224d186f58a6cb30292b00a2897688694c176f2cde512b08280a280f35b60405163b9e5ac5f60e01b8152600490fd5b905082541633141538610f35565b50346101e757806003193601126101e757546040516001600160a01b039091168152602090f35b50346101e757806003193601126101e7576001546001600160a01b038082163314159081611019575b50610f6c5760ff60a01b1916600160a01b17600155337f0b907d122e4db865e49bc04c7f1e84a1ae29e024ee225bc08c69104520c5f3f98280a280f35b905082541633141538610fdc565b50346101e757806003193601126101e757611040611e2e565b600080546001600160a01b0319811682556001600160a01b03167f8be0079c531659141344cd1fd0a4f28419497f9722a3daafe3b4186f6b6457e08280a380f35b50346101e75760403660031901126101e75767ffffffffffffffff906004358281116103f2576110b5903690600401611de7565b90602435908382116101e757506110d0903690600401611de7565b90600191825460ff8160a01c166103e0576001600160a01b0316156103ce5733600052602093600c8552604060002054600454116106c2576008549360001990818614610d90578086016008558560005260098752604060002094868655818601336001600160601b0360a01b8254161790556002860190805190858211610caf57819061115e8454611c33565b601f811161137c575b508a90601f831160011461131b57600092611310575b50508482851b9260031b1c19161790555b60038501938051938411610caf576111a68554611c33565b601f81116112c7575b508790601f851160011461125957928480936000989693600998968a9561124e575b50501b9260031b1c19161790555b4260048201556111f160065442611ed6565b60058201556008810161ff01600160b81b0319815416905501556040516000815260008382015260006040820152817fb956772e7b554d19bb961f4303b6c0c5cd7592c0c06fd08f15a56a0f304e6c0d60603393a3604051908152f35b0151935038806111d1565b91939290601f1984169286600052896000209360005b8b8282106112b3575050918593916009989660009a9896941061129b575b50505050811b0190556111df565b01519060f88460031b161c191690553880808061128d565b83850151875595880195938401930161126f565b8560005288600020601f860160051c8101918a8710611306575b601f0160051c019083905b8281106112fa5750506111af565b600081550183906112ec565b90915081906112e1565b01519050388061117d565b60008581528c8120879550929190601f198516908e5b828210611365575050841161134e575b505050811b01905561118e565b01518660f88460031b161c19169055388080611341565b83850151865589979095019493840193018e611331565b909150836000528a600020601f840160051c8101918c85106113c5575b84939291601f88920160051c01915b8281106113b6575050611167565b600081558594508791016113a8565b9091508190611399565b50346101e757806003193601126101e757602060ff60015460a01c166040519015158152f35b50346101e75760203660031901126101e75760043580825260096020526040822060018101546001600160a01b03161561070c57600881019081549060ff821660038110156114b3576106e657600581015442106106e6577f34a42c4ce0a88d16ad098de6406057747139a2a3dd8dd8616ee7bbabcecb768e92602092826007600660ff950154910154106000146114a65750600182198254161781555b54166114a26040518092611d92565ba280f35b8219166002178155611493565b634e487b7160e01b86526021600452602486fd5b50346101e7576020806003193601126103f257600435906001549060ff8260a01c166103e0576001600160a01b03918216156103ce57338452600b815260408420831580156115cd575b6106c257611526600182015460055490611ed6565b42106115bc57611537848254611ee3565b905560405163a9059cbb60e01b8152336004820152602481018490529181908390604490829088907f0000000000000000000000000000000000000000000000000000000000000000165af19182156103b1577fb80625e1a6dfa23fbd22202898020767aaed44c2671f32cdb3473366b907321c926103789186916103845750611e92565b6040516214930960e01b8152600490fd5b5080548411611511565b50346101e75760403660031901126101e7576024356001600160a01b0381169190829003610dc2576040906004358152600a6020522090600052602052602060ff604060002054166040519015158152f35b50346101e75760203660031901126101e757611643611db5565b61164b611e2e565b6001600160a01b031680156103bc57600180546001600160a01b031916821790557f46304c2bdadb06c16e46b6dc771e062e19a4150c21aa984fa49930bca03267cf8280a280f35b50346101e757806003193601126101e7576020600654604051908152f35b50346101e75760c03660031901126101e75760443560243560043560a4356084356064356116dd611e2e565b83158015611777575b801561176f575b8015611767575b801561175f575b6103bc577fb4e1fbeb0ffbfe92679bdf67bebeda0b781e7a37849484c69d99695f31e4b0299560c095856002558060035581600455826005558360065584600755604051958652602086015260408501526060840152608083015260a0820152a180f35b5082156116fb565b5081156116f4565b5085156116ed565b5084156116e6565b50346101e75760403660031901126101e757611799611db5565b6024356117a4611e2e565b6001600160a01b039082821615801561185e575b6103bc5783917f000000000000000000000000000000000000000000000000000000000000000016803b1561185a576040516340c10f1960e01b81526001600160a01b0394909416600485015260248401919091528290604490829084905af1801561184f57611826575080f35b67ffffffffffffffff811161183b5760405280f35b634e487b7160e01b82526041600452602482fd5b6040513d84823e3d90fd5b8280fd5b5080156117b8565b50346101e757806003193601126101e7576020600454604051908152f35b50346101e75760203660031901126101e75760409081906001600160a01b036118ab611db5565b168152600c602052206001815491015482519182526020820152f35b50346101e7576020806003193601126103f257600435906001549060ff8260a01c166103e0576001600160a01b03918216156103ce57338452600c815260408420831580156119bc575b6106c257611926600182015460055490611ed6565b42106115bc57611937848254611ee3565b905560405163a9059cbb60e01b8152336004820152602481018490529181908390604490829088907f0000000000000000000000000000000000000000000000000000000000000000165af19182156103b1577fb09985bf5df21e3dee7a7e607cdcff3c444bb813524e2bad65f649b400056b0a926103789186916103845750611e92565b5080548411611911565b50346101e757806003193601126101e7576020600254604051908152f35b50346101e75760203660031901126101e7576004358152600960205260409020805460018201546001600160a01b039081169290611a2460028301611cac565b90611a3160038401611cac565b926004810154936005820154600683015490611a88600785015493611a7a60096008880154970154986040519c8d9c8d5260208d015260408c6101a091829101528c0190611d52565b908a820360608c0152611d52565b96608089015260a088015260c087015260e0860152611aae610100860160ff8316611d92565b60ff8160081c16151561012086015260ff8160101c16151561014086015260181c166101608401526101808301520390f35b9050346103f25760203660031901126103f2576004358083526009602052604083206008810180549360ff8560101c1615611c24575060ff841660038110156114b357600114801590611c17575b611c05576009479201938454809310610da65761ff001916610100178082556001600160a01b039286918291829182919060181c87165af13d15611c00573d611b7681611dcb565b90611b846040519283611c8a565b81528660203d92013e5b15611bc9577f0bb768aa97fa4e8a8f73bfa7bc210f1a29f29c765d44f0c29acc04a549e32e43916020915460181c169354604051908152a380f35b60405162461bcd60e51b815260206004820152600f60248201526e151c985b9cd9995c8819985a5b1959608a1b6044820152606490fd5b611b8e565b604051633c7e994560e11b8152600490fd5b5060ff8460081c16611b2e565b631713da9d60e11b8152600490fd5b90600182811c92168015611c63575b6020831014611c4d57565b634e487b7160e01b600052602260045260246000fd5b91607f1691611c42565b6101a0810190811067ffffffffffffffff821117610caf57604052565b90601f8019910116810190811067ffffffffffffffff821117610caf57604052565b9060405191826000825492611cc084611c33565b908184526001948581169081600014611d2f5750600114611cec575b5050611cea92500383611c8a565b565b9093915060005260209081600020936000915b818310611d17575050611cea93508201013880611cdc565b85548884018501529485019487945091830191611cff565b915050611cea94506020925060ff191682840152151560051b8201013880611cdc565b919082519283825260005b848110611d7e575050826000602080949584010152601f8019910116010190565b602081830181015184830182015201611d5d565b906003821015611d9f5752565b634e487b7160e01b600052602160045260246000fd5b600435906001600160a01b0382168203610dc257565b67ffffffffffffffff8111610caf57601f01601f191660200190565b81601f82011215610dc257803590611dfe82611dcb565b92611e0c6040519485611c8a565b82845260208383010111610dc257816000926020809301838601378301015290565b6000546001600160a01b03163303611e4257565b60405163118cdaa760e01b8152336004820152602490fd5b8115611e64570490565b634e487b7160e01b600052601260045260246000fd5b90816020910312610dc257518015158103610dc25790565b15611e9957565b60405162461bcd60e51b8152602060048201526015602482015274151bdad95b881d1c985b9cd9995c8819985a5b1959605a1b6044820152606490fd5b91908201809211610d9057565b91908203918211610d9057565b6001600160a01b03166000908152600b6020526040902054600754611f1491611e5a565b9056fea264697066735822122023ad1b1c18be7b00de1cb19f69fd858e23cb5390c9f4a020932c8b331ca99bfb64736f6c63430008140033",
  "linkReferences": {},
  "deployedLinkReferences": {}
}