{
  "_format": "hh-sol-artifact-1",
  "contractName": "GovernanceDAO",
  "sourceName": "src/contracts/GovernanceDAO.sol",
  "abi": [
    {
      "inputs": [
        {
          "internalType": "address",
          "name": "initialOwner",
          "type": "address"
        },
        {
          "internalType": "address",
          "name": "tokenAddress",
          "type": "address"
        },
        {
          "internalType": "uint256",
          "name": "_tokenPriceWei",
          "type": "uint256"
        },
        {
          "internalType": "uint256",
          "name": "_minStakeForVoting",
          "type": "uint256"
        },
        {
          "internalType": "uint256",
          "name": "_minStakeForProposing",
          "type": "uint256"
        },
        {
          "internalType": "uint256",
          "name": "_minStakeLockTime",
          "type": "uint256"
        },
        {
          "internalType": "uint256",
          "name": "_proposalDuration",
          "type": "uint256"
        },
        {
          "internalType": "uint256",
          "name": "_tokensPerVotePower",
          "type": "uint256"
        }
      ],
      "stateMutability": "nonpayable",
      "type": "constructor"
    },
    {
      "inputs": [],
      "name": "AlreadyVoted",
      "type": "error"
    },
    {
      "inputs": [],
      "name": "DAOIsPaused",
      "type": "error"
    },
    {
      "inputs": [],
      "name": "InsufficientStake",
      "type": "error"
    },
    {
      "inputs": [],
      "name": "InvalidParameter",
      "type": "error"
    },
    {
      "inputs": [],
      "name": "InvalidProposal",
      "type": "error"
    },
    {
      "inputs": [],
      "name": "InvalidTreasuryProposal",
      "type": "error"
    },
    {
      "inputs": [],
      "name": "LockTimeNotReached",
      "type": "error"
    },
    {
      "inputs": [],
      "name": "NotPanicWallet",
      "type": "error"
    },
    {
      "inputs": [
        {
          "internalType": "address",
          "name": "owner",
          "type": "address"
        }
      ],
      "name": "OwnableInvalidOwner",
      "type": "error"
    },
    {
      "inputs": [
        {
          "internalType": "address",
          "name": "account",
          "type": "address"
        }
      ],
      "name": "OwnableUnauthorizedAccount",
      "type": "error"
    },
    {
      "inputs": [],
      "name": "PanicWalletNotSet",
      "type": "error"
    },
    {
      "inputs": [],
      "name": "ProposalNotExecutable",
      "type": "error"
    },
    {
      "inputs": [],
      "name": "VotingNotAllowed",
      "type": "error"
    },
    {
      "anonymous": false,
      "inputs": [
        {
          "indexed": true,
          "internalType": "address",
          "name": "caller",
          "type": "address"
        }
      ],
      "name": "CalmActivated",
      "type": "event"
    },
    {
      "anonymous": false,
      "inputs": [
        {
          "indexed": true,
          "internalType": "address",
          "name": "previousOwner",
          "type": "address"
        },
        {
          "indexed": true,
          "internalType": "address",
          "name": "newOwner",
          "type": "address"
        }
      ],
      "name": "OwnershipTransferred",
      "type": "event"
    },
    {
      "anonymous": false,
      "inputs": [
        {
          "indexed": true,
          "internalType": "address",
          "name": "caller",
          "type": "address"
        }
      ],
      "name": "PanicActivated",
      "type": "event"
    },
    {
      "anonymous": false,
      "inputs": [
        {
          "indexed": true,
          "internalType": "address",
          "name": "newPanicWallet",
          "type": "address"
        }
      ],
      "name": "PanicWalletUpdated",
      "type": "event"
    },
    {
      "anonymous": false,
      "inputs": [
        {
          "indexed": false,
          "internalType": "uint256",
          "name": "tokenPriceWei",
          "type": "uint256"
        },
        {
          "indexed": false,
          "internalType": "uint256",
          "name": "minStakeForVoting",
          "type": "uint256"
        },
        {
          "indexed": false,
          "internalType": "uint256",
          "name": "minStakeForProposing",
          "type": "uint256"
        },
        {
          "indexed": false,
          "internalType": "uint256",
          "name": "minStakeLockTime",
          "type": "uint256"
        },
        {
          "indexed": false,
          "internalType": "uint256",
          "name": "proposalDuration",
          "type": "uint256"
        },
        {
          "indexed": false,
          "internalType": "uint256",
          "name": "tokensPerVotePower",
          "type": "uint256"
        }
      ],
      "name": "ParametersUpdated",
      "type": "event"
    },
    {
      "anonymous": false,
      "inputs": [
        {
          "indexed": true,
          "internalType": "uint256",
          "name": "id",
          "type": "uint256"
        },
        {
          "indexed": true,
          "internalType": "address",
          "name": "proposer",
          "type": "address"
        },
        {
          "indexed": false,
          "internalType": "bool",
          "name": "isTreasury",
          "type": "bool"
        },
        {
          "indexed": false,
          "internalType": "address",
          "name": "treasuryRecipient",
          "type": "address"
        },
        {
          "indexed": false,
          "internalType": "uint256",
          "name": "treasuryAmount",
          "type": "uint256"
        }
      ],
      "name": "ProposalCreated",
      "type": "event"
    },
    {
      "anonymous": false,
      "inputs": [
        {
          "indexed": true,
          "internalType": "uint256",
          "name": "proposalId",
          "type": "uint256"
        },
        {
          "indexed": false,
          "internalType": "enum GovernanceBase.ProposalStatus",
          "name": "status",
          "type": "uint8"
        }
      ],
      "name": "ProposalFinalized",
      "type": "event"
    },
    {
      "anonymous": false,
      "inputs": [
        {
          "indexed": true,
          "internalType": "address",
          "name": "user",
          "type": "address"
        },
        {
          "indexed": false,
          "internalType": "uint256",
          "name": "amount",
          "type": "uint256"
        }
      ],
      "name": "StakedForProposing",
      "type": "event"
    },
    {
      "anonymous": false,
      "inputs": [
        {
          "indexed": true,
          "internalType": "address",
          "name": "user",
          "type": "address"
        },
        {
          "indexed": false,
          "internalType": "uint256",
          "name": "amount",
          "type": "uint256"
        }
      ],
      "name": "StakedForVoting",
      "type": "event"
    },
    {
      "anonymous": false,
      "inputs": [
        {
          "indexed": true,
          "internalType": "uint256",
          "name": "proposalId",
          "type": "uint256"
        },
        {
          "indexed": true,
          "internalType": "address",
          "name": "recipient",
          "type": "address"
        },
        {
          "indexed": false,
          "internalType": "uint256",
          "name": "amount",
          "type": "uint256"
        }
      ],
      "name": "TreasuryProposalExecuted",
      "type": "event"
    },
    {
      "anonymous": false,
      "inputs": [
        {
          "indexed": true,
          "internalType": "address",
          "name": "user",
          "type": "address"
        },
        {
          "indexed": false,
          "internalType": "uint256",
          "name": "amount",
          "type": "uint256"
        }
      ],
      "name": "UnstakedFromProposing",
      "type": "event"
    },
    {
      "anonymous": false,
      "inputs": [
        {
          "indexed": true,
          "internalType": "address",
          "name": "user",
          "type": "address"
        },
        {
          "indexed": false,
          "internalType": "uint256",
          "name": "amount",
          "type": "uint256"
        }
      ],
      "name": "UnstakedFromVoting",
      "type": "event"
    },
    {
      "anonymous": false,
      "inputs": [
        {
          "indexed": true,
          "internalType": "uint256",
          "name": "proposalId",
          "type": "uint256"
        },
        {
          "indexed": true,
          "internalType": "address",
          "name": "voter",
          "type": "address"
        },
        {
          "indexed": false,
          "internalType": "bool",
          "name": "support",
          "type": "bool"
        },
        {
          "indexed": false,
          "internalType": "uint256",
          "name": "votePower",
          "type": "uint256"
        }
      ],
      "name": "VoteCast",
      "type": "event"
    },
    {
      "stateMutability": "payable",
      "type": "fallback"
    },
    {
      "inputs": [],
      "name": "buyTokens",
      "outputs": [],
      "stateMutability": "payable",
      "type": "function"
    },
    {
      "inputs": [
        {
          "internalType": "string",
          "name": "title",
          "type": "string"
        },
        {
          "internalType": "string",
          "name": "description",
          "type": "string"
        }
      ],
      "name": "createProposal",
      "outputs": [
        {
          "internalType": "uint256",
          "name": "",
          "type": "uint256"
        }
      ],
      "stateMutability": "nonpayable",
      "type": "function"
    },
    {
      "inputs": [
        {
          "internalType": "string",
          "name": "title",
          "type": "string"
        },
        {
          "internalType": "string",
          "name": "description",
          "type": "string"
        },
        {
          "internalType": "address",
          "name": "recipient",
          "type": "address"
        },
        {
          "internalType": "uint256",
          "name": "amount",
          "type": "uint256"
        }
      ],
      "name": "createTreasuryProposal",
      "outputs": [
        {
          "internalType": "uint256",
          "name": "",
          "type": "uint256"
        }
      ],
      "stateMutability": "nonpayable",
      "type": "function"
    },
    {
      "inputs": [
        {
          "internalType": "uint256",
          "name": "proposalId",
          "type": "uint256"
        }
      ],
      "name": "executeTreasuryProposal",
      "outputs": [],
      "stateMutability": "nonpayable",
      "type": "function"
    },
    {
      "inputs": [
        {
          "internalType": "uint256",
          "name": "proposalId",
          "type": "uint256"
        }
      ],
      "name": "finalizeProposal",
      "outputs": [],
      "stateMutability": "nonpayable",
      "type": "function"
    },
    {
      "inputs": [
        {
          "internalType": "uint256",
          "name": "proposalId",
          "type": "uint256"
        }
      ],
      "name": "getProposal",
      "outputs": [
        {
          "components": [
            {
              "internalType": "uint256",
              "name": "id",
              "type": "uint256"
            },
            {
              "internalType": "address",
              "name": "proposer",
              "type": "address"
            },
            {
              "internalType": "string",
              "name": "title",
              "type": "string"
            },
            {
              "internalType": "string",
              "name": "description",
              "type": "string"
            },
            {
              "internalType": "uint256",
              "name": "startTime",
              "type": "uint256"
            },
            {
              "internalType": "uint256",
              "name": "endTime",
              "type": "uint256"
            },
            {
              "internalType": "uint256",
              "name": "forVotes",
              "type": "uint256"
            },
            {
              "internalType": "uint256",
              "name": "againstVotes",
              "type": "uint256"
            },
            {
              "internalType": "enum GovernanceBase.ProposalStatus",
              "name": "status",
              "type": "uint8"
            },
            {
              "internalType": "bool",
              "name": "executed",
              "type": "bool"
            },
            {
              "internalType": "bool",
              "name": "isTreasury",
              "type": "bool"
            },
            {
              "internalType": "address",
              "name": "treasuryRecipient",
              "type": "address"
            },
            {
              "internalType": "uint256",
              "name": "treasuryAmount",
              "type": "uint256"
            }
          ],
          "internalType": "struct GovernanceBase.Proposal",
          "name": "",
          "type": "tuple"
        }
      ],
      "stateMutability": "view",
      "type": "function"
    },
    {
      "inputs": [],
      "name": "getProposalsCount",
      "outputs": [
        {
          "internalType": "uint256",
          "name": "",
          "type": "uint256"
        }
      ],
      "stateMutability": "view",
      "type": "function"
    },
    {
      "inputs": [
        {
          "internalType": "uint256",
          "name": "proposalId",
          "type": "uint256"
        },
        {
          "internalType": "address",
          "name": "voter",
          "type": "address"
        }
      ],
      "name": "hasVoted",
      "outputs": [
        {
          "internalType": "bool",
          "name": "",
          "type": "bool"
        }
      ],
      "stateMutability": "view",
      "type": "function"
    },
    {
      "inputs": [],
      "name": "minStakeForProposing",
      "outputs": [
        {
          "internalType": "uint256",
          "name": "",
          "type": "uint256"
        }
      ],
      "stateMutability": "view",
      "type": "function"
    },
    {
      "inputs": [],
      "name": "minStakeForVoting",
      "outputs": [
        {
          "internalType": "uint256",
          "name": "",
          "type": "uint256"
        }
      ],
      "stateMutability": "view",
      "type": "function"
    },
    {
      "inputs": [],
      "name": "minStakeLockTime",
      "outputs": [
        {
          "internalType": "uint256",
          "name": "",
          "type": "uint256"
        }
      ],
      "stateMutability": "view",
      "type": "function"
    },
    {
      "inputs": [],
      "name": "nextProposalId",
      "outputs": [
        {
          "internalType": "uint256",
          "name": "",
          "type": "uint256"
        }
      ],
      "stateMutability": "view",
      "type": "function"
    },
    {
      "inputs": [],
      "name": "owner",
      "outputs": [
        {
          "internalType": "address",
          "name": "",
          "type": "address"
        }
      ],
      "stateMutability": "view",
      "type": "function"
    },
    {
      "inputs": [],
      "name": "panicWallet",
      "outputs": [
        {
          "internalType": "address",
          "name": "",
          "type": "address"
        }
      ],
      "stateMutability": "view",
      "type": "function"
    },
    {
      "inputs": [],
      "name": "panico",
      "outputs": [],
      "stateMutability": "nonpayable",
      "type": "function"
    },
    {
      "inputs": [],
      "name": "paused",
      "outputs": [
        {
          "internalType": "bool",
          "name": "",
          "type": "bool"
        }
      ],
      "stateMutability": "view",
      "type": "function"
    },
    {
      "inputs": [],
      "name": "proposalDuration",
      "outputs": [
        {
          "internalType": "uint256",
          "name": "",
          "type": "uint256"
        }
      ],
      "stateMutability": "view",
      "type": "function"
    },
    {
      "inputs": [
        {
          "internalType": "uint256",
          "name": "proposalId",
          "type": "uint256"
        }
      ],
      "name": "proposals",
      "outputs": [
        {
          "internalType": "uint256",
          "name": "id",
          "type": "uint256"
        },
        {
          "internalType": "address",
          "name": "proposer",
          "type": "address"
        },
        {
          "internalType": "string",
          "name": "title",
          "type": "string"
        },
        {
          "internalType": "string",
          "name": "description",
          "type": "string"
        },
        {
          "internalType": "uint256",
          "name": "startTime",
          "type": "uint256"
        },
        {
          "internalType": "uint256",
          "name": "endTime",
          "type": "uint256"
        },
        {
          "internalType": "uint256",
          "name": "forVotes",
          "type": "uint256"
        },
        {
          "internalType": "uint256",
          "name": "againstVotes",
          "type": "uint256"
        },
        {
          "internalType": "enum GovernanceBase.ProposalStatus",
          "name": "status",
          "type": "uint8"
        },
        {
          "internalType": "bool",
          "name": "executed",
          "type": "bool"
        },
        {
          "internalType": "bool",
          "name": "isTreasury",
          "type": "bool"
        },
        {
          "internalType": "address",
          "name": "treasuryRecipient",
          "type": "address"
        },
        {
          "internalType": "uint256",
          "name": "treasuryAmount",
          "type": "uint256"
        }
      ],
      "stateMutability": "view",
      "type": "function"
    },
    {
      "inputs": [
        {
          "internalType": "address",
          "name": "user",
          "type": "address"
        }
      ],
      "name": "proposingStake",
      "outputs": [
        {
          "internalType": "uint256",
          "name": "amount",
          "type": "uint256"
        },
        {
          "internalType": "uint256",
          "name": "since",
          "type": "uint256"
        }
      ],
      "stateMutability": "view",
      "type": "function"
    },
    {
      "inputs": [],
      "name": "renounceOwnership",
      "outputs": [],
      "stateMutability": "nonpayable",
      "type": "function"
    },
    {
      "inputs": [
        {
          "internalType": "address",
          "name": "newPanicWallet",
          "type": "address"
        }
      ],
      "name": "setPanicWallet",
      "outputs": [],
      "stateMutability": "nonpayable",
      "type": "function"
    },
    {
      "inputs": [
        {
          "internalType": "uint256",
          "name": "_tokenPriceWei",
          "type": "uint256"
        },
        {
          "internalType": "uint256",
          "name": "_minStakeForVoting",
          "type": "uint256"
        },
        {
          "internalType": "uint256",
          "name": "_minStakeForProposing",
          "type": "uint256"
        },
        {
          "internalType": "uint256",
          "name": "_minStakeLockTime",
          "type": "uint256"
        },
        {
          "internalType": "uint256",
          "name": "_proposalDuration",
          "type": "uint256"
        },
        {
          "internalType": "uint256",
          "name": "_tokensPerVotePower",
          "type": "uint256"
        }
      ],
      "name": "setParameters",
      "outputs": [],
      "stateMutability": "nonpayable",
      "type": "function"
    },
    {
      "inputs": [
        {
          "internalType": "uint256",
          "name": "amount",
          "type": "uint256"
        }
      ],
      "name": "stakeForProposing",
      "outputs": [],
      "stateMutability": "nonpayable",
      "type": "function"
    },
    {
      "inputs": [
        {
          "internalType": "uint256",
          "name": "amount",
          "type": "uint256"
        }
      ],
      "name": "stakeForVoting",
      "outputs": [],
      "stateMutability": "nonpayable",
      "type": "function"
    },
    {
      "inputs": [],
      "name": "token",
      "outputs": [
        {
          "internalType": "contract IERC20",
          "name": "",
          "type": "address"
        }
      ],
      "stateMutability": "view",
      "type": "function"
    },
    {
      "inputs": [],
      "name": "tokenPriceWei",
      "outputs": [
        {
          "internalType": "uint256",
          "name": "",
          "type": "uint256"
        }
      ],
      "stateMutability": "view",
      "type": "function"
    },
    {
      "inputs": [],
      "name": "tokensPerVotePower",
      "outputs": [
        {
          "internalType": "uint256",
          "name": "",
          "type": "uint256"
        }
      ],
      "stateMutability": "view",
      "type": "function"
    },
    {
      "inputs": [],
      "name": "tranquilidad",
      "outputs": [],
      "stateMutability": "nonpayable",
      "type": "function"
    },
    {
      "inputs": [
        {
          "internalType": "address",
          "name": "newOwner",
          "type": "address"
        }
      ],
      "name": "transferOwnership",
      "outputs": [],
      "stateMutability": "nonpayable",
      "type": "function"
    },
    {
      "inputs": [
        {
          "internalType": "uint256",
          "name": "amount",
          "type": "uint256"
        }
      ],
      "name": "unstakeFromProposing",
      "outputs": [],
      "stateMutability": "nonpayable",
      "type": "function"
    },
    {
      "inputs": [
        {
          "internalType": "uint256",
          "name": "amount",
          "type": "uint256"
        }
      ],
      "name": "unstakeFromVoting",
      "outputs": [],
      "stateMutability": "nonpayable",
      "type": "function"
    },
    {
      "inputs": [
        {
          "internalType": "uint256",
          "name": "proposalId",
          "type": "uint256"
        },
        {
          "internalType": "bool",
          "name": "support",
          "type": "bool"
        }
      ],
      "name": "vote",
      "outputs": [],
      "stateMutability": "nonpayable",
      "type": "function"
    },
    {
      "inputs": [
        {
          "internalType": "address",
          "name": "account",
          "type": "address"
        }
      ],
      "name": "votingPower",
      "outputs": [
        {
          "internalType": "uint256",
          "name": "",
          "type": "uint256"
        }
      ],
      "stateMutability": "view",
      "type": "function"
    },
    {
      "inputs": [
        {
          "internalType": "address",
          "name": "user",
          "type": "address"
        }
      ],
      "name": "votingStake",
      "outputs": [
        {
          "internalType": "uint256",
          "name": "amount",
          "type": "uint256"
        },
        {
          "internalType": "uint256",
          "name": "since",
          "type": "uint256"
        }
      ],
      "stateMutability": "view",
      "type": "function"
    },
    {
      "stateMutability": "payable",
      "type": "receive"
    }
  ],
  "bytecode": "0x60a0346200022357601f6200204938819003918201601f191683019291906001600160401b038411838510176200022857816101009284926040968752833981010312620002235762000052816200023e565b9062000061602082016200023e565b908381015192606082015160808301519060a08401519260e060c08601519501519560018060a01b038092169081156200020b57600080546001600160a01b0319808216851783558c51929590939091859083167f8be0079c531659141344cd1fd0a4f28419497f9722a3daafe3b4186f6b6457e08880a316908115620001d8575090829160805260015416176001557f46304c2bdadb06c16e46b6dc771e062e19a4150c21aa984fa49930bca03267cf89519280a28615801562000202575b8015620001f9575b8015620001f0575b8015620001e7575b620001d857509185939160c095937fb4e1fbeb0ffbfe92679bdf67bebeda0b781e7a37849484c69d99695f31e4b02997600255806003558160045582600555836006558460075588519586526020860152878501526060840152608083015260a0820152a151611df590816200025482396080518181816101b2015281816103180152818161046001528181610e0401528181611502015261181b0152f35b630309cb8760e51b8152600490fd5b50851562000139565b50841562000131565b50821562000129565b50811562000121565b8951631e4fbdf760e01b815260006004820152602490fd5b600080fd5b634e487b7160e01b600052604160045260246000fd5b51906001600160a01b0382168203620002235756fe608080604052600436101561001a575b50361561001857005b005b60003560e01c9081627e637e1461199d57508063013cf08b1461189f57806305d0f15b146118815780630627d4251461177f5780630a5af04b1461173c5780630d346e9a1461171e578063282c8749146116525780632ab09d1414610ea357806330109962146116345780634091e8f0146115cb5780634385963214611579578063542ffa7b146114665780635652077c146113a85780635c975abb1461138257806365e481e214611039578063715018a614610fe057806381e6830f14610f6b5780638da5cb5b14610f425780639776138214610ec157806398e527d314610ea35780639f45b13314610e60578063a028699e14610d79578063a73079ac14610996578063ad3bcade1461096d578063c07473f614610942578063c2d6677614610924578063c7f758a814610702578063c9d27afe14610564578063d064a9a414610546578063d0febe4c146103ef578063d1b85b491461028d578063f2fde38b14610204578063f96df52a146101e65763fc0c546a1461019c573861000f565b346101e15760003660031901126101e1576040517f00000000000000000000000000000000000000000000000000000000000000006001600160a01b03168152602090f35b600080fd5b346101e15760003660031901126101e1576020600754604051908152f35b346101e15760203660031901126101e15761021d611c5d565b610225611cd6565b6001600160a01b0390811690811561027457600054826001600160601b0360a01b821617600055167f8be0079c531659141344cd1fd0a4f28419497f9722a3daafe3b4186f6b6457e0600080a3005b604051631e4fbdf760e01b815260006004820152602490fd5b346101e1576020806003193601126101e157600435906001549060ff8260a01c166103dd576001600160a01b03918216156103cb5782156103b95733600052600b815260406000206102e0848254611d7e565b8155426001909101556040516323b872dd60e01b815233600482015230602482015260448101849052918190839060649082906000907f0000000000000000000000000000000000000000000000000000000000000000165af19182156103ad577fec53a80f7fd2e0ad362f205aa59d80df1f44ddbb229bbe3591a1bf8d34fb5b6f9261037591600091610380575b50611d3a565b6040519283523392a2005b6103a09150833d85116103a6575b6103988183611b48565b810190611d22565b8561036f565b503d61038e565b6040513d6000823e3d90fd5b604051630309cb8760e51b8152600490fd5b60405163028eecf360e11b8152600490fd5b604051632795c27960e21b8152600490fd5b60003660031901126101e15760015460ff8160a01c166103dd576001600160a01b03908116156103cb5734156103b957670de0b6b3a764000080340290348204036105305760025461044091611d02565b9081156103b9576040516370a0823160e01b8152306004820152602092917f000000000000000000000000000000000000000000000000000000000000000016908381602481855afa80156103ad5783916000916104ff575b50106103b95760405163a9059cbb60e01b815233600482015260248101929092528290829060449082906000905af19081156103ad57610018926000926104e2575b5050611d3a565b6104f89250803d106103a6576103988183611b48565b82806104db565b809250858092503d8311610529575b6105188183611b48565b810103126101e15782905185610499565b503d61050e565b634e487b7160e01b600052601160045260246000fd5b346101e15760003660031901126101e1576020600554604051908152f35b346101e15760403660031901126101e15760043560243590811515918281036101e15760015460ff8160a01c166103dd576001600160a01b03908116156103cb578260005260209060098252604060002090600182015416156106f05760ff60088201541660038110156106da576106c85760058101544210156106c85783600052600a8252604060002033600052825260ff604060002054166106b65733600052600b8252604060002054600354116106a45761062133611d98565b9283156106a4576000858152600a8452604080822033835285529020805460ff191660011790551561068f5760060161065b838254611d7e565b90555b6040519384528301527fcbdf6214089cba887ecbf35a0b6a734589959c9763342c756bb2a80ca2bc9f6e60403393a3005b60070161069d838254611d7e565b905561065e565b6040516378de4a6960e11b8152600490fd5b604051637c9a1cf960e01b8152600490fd5b604051630eeb4f1560e01b8152600490fd5b634e487b7160e01b600052602160045260246000fd5b604051631dc0650160e31b8152600490fd5b346101e15760203660031901126101e157600061018060405161072481611b2b565b828152826020820152606060408201526060808201528260808201528260a08201528260c08201528260e0820152826101008201528261012082015282610140820152826101608201520152600435600052600960205260406000206040519061078d82611b2b565b8054825260018101546001600160a01b031660208301526107b060028201611b6a565b60408301526107c160038201611b6a565b606083015260048101546080830152600581015460a0830152600681015460c0830152600781015460e0830152600881015490600360ff831610156106da5760ff828116610100850152600883901c81161515610120850152601083901c1615156101408401526001600160a01b0360189290921c821661016084015260090154610180830152602082015116156106f0576040518091602082528051602083015260018060a01b0360208201511660408301526101806108ac61089660408401516101a060608701526101c0860190611c10565b6060840151858203601f19016080870152611c10565b91608081015160a085015260a081015160c085015260c081015160e085015260e08101516101008501526108ea610100820151610120860190611c50565b6101208101511515610140850152610140810151151561016085015260018060a01b03610160820151168285015201516101a08301520390f35b346101e15760003660031901126101e1576020600354604051908152f35b346101e15760203660031901126101e1576020610965610960611c5d565b611d98565b604051908152f35b346101e15760003660031901126101e1576001546040516001600160a01b039091168152602090f35b346101e15760803660031901126101e15760043567ffffffffffffffff81116101e1576109c7903690600401611c8f565b60243567ffffffffffffffff81116101e1576109e7903690600401611c8f565b906001600160a01b0360443580821690036101e15760015460ff8160a01c166103dd578116156103cb578060443516158015610d6f575b610d5d5733600052600c602052604060002054600454116106a457600854916000198314610530576001830160085582600052600960205260406000209083825560018201336001600160601b0360a01b82541617905580519067ffffffffffffffff8211610c77578190610a966002850154611af1565b601f8111610d0a575b50602090601f8311600114610c9857600092610c8d575b50508160011b916000199060031b1c19161760028201555b835167ffffffffffffffff8111610c77576003820190610aee8254611af1565b95601f8711610c31575b602096508690601f8311600114610bc75760099493929160009183610bbc575b50508160011b916000199060031b1c19161790555b426004820155610b3f60065442611d7e565b6005820155600881016201000081546301000000600160b81b0360443560181b169061ff01600160b81b031916171790556064359182910155604051916001835260443516848301526040820152817fb956772e7b554d19bb961f4303b6c0c5cd7592c0c06fd08f15a56a0f304e6c0d60603393a3604051908152f35b015190508880610b18565b90601f1983169184600052886000209260005b818110610c1a575091600193918560099897969410610c01575b505050811b019055610b2d565b015160001960f88460031b161c19169055888080610bf4565b92938a600181928786015181550195019301610bda565b826000526020600020601f830160051c810160208410610c70575b601f90980160051c01965b878110610c645750610af8565b60008155600101610c57565b5080610c4c565b634e487b7160e01b600052604160045260246000fd5b015190508680610ab6565b9250600284016000526020600020906000935b601f1984168510610cef576001945083601f19811610610cd6575b505050811b016002820155610ace565b015160001960f88460031b161c19169055868080610cc6565b81810151835560209485019460019093019290910190610cab565b909150600284016000526020600020601f840160051c810160208510610d56575b90849392915b601f830160051c82018110610d47575050610a9f565b60008155859450600101610d31565b5080610d2b565b604051631713da9d60e11b8152600490fd5b5060643515610a1e565b346101e1576020806003193601126101e157600435906001549060ff8260a01c166103dd576001600160a01b03918216156103cb5782156103b95733600052600c81526040600020610dcc848254611d7e565b8155426001909101556040516323b872dd60e01b815233600482015230602482015260448101849052918190839060649082906000907f0000000000000000000000000000000000000000000000000000000000000000165af19182156103ad577ffb98bd47dcfd31e8d0c0e3558ffb823c6ad6ddcba96e48e82608e567b21cb1dd92610375916000916103805750611d3a565b346101e15760203660031901126101e1576001600160a01b03610e81611c5d565b16600052600b6020526040806000206001815491015482519182526020820152f35b346101e15760003660031901126101e1576020600854604051908152f35b346101e15760003660031901126101e1576001546001600160a01b038082163314159081610f33575b50610f215760ff60a01b1916600155337fdb333f8de8435249d224d186f58a6cb30292b00a2897688694c176f2cde512b0600080a2005b60405163b9e5ac5f60e01b8152600490fd5b90506000541633141582610eea565b346101e15760003660031901126101e1576000546040516001600160a01b039091168152602090f35b346101e15760003660031901126101e1576001546001600160a01b038082163314159081610fd1575b50610f215760ff60a01b1916600160a01b17600155337f0b907d122e4db865e49bc04c7f1e84a1ae29e024ee225bc08c69104520c5f3f9600080a2005b90506000541633141582610f94565b346101e15760003660031901126101e157610ff9611cd6565b600080546001600160a01b0319811682556001600160a01b03167f8be0079c531659141344cd1fd0a4f28419497f9722a3daafe3b4186f6b6457e08280a3005b346101e15760403660031901126101e15767ffffffffffffffff6004358181116101e15761106b903690600401611c8f565b906024358181116101e157611084903690600401611c8f565b9160015460ff8160a01c166103dd576001600160a01b0316156103cb5733600052602092600c8452604060002054600454116106a457600854926000198085146105305760018501600855846000526009865260406000209385855560018501336001600160601b0360a01b8254161790556002850190805190848211610c775781906111118454611af1565b601f8111611331575b508990601f83116001146112ce576000926112c3575b5050838260011b9260031b1c19161790555b60038401928051928311610c775761115a8454611af1565b601f811161127d575b508690601f841160011461120e5792600994928192600097958893611203575b50508260011b9260031b1c19161790555b4260048201556111a660065442611d7e565b60058201556008810161ff01600160b81b0319815416905501556040516000815260008382015260006040820152817fb956772e7b554d19bb961f4303b6c0c5cd7592c0c06fd08f15a56a0f304e6c0d60603393a3604051908152f35b015191508980611183565b9190601f1984169285600052886000209360005b8a8282106112675750509285926009979592600099976001961061124f575b50505050811b019055611194565b01519060f88460031b161c1916905588808080611241565b6001859782939686015181550196019301611222565b8460005287600020601f850160051c8101918986106112b9575b601f0160051c01905b8181106112ad5750611163565b600081556001016112a0565b9091508190611297565b015190508980611130565b60008581528b81209350601f198516905b8c82821061131b575050908460019594939210611304575b505050811b019055611142565b01518560f88460031b161c191690558980806112f7565b60018596829396860151815501950193016112df565b9091508360005289600020601f840160051c8101918b8510611378575b90601f859493920160051c01905b818110611369575061111a565b6000815584935060010161135c565b909150819061134e565b346101e15760003660031901126101e157602060ff60015460a01c166040519015158152f35b346101e15760203660031901126101e157600435600081815260096020526040902060018101546001600160a01b0316156106f057600881019081549060ff821660038110156106da576106c857600581015442106106c8577f34a42c4ce0a88d16ad098de6406057747139a2a3dd8dd8616ee7bbabcecb768e92602092826007600660ff950154910154106000146114595750600182198254161781555b54166114566040518092611c50565ba2005b8219166002178155611447565b346101e1576020806003193601126101e157600435906001549060ff8260a01c166103dd576001600160a01b03918216156103cb5733600052600b815260406000208315801561156f575b6106a4576114c6600182015460055490611d7e565b421061155e576114d7848254611d8b565b905560405163a9059cbb60e01b815233600482015260248101849052918190839060449082906000907f0000000000000000000000000000000000000000000000000000000000000000165af19182156103ad577fb80625e1a6dfa23fbd22202898020767aaed44c2671f32cdb3473366b907321c92610375916000916103805750611d3a565b6040516214930960e01b8152600490fd5b50805484116114b1565b346101e15760403660031901126101e1576024356001600160a01b038116908190036101e157600435600052600a602052604060002090600052602052602060ff604060002054166040519015158152f35b346101e15760203660031901126101e1576115e4611c5d565b6115ec611cd6565b6001600160a01b031680156103b957600180546001600160a01b031916821790557f46304c2bdadb06c16e46b6dc771e062e19a4150c21aa984fa49930bca03267cf600080a2005b346101e15760003660031901126101e1576020600654604051908152f35b346101e15760c03660031901126101e15760443560243560043560a43560843560643561167d611cd6565b83158015611716575b801561170e575b8015611706575b80156116fe575b6103b9577fb4e1fbeb0ffbfe92679bdf67bebeda0b781e7a37849484c69d99695f31e4b0299560c095856002558060035581600455826005558360065584600755604051958652602086015260408501526060840152608083015260a0820152a1005b50821561169b565b508115611694565b50851561168d565b508415611686565b346101e15760003660031901126101e1576020600454604051908152f35b346101e15760203660031901126101e1576001600160a01b0361175d611c5d565b16600052600c6020526040806000206001815491015482519182526020820152f35b346101e1576020806003193601126101e157600435906001549060ff8260a01c166103dd576001600160a01b03918216156103cb5733600052600c8152604060002083158015611877575b6106a4576117df600182015460055490611d7e565b421061155e576117f0848254611d8b565b905560405163a9059cbb60e01b815233600482015260248101849052918190839060449082906000907f0000000000000000000000000000000000000000000000000000000000000000165af19182156103ad577fb09985bf5df21e3dee7a7e607cdcff3c444bb813524e2bad65f649b400056b0a92610375916000916103805750611d3a565b50805484116117ca565b346101e15760003660031901126101e1576020600254604051908152f35b346101e15760203660031901126101e1576004356000908152600960205260409020805460018201546001600160a01b0390811692906118e160028301611b6a565b906118ee60038401611b6a565b92600481015493600582015460068301549061194560078501549361193760096008880154970154986040519c8d9c8d5260208d015260408c6101a091829101528c0190611c10565b908a820360608c0152611c10565b96608089015260a088015260c087015260e086015261196b610100860160ff8316611c50565b60ff8160081c16151561012086015260ff8160101c16151561014086015260181c166101608401526101808301520390f35b346101e15760203660031901126101e15760043580600052600960205260406000206008810180549360ff8560101c1615611ae2575060ff841660038110156106da57600114801590611ad5575b611ac3576009479201938454809310610d5d5761ff001916610100178082556001600160a01b03926000918291829182919060181c87165af13d15611abe573d611a3481611c73565b90611a426040519283611b48565b8152600060203d92013e5b15611a87577f0bb768aa97fa4e8a8f73bfa7bc210f1a29f29c765d44f0c29acc04a549e32e43916020915460181c169354604051908152a3005b60405162461bcd60e51b815260206004820152600f60248201526e151c985b9cd9995c8819985a5b1959608a1b6044820152606490fd5b611a4d565b604051633c7e994560e11b8152600490fd5b5060ff8460081c166119eb565b631713da9d60e11b8152600490fd5b90600182811c92168015611b21575b6020831014611b0b57565b634e487b7160e01b600052602260045260246000fd5b91607f1691611b00565b6101a0810190811067ffffffffffffffff821117610c7757604052565b90601f8019910116810190811067ffffffffffffffff821117610c7757604052565b9060405191826000825492611b7e84611af1565b908184526001948581169081600014611bed5750600114611baa575b5050611ba892500383611b48565b565b9093915060005260209081600020936000915b818310611bd5575050611ba893508201013880611b9a565b85548884018501529485019487945091830191611bbd565b915050611ba894506020925060ff191682840152151560051b8201013880611b9a565b919082519283825260005b848110611c3c575050826000602080949584010152601f8019910116010190565b602081830181015184830182015201611c1b565b9060038210156106da5752565b600435906001600160a01b03821682036101e157565b67ffffffffffffffff8111610c7757601f01601f191660200190565b81601f820112156101e157803590611ca682611c73565b92611cb46040519485611b48565b828452602083830101116101e157816000926020809301838601378301015290565b6000546001600160a01b03163303611cea57565b60405163118cdaa760e01b8152336004820152602490fd5b8115611d0c570490565b634e487b7160e01b600052601260045260246000fd5b908160209103126101e1575180151581036101e15790565b15611d4157565b60405162461bcd60e51b8152602060048201526015602482015274151bdad95b881d1c985b9cd9995c8819985a5b1959605a1b6044820152606490fd5b9190820180921161053057565b9190820391821161053057565b6001600160a01b03166000908152600b6020526040902054600754611dbc91611d02565b9056fea264697066735822122026b0256f6dc7a201716fa1427354bb17bd65b4acc0d688b788f8cb6e401daab764736f6c63430008140033",
  "linkReferences": {},
  "deployedLinkReferences": {}
}