{
  "_format": "hh-sol-artifact-1",
  "contractName": "GovernanceDAO",
  "sourceName": "src/contracts/GovernanceDAO.sol",
  "abi": [
    {
      "inputs": [
        {
          "internalType": "address",
          "name": "initialOwner",
          "type": "address"
        },
        {
          "internalType": "address",
          "name": "tokenAddress",
          "type": "address"
        },
        {
          "internalType": "uint256",
          "name": "_tokenPriceWei",
          "type": "uint256"
        },
        {
          "internalType": "uint256",
          "name": "_minStakeForVoting",
          "type": "uint256"
        },
        {
          "internalType": "uint256",
          "name": "_minStakeForProposing",
          "type": "uint256"
        },
        {
          "internalType": "uint256",
          "name": "_minStakeLockTime",
          "type": "uint256"
        },
        {
          "internalType": "uint256",
          "name": "_proposalDuration",
          "type": "uint256"
        },
        {
          "internalType": "uint256",
          "name": "_tokensPerVotePower",
          "type": "uint256"
        },
        {
          "internalType": "uint256",
          "name": "_quorumPercentage",
          "type": "uint256"
        },
        {
          "internalType": "uint256",
          "name": "_approvalPercentage",
          "type": "uint256"
        }
      ],
      "stateMutability": "nonpayable",
      "type": "constructor"
    },
    {
      "inputs": [],
      "name": "AlreadyVoted",
      "type": "error"
    },
    {
      "inputs": [],
      "name": "ApprovalThresholdNotReached",
      "type": "error"
    },
    {
      "inputs": [],
      "name": "DAOIsPaused",
      "type": "error"
    },
    {
      "inputs": [],
      "name": "InsufficientStake",
      "type": "error"
    },
    {
      "inputs": [],
      "name": "InvalidParameter",
      "type": "error"
    },
    {
      "inputs": [],
      "name": "InvalidProposal",
      "type": "error"
    },
    {
      "inputs": [],
      "name": "InvalidTreasuryProposal",
      "type": "error"
    },
    {
      "inputs": [],
      "name": "LockTimeNotReached",
      "type": "error"
    },
    {
      "inputs": [],
      "name": "NotPanicWallet",
      "type": "error"
    },
    {
      "inputs": [
        {
          "internalType": "address",
          "name": "owner",
          "type": "address"
        }
      ],
      "name": "OwnableInvalidOwner",
      "type": "error"
    },
    {
      "inputs": [
        {
          "internalType": "address",
          "name": "account",
          "type": "address"
        }
      ],
      "name": "OwnableUnauthorizedAccount",
      "type": "error"
    },
    {
      "inputs": [],
      "name": "PanicWalletNotSet",
      "type": "error"
    },
    {
      "inputs": [],
      "name": "ProposalNotExecutable",
      "type": "error"
    },
    {
      "inputs": [],
      "name": "QuorumNotReached",
      "type": "error"
    },
    {
      "inputs": [],
      "name": "VotingNotAllowed",
      "type": "error"
    },
    {
      "anonymous": false,
      "inputs": [
        {
          "indexed": true,
          "internalType": "address",
          "name": "caller",
          "type": "address"
        }
      ],
      "name": "CalmActivated",
      "type": "event"
    },
    {
      "anonymous": false,
      "inputs": [
        {
          "indexed": true,
          "internalType": "address",
          "name": "previousOwner",
          "type": "address"
        },
        {
          "indexed": true,
          "internalType": "address",
          "name": "newOwner",
          "type": "address"
        }
      ],
      "name": "OwnershipTransferred",
      "type": "event"
    },
    {
      "anonymous": false,
      "inputs": [
        {
          "indexed": true,
          "internalType": "address",
          "name": "caller",
          "type": "address"
        }
      ],
      "name": "PanicActivated",
      "type": "event"
    },
    {
      "anonymous": false,
      "inputs": [
        {
          "indexed": true,
          "internalType": "address",
          "name": "newPanicWallet",
          "type": "address"
        }
      ],
      "name": "PanicWalletUpdated",
      "type": "event"
    },
    {
      "anonymous": false,
      "inputs": [
        {
          "indexed": false,
          "internalType": "uint256",
          "name": "tokenPriceWei",
          "type": "uint256"
        },
        {
          "indexed": false,
          "internalType": "uint256",
          "name": "minStakeForVoting",
          "type": "uint256"
        },
        {
          "indexed": false,
          "internalType": "uint256",
          "name": "minStakeForProposing",
          "type": "uint256"
        },
        {
          "indexed": false,
          "internalType": "uint256",
          "name": "minStakeLockTime",
          "type": "uint256"
        },
        {
          "indexed": false,
          "internalType": "uint256",
          "name": "proposalDuration",
          "type": "uint256"
        },
        {
          "indexed": false,
          "internalType": "uint256",
          "name": "tokensPerVotePower",
          "type": "uint256"
        }
      ],
      "name": "ParametersUpdated",
      "type": "event"
    },
    {
      "anonymous": false,
      "inputs": [
        {
          "indexed": true,
          "internalType": "uint256",
          "name": "id",
          "type": "uint256"
        },
        {
          "indexed": true,
          "internalType": "address",
          "name": "proposer",
          "type": "address"
        },
        {
          "indexed": false,
          "internalType": "bool",
          "name": "isTreasury",
          "type": "bool"
        },
        {
          "indexed": false,
          "internalType": "address",
          "name": "treasuryRecipient",
          "type": "address"
        },
        {
          "indexed": false,
          "internalType": "uint256",
          "name": "treasuryAmount",
          "type": "uint256"
        }
      ],
      "name": "ProposalCreated",
      "type": "event"
    },
    {
      "anonymous": false,
      "inputs": [
        {
          "indexed": true,
          "internalType": "uint256",
          "name": "proposalId",
          "type": "uint256"
        },
        {
          "indexed": false,
          "internalType": "enum GovernanceBase.ProposalStatus",
          "name": "status",
          "type": "uint8"
        }
      ],
      "name": "ProposalFinalized",
      "type": "event"
    },
    {
      "anonymous": false,
      "inputs": [
        {
          "indexed": false,
          "internalType": "uint256",
          "name": "quorumPercentage",
          "type": "uint256"
        },
        {
          "indexed": false,
          "internalType": "uint256",
          "name": "approvalPercentage",
          "type": "uint256"
        }
      ],
      "name": "QuorumUpdated",
      "type": "event"
    },
    {
      "anonymous": false,
      "inputs": [
        {
          "indexed": true,
          "internalType": "address",
          "name": "user",
          "type": "address"
        },
        {
          "indexed": false,
          "internalType": "uint256",
          "name": "amount",
          "type": "uint256"
        }
      ],
      "name": "StakedForProposing",
      "type": "event"
    },
    {
      "anonymous": false,
      "inputs": [
        {
          "indexed": true,
          "internalType": "address",
          "name": "user",
          "type": "address"
        },
        {
          "indexed": false,
          "internalType": "uint256",
          "name": "amount",
          "type": "uint256"
        }
      ],
      "name": "StakedForVoting",
      "type": "event"
    },
    {
      "anonymous": false,
      "inputs": [
        {
          "indexed": true,
          "internalType": "uint256",
          "name": "proposalId",
          "type": "uint256"
        },
        {
          "indexed": true,
          "internalType": "address",
          "name": "recipient",
          "type": "address"
        },
        {
          "indexed": false,
          "internalType": "uint256",
          "name": "amount",
          "type": "uint256"
        }
      ],
      "name": "TreasuryProposalExecuted",
      "type": "event"
    },
    {
      "anonymous": false,
      "inputs": [
        {
          "indexed": true,
          "internalType": "address",
          "name": "user",
          "type": "address"
        },
        {
          "indexed": false,
          "internalType": "uint256",
          "name": "amount",
          "type": "uint256"
        }
      ],
      "name": "UnstakedFromProposing",
      "type": "event"
    },
    {
      "anonymous": false,
      "inputs": [
        {
          "indexed": true,
          "internalType": "address",
          "name": "user",
          "type": "address"
        },
        {
          "indexed": false,
          "internalType": "uint256",
          "name": "amount",
          "type": "uint256"
        }
      ],
      "name": "UnstakedFromVoting",
      "type": "event"
    },
    {
      "anonymous": false,
      "inputs": [
        {
          "indexed": true,
          "internalType": "uint256",
          "name": "proposalId",
          "type": "uint256"
        },
        {
          "indexed": true,
          "internalType": "address",
          "name": "voter",
          "type": "address"
        },
        {
          "indexed": false,
          "internalType": "bool",
          "name": "support",
          "type": "bool"
        },
        {
          "indexed": false,
          "internalType": "uint256",
          "name": "votePower",
          "type": "uint256"
        }
      ],
      "name": "VoteCast",
      "type": "event"
    },
    {
      "stateMutability": "payable",
      "type": "fallback"
    },
    {
      "inputs": [],
      "name": "approvalPercentage",
      "outputs": [
        {
          "internalType": "uint256",
          "name": "",
          "type": "uint256"
        }
      ],
      "stateMutability": "view",
      "type": "function"
    },
    {
      "inputs": [],
      "name": "buyTokens",
      "outputs": [],
      "stateMutability": "payable",
      "type": "function"
    },
    {
      "inputs": [
        {
          "internalType": "string",
          "name": "title",
          "type": "string"
        },
        {
          "internalType": "string",
          "name": "description",
          "type": "string"
        }
      ],
      "name": "createProposal",
      "outputs": [
        {
          "internalType": "uint256",
          "name": "",
          "type": "uint256"
        }
      ],
      "stateMutability": "nonpayable",
      "type": "function"
    },
    {
      "inputs": [
        {
          "internalType": "string",
          "name": "title",
          "type": "string"
        },
        {
          "internalType": "string",
          "name": "description",
          "type": "string"
        },
        {
          "internalType": "address",
          "name": "recipient",
          "type": "address"
        },
        {
          "internalType": "uint256",
          "name": "amount",
          "type": "uint256"
        }
      ],
      "name": "createTreasuryProposal",
      "outputs": [
        {
          "internalType": "uint256",
          "name": "",
          "type": "uint256"
        }
      ],
      "stateMutability": "nonpayable",
      "type": "function"
    },
    {
      "inputs": [
        {
          "internalType": "uint256",
          "name": "proposalId",
          "type": "uint256"
        }
      ],
      "name": "executeTreasuryProposal",
      "outputs": [],
      "stateMutability": "nonpayable",
      "type": "function"
    },
    {
      "inputs": [
        {
          "internalType": "uint256",
          "name": "proposalId",
          "type": "uint256"
        }
      ],
      "name": "finalizeProposal",
      "outputs": [],
      "stateMutability": "nonpayable",
      "type": "function"
    },
    {
      "inputs": [
        {
          "internalType": "uint256",
          "name": "proposalId",
          "type": "uint256"
        }
      ],
      "name": "getProposal",
      "outputs": [
        {
          "components": [
            {
              "internalType": "uint256",
              "name": "id",
              "type": "uint256"
            },
            {
              "internalType": "address",
              "name": "proposer",
              "type": "address"
            },
            {
              "internalType": "string",
              "name": "title",
              "type": "string"
            },
            {
              "internalType": "string",
              "name": "description",
              "type": "string"
            },
            {
              "internalType": "uint256",
              "name": "startTime",
              "type": "uint256"
            },
            {
              "internalType": "uint256",
              "name": "endTime",
              "type": "uint256"
            },
            {
              "internalType": "uint256",
              "name": "forVotes",
              "type": "uint256"
            },
            {
              "internalType": "uint256",
              "name": "againstVotes",
              "type": "uint256"
            },
            {
              "internalType": "enum GovernanceBase.ProposalStatus",
              "name": "status",
              "type": "uint8"
            },
            {
              "internalType": "bool",
              "name": "executed",
              "type": "bool"
            },
            {
              "internalType": "bool",
              "name": "isTreasury",
              "type": "bool"
            },
            {
              "internalType": "address",
              "name": "treasuryRecipient",
              "type": "address"
            },
            {
              "internalType": "uint256",
              "name": "treasuryAmount",
              "type": "uint256"
            }
          ],
          "internalType": "struct GovernanceBase.Proposal",
          "name": "",
          "type": "tuple"
        }
      ],
      "stateMutability": "view",
      "type": "function"
    },
    {
      "inputs": [],
      "name": "getProposalsCount",
      "outputs": [
        {
          "internalType": "uint256",
          "name": "",
          "type": "uint256"
        }
      ],
      "stateMutability": "view",
      "type": "function"
    },
    {
      "inputs": [
        {
          "internalType": "uint256",
          "name": "proposalId",
          "type": "uint256"
        },
        {
          "internalType": "address",
          "name": "voter",
          "type": "address"
        }
      ],
      "name": "hasVoted",
      "outputs": [
        {
          "internalType": "bool",
          "name": "",
          "type": "bool"
        }
      ],
      "stateMutability": "view",
      "type": "function"
    },
    {
      "inputs": [],
      "name": "minStakeForProposing",
      "outputs": [
        {
          "internalType": "uint256",
          "name": "",
          "type": "uint256"
        }
      ],
      "stateMutability": "view",
      "type": "function"
    },
    {
      "inputs": [],
      "name": "minStakeForVoting",
      "outputs": [
        {
          "internalType": "uint256",
          "name": "",
          "type": "uint256"
        }
      ],
      "stateMutability": "view",
      "type": "function"
    },
    {
      "inputs": [],
      "name": "minStakeLockTime",
      "outputs": [
        {
          "internalType": "uint256",
          "name": "",
          "type": "uint256"
        }
      ],
      "stateMutability": "view",
      "type": "function"
    },
    {
      "inputs": [
        {
          "internalType": "address",
          "name": "to",
          "type": "address"
        },
        {
          "internalType": "uint256",
          "name": "amount",
          "type": "uint256"
        }
      ],
      "name": "mintDaoTokens",
      "outputs": [],
      "stateMutability": "nonpayable",
      "type": "function"
    },
    {
      "inputs": [],
      "name": "nextProposalId",
      "outputs": [
        {
          "internalType": "uint256",
          "name": "",
          "type": "uint256"
        }
      ],
      "stateMutability": "view",
      "type": "function"
    },
    {
      "inputs": [],
      "name": "owner",
      "outputs": [
        {
          "internalType": "address",
          "name": "",
          "type": "address"
        }
      ],
      "stateMutability": "view",
      "type": "function"
    },
    {
      "inputs": [],
      "name": "panicWallet",
      "outputs": [
        {
          "internalType": "address",
          "name": "",
          "type": "address"
        }
      ],
      "stateMutability": "view",
      "type": "function"
    },
    {
      "inputs": [],
      "name": "panico",
      "outputs": [],
      "stateMutability": "nonpayable",
      "type": "function"
    },
    {
      "inputs": [],
      "name": "paused",
      "outputs": [
        {
          "internalType": "bool",
          "name": "",
          "type": "bool"
        }
      ],
      "stateMutability": "view",
      "type": "function"
    },
    {
      "inputs": [],
      "name": "proposalDuration",
      "outputs": [
        {
          "internalType": "uint256",
          "name": "",
          "type": "uint256"
        }
      ],
      "stateMutability": "view",
      "type": "function"
    },
    {
      "inputs": [
        {
          "internalType": "uint256",
          "name": "proposalId",
          "type": "uint256"
        }
      ],
      "name": "proposals",
      "outputs": [
        {
          "internalType": "uint256",
          "name": "id",
          "type": "uint256"
        },
        {
          "internalType": "address",
          "name": "proposer",
          "type": "address"
        },
        {
          "internalType": "string",
          "name": "title",
          "type": "string"
        },
        {
          "internalType": "string",
          "name": "description",
          "type": "string"
        },
        {
          "internalType": "uint256",
          "name": "startTime",
          "type": "uint256"
        },
        {
          "internalType": "uint256",
          "name": "endTime",
          "type": "uint256"
        },
        {
          "internalType": "uint256",
          "name": "forVotes",
          "type": "uint256"
        },
        {
          "internalType": "uint256",
          "name": "againstVotes",
          "type": "uint256"
        },
        {
          "internalType": "enum GovernanceBase.ProposalStatus",
          "name": "status",
          "type": "uint8"
        },
        {
          "internalType": "bool",
          "name": "executed",
          "type": "bool"
        },
        {
          "internalType": "bool",
          "name": "isTreasury",
          "type": "bool"
        },
        {
          "internalType": "address",
          "name": "treasuryRecipient",
          "type": "address"
        },
        {
          "internalType": "uint256",
          "name": "treasuryAmount",
          "type": "uint256"
        }
      ],
      "stateMutability": "view",
      "type": "function"
    },
    {
      "inputs": [
        {
          "internalType": "address",
          "name": "user",
          "type": "address"
        }
      ],
      "name": "proposingStake",
      "outputs": [
        {
          "internalType": "uint256",
          "name": "amount",
          "type": "uint256"
        },
        {
          "internalType": "uint256",
          "name": "since",
          "type": "uint256"
        }
      ],
      "stateMutability": "view",
      "type": "function"
    },
    {
      "inputs": [],
      "name": "quorumPercentage",
      "outputs": [
        {
          "internalType": "uint256",
          "name": "",
          "type": "uint256"
        }
      ],
      "stateMutability": "view",
      "type": "function"
    },
    {
      "inputs": [],
      "name": "renounceOwnership",
      "outputs": [],
      "stateMutability": "nonpayable",
      "type": "function"
    },
    {
      "inputs": [
        {
          "internalType": "address",
          "name": "newPanicWallet",
          "type": "address"
        }
      ],
      "name": "setPanicWallet",
      "outputs": [],
      "stateMutability": "nonpayable",
      "type": "function"
    },
    {
      "inputs": [
        {
          "internalType": "uint256",
          "name": "_tokenPriceWei",
          "type": "uint256"
        },
        {
          "internalType": "uint256",
          "name": "_minStakeForVoting",
          "type": "uint256"
        },
        {
          "internalType": "uint256",
          "name": "_minStakeForProposing",
          "type": "uint256"
        },
        {
          "internalType": "uint256",
          "name": "_minStakeLockTime",
          "type": "uint256"
        },
        {
          "internalType": "uint256",
          "name": "_proposalDuration",
          "type": "uint256"
        },
        {
          "internalType": "uint256",
          "name": "_tokensPerVotePower",
          "type": "uint256"
        }
      ],
      "name": "setParameters",
      "outputs": [],
      "stateMutability": "nonpayable",
      "type": "function"
    },
    {
      "inputs": [
        {
          "internalType": "uint256",
          "name": "_quorumPercentage",
          "type": "uint256"
        },
        {
          "internalType": "uint256",
          "name": "_approvalPercentage",
          "type": "uint256"
        }
      ],
      "name": "setQuorum",
      "outputs": [],
      "stateMutability": "nonpayable",
      "type": "function"
    },
    {
      "inputs": [
        {
          "internalType": "uint256",
          "name": "amount",
          "type": "uint256"
        }
      ],
      "name": "stakeForProposing",
      "outputs": [],
      "stateMutability": "nonpayable",
      "type": "function"
    },
    {
      "inputs": [
        {
          "internalType": "uint256",
          "name": "amount",
          "type": "uint256"
        }
      ],
      "name": "stakeForVoting",
      "outputs": [],
      "stateMutability": "nonpayable",
      "type": "function"
    },
    {
      "inputs": [],
      "name": "token",
      "outputs": [
        {
          "internalType": "contract IDaoToken",
          "name": "",
          "type": "address"
        }
      ],
      "stateMutability": "view",
      "type": "function"
    },
    {
      "inputs": [],
      "name": "tokenPriceWei",
      "outputs": [
        {
          "internalType": "uint256",
          "name": "",
          "type": "uint256"
        }
      ],
      "stateMutability": "view",
      "type": "function"
    },
    {
      "inputs": [],
      "name": "tokensPerVotePower",
      "outputs": [
        {
          "internalType": "uint256",
          "name": "",
          "type": "uint256"
        }
      ],
      "stateMutability": "view",
      "type": "function"
    },
    {
      "inputs": [],
      "name": "totalVotingPower",
      "outputs": [
        {
          "internalType": "uint256",
          "name": "",
          "type": "uint256"
        }
      ],
      "stateMutability": "view",
      "type": "function"
    },
    {
      "inputs": [],
      "name": "tranquilidad",
      "outputs": [],
      "stateMutability": "nonpayable",
      "type": "function"
    },
    {
      "inputs": [
        {
          "internalType": "address",
          "name": "newOwner",
          "type": "address"
        }
      ],
      "name": "transferOwnership",
      "outputs": [],
      "stateMutability": "nonpayable",
      "type": "function"
    },
    {
      "inputs": [
        {
          "internalType": "uint256",
          "name": "amount",
          "type": "uint256"
        }
      ],
      "name": "unstakeFromProposing",
      "outputs": [],
      "stateMutability": "nonpayable",
      "type": "function"
    },
    {
      "inputs": [
        {
          "internalType": "uint256",
          "name": "amount",
          "type": "uint256"
        }
      ],
      "name": "unstakeFromVoting",
      "outputs": [],
      "stateMutability": "nonpayable",
      "type": "function"
    },
    {
      "inputs": [
        {
          "internalType": "uint256",
          "name": "proposalId",
          "type": "uint256"
        },
        {
          "internalType": "bool",
          "name": "support",
          "type": "bool"
        }
      ],
      "name": "vote",
      "outputs": [],
      "stateMutability": "nonpayable",
      "type": "function"
    },
    {
      "inputs": [
        {
          "internalType": "address",
          "name": "account",
          "type": "address"
        }
      ],
      "name": "votingPower",
      "outputs": [
        {
          "internalType": "uint256",
          "name": "",
          "type": "uint256"
        }
      ],
      "stateMutability": "view",
      "type": "function"
    },
    {
      "inputs": [
        {
          "internalType": "address",
          "name": "user",
          "type": "address"
        }
      ],
      "name": "votingStake",
      "outputs": [
        {
          "internalType": "uint256",
          "name": "amount",
          "type": "uint256"
        },
        {
          "internalType": "uint256",
          "name": "since",
          "type": "uint256"
        }
      ],
      "stateMutability": "view",
      "type": "function"
    },
    {
      "stateMutability": "payable",
      "type": "receive"
    }
  ],
  "bytecode": "0x60a0346200099657601f6200652338819003918201601f191683019291906001600160401b038411838510176200099b5781610140928492604096875283398101031262000996576200005281620009cd565b9060209162000063838301620009cd565b848301516060840151608085015160a086015160c08701519160e0880151936101206101008a01519901519760018060a01b038091169788156200097e578c918991620001358e60009562000102875460018060a01b03199780898316178a5587845192167f8be0079c531659141344cd1fd0a4f28419497f9722a3daafe3b4186f6b6457e08b80a36720701118ac22290b84820152838152620009b1565b6200011e81516792e5c8dbb123fc8784820152838152620009b1565b519067fce35f3e8705855c818301528152620009b1565b1680620001855760048e620001788f62000160835167c0987673e918f13983820152828152620009b1565b8251906746d5bf58d899294d818301528152620009b1565b51630309cb8760e51b8152fd5b7f46304c2bdadb06c16e46b6dc771e062e19a4150c21aa984fa49930bca03267cf8e6200024a8f6200026496958e95620001d08551675d9a72030ac8002685820152848152620009b1565b620001ec855167fede8236cb49a40785820152848152620009b1565b6080526200020b845167cdd2908427c81fbe84820152838152620009b1565b60019e8f9182541617905562000232835167cab742c400d2eab283820152828152620009b1565b825190670fb6132f2e30f113818301528152620009b1565b519280a2677ee3332c00e925778c8201528b8152620009b1565b620002808b51677f2eb5dfa529a7f68c8201528b8152620009b1565b6200029c8b516772f1fce2d819dc1d8c8201528b8152620009b1565b620002b88b5167501115ed5ad84e558c8201528b8152620009b1565b620002d48b51679b9ce79ccb76aeb68c8201528b8152620009b1565b85158062000957575b8015620008f6575b801562000895575b801562000834575b801562000802575b156200033f5760048b620001788c620003278351676e92be53d34169a583820152828152620009b1565b8251906745ca32fc48cf2ddb818301528152620009b1565b917fb4e1fbeb0ffbfe92679bdf67bebeda0b781e7a37849484c69d99695f31e4b02995939160c095936200047d8c671c61ecba1dde319e8f620003938151673670e6460fe74b1785820152848152620009b1565b620003af8151677d538b8b57cac57285820152848152620009b1565b89600255620003cf81516706a171bca9a52a0985820152848152620009b1565b84600355620003ef815167c0a371ad12c4d98385820152848152620009b1565b856004556200040f81516748a59a8b5a466ba585820152848152620009b1565b866005556200042f815167636d5f63e4ec27ea85820152848152620009b1565b876006556200044f815167e239fae5052eb03885820152848152620009b1565b886007556200046f8151677513dbd1176a113085820152848152620009b1565b51918201528d8152620009b1565b8c519586528b8601528b8501526060840152608083015260a0820152a1620004b685516740bddce58611b33d86820152858152620009b1565b620004d2855167434562c6cd4b691586820152858152620009b1565b620004ee855167dd3ef2f34c11594986820152858152620009b1565b6200050a855167db16a5d909a944a186820152858152620009b1565b62000526855167fc06e06d268e5a8286820152858152620009b1565b821580620007db575b8015620007a7575b1562000579576004856200017886620005618351672eab5bf4c87925c583820152828152620009b1565b82519067bc58c962da225e3a818301528152620009b1565b620005958551673f0aab5738ad16a786820152858152620009b1565b620005b1855167f2f6505f872c5d0386820152858152620009b1565b620005cd855167f74a11ec28dd218586820152858152620009b1565b811590816200077f575b811562000742575b5015620006225760048462000178856200060a835167b75951ceaa2423dd83820152828152620009b1565b8251906758e4731d2d248348818301528152620009b1565b836200070193927f6784e9bcb845caaa98267d7b0918f97d3d17f7cb35a05b52010f7eb587a0acb092620006678351675f9091aeb5a8463f87820152868152620009b1565b62000683835167cefd37e6e4bd25b987820152868152620009b1565b81600855620006a3835167eba0a504d030b19287820152868152620009b1565b80600955620006c383516756fea3a34a58fa0b87820152868152620009b1565b620006df83516799af20dc3f3568aa87820152868152620009b1565b825191825284820152a1825190671def95f891fb8c01818301528152620009b1565b51615b409081620009e382396080518181816101ff0152818161070f01528181610b9c0152818161265a0152818161424301528181614b9a015261508f0152f35b6064831191508162000757575b5038620005df565b9050620007788551671a1fde8ee186979160c01b86820152858152620009b1565b386200074f565b9050620007a08551671e59b318f81a486760c31b86820152858152620009b1565b80620005d7565b506064831180156200053757508451673ebc070459a9cd7560c01b85820152848152620007d490620009b1565b8062000537565b50845166de286980802e1960c51b85820152848152620007fb90620009b1565b806200052f565b5084158015620002fd57508a5167f30df79f4678905f60c01b8b8201528a81526200082d90620009b1565b86620002fd565b508315806200086d575b8015620002f557508a51673d6e3e8884f015fb60c21b8b8201528a81526200086690620009b1565b86620002f5565b508a516727e12bda275e2e3760c01b8b8201528a81526200088e90620009b1565b866200083e565b50811580620008ce575b8015620002ed57508a5167065d65609d6537ad60c41b8b8201528a8152620008c790620009b1565b86620002ed565b508a5167109f800444ccfb0960c31b8b8201528a8152620008ef90620009b1565b866200089f565b508015806200092f575b8015620002e557508a5167213400d122b3944160c11b8b8201528a81526200092890620009b1565b86620002e5565b508a51673bed8da6694bcb2d60c21b8b8201528a81526200095090620009b1565b8662000900565b508a5166161a8aa422161160c81b8b8201528a81526200097790620009b1565b86620002dd565b8c51631e4fbdf760e01b815260006004820152602490fd5b600080fd5b634e487b7160e01b600052604160045260246000fd5b604081019081106001600160401b038211176200099b57604052565b51906001600160a01b0382168203620009965756fe6080806040526004361015610035575b503615610033576100336040516797da196c0033ff876020820152602081526157fc565b005b600090813560e01c9081627e637e1461531857508063013cf08b1461521c57806305d0f15b146151fe5780630627d42514614cec5780630a5af04b14614ca95780630d346e9a14614c8b5780631638468614614a3e578063282c8749146146145780632ab09d14146145f65780633008d437146145d857806330109962146145ba5780634091e8f01461442257806343859632146143d05780634fa76ec9146143b2578063542ffa7b14613dec5780635652077c1461373d5780635c975abb1461371757806365e481e214612f8b578063671b379314612f6d578063715018a614612f135780637a3d546814612bc257806381e6830f14612a185780638da5cb5b146129f1578063977613821461282357806398e527d3146127b35780639f45b13314612770578063a028699e14612340578063a73079ac14611991578063ad3bcade14611968578063c07473f61461193c578063c2d667761461191e578063c7f758a8146115c3578063c9d27afe14610df6578063d064a9a414610dd8578063d0febe4c14610855578063d1b85b49146102da578063f2fde38b1461024f578063f96df52a146102315763fc0c546a0361000f573461022e578060031936011261022e576040517f00000000000000000000000000000000000000000000000000000000000000006001600160a01b03168152602090f35b80fd5b503461022e578060031936011261022e576020600754604051908152f35b503461022e57602036600319011261022e57610269615943565b6102716159bc565b6001600160a01b039081169081156102c157600054826001600160601b0360a01b821617600055167f8be0079c531659141344cd1fd0a4f28419497f9722a3daafe3b4186f6b6457e0600080a380f35b604051631e4fbdf760e01b815260048101849052602490fd5b503461022e576020806003193601126108515760043561030b60405167f2be5a8ee83ffc13848201528381526157fc565b6103266040516723a6aa57f260cee6848201528381526157fc565b6103416040516738f9d058737588aa848201528381526157fc565b61035c6040516798dbd418d87fb6d3848201528381526157fc565b60015460ff8160a01c166000146103b6576103a48361038c6040516706d22a1603cc66af838201528281526157fc565b604051906789152c472df81d158183015281526157fc565b604051632795c27960e21b8152600490fd5b6103d1604051673392708b065c4978858201528481526157fc565b6103ec60405167215f2bced65eb339858201528481526157fc565b6104076040516771a6b24264ec116e858201528481526157fc565b6001600160a01b0390811661045f5761044d8361043560405167f4dbdb29e7311b48838201528281526157fc565b60405190675e5fde16bb0797b98183015281526157fc565b60405163028eecf360e11b8152600490fd5b61047a604051679876c41ef0ccdf57858201528481526157fc565b610495604051678a7063d64d1c73c8858201528481526157fc565b6104b060405167f7e5c56964f17222858201528481526157fc565b6104cb60405167773fd2faadda0382858201528481526157fc565b6104e66040516715669f87e197bc80858201528481526157fc565b61050160405167e5c7e41d8a6f9929858201528481526157fc565b8161054f5761053d8361052560405167c01c81a7093739b0838201528281526157fc565b6040519067da233670972eecb78183015281526157fc565b604051630309cb8760e51b8152600490fd5b909161056c60405167725c281de7f9f000838201528281526157fc565b61058760405167d17c70dc03b73c35838201528281526157fc565b6105a260405167450f1c5aa5713086838201528281526157fc565b338452600e81526106a8604085206105cb60405167ab6d619fcb8effa8858201528481526157fc565b6105e66040516768d235163ea32506858201528481526157fc565b61061b610684825492610620886105ff600754876159fb565b9561061b60405167ac4fe974bcd39ccc8b8201528a81526157fc565b615a77565b9081815561063f60405167981bb5173ecfbaae898201528881526157fc565b60014291015561066060405167a95c04ff82103bc7888201528781526157fc565b61067b6040516734510220458fb19c888201528781526157fc565b600754906159fb565b916106a060405167da9e5becdc016fa3878201528681526157fc565b600b54615a84565b600b556106c6604051673e0b9c1d2f285290838201528281526157fc565b6106e1604051677090d6486e984a9e838201528281526157fc565b6040516323b872dd60e01b8152336004820152306024820152604481018490529181908390606490829088907f0000000000000000000000000000000000000000000000000000000000000000165af1918215610846577fec53a80f7fd2e0ad362f205aa59d80df1f44ddbb229bbe3591a1bf8d34fb5b6f926107bc918691610819575b50610781604051679e859a795ba12f2a858201528481526157fc565b61079c60405167d48a66dafc46fe9e858201528481526157fc565b6107b76040516776716fd441b6c05b858201528481526157fc565b615a33565b6107d760405167fb0b0591582fb387838201528281526157fc565b6107f260405167b1612cec300aceff838201528281526157fc565b61080d604051679760e5fd6fee8a25838201528281526157fc565b6040519283523392a280f35b6108399150833d851161083f575b6108318183615818565b810190615a1b565b38610765565b503d610827565b6040513d86823e3d90fd5b5080fd5b508060031936011261022e576040519061088060209267770e6d8fc6fab224848201528381526157fc565b61089b6040516723a6aa57f260cee6848201528381526157fc565b6108b66040516738f9d058737588aa848201528381526157fc565b6108d16040516798dbd418d87fb6d3848201528381526157fc565b60015460ff8160a01c16600014610901576103a48361038c6040516706d22a1603cc66af838201528281526157fc565b61091c604051673392708b065c4978858201528481526157fc565b61093760405167215f2bced65eb339858201528481526157fc565b6109526040516771a6b24264ec116e858201528481526157fc565b6001600160a01b039081166109805761044d8361043560405167f4dbdb29e7311b48838201528281526157fc565b61099b604051679876c41ef0ccdf57858201528481526157fc565b6109b6604051678a7063d64d1c73c8858201528481526157fc565b6109d160405167d0cd36ca3e1aa2d8858201528481526157fc565b6109ec6040516792166a27746fff20858201528481526157fc565b610a07604051679998c20bcc9bb286858201528481526157fc565b610a2260405167a1b7490e9252122d858201528481526157fc565b34158015610a615761053d84610a4960405167e5cb03edfa874318838201528281526157fc565b60405190672d9843a99937d9248183015281526157fc565b610a7c6040516773016140494242d3868201528581526157fc565b610a976040516756d062e916e92734868201528581526157fc565b610ab260405167d530dab68705a557868201528581526157fc565b670de0b6b3a76400009081340291348304141715610dc457600254610ad6916159fb565b90610af2604051676b35b80ab6a075e3868201528581526157fc565b610b0d60405167570cadbc8ee0e7fc868201528581526157fc565b81610b495761053d84610b31604051676f89b11aeb99cc5f838201528281526157fc565b60405190671a238561849246f88183015281526157fc565b610b64604051679cc47f97117048c1868201528581526157fc565b610b7f6040516788911bf06768e056868201528581526157fc565b610b9a60405167931a4c05121a90de868201528581526157fc565b7f000000000000000000000000000000000000000000000000000000000000000016906040516370a0823160e01b81523060048201528481602481865afa908115610846579082918591610d8f575b50610c05604051672e694bc87179b4ec888201528781526157fc565b610c2060405167bdb18d53a5ba2eb3888201528781526157fc565b1015610c5d5761053d84610c4560405167c7901dd12fa0f80f838201528281526157fc565b60405190670c87bbafed521cf98183015281526157fc565b92610ce081928495610c80604051673af087c09c41e336868201528581526157fc565b610c9b6040516771647dab0e5d4daa868201528581526157fc565b610cb6604051670b65c2d5ba5a7ca3868201528581526157fc565b60405163a9059cbb60e01b8152336004820152602481019190915294859283919082906044820190565b03925af1918215610d8457610d6492610d4c918591610d67575b50610d1660405167ee15fc0058dc8e5a858201528481526157fc565b610d31604051675d829ae4e741a5a3858201528481526157fc565b6107b76040516738c26480e6aa5ae4858201528481526157fc565b60405190670c5989231d1647a08183015281526157fc565b80f35b610d7e9150833d851161083f576108318183615818565b38610cfa565b6040513d85823e3d90fd5b809250868092503d8311610dbd575b610da88183615818565b81010312610db95781905138610be9565b8380fd5b503d610d9e565b634e487b7160e01b83526011600452602483fd5b503461022e578060031936011261022e576020600554604051908152f35b503461022e57604036600319011261022e57602435801515600435818303610db95760405192610e37602094672fae7e79379027b3868201528581526157fc565b610e526040516723a6aa57f260cee6868201528581526157fc565b610e6d6040516738f9d058737588aa868201528581526157fc565b610e886040516798dbd418d87fb6d3868201528581526157fc565b60015460ff8160a01c16600014610eb8576103a48561038c6040516706d22a1603cc66af838201528281526157fc565b610ed3604051673392708b065c4978878201528681526157fc565b610eee60405167215f2bced65eb339878201528681526157fc565b610f096040516771a6b24264ec116e878201528681526157fc565b6001600160a01b03908116610f375761044d8561043560405167f4dbdb29e7311b48838201528281526157fc565b610f52604051679876c41ef0ccdf57878201528681526157fc565b610f6d604051678a7063d64d1c73c8878201528681526157fc565b610f8860405167fe9016c6515662c6878201528681526157fc565b610fa3604051679ab74f433f258e85878201528681526157fc565b610fbe60405167bec9e58f76e56541878201528681526157fc565b610fd960405167272a0cfd3d951641878201528681526157fc565b828652600c8552604086209061100060405167eb71f3cec20cdb20888201528781526157fc565b61101b60405167f0ef278b0575d837888201528781526157fc565b60018201541661106e5761105c8561104460405167911b5bb8434e067d838201528281526157fc565b60405190675287ccd9a558eb298183015281526157fc565b604051631dc0650160e31b8152600490fd5b611089604051677c24ada633b2bb69878201528681526157fc565b6110a4604051674ca526fce85a3951878201528681526157fc565b6110bf6040516789881391ad4d3893878201528681526157fc565b60ff60088201541660038110156115af571561111e5761110c856110f4604051673c03913d81c5621f838201528281526157fc565b6040519067a2501d8dc502b8538183015281526157fc565b604051630eeb4f1560e01b8152600490fd5b61113960405167d70215d0002fbb75878201528681526157fc565b61115460405167762720b5c184cab6878201528681526157fc565b61116f604051670e4f8581375c3cd2878201528681526157fc565b600581015442106111b15761110c8561119960405167ca3df2adb5c51e01838201528281526157fc565b60405190674e2e6b901d40dc748183015281526157fc565b6111cc604051672e6fc3dd061872ad878201528681526157fc565b6111e760405167555774988f968270878201528681526157fc565b61120260405167c7d80d86de340045878201528681526157fc565b828652600d85526040862033600052855260ff6040600020541660001461126c5761125a856112426040516798edf93877adb376838201528281526157fc565b60405190679bfad8c29936bf038183015281526157fc565b604051637c9a1cf960e01b8152600490fd5b6112876040516789c45aa7396f1189878201528681526157fc565b6112a260405167cf4305f26de15329878201528681526157fc565b6112bd60405167faa30fbf20beb391878201528681526157fc565b338652600e8552604086206112e3604051675aa387c6331ed508888201528781526157fc565b6112fd60405166bc2cb247e14ee6888201528781526157fc565b5460035411156113505761133e856113266040516760ecefdd650f2126838201528281526157fc565b604051906729bb345d386e2bed8183015281526157fc565b6040516378de4a6960e11b8152600490fd5b61136b6040516754e2cc8f32b4a26a878201528681526157fc565b611386604051674763e48b20937a3c878201528681526157fc565b6113a160405167652983794fb6f3c0878201528681526157fc565b6113aa33615a91565b916113c660405167802040b18a15254e888201528781526157fc565b6113e160405167073355f172e84991888201528781526157fc565b8261141d5761133e866114056040516799eedf134ff13061838201528281526157fc565b6040519067a8b2e8cdf821e1988183015281526157fc565b9086959161143c60405167af2b5ae53de9c25c858201528481526157fc565b611457604051674cc858fbfd0fd2f0858201528481526157fc565b848752600d8352604087203360005283526040600020600160ff19825416179055611493604051678a05040609fdf3e6858201528481526157fc565b6114ae60405167259926c2a06f0a88858201528481526157fc565b15611563576006906114d16040516728b535aead4e5edf858201528481526157fc565b6114ec604051673e2ae21996b18772858201528481526157fc565b016114f8838254615a77565b90555b611516604051673a863b0055338842838201528281526157fc565b61153160405167889c0e7a5ada84fc838201528281526157fc565b6040519384528301527fcbdf6214089cba887ecbf35a0b6a734589959c9763342c756bb2a80ca2bc9f6e60403393a380f35b60079061158160405167c517e0ddf44af2b8858201528481526157fc565b61159c6040516796434d5a839c62e6858201528481526157fc565b016115a8838254615a77565b90556114fb565b634e487b7160e01b87526021600452602487fd5b503461022e57602036600319011261022e57806101806040516115e5816157df565b828152826020820152606060408201526060808201528260808201528260a08201528260c08201528260e082015282610100820152826101208201528261014082015282610160820152015261164e60405167f360d9c3ea2353b56020820152602081526157fc565b61166b604051671b9b832dfd03b34f6020820152602081526157fc565b611688604051670577bd968a9a12076020820152602081526157fc565b6004358152600c60205260408120604051906116a3826157df565b8054825260018101546001600160a01b031660208301526116c66002820161583a565b60408301526116d76003820161583a565b606083015260048101546080830152600581015460a0830152600681015460c0830152600781015460e08301526008810154600360ff8216101561190a5760ff808216610100850152600882901c81161515610120850152601082901c16151561014084015260181c6001600160a01b03166101608301526009015461018082015260405167f433ab25717582656020808301919091528152611779906157fc565b61179660405167797f9dbdb8b7845b6020820152602081526157fc565b60208101516001600160a01b03166117e2576117c560405167e375853bce81fbe86020820152602081526157fc565b61105c60405167047137d64bf7bb8e6020820152602081526157fc565b6117ff6040516792dee994dc3f2efe6020820152602081526157fc565b61181c604051671c325851089214176020820152602081526157fc565b61183960405167cbb761f7c7a3b3fe6020820152602081526157fc565b6040518091602082528051602083015260018060a01b03602082015116604083015261018061189261187c60408401516101a060608701526101c08601906158e0565b6060840151858203601f190160808701526158e0565b91608081015160a085015260a081015160c085015260c081015160e085015260e08101516101008501526118d0610100820151610120860190615920565b6101208101511515610140850152610140810151151561016085015260018060a01b03610160820151168285015201516101a08301520390f35b634e487b7160e01b84526021600452602484fd5b503461022e578060031936011261022e576020600354604051908152f35b503461022e57602036600319011261022e57602061196061195b615943565b615a91565b604051908152f35b503461022e578060031936011261022e576001546040516001600160a01b039091168152602090f35b503461022e57608036600319011261022e5760043567ffffffffffffffff8111610851576119c3903690600401615975565b906024359067ffffffffffffffff821161022e57506119e6903690600401615975565b906001600160a01b03604435808216900361233b57611a18604051676c44818082a0d2006020820152602081526157fc565b611a356040516723a6aa57f260cee66020820152602081526157fc565b611a526040516738f9d058737588aa6020820152602081526157fc565b611a6f6040516798dbd418d87fb6d36020820152602081526157fc565b60015460ff8160a01c16600014611aba57611a9d6040516706d22a1603cc66af6020820152602081526157fc565b6103a46040516789152c472df81d156020820152602081526157fc565b8190611ad9604051673392708b065c49786020820152602081526157fc565b611af660405167215f2bced65eb3396020820152602081526157fc565b611b136040516771a6b24264ec116e6020820152602081526157fc565b16611b5257611b3560405167f4dbdb29e7311b486020820152602081526157fc565b61044d604051675e5fde16bb0797b96020820152602081526157fc565b611b6f604051679876c41ef0ccdf576020820152602081526157fc565b611b8c604051678a7063d64d1c73c86020820152602081526157fc565b611ba960405167b9ade9e937dd573c6020820152602081526157fc565b611bc660405167abb29e29c91ce94e6020820152602081526157fc565b611be3604051675114c40f73c75a5e6020820152602081526157fc565b611c0060405167de68b8d951cb7c006020820152602081526157fc565b80604435161580612313575b80156122e0575b15611c6457611c35604051674664f81c377b4d0f6020820152602081526157fc565b611c526040516731a4f82099b56ea36020820152602081526157fc565b604051631713da9d60e11b8152600490fd5b611c81604051677bc745a30ed0e6346020820152602081526157fc565b611c9e60405167c529a3a0e846e3ba6020820152602081526157fc565b611cbb604051673142f9eddcd37dc26020820152602081526157fc565b611cd860405167a40c93dc08dfbe586020820152602081526157fc565b611cf560405167c8d27382081a59856020820152602081526157fc565b611d126040516798af0a14673f2f826020820152602081526157fc565b33600052600f6020526040600020611d3d60405167ac8a14d2034742906020820152602081526157fc565b611d5a60405167d8ce26b2d21b8da76020820152602081526157fc565b546004541115611d9e57611d81604051676603b02773c537c46020820152602081526157fc565b61133e6040516713724890f20ffbbc6020820152602081526157fc565b611dbb6040516722155d35b9609cdc6020820152602081526157fc565b611dd8604051675834b715c15ca4aa6020820152602081526157fc565b611df5604051672b9cd1e119ed69216020820152602081526157fc565b600a549160001983146122ca5760018301600a55611e2660405167aaec691e840ce15b6020820152602081526157fc565b611e43604051677c599ab0019ecff46020820152602081526157fc565b82600052600c602052604060002090611e6f60405167e3e0377415184feb6020820152602081526157fc565b838255611e8f604051676fac893fb38e6e9c6020820152602081526157fc565b60018201336001600160601b0360a01b825416179055611ec26040516714f870ef3bd5bad86020820152602081526157fc565b80519067ffffffffffffffff82116121e9578190611ee360028501546157a5565b601f8111612277575b50602090601f831160011461220a576000926121ff575b50508160011b916000199060031b1c19161760028201555b611f3860405167903342180d709e4d6020820152602081526157fc565b835167ffffffffffffffff81116121e9576003820190611f5882546157a5565b95601f87116121a1575b602096508690601f8311600114612137576009949392916000918361212c575b50508160011b916000199060031b1c19161790555b611fb26040516794df3347a03aafcb878201528681526157fc565b426004820155611fd3604051670672f86d6455373d878201528681526157fc565b611fdf60065442615a77565b6005820155611fff60405167c444a11ee9a8fc6f878201528681526157fc565b600881016201000081546120246040516778e4dd3c4757aa518a8201528981526157fc565b61203f60405167b66e8b38bba55f6e8a8201528981526157fc565b61ff01600160b81b03191660443560181b6301000000600160b81b03161717905560405167783d7a708fb853d78682015285815261207c906157fc565b606435918291015561209f60405167eca2005c7aff570d868201528581526157fc565b6120ba60405167fab4b9f47ecc5609868201528581526157fc565b604051916001835260443516848301526040820152817fb956772e7b554d19bb961f4303b6c0c5cd7592c0c06fd08f15a56a0f304e6c0d60603393a36121116040516797167ef0eeb7510a848201528381526157fc565b61196060405167776c3a0cbce36eb1848201528381526157fc565b015190503880611f82565b90601f1983169184600052886000209260005b81811061218a575091600193918560099897969410612171575b505050811b019055611f97565b015160001960f88460031b161c19169055388080612164565b92938a60018192878601518155019501930161214a565b826000526020600020601f830160051c810197602084106121df575b601f0160051c01965b8781106121d35750611f62565b600081556001016121c6565b90975087906121bd565b634e487b7160e01b600052604160045260246000fd5b015190503880611f03565b600285016000908152602081209350601f198516905b81811061225f5750908460019594939210612246575b505050811b016002820155611f1b565b015160001960f88460031b161c19169055388080612236565b92936020600181928786015181550195019301612220565b909150600284016000526020600020601f840160051c8101602085106122c3575b90849392915b601f830160051c820181106122b4575050611eec565b6000815585945060010161229e565b5080612298565b634e487b7160e01b600052601160045260246000fd5b50606435158015611c13575061230c60405167092767e04c3f798d60c31b6020820152602081526157fc565b6001611c13565b50612334604051670e87b74e6d3c26d560c41b6020820152602081526157fc565b6001611c0c565b600080fd5b503461022e5760208060031936011261085157600435612371604051677a1bfaee5ed4260d848201528381526157fc565b61238c6040516723a6aa57f260cee6848201528381526157fc565b6123a76040516738f9d058737588aa848201528381526157fc565b6123c26040516798dbd418d87fb6d3848201528381526157fc565b60015460ff8160a01c166000146123f2576103a48361038c6040516706d22a1603cc66af838201528281526157fc565b61240d604051673392708b065c4978858201528481526157fc565b61242860405167215f2bced65eb339858201528481526157fc565b6124436040516771a6b24264ec116e858201528481526157fc565b6001600160a01b039081166124715761044d8361043560405167f4dbdb29e7311b48838201528281526157fc565b61248c604051679876c41ef0ccdf57858201528481526157fc565b6124a7604051678a7063d64d1c73c8858201528481526157fc565b6124c260405167cd4240bba1f78a79858201528481526157fc565b6124dd60405167f48a66b8bd6d48a0858201528481526157fc565b6124f8604051675e10b1a08c87803e858201528481526157fc565b612513604051678322f09cf09c9835858201528481526157fc565b8161254f5761053d83612537604051670f825e19249991ed838201528281526157fc565b6040519067b1bdd962f400392f8183015281526157fc565b909161256c604051671d51a28f8e996726838201528281526157fc565b612587604051672022ee568b41420b838201528281526157fc565b6125a2604051676c6964d1d4cea928838201528281526157fc565b338452600f8152604084206125c860405167500074fed95bebd4848201528381526157fc565b6125d3848254615a77565b81556125f060405167426d7daf9909d258848201528381526157fc565b60014291015561261160405167f614b1d2ff20f5d3838201528281526157fc565b61262c60405167d88d7aca37d9e9d8838201528281526157fc565b6040516323b872dd60e01b8152336004820152306024820152604481018490529181908390606490829088907f0000000000000000000000000000000000000000000000000000000000000000165af1918215610846577ffb98bd47dcfd31e8d0c0e3558ffb823c6ad6ddcba96e48e82608e567b21cb1dd92612702918691612753575b506126cc60405167dfa53e62a77c6139858201528481526157fc565b6126e76040516726a8af3cdb18774f858201528481526157fc565b6107b760405167ea7c000a84079b85858201528481526157fc565b61271d604051670ab34b14e8ae04df838201528281526157fc565b61273860405167438c2e2c3d07a81a838201528281526157fc565b61080d6040516717b478d36b9c87c0838201528281526157fc565b61276a9150833d851161083f576108318183615818565b386126b0565b503461022e57602036600319011261022e5760409081906001600160a01b03612797615943565b168152600e602052206001815491015482519182526020820152f35b503461022e578060031936011261022e576040516127e260209167ff79803b88b37f9e838201528281526157fc565b6127fd6040516764cdfb3aaaac0bba838201528281526157fc565b61281860405167e815a041fcdd32ea838201528281526157fc565b600a54604051908152f35b503461022e578060031936011261022e57604051612852602091671b4b07558ad3d481838201528281526157fc565b61286d6040516752f6b0b383f2940d838201528281526157fc565b6128886040516772fadd286d0c89cf838201528281526157fc565b6128a360405167634c9e39a942b0ed838201528281526157fc565b600154336001600160a01b038216146128ff576128ed826128d560405167e693c4aed39bb965838201528281526157fc565b60405190672c4e70c45f3e00878183015281526157fc565b60405163b9e5ac5f60e01b8152600490fd5b906129c99161291f604051672b146a1be10fa642848201528381526157fc565b61293a604051672d4d1e22e713b2cb848201528381526157fc565b61295560405167940f792ff0add0fe848201528381526157fc565b61297060405167ce73c59e11628a45848201528381526157fc565b61298b60405167e05fddf26cec4fb0848201528381526157fc565b60ff60a01b191660015560405167fb992e631873cc8b828201528181526129b1906157fc565b60405190674208b328433202c28183015281526157fc565b337fdb333f8de8435249d224d186f58a6cb30292b00a2897688694c176f2cde512b08280a280f35b503461022e578060031936011261022e57546040516001600160a01b039091168152602090f35b503461022e578060031936011261022e57604051612a4760209167de550f64fc9acca9838201528281526157fc565b612a626040516752f6b0b383f2940d838201528281526157fc565b612a7d6040516772fadd286d0c89cf838201528281526157fc565b612a9860405167634c9e39a942b0ed838201528281526157fc565b600154336001600160a01b03821614612aca576128ed826128d560405167e693c4aed39bb965838201528281526157fc565b90612b9a91612aea604051672b146a1be10fa642848201528381526157fc565b612b05604051672d4d1e22e713b2cb848201528381526157fc565b612b20604051670d7b40aa6c60f1d1848201528381526157fc565b612b3b6040516797d1d3bc59bc4486848201528381526157fc565b612b5660405167144e5b8e69fc449a848201528381526157fc565b60ff60a01b1916600160a01b17600155604051671b97ec3746f5647b82820152818152612b82906157fc565b604051906786efe69453898df48183015281526157fc565b337f0b907d122e4db865e49bc04c7f1e84a1ae29e024ee225bc08c69104520c5f3f98280a280f35b503461022e57604036600319011261022e576004356024359060405191612bfa602093678cb8dd73bad60e8b858201528481526157fc565b612c026159bc565b612c1d604051671b32692575755abc858201528481526157fc565b612c38604051672f2590c75f74b55b858201528481526157fc565b612c5360405167a34d542293a48eb3858201528481526157fc565b612c6e60405167bf96671367c51d43858201528481526157fc565b612c8960405167dd3ef2f34c115949858201528481526157fc565b612ca460405167db16a5d909a944a1858201528481526157fc565b612cbf60405167fc06e06d268e5a82858201528481526157fc565b811580612eed575b8015612ebb575b15612d0a5761053d83612cf2604051672eab5bf4c87925c5838201528281526157fc565b6040519067bc58c962da225e3a8183015281526157fc565b612d25604051673f0aab5738ad16a7858201528481526157fc565b612d4060405167f2f6505f872c5d03858201528481526157fc565b612d5b60405167f74a11ec28dd2185858201528481526157fc565b801580612e94575b8015612e62575b15612da65761053d83612d8e60405167b75951ceaa2423dd838201528281526157fc565b604051906758e4731d2d2483488183015281526157fc565b906040917f6784e9bcb845caaa98267d7b0918f97d3d17f7cb35a05b52010f7eb587a0acb093612de68451675f9091aeb5a8463f838201528281526157fc565b612e00845167cefd37e6e4bd25b9838201528281526157fc565b82600855612e1e845167eba0a504d030b192838201528281526157fc565b81600955612e3c84516756fea3a34a58fa0b838201528281526157fc565b612e5684516799af20dc3f3568aa838201528281526157fc565b8351928352820152a180f35b50606481118015612d6a5750604051671a1fde8ee186979160c01b84820152838152612e8d906157fc565b6001612d6a565b50604051671e59b318f81a486760c31b84820152838152612eb4906157fc565b6001612d63565b50606482118015612cce5750604051673ebc070459a9cd7560c01b84820152838152612ee6906157fc565b6001612cce565b5060405166de286980802e1960c51b84820152838152612f0c906157fc565b6001612cc7565b503461022e578060031936011261022e57612f2c6159bc565b600080546001600160a01b0319811682556001600160a01b03167f8be0079c531659141344cd1fd0a4f28419497f9722a3daafe3b4186f6b6457e08280a380f35b503461022e578060031936011261022e576020600b54604051908152f35b503461022e57604036600319011261022e5767ffffffffffffffff60043581811161371357612fbe903690600401615975565b916024359082821161022e5750612fd9903690600401615975565b9160405192612ff9602094677d0a8177ab5cbe5f868201528581526157fc565b6130146040516723a6aa57f260cee6868201528581526157fc565b61302f6040516738f9d058737588aa868201528581526157fc565b61304a6040516798dbd418d87fb6d3868201528581526157fc565b600192835460ff8160a01c1660001461307c576103a48661038c6040516706d22a1603cc66af838201528281526157fc565b613097604051673392708b065c4978888201528781526157fc565b6130b260405167215f2bced65eb339888201528781526157fc565b6130cd6040516771a6b24264ec116e888201528781526157fc565b6001600160a01b03166130f95761044d8561043560405167f4dbdb29e7311b48838201528281526157fc565b613114604051679876c41ef0ccdf57878201528681526157fc565b61312f604051678a7063d64d1c73c8878201528681526157fc565b61314a60405167e86342d87165fa59878201528681526157fc565b613165604051671fcb6a41c6c69858878201528681526157fc565b61317f60405166e5ffa32b24c898878201528681526157fc565b61319a60405167b8956612c495a018878201528681526157fc565b6131b560405167a40c93dc08dfbe58878201528681526157fc565b6131d060405167c8d27382081a5985878201528681526157fc565b6131eb6040516798af0a14673f2f82878201528681526157fc565b33600052600f8552604060002061321360405167ac8a14d203474290888201528781526157fc565b61322e60405167d8ce26b2d21b8da7888201528781526157fc565b54600454111561326f5761133e85613257604051676603b02773c537c4838201528281526157fc565b604051906713724890f20ffbbc8183015281526157fc565b61328a6040516722155d35b9609cdc878201528681526157fc565b6132a5604051675834b715c15ca4aa878201528681526157fc565b6132c0604051672b9cd1e119ed6921878201528681526157fc565b600a5493600019908186146122ca57808601600a556132f060405167aaec691e840ce15b898201528881526157fc565b61330b604051677c599ab0019ecff4898201528881526157fc565b85600052600c875260406000209461333460405167e3e0377415184feb8a8201528981526157fc565b868655613352604051676fac893fb38e6e9c8a8201528981526157fc565b85820180546001600160a01b031916331790556040516714f870ef3bd5bad889820152888152613381906157fc565b805160028701918582116121e957819061339b84546157a5565b601f81116136c0575b508a90601f831160011461365f57600092613654575b50508482851b9260031b1c19161790555b6133e660405167903342180d709e4d898201528881526157fc565b600385019380519384116121e9576133fe85546157a5565b601f811161360b575b508790601f851160011461359d57928480936000989693600998968a95613592575b50501b9260031b1c19161790555b6134526040516794df3347a03aafcb878201528681526157fc565b426004820155613473604051670672f86d6455373d878201528681526157fc565b61347f60065442615a77565b600582015561349f60405167c444a11ee9a8fc6f878201528681526157fc565b6008810180546134c06040516778e4dd3c4757aa51898201528881526157fc565b6134db60405167b66e8b38bba55f6e898201528881526157fc565b61ff01600160b81b031916905560405167783d7a708fb853d786820152858152613504906157fc565b015561352160405167eca2005c7aff570d848201528381526157fc565b61353c60405167fab4b9f47ecc5609848201528381526157fc565b6040516000815260008382015260006040820152817fb956772e7b554d19bb961f4303b6c0c5cd7592c0c06fd08f15a56a0f304e6c0d60603393a36121116040516797167ef0eeb7510a848201528381526157fc565b015193503880613429565b91939290601f1984169286600052896000209360005b8b8282106135f7575050918593916009989660009a989694106135df575b50505050811b019055613437565b01519060f88460031b161c19169055388080806135d1565b8385015187559588019593840193016135b3565b8560005288600020601f860160051c8101918a871061364a575b601f0160051c019083905b82811061363e575050613407565b60008155018390613630565b9091508190613625565b0151905038806133ba565b60008581528c8120879550929190601f198516908e5b8282106136a95750508411613692575b505050811b0190556133cb565b01518660f88460031b161c19169055388080613685565b83850151865589979095019493840193018e613675565b909150836000528a600020601f840160051c8101918c8510613709575b84939291601f88920160051c01915b8281106136fa5750506133a4565b600081558594508791016136ec565b90915081906136dd565b8280fd5b503461022e578060031936011261022e57602060ff60015460a01c166040519015158152f35b503461022e576020806003193601126108515760043561376e6040516729bfea2db3841d45848201528381526157fc565b61378960405167b929751c4a787b78848201528381526157fc565b6137a46040516793875fa05d90fafe848201528381526157fc565b808352600c8252604083206137ca604051676fcc2a00d8ee39eb858201528481526157fc565b6137e56040516714e634b3e71f4e6e858201528481526157fc565b60018101546001600160a01b031661382e5761105c8361381660405167e4c03eeef1531a84838201528281526157fc565b604051906799bf2c6c0b2a929f8183015281526157fc565b613849604051670c7040fdd86c8c71858201528481526157fc565b61386460405167bb61c1e726367e15858201528481526157fc565b61387f6040516775c13795ff8714bc858201528481526157fc565b6008810190815460ff811660038110156115af57156138cf5761110c856138b760405167a674fe8fe5c0cbf9838201528281526157fc565b60405190670d91b0b214c251178183015281526157fc565b6138ea604051674113cb3dfc34ba23878201528681526157fc565b613905604051672d3e68b9a3df2975878201528681526157fc565b613920604051679511d073c66857d9878201528681526157fc565b60058201544210156139635761110c8561394b6040516770d0f6977c9b4a55838201528281526157fc565b6040519067d58df4fcc5a7096c8183015281526157fc565b61397e604051675d18052cb5e4d5d2878201528681526157fc565b61399960405167e5dbde152ffce104878201528681526157fc565b6139b46040516794531a8d0519b218878201528681526157fc565b6139c960068301926007845491015490615a77565b906139e5604051671f3f77a731298804888201528781526157fc565b613a006040516757e916a2117b665e888201528781526157fc565b600b548015613da257613a69606491613a2a60405167ebda226b3bddd3bd8b8201528a81526157fc565b613a45604051674d0bd7e6eb0ed2568b8201528a81526157fc565b613a6060405167e8ddec26884db8bc8b8201528a81526157fc565b600854906159e8565b04613a8560405167e3c4bb2918f2f97c898201528881526157fc565b613aa060405167adcbbe631ca1f208898201528881526157fc565b821015613b6c57613b5a8686613ac760405167428b5e81371064ac848201528381526157fc565b613ae26040516710554a07bc248e77848201528381526157fc565b613afd60405167353d500ae48b05ea848201528381526157fc565b613b1860405167a0df3ce5f4c1aca8848201528381526157fc565b7f34a42c4ce0a88d16ad098de6406057747139a2a3dd8dd8616ee7bbabcecb768e8260405160028152a260405190672bd77a22725acd028183015281526157fc565b60405163aa26a69360e01b8152600490fd5b917f34a42c4ce0a88d16ad098de6406057747139a2a3dd8dd8616ee7bbabcecb768e9495939160ff93613bb0604051671a29202b2d3df6aa888201528781526157fc565b613bcb60405167ef43ac4e68a56c69888201528781526157fc565b613be660405167d51fe87f84879e57888201528781526157fc565b8115613d5b5750613c4d606491613c0e604051672cdbf4b6809bdac5898201528881526157fc565b613c296040516703994763b048eda8898201528881526157fc565b613c4460405167c38f6e1e2eb175d6898201528881526157fc565b600954906159e8565b0490613c6a60405167bdd3c73cb59d019c878201528681526157fc565b613c85604051670ccae6e5c4400a1d878201528681526157fc565b541115613d1657613ca760405167199eb2fe1acf4f07858201528481526157fc565b613cc2604051678108ce35c6aab164858201528481526157fc565b600182198254161781555b613ce860405167cf2251ef07e4f214858201528481526157fc565b613d036040516710ed8ce21bb9ff9f858201528481526157fc565b5416613d126040518092615920565ba280f35b613d3160405167b4793fb69f7a0c89858201528481526157fc565b613d4c60405167b4cafd4b627f6b2c858201528481526157fc565b60028219825416178155613ccd565b905060029150613d7c60405167057bd64727128a5a878201528681526157fc565b613d976040516747dc461ad977eb67878201528681526157fc565b831916178155613ccd565b50917f34a42c4ce0a88d16ad098de6406057747139a2a3dd8dd8616ee7bbabcecb768e9495939160ff93613de760405167c9e038fe26f58870888201528781526157fc565b613bb0565b503461022e5760208060031936011261085157600435613e1d604051671803bc6518bfa42d848201528381526157fc565b613e386040516723a6aa57f260cee6848201528381526157fc565b613e536040516738f9d058737588aa848201528381526157fc565b613e6e6040516798dbd418d87fb6d3848201528381526157fc565b60015460ff8160a01c16600014613e9e576103a48361038c6040516706d22a1603cc66af838201528281526157fc565b613eb9604051673392708b065c4978858201528481526157fc565b613ed460405167215f2bced65eb339858201528481526157fc565b613eef6040516771a6b24264ec116e858201528481526157fc565b6001600160a01b03908116613f1d5761044d8361043560405167f4dbdb29e7311b48838201528281526157fc565b613f38604051679876c41ef0ccdf57858201528481526157fc565b613f53604051678a7063d64d1c73c8858201528481526157fc565b613f6e6040516720eaeaa04917a700858201528481526157fc565b613f8960405167ce6ad02650a5e12a858201528481526157fc565b613fa460405167b959a22b5d34f2de858201528481526157fc565b613fbf6040516734d3516da7b3bafb858201528481526157fc565b338452600e835260408420613fe560405167a7b6815437896d5e868201528581526157fc565b6140006040516703d1562ce3e6e85f868201528581526157fc565b82158061438b575b8015614359575b1561404b5761133e84614033604051672e5b4dbc650134fb838201528281526157fc565b60405190671ce7c299b05903038183015281526157fc565b614066604051674ca4059554e4eebc868201528581526157fc565b61408160405167f0dfb08a65185d43868201528581526157fc565b61409c60405167df216c575e29ede2868201528581526157fc565b6140ad600182015460055490615a77565b4210156140fc576140eb846140d3604051677446ca5a14d12f26838201528281526157fc565b60405190679e9e878326fd72678183015281526157fc565b6040516214930960e01b8152600490fd5b926141e2859461411d604051677600aed34251165d858201528481526157fc565b61413860405167ab438eb077cf7d6e858201528481526157fc565b61415360405167eeea9f48e5f85df6858201528481526157fc565b61061b6141c682549261418d8861416c600754876159fb565b9561418860405167fbc935750562c64a8b8201528a81526157fc565b615a84565b8091556141ab60405167f8b4722cc3b6d852888201528781526157fc565b61067b60405167398c7336cec4c150888201528781526157fc565b916106a0604051672be40794e8aab2ba878201528681526157fc565b600b556142006040516765feba5c0f2db2d1838201528281526157fc565b61421b6040516771183d5018c614d9838201528281526157fc565b60405163a9059cbb60e01b8152336004820152602481018490529181908390604490829088907f0000000000000000000000000000000000000000000000000000000000000000165af1918215610846577fb80625e1a6dfa23fbd22202898020767aaed44c2671f32cdb3473366b907321c926142eb91869161433c575b506142b56040516742cd94d9a163663a858201528481526157fc565b6142d06040516732cfe049c1a8abff858201528481526157fc565b6107b760405167437cace7c0a7e49d858201528481526157fc565b61430660405167568d592764489418838201528281526157fc565b61432160405167ae87a9b4a03acfde838201528281526157fc565b61080d604051673f0a017e838376db838201528281526157fc565b6143539150833d851161083f576108318183615818565b86614299565b5080548311801561400f575060405167667eef5cedd65e4360c01b85820152848152614384906157fc565b600161400f565b506040516782c15d08e389f9f160c01b858201528481526143ab906157fc565b6001614008565b503461022e578060031936011261022e576020600854604051908152f35b503461022e57604036600319011261022e576024356001600160a01b038116919082900361233b576040906004358152600d6020522090600052602052602060ff604060002054166040519015158152f35b503461022e576020806003193601126108515761443d615943565b61445860405167cefcf07ee7d58f83848201528381526157fc565b6144606159bc565b61447b60405167e6c55c1fea2eb20c848201528381526157fc565b614496604051675cc9343b863cb701848201528381526157fc565b6144b160405167352696ff0eb84de8848201528381526157fc565b6144cc60405167c4f7ef02a43f4112848201528381526157fc565b6001600160a01b0316806145115761053d826144f960405167238583a847a670b2838201528281526157fc565b6040519067c21cc47485b744018183015281526157fc565b906145939061453160405167f40d1689a0663f2e838201528281526157fc565b61454c6040516705288a67fe0deffd838201528281526157fc565b826001600160601b0360a01b600154161760015561457b60405167aee06fb87ea9d37d838201528281526157fc565b6040519067942fccf479a2ed8a8183015281526157fc565b7f46304c2bdadb06c16e46b6dc771e062e19a4150c21aa984fa49930bca03267cf8280a280f35b503461022e578060031936011261022e576020600654604051908152f35b503461022e578060031936011261022e576020600954604051908152f35b503461022e578060031936011261022e576020600a54604051908152f35b503461022e5760c036600319011261022e57600435602435916044359160643560843560a435916040519561465a602097676354cfb04e71d3a5898201528881526157fc565b6146626159bc565b61467d604051673658da199bfa42bd898201528881526157fc565b61469860405167241c4eda086d7578898201528881526157fc565b6146b36040516764eb18e7071e3087898201528881526157fc565b6146ce60405167f04ea7bab18bd913898201528881526157fc565b6146e96040516772f1fce2d819dc1d898201528881526157fc565b61470460405167501115ed5ad84e55898201528881526157fc565b61471f604051679b9ce79ccb76aeb6898201528881526157fc565b841580614a18575b80156149bb575b801561495e575b8015614901575b80156148d1575b1561477f5761053d87614767604051676e92be53d34169a5838201528281526157fc565b604051906745ca32fc48cf2ddb8183015281526157fc565b60c095977fb4e1fbeb0ffbfe92679bdf67bebeda0b781e7a37849484c69d99695f31e4b029976147c0604051673670e6460fe74b17838201528281526157fc565b6147db604051677d538b8b57cac572838201528281526157fc565b866002556147fa6040516706a171bca9a52a09838201528281526157fc565b8160035561481960405167c0a371ad12c4d983838201528281526157fc565b826004556148386040516748a59a8b5a466ba5838201528281526157fc565b8360055561485760405167636d5f63e4ec27ea838201528281526157fc565b8460065561487660405167e239fae5052eb038838201528281526157fc565b85600755614895604051677513dbd1176a1130838201528281526157fc565b6148b0604051671c61ecba1dde319e838201528281526157fc565b60405196875286015260408501526060840152608083015260a0820152a180f35b5083158015614743575060405167f30df79f4678905f60c01b888201528781526148fa906157fc565b6001614743565b50821580614937575b801561473c5750604051673d6e3e8884f015fb60c21b88820152878152614930906157fc565b600161473c565b506040516727e12bda275e2e3760c01b88820152878152614957906157fc565b600161490a565b50801580614994575b8015614735575060405167065d65609d6537ad60c41b8882015287815261498d906157fc565b6001614735565b5060405167109f800444ccfb0960c31b888201528781526149b4906157fc565b6001614967565b508715806149f1575b801561472e575060405167213400d122b3944160c11b888201528781526149ea906157fc565b600161472e565b50604051673bed8da6694bcb2d60c21b88820152878152614a11906157fc565b60016149c4565b5060405166161a8aa422161160c81b88820152878152614a37906157fc565b6001614727565b503461022e57604036600319011261022e57614a58615943565b6024359060405191614a7b60209367c7b91e2f5e27ffaa858201528481526157fc565b614a836159bc565b614a9e60405167e8cc9d9f122ea360858201528481526157fc565b614ab96040516752b3e9db0046e458858201528481526157fc565b614ad460405167caff5dbdf60c946a858201528481526157fc565b614aef60405167ee7575c804dd005c858201528481526157fc565b6001600160a01b038281161580614c64575b8015614c34575b15614b445761053d84614b2c604051676e7f3419359b5202838201528281526157fc565b60405190676514b312211d531c8183015281526157fc565b614b98859394614b65604051675e32a81147640bbc838201528281526157fc565b614b80604051679d9593f6fa3ea3f6838201528281526157fc565b6040519067d12b7dbb4a56f9988183015281526157fc565b7f000000000000000000000000000000000000000000000000000000000000000016803b15613713576040516340c10f1960e01b81526001600160a01b0394909416600485015260248401919091528290604490829084905af18015614c2957614c00575080f35b67ffffffffffffffff8111614c155760405280f35b634e487b7160e01b82526041600452602482fd5b6040513d84823e3d90fd5b5081158015614b08575060405167042e008685ab637160c41b85820152848152614c5d906157fc565b6001614b08565b5060405167640af29d2d236e2d60c11b85820152848152614c84906157fc565b6001614b01565b503461022e578060031936011261022e576020600454604051908152f35b503461022e57602036600319011261022e5760409081906001600160a01b03614cd0615943565b168152600f602052206001815491015482519182526020820152f35b503461022e5760208060031936011261085157600435614d1d6040516707762c8942ac4671848201528381526157fc565b614d386040516723a6aa57f260cee6848201528381526157fc565b614d536040516738f9d058737588aa848201528381526157fc565b614d6e6040516798dbd418d87fb6d3848201528381526157fc565b60015460ff8160a01c16600014614d9e576103a48361038c6040516706d22a1603cc66af838201528281526157fc565b614db9604051673392708b065c4978858201528481526157fc565b614dd460405167215f2bced65eb339858201528481526157fc565b614def6040516771a6b24264ec116e858201528481526157fc565b6001600160a01b03908116614e1d5761044d8361043560405167f4dbdb29e7311b48838201528281526157fc565b614e38604051679876c41ef0ccdf57858201528481526157fc565b614e53604051678a7063d64d1c73c8858201528481526157fc565b614e6e6040516764889323dbb96e10858201528481526157fc565b614e89604051670b7031ec4dcff75b858201528481526157fc565b614ea4604051673d957d460f9e15d2858201528481526157fc565b614ebf60405167b2f718766d22c1b7858201528481526157fc565b338452600f835260408420614ee56040516789f88e05692a2854868201528581526157fc565b614f0060405167398c5d272c94ab31868201528581526157fc565b8215806151d7575b80156151a5575b15614f4b5761133e84614f3360405167f4e6b19d994b5771838201528281526157fc565b6040519067e999c6a05fb337028183015281526157fc565b614f6660405167760708da34ae4815868201528581526157fc565b614f81604051679e3857ee535a3bea868201528581526157fc565b614f9c604051678e061fcaf6da98c2868201528581526157fc565b614fad600182015460055490615a77565b421015614feb576140eb84614fd360405167139ba8b456039ad6838201528281526157fc565b6040519067ad10d7c76325b1a78183015281526157fc565b92849361500960405167e57474e6ffc9384d848201528381526157fc565b61502460405167018c63c97483f193848201528381526157fc565b61502f848254615a84565b905561504c604051673241a186e8cc8395838201528281526157fc565b615067604051674ff7eb1de56a4db0838201528281526157fc565b60405163a9059cbb60e01b8152336004820152602481018490529181908390604490829088907f0000000000000000000000000000000000000000000000000000000000000000165af1918215610846577fb09985bf5df21e3dee7a7e607cdcff3c444bb813524e2bad65f649b400056b0a92615137918691615188575b506151016040516753b8207c169f402d858201528481526157fc565b61511c604051678a0b6d608531813c858201528481526157fc565b6107b7604051678ad699c54abba7cd858201528481526157fc565b61515260405167314afe48ce329ada838201528281526157fc565b61516d604051673f5f5ef68c954294838201528281526157fc565b61080d60405167ed3cfc7a55868f69838201528281526157fc565b61519f9150833d851161083f576108318183615818565b866150e5565b50805483118015614f0f5750604051674b036bd3f87ff1a960c11b858201528481526151d0906157fc565b6001614f0f565b5060405167351812acd023bb4160c01b858201528481526151f7906157fc565b6001614f08565b503461022e578060031936011261022e576020600254604051908152f35b503461022e57602036600319011261022e576004358152600c60205260409020805460018201546001600160a01b03908116929061525c6002830161583a565b906152696003840161583a565b9260048101549360058201546006830154906152c06007850154936152b260096008880154970154986040519c8d9c8d5260208d015260408c6101a091829101528c01906158e0565b908a820360608c01526158e0565b96608089015260a088015260c087015260e08601526152e6610100860160ff8316615920565b60ff8160081c16151561012086015260ff8160101c16151561014086015260181c166101608401526101808301520390f35b823461022e5760209182600319360112610851576153486004359167b69614f8fbdd8a93858201528481526157fc565b61536360405167b88599df8fbb722d858201528481526157fc565b61537e60405167efc5b836e8513631858201528481526157fc565b808252600c835260408220906153a560405167e9e0b355b7e15d80868201528581526157fc565b6153c06040516710c1b8221ad03983868201528581526157fc565b600882019182549260ff8460101c161560001461540e57611c52866153f660405167506837f37f6470a8838201528281526157fc565b60405190672060f771264da0058183015281526157fc565b6154296040516799c55ec7e23bcf27888201528781526157fc565b6154446040516753b1f328e5afd1b7888201528781526157fc565b61545f6040516798f9400eeb3219a2888201528781526157fc565b60ff8416600381101561579157600114158061576a575b8015615735575b156154cb576154b9866154a1604051679e217a90412808d3838201528281526157fc565b6040519067129aebd5e867f7e38183015281526157fc565b604051633c7e994560e11b8152600490fd5b6154e6604051679eb5eb455da4360f888201528781526157fc565b615501604051673dc727588ec75b06888201528781526157fc565b61551c604051674094f1c690e176f7888201528781526157fc565b600947920193845480931060001461556557611c528761554d60405167ebbd16763fbac338838201528281526157fc565b6040519067d9a1e3aa7878471e8183015281526157fc565b90858080806101008b979661558b604051670a444958b10f8cfc8b8201528a81526157fc565b6155a6604051674adb9beeeff989838b8201528a81526157fc565b61ff00191617958686556155cb6040516799847a70aa3d29eb8a8201528981526157fc565b6155e66040516730643dd6537dfd428a8201528981526157fc565b6001600160a01b039660181c87165af13d15615730573d61560681615959565b906156146040519283615818565b815287853d92013e5b615638604051678d6cb4dfb56beded868201528581526157fc565b61565360405167df3adcf9d35d3266868201528581526157fc565b61566e604051675635a33fe9964419868201528581526157fc565b156156f957907f0bb768aa97fa4e8a8f73bfa7bc210f1a29f29c765d44f0c29acc04a549e32e4392916156b260405167c965c9ff48e60ea7858201528481526157fc565b6156cd604051677b073699717bd082858201528481526157fc565b6156e8604051671880bb8c03bd1a0d858201528481526157fc565b5460181c169354604051908152a380f35b60405162461bcd60e51b815260048101849052600f60248201526e151c985b9cd9995c8819985a5b1959608a1b6044820152606490fd5b61561d565b5060ff8460081c16801561547d57506040516714456de9db38f51b60c21b87820152868152615763906157fc565b600161547d565b5060405167f82e9b96ac3101cf60c01b8782015286815261578a906157fc565b6001615476565b634e487b7160e01b86526021600452602486fd5b90600182811c921680156157d5575b60208310146157bf57565b634e487b7160e01b600052602260045260246000fd5b91607f16916157b4565b6101a0810190811067ffffffffffffffff8211176121e957604052565b6040810190811067ffffffffffffffff8211176121e957604052565b90601f8019910116810190811067ffffffffffffffff8211176121e957604052565b906040519182600082549261584e846157a5565b9081845260019485811690816000146158bd575060011461587a575b505061587892500383615818565b565b9093915060005260209081600020936000915b8183106158a55750506158789350820101388061586a565b8554888401850152948501948794509183019161588d565b91505061587894506020925060ff191682840152151560051b820101388061586a565b919082519283825260005b84811061590c575050826000602080949584010152601f8019910116010190565b6020818301810151848301820152016158eb565b90600382101561592d5752565b634e487b7160e01b600052602160045260246000fd5b600435906001600160a01b038216820361233b57565b67ffffffffffffffff81116121e957601f01601f191660200190565b81601f8201121561233b5780359061598c82615959565b9261599a6040519485615818565b8284526020838301011161233b57816000926020809301838601378301015290565b6000546001600160a01b031633036159d057565b60405163118cdaa760e01b8152336004820152602490fd5b818102929181159184041417156122ca57565b8115615a05570490565b634e487b7160e01b600052601260045260246000fd5b9081602091031261233b5751801515810361233b5790565b15615a3a57565b60405162461bcd60e51b8152602060048201526015602482015274151bdad95b881d1c985b9cd9995c8819985a5b1959605a1b6044820152606490fd5b919082018092116122ca57565b919082039182116122ca57565b600e9060405190615ab3602092675a5a59e20ff71d70848201528381526157fc565b615ace604051672de3aa10739f2579848201528381526157fc565b615ae9604051677d1e6379262b1db2848201528381526157fc565b60018060a01b031660005252615b07604060002054600754906159fb565b9056fea2646970667358221220abaebafe31db20df16179895599492abaad9553c38cba6e5040db12143335b0564736f6c63430008140033",
  "linkReferences": {},
  "deployedLinkReferences": {}
}