{
  "_format": "hh-sol-artifact-1",
  "contractName": "GovernanceDAO",
  "sourceName": "src/contracts/GovernanceDAO.sol",
  "abi": [
    {
      "inputs": [
        {
          "internalType": "address",
          "name": "initialOwner",
          "type": "address"
        },
        {
          "internalType": "address",
          "name": "tokenAddress",
          "type": "address"
        },
        {
          "internalType": "uint256",
          "name": "_tokenPriceWei",
          "type": "uint256"
        },
        {
          "internalType": "uint256",
          "name": "_minStakeForVoting",
          "type": "uint256"
        },
        {
          "internalType": "uint256",
          "name": "_minStakeForProposing",
          "type": "uint256"
        },
        {
          "internalType": "uint256",
          "name": "_minStakeLockTime",
          "type": "uint256"
        },
        {
          "internalType": "uint256",
          "name": "_proposalDuration",
          "type": "uint256"
        },
        {
          "internalType": "uint256",
          "name": "_tokensPerVotePower",
          "type": "uint256"
        }
      ],
      "stateMutability": "nonpayable",
      "type": "constructor"
    },
    {
      "inputs": [],
      "name": "AlreadyVoted",
      "type": "error"
    },
    {
      "inputs": [],
      "name": "DAOIsPaused",
      "type": "error"
    },
    {
      "inputs": [],
      "name": "InsufficientStake",
      "type": "error"
    },
    {
      "inputs": [],
      "name": "InvalidParameter",
      "type": "error"
    },
    {
      "inputs": [],
      "name": "InvalidProposal",
      "type": "error"
    },
    {
      "inputs": [],
      "name": "InvalidTreasuryProposal",
      "type": "error"
    },
    {
      "inputs": [],
      "name": "LockTimeNotReached",
      "type": "error"
    },
    {
      "inputs": [],
      "name": "NotPanicWallet",
      "type": "error"
    },
    {
      "inputs": [
        {
          "internalType": "address",
          "name": "owner",
          "type": "address"
        }
      ],
      "name": "OwnableInvalidOwner",
      "type": "error"
    },
    {
      "inputs": [
        {
          "internalType": "address",
          "name": "account",
          "type": "address"
        }
      ],
      "name": "OwnableUnauthorizedAccount",
      "type": "error"
    },
    {
      "inputs": [],
      "name": "PanicWalletNotSet",
      "type": "error"
    },
    {
      "inputs": [],
      "name": "ProposalNotExecutable",
      "type": "error"
    },
    {
      "inputs": [],
      "name": "VotingNotAllowed",
      "type": "error"
    },
    {
      "anonymous": false,
      "inputs": [
        {
          "indexed": true,
          "internalType": "address",
          "name": "caller",
          "type": "address"
        }
      ],
      "name": "CalmActivated",
      "type": "event"
    },
    {
      "anonymous": false,
      "inputs": [
        {
          "indexed": true,
          "internalType": "address",
          "name": "previousOwner",
          "type": "address"
        },
        {
          "indexed": true,
          "internalType": "address",
          "name": "newOwner",
          "type": "address"
        }
      ],
      "name": "OwnershipTransferred",
      "type": "event"
    },
    {
      "anonymous": false,
      "inputs": [
        {
          "indexed": true,
          "internalType": "address",
          "name": "caller",
          "type": "address"
        }
      ],
      "name": "PanicActivated",
      "type": "event"
    },
    {
      "anonymous": false,
      "inputs": [
        {
          "indexed": true,
          "internalType": "address",
          "name": "newPanicWallet",
          "type": "address"
        }
      ],
      "name": "PanicWalletUpdated",
      "type": "event"
    },
    {
      "anonymous": false,
      "inputs": [
        {
          "indexed": false,
          "internalType": "uint256",
          "name": "tokenPriceWei",
          "type": "uint256"
        },
        {
          "indexed": false,
          "internalType": "uint256",
          "name": "minStakeForVoting",
          "type": "uint256"
        },
        {
          "indexed": false,
          "internalType": "uint256",
          "name": "minStakeForProposing",
          "type": "uint256"
        },
        {
          "indexed": false,
          "internalType": "uint256",
          "name": "minStakeLockTime",
          "type": "uint256"
        },
        {
          "indexed": false,
          "internalType": "uint256",
          "name": "proposalDuration",
          "type": "uint256"
        },
        {
          "indexed": false,
          "internalType": "uint256",
          "name": "tokensPerVotePower",
          "type": "uint256"
        }
      ],
      "name": "ParametersUpdated",
      "type": "event"
    },
    {
      "anonymous": false,
      "inputs": [
        {
          "indexed": true,
          "internalType": "uint256",
          "name": "id",
          "type": "uint256"
        },
        {
          "indexed": true,
          "internalType": "address",
          "name": "proposer",
          "type": "address"
        },
        {
          "indexed": false,
          "internalType": "bool",
          "name": "isTreasury",
          "type": "bool"
        },
        {
          "indexed": false,
          "internalType": "address",
          "name": "treasuryRecipient",
          "type": "address"
        },
        {
          "indexed": false,
          "internalType": "uint256",
          "name": "treasuryAmount",
          "type": "uint256"
        }
      ],
      "name": "ProposalCreated",
      "type": "event"
    },
    {
      "anonymous": false,
      "inputs": [
        {
          "indexed": true,
          "internalType": "uint256",
          "name": "proposalId",
          "type": "uint256"
        },
        {
          "indexed": false,
          "internalType": "enum GovernanceBase.ProposalStatus",
          "name": "status",
          "type": "uint8"
        }
      ],
      "name": "ProposalFinalized",
      "type": "event"
    },
    {
      "anonymous": false,
      "inputs": [
        {
          "indexed": true,
          "internalType": "address",
          "name": "user",
          "type": "address"
        },
        {
          "indexed": false,
          "internalType": "uint256",
          "name": "amount",
          "type": "uint256"
        }
      ],
      "name": "StakedForProposing",
      "type": "event"
    },
    {
      "anonymous": false,
      "inputs": [
        {
          "indexed": true,
          "internalType": "address",
          "name": "user",
          "type": "address"
        },
        {
          "indexed": false,
          "internalType": "uint256",
          "name": "amount",
          "type": "uint256"
        }
      ],
      "name": "StakedForVoting",
      "type": "event"
    },
    {
      "anonymous": false,
      "inputs": [
        {
          "indexed": true,
          "internalType": "uint256",
          "name": "proposalId",
          "type": "uint256"
        },
        {
          "indexed": true,
          "internalType": "address",
          "name": "recipient",
          "type": "address"
        },
        {
          "indexed": false,
          "internalType": "uint256",
          "name": "amount",
          "type": "uint256"
        }
      ],
      "name": "TreasuryProposalExecuted",
      "type": "event"
    },
    {
      "anonymous": false,
      "inputs": [
        {
          "indexed": true,
          "internalType": "address",
          "name": "user",
          "type": "address"
        },
        {
          "indexed": false,
          "internalType": "uint256",
          "name": "amount",
          "type": "uint256"
        }
      ],
      "name": "UnstakedFromProposing",
      "type": "event"
    },
    {
      "anonymous": false,
      "inputs": [
        {
          "indexed": true,
          "internalType": "address",
          "name": "user",
          "type": "address"
        },
        {
          "indexed": false,
          "internalType": "uint256",
          "name": "amount",
          "type": "uint256"
        }
      ],
      "name": "UnstakedFromVoting",
      "type": "event"
    },
    {
      "anonymous": false,
      "inputs": [
        {
          "indexed": true,
          "internalType": "uint256",
          "name": "proposalId",
          "type": "uint256"
        },
        {
          "indexed": true,
          "internalType": "address",
          "name": "voter",
          "type": "address"
        },
        {
          "indexed": false,
          "internalType": "bool",
          "name": "support",
          "type": "bool"
        },
        {
          "indexed": false,
          "internalType": "uint256",
          "name": "votePower",
          "type": "uint256"
        }
      ],
      "name": "VoteCast",
      "type": "event"
    },
    {
      "stateMutability": "payable",
      "type": "fallback"
    },
    {
      "inputs": [],
      "name": "buyTokens",
      "outputs": [],
      "stateMutability": "payable",
      "type": "function"
    },
    {
      "inputs": [
        {
          "internalType": "string",
          "name": "title",
          "type": "string"
        },
        {
          "internalType": "string",
          "name": "description",
          "type": "string"
        }
      ],
      "name": "createProposal",
      "outputs": [
        {
          "internalType": "uint256",
          "name": "",
          "type": "uint256"
        }
      ],
      "stateMutability": "nonpayable",
      "type": "function"
    },
    {
      "inputs": [
        {
          "internalType": "string",
          "name": "title",
          "type": "string"
        },
        {
          "internalType": "string",
          "name": "description",
          "type": "string"
        },
        {
          "internalType": "address",
          "name": "recipient",
          "type": "address"
        },
        {
          "internalType": "uint256",
          "name": "amount",
          "type": "uint256"
        }
      ],
      "name": "createTreasuryProposal",
      "outputs": [
        {
          "internalType": "uint256",
          "name": "",
          "type": "uint256"
        }
      ],
      "stateMutability": "nonpayable",
      "type": "function"
    },
    {
      "inputs": [
        {
          "internalType": "uint256",
          "name": "proposalId",
          "type": "uint256"
        }
      ],
      "name": "executeTreasuryProposal",
      "outputs": [],
      "stateMutability": "nonpayable",
      "type": "function"
    },
    {
      "inputs": [
        {
          "internalType": "uint256",
          "name": "proposalId",
          "type": "uint256"
        }
      ],
      "name": "finalizeProposal",
      "outputs": [],
      "stateMutability": "nonpayable",
      "type": "function"
    },
    {
      "inputs": [
        {
          "internalType": "uint256",
          "name": "proposalId",
          "type": "uint256"
        }
      ],
      "name": "getProposal",
      "outputs": [
        {
          "components": [
            {
              "internalType": "uint256",
              "name": "id",
              "type": "uint256"
            },
            {
              "internalType": "address",
              "name": "proposer",
              "type": "address"
            },
            {
              "internalType": "string",
              "name": "title",
              "type": "string"
            },
            {
              "internalType": "string",
              "name": "description",
              "type": "string"
            },
            {
              "internalType": "uint256",
              "name": "startTime",
              "type": "uint256"
            },
            {
              "internalType": "uint256",
              "name": "endTime",
              "type": "uint256"
            },
            {
              "internalType": "uint256",
              "name": "forVotes",
              "type": "uint256"
            },
            {
              "internalType": "uint256",
              "name": "againstVotes",
              "type": "uint256"
            },
            {
              "internalType": "enum GovernanceBase.ProposalStatus",
              "name": "status",
              "type": "uint8"
            },
            {
              "internalType": "bool",
              "name": "executed",
              "type": "bool"
            },
            {
              "internalType": "bool",
              "name": "isTreasury",
              "type": "bool"
            },
            {
              "internalType": "address",
              "name": "treasuryRecipient",
              "type": "address"
            },
            {
              "internalType": "uint256",
              "name": "treasuryAmount",
              "type": "uint256"
            }
          ],
          "internalType": "struct GovernanceBase.Proposal",
          "name": "",
          "type": "tuple"
        }
      ],
      "stateMutability": "view",
      "type": "function"
    },
    {
      "inputs": [],
      "name": "getProposalsCount",
      "outputs": [
        {
          "internalType": "uint256",
          "name": "",
          "type": "uint256"
        }
      ],
      "stateMutability": "view",
      "type": "function"
    },
    {
      "inputs": [
        {
          "internalType": "uint256",
          "name": "proposalId",
          "type": "uint256"
        },
        {
          "internalType": "address",
          "name": "voter",
          "type": "address"
        }
      ],
      "name": "hasVoted",
      "outputs": [
        {
          "internalType": "bool",
          "name": "",
          "type": "bool"
        }
      ],
      "stateMutability": "view",
      "type": "function"
    },
    {
      "inputs": [],
      "name": "minStakeForProposing",
      "outputs": [
        {
          "internalType": "uint256",
          "name": "",
          "type": "uint256"
        }
      ],
      "stateMutability": "view",
      "type": "function"
    },
    {
      "inputs": [],
      "name": "minStakeForVoting",
      "outputs": [
        {
          "internalType": "uint256",
          "name": "",
          "type": "uint256"
        }
      ],
      "stateMutability": "view",
      "type": "function"
    },
    {
      "inputs": [],
      "name": "minStakeLockTime",
      "outputs": [
        {
          "internalType": "uint256",
          "name": "",
          "type": "uint256"
        }
      ],
      "stateMutability": "view",
      "type": "function"
    },
    {
      "inputs": [],
      "name": "nextProposalId",
      "outputs": [
        {
          "internalType": "uint256",
          "name": "",
          "type": "uint256"
        }
      ],
      "stateMutability": "view",
      "type": "function"
    },
    {
      "inputs": [],
      "name": "owner",
      "outputs": [
        {
          "internalType": "address",
          "name": "",
          "type": "address"
        }
      ],
      "stateMutability": "view",
      "type": "function"
    },
    {
      "inputs": [],
      "name": "panicWallet",
      "outputs": [
        {
          "internalType": "address",
          "name": "",
          "type": "address"
        }
      ],
      "stateMutability": "view",
      "type": "function"
    },
    {
      "inputs": [],
      "name": "panico",
      "outputs": [],
      "stateMutability": "nonpayable",
      "type": "function"
    },
    {
      "inputs": [],
      "name": "paused",
      "outputs": [
        {
          "internalType": "bool",
          "name": "",
          "type": "bool"
        }
      ],
      "stateMutability": "view",
      "type": "function"
    },
    {
      "inputs": [],
      "name": "proposalDuration",
      "outputs": [
        {
          "internalType": "uint256",
          "name": "",
          "type": "uint256"
        }
      ],
      "stateMutability": "view",
      "type": "function"
    },
    {
      "inputs": [
        {
          "internalType": "uint256",
          "name": "proposalId",
          "type": "uint256"
        }
      ],
      "name": "proposals",
      "outputs": [
        {
          "internalType": "uint256",
          "name": "id",
          "type": "uint256"
        },
        {
          "internalType": "address",
          "name": "proposer",
          "type": "address"
        },
        {
          "internalType": "string",
          "name": "title",
          "type": "string"
        },
        {
          "internalType": "string",
          "name": "description",
          "type": "string"
        },
        {
          "internalType": "uint256",
          "name": "startTime",
          "type": "uint256"
        },
        {
          "internalType": "uint256",
          "name": "endTime",
          "type": "uint256"
        },
        {
          "internalType": "uint256",
          "name": "forVotes",
          "type": "uint256"
        },
        {
          "internalType": "uint256",
          "name": "againstVotes",
          "type": "uint256"
        },
        {
          "internalType": "enum GovernanceBase.ProposalStatus",
          "name": "status",
          "type": "uint8"
        },
        {
          "internalType": "bool",
          "name": "executed",
          "type": "bool"
        },
        {
          "internalType": "bool",
          "name": "isTreasury",
          "type": "bool"
        },
        {
          "internalType": "address",
          "name": "treasuryRecipient",
          "type": "address"
        },
        {
          "internalType": "uint256",
          "name": "treasuryAmount",
          "type": "uint256"
        }
      ],
      "stateMutability": "view",
      "type": "function"
    },
    {
      "inputs": [
        {
          "internalType": "address",
          "name": "user",
          "type": "address"
        }
      ],
      "name": "proposingStake",
      "outputs": [
        {
          "internalType": "uint256",
          "name": "amount",
          "type": "uint256"
        },
        {
          "internalType": "uint256",
          "name": "since",
          "type": "uint256"
        }
      ],
      "stateMutability": "view",
      "type": "function"
    },
    {
      "inputs": [],
      "name": "renounceOwnership",
      "outputs": [],
      "stateMutability": "nonpayable",
      "type": "function"
    },
    {
      "inputs": [
        {
          "internalType": "address",
          "name": "newPanicWallet",
          "type": "address"
        }
      ],
      "name": "setPanicWallet",
      "outputs": [],
      "stateMutability": "nonpayable",
      "type": "function"
    },
    {
      "inputs": [
        {
          "internalType": "uint256",
          "name": "_tokenPriceWei",
          "type": "uint256"
        },
        {
          "internalType": "uint256",
          "name": "_minStakeForVoting",
          "type": "uint256"
        },
        {
          "internalType": "uint256",
          "name": "_minStakeForProposing",
          "type": "uint256"
        },
        {
          "internalType": "uint256",
          "name": "_minStakeLockTime",
          "type": "uint256"
        },
        {
          "internalType": "uint256",
          "name": "_proposalDuration",
          "type": "uint256"
        },
        {
          "internalType": "uint256",
          "name": "_tokensPerVotePower",
          "type": "uint256"
        }
      ],
      "name": "setParameters",
      "outputs": [],
      "stateMutability": "nonpayable",
      "type": "function"
    },
    {
      "inputs": [
        {
          "internalType": "uint256",
          "name": "amount",
          "type": "uint256"
        }
      ],
      "name": "stakeForProposing",
      "outputs": [],
      "stateMutability": "nonpayable",
      "type": "function"
    },
    {
      "inputs": [
        {
          "internalType": "uint256",
          "name": "amount",
          "type": "uint256"
        }
      ],
      "name": "stakeForVoting",
      "outputs": [],
      "stateMutability": "nonpayable",
      "type": "function"
    },
    {
      "inputs": [],
      "name": "token",
      "outputs": [
        {
          "internalType": "contract IERC20",
          "name": "",
          "type": "address"
        }
      ],
      "stateMutability": "view",
      "type": "function"
    },
    {
      "inputs": [],
      "name": "tokenPriceWei",
      "outputs": [
        {
          "internalType": "uint256",
          "name": "",
          "type": "uint256"
        }
      ],
      "stateMutability": "view",
      "type": "function"
    },
    {
      "inputs": [],
      "name": "tokensPerVotePower",
      "outputs": [
        {
          "internalType": "uint256",
          "name": "",
          "type": "uint256"
        }
      ],
      "stateMutability": "view",
      "type": "function"
    },
    {
      "inputs": [],
      "name": "tranquilidad",
      "outputs": [],
      "stateMutability": "nonpayable",
      "type": "function"
    },
    {
      "inputs": [
        {
          "internalType": "address",
          "name": "newOwner",
          "type": "address"
        }
      ],
      "name": "transferOwnership",
      "outputs": [],
      "stateMutability": "nonpayable",
      "type": "function"
    },
    {
      "inputs": [
        {
          "internalType": "uint256",
          "name": "amount",
          "type": "uint256"
        }
      ],
      "name": "unstakeFromProposing",
      "outputs": [],
      "stateMutability": "nonpayable",
      "type": "function"
    },
    {
      "inputs": [
        {
          "internalType": "uint256",
          "name": "amount",
          "type": "uint256"
        }
      ],
      "name": "unstakeFromVoting",
      "outputs": [],
      "stateMutability": "nonpayable",
      "type": "function"
    },
    {
      "inputs": [
        {
          "internalType": "uint256",
          "name": "proposalId",
          "type": "uint256"
        },
        {
          "internalType": "bool",
          "name": "support",
          "type": "bool"
        }
      ],
      "name": "vote",
      "outputs": [],
      "stateMutability": "nonpayable",
      "type": "function"
    },
    {
      "inputs": [
        {
          "internalType": "address",
          "name": "account",
          "type": "address"
        }
      ],
      "name": "votingPower",
      "outputs": [
        {
          "internalType": "uint256",
          "name": "",
          "type": "uint256"
        }
      ],
      "stateMutability": "view",
      "type": "function"
    },
    {
      "inputs": [
        {
          "internalType": "address",
          "name": "user",
          "type": "address"
        }
      ],
      "name": "votingStake",
      "outputs": [
        {
          "internalType": "uint256",
          "name": "amount",
          "type": "uint256"
        },
        {
          "internalType": "uint256",
          "name": "since",
          "type": "uint256"
        }
      ],
      "stateMutability": "view",
      "type": "function"
    },
    {
      "stateMutability": "payable",
      "type": "receive"
    }
  ],
  "bytecode": "0x60a0346200020d57601f6200201038819003918201601f191683019291906001600160401b0384118385101762000212578161010092849260409687528339810103126200020d57620000528162000228565b620000606020830162000228565b918381015192606082015160808301519060a08401519260e060c08601519501519560018060a01b03809116918215620001f557600080546001600160a01b03198116851782558b519491908416907f8be0079c531659141344cd1fd0a4f28419497f9722a3daafe3b4186f6b6457e09080a316908115620001e6575060805285158015620001dd575b8015620001d4575b8015620001cb575b8015620001c2575b8015620001b9575b620001a8579185939160c095937fb4e1fbeb0ffbfe92679bdf67bebeda0b781e7a37849484c69d99695f31e4b02997600255806003558160045582600555836006558460075588519586526020860152878501526060840152608083015260a0820152a151611dd290816200023e82396080518181816101b2015281816103180152818161046001528181610e04015281816114d001526117f80152f35b8651630309cb8760e51b8152600490fd5b5084156200010a565b50831562000102565b508215620000fa565b508115620000f2565b508015620000ea565b630309cb8760e51b8152600490fd5b8951631e4fbdf760e01b815260006004820152602490fd5b600080fd5b634e487b7160e01b600052604160045260246000fd5b51906001600160a01b03821682036200020d5756fe608080604052600436101561001a575b50361561001857005b005b60003560e01c9081627e637e1461197a57508063013cf08b1461187c57806305d0f15b1461185e5780630627d4251461175c5780630a5af04b146117195780630d346e9a146116fb578063282c8749146116205780632ab09d1414610ea357806330109962146116025780634091e8f0146115995780634385963214611547578063542ffa7b146114345780635652077c146113765780635c975abb1461135057806365e481e214611007578063715018a614610fae57806381e6830f14610f525780638da5cb5b14610f295780639776138214610ec157806398e527d314610ea35780639f45b13314610e60578063a028699e14610d79578063a73079ac14610996578063ad3bcade1461096d578063c07473f614610942578063c2d6677614610924578063c7f758a814610702578063c9d27afe14610564578063d064a9a414610546578063d0febe4c146103ef578063d1b85b491461028d578063f2fde38b14610204578063f96df52a146101e65763fc0c546a1461019c573861000f565b346101e15760003660031901126101e1576040517f00000000000000000000000000000000000000000000000000000000000000006001600160a01b03168152602090f35b600080fd5b346101e15760003660031901126101e1576020600754604051908152f35b346101e15760203660031901126101e15761021d611c3a565b610225611cb3565b6001600160a01b0390811690811561027457600054826001600160601b0360a01b821617600055167f8be0079c531659141344cd1fd0a4f28419497f9722a3daafe3b4186f6b6457e0600080a3005b604051631e4fbdf760e01b815260006004820152602490fd5b346101e1576020806003193601126101e157600435906001549060ff8260a01c166103dd576001600160a01b03918216156103cb5782156103b95733600052600b815260406000206102e0848254611d5b565b8155426001909101556040516323b872dd60e01b815233600482015230602482015260448101849052918190839060649082906000907f0000000000000000000000000000000000000000000000000000000000000000165af19182156103ad577fec53a80f7fd2e0ad362f205aa59d80df1f44ddbb229bbe3591a1bf8d34fb5b6f9261037591600091610380575b50611d17565b6040519283523392a2005b6103a09150833d85116103a6575b6103988183611b25565b810190611cff565b8561036f565b503d61038e565b6040513d6000823e3d90fd5b604051630309cb8760e51b8152600490fd5b60405163028eecf360e11b8152600490fd5b604051632795c27960e21b8152600490fd5b60003660031901126101e15760015460ff8160a01c166103dd576001600160a01b03908116156103cb5734156103b957670de0b6b3a764000080340290348204036105305760025461044091611cdf565b9081156103b9576040516370a0823160e01b8152306004820152602092917f000000000000000000000000000000000000000000000000000000000000000016908381602481855afa80156103ad5783916000916104ff575b50106103b95760405163a9059cbb60e01b815233600482015260248101929092528290829060449082906000905af19081156103ad57610018926000926104e2575b5050611d17565b6104f89250803d106103a6576103988183611b25565b82806104db565b809250858092503d8311610529575b6105188183611b25565b810103126101e15782905185610499565b503d61050e565b634e487b7160e01b600052601160045260246000fd5b346101e15760003660031901126101e1576020600554604051908152f35b346101e15760403660031901126101e15760043560243590811515918281036101e15760015460ff8160a01c166103dd576001600160a01b03908116156103cb578260005260209060098252604060002090600182015416156106f05760ff60088201541660038110156106da576106c85760058101544210156106c85783600052600a8252604060002033600052825260ff604060002054166106b65733600052600b8252604060002054600354116106a45761062133611d75565b9283156106a4576000858152600a8452604080822033835285529020805460ff191660011790551561068f5760060161065b838254611d5b565b90555b6040519384528301527fcbdf6214089cba887ecbf35a0b6a734589959c9763342c756bb2a80ca2bc9f6e60403393a3005b60070161069d838254611d5b565b905561065e565b6040516378de4a6960e11b8152600490fd5b604051637c9a1cf960e01b8152600490fd5b604051630eeb4f1560e01b8152600490fd5b634e487b7160e01b600052602160045260246000fd5b604051631dc0650160e31b8152600490fd5b346101e15760203660031901126101e157600061018060405161072481611b08565b828152826020820152606060408201526060808201528260808201528260a08201528260c08201528260e0820152826101008201528261012082015282610140820152826101608201520152600435600052600960205260406000206040519061078d82611b08565b8054825260018101546001600160a01b031660208301526107b060028201611b47565b60408301526107c160038201611b47565b606083015260048101546080830152600581015460a0830152600681015460c0830152600781015460e0830152600881015490600360ff831610156106da5760ff828116610100850152600883901c81161515610120850152601083901c1615156101408401526001600160a01b0360189290921c821661016084015260090154610180830152602082015116156106f0576040518091602082528051602083015260018060a01b0360208201511660408301526101806108ac61089660408401516101a060608701526101c0860190611bed565b6060840151858203601f19016080870152611bed565b91608081015160a085015260a081015160c085015260c081015160e085015260e08101516101008501526108ea610100820151610120860190611c2d565b6101208101511515610140850152610140810151151561016085015260018060a01b03610160820151168285015201516101a08301520390f35b346101e15760003660031901126101e1576020600354604051908152f35b346101e15760203660031901126101e1576020610965610960611c3a565b611d75565b604051908152f35b346101e15760003660031901126101e1576001546040516001600160a01b039091168152602090f35b346101e15760803660031901126101e15760043567ffffffffffffffff81116101e1576109c7903690600401611c6c565b60243567ffffffffffffffff81116101e1576109e7903690600401611c6c565b906001600160a01b0360443580821690036101e15760015460ff8160a01c166103dd578116156103cb578060443516158015610d6f575b610d5d5733600052600c602052604060002054600454116106a457600854916000198314610530576001830160085582600052600960205260406000209083825560018201336001600160601b0360a01b82541617905580519067ffffffffffffffff8211610c77578190610a966002850154611ace565b601f8111610d0a575b50602090601f8311600114610c9857600092610c8d575b50508160011b916000199060031b1c19161760028201555b835167ffffffffffffffff8111610c77576003820190610aee8254611ace565b95601f8711610c31575b602096508690601f8311600114610bc75760099493929160009183610bbc575b50508160011b916000199060031b1c19161790555b426004820155610b3f60065442611d5b565b6005820155600881016201000081546301000000600160b81b0360443560181b169061ff01600160b81b031916171790556064359182910155604051916001835260443516848301526040820152817fb956772e7b554d19bb961f4303b6c0c5cd7592c0c06fd08f15a56a0f304e6c0d60603393a3604051908152f35b015190508880610b18565b90601f1983169184600052886000209260005b818110610c1a575091600193918560099897969410610c01575b505050811b019055610b2d565b015160001960f88460031b161c19169055888080610bf4565b92938a600181928786015181550195019301610bda565b826000526020600020601f830160051c810160208410610c70575b601f90980160051c01965b878110610c645750610af8565b60008155600101610c57565b5080610c4c565b634e487b7160e01b600052604160045260246000fd5b015190508680610ab6565b9250600284016000526020600020906000935b601f1984168510610cef576001945083601f19811610610cd6575b505050811b016002820155610ace565b015160001960f88460031b161c19169055868080610cc6565b81810151835560209485019460019093019290910190610cab565b909150600284016000526020600020601f840160051c810160208510610d56575b90849392915b601f830160051c82018110610d47575050610a9f565b60008155859450600101610d31565b5080610d2b565b604051631713da9d60e11b8152600490fd5b5060643515610a1e565b346101e1576020806003193601126101e157600435906001549060ff8260a01c166103dd576001600160a01b03918216156103cb5782156103b95733600052600c81526040600020610dcc848254611d5b565b8155426001909101556040516323b872dd60e01b815233600482015230602482015260448101849052918190839060649082906000907f0000000000000000000000000000000000000000000000000000000000000000165af19182156103ad577ffb98bd47dcfd31e8d0c0e3558ffb823c6ad6ddcba96e48e82608e567b21cb1dd92610375916000916103805750611d17565b346101e15760203660031901126101e1576001600160a01b03610e81611c3a565b16600052600b6020526040806000206001815491015482519182526020820152f35b346101e15760003660031901126101e1576020600854604051908152f35b346101e15760003660031901126101e1576001546001600160a01b0381163303610f175760ff60a01b1916600155337fdb333f8de8435249d224d186f58a6cb30292b00a2897688694c176f2cde512b0600080a2005b60405163b9e5ac5f60e01b8152600490fd5b346101e15760003660031901126101e1576000546040516001600160a01b039091168152602090f35b346101e15760003660031901126101e1576001546001600160a01b0381163303610f175760ff60a01b1916600160a01b17600155337f0b907d122e4db865e49bc04c7f1e84a1ae29e024ee225bc08c69104520c5f3f9600080a2005b346101e15760003660031901126101e157610fc7611cb3565b600080546001600160a01b0319811682556001600160a01b03167f8be0079c531659141344cd1fd0a4f28419497f9722a3daafe3b4186f6b6457e08280a3005b346101e15760403660031901126101e15767ffffffffffffffff6004358181116101e157611039903690600401611c6c565b906024358181116101e157611052903690600401611c6c565b9160015460ff8160a01c166103dd576001600160a01b0316156103cb5733600052602092600c8452604060002054600454116106a457600854926000198085146105305760018501600855846000526009865260406000209385855560018501336001600160601b0360a01b8254161790556002850190805190848211610c775781906110df8454611ace565b601f81116112ff575b508990601f831160011461129c57600092611291575b5050838260011b9260031b1c19161790555b60038401928051928311610c77576111288454611ace565b601f811161124b575b508690601f84116001146111dc57926009949281926000979588936111d1575b50508260011b9260031b1c19161790555b42600482015561117460065442611d5b565b60058201556008810161ff01600160b81b0319815416905501556040516000815260008382015260006040820152817fb956772e7b554d19bb961f4303b6c0c5cd7592c0c06fd08f15a56a0f304e6c0d60603393a3604051908152f35b015191508980611151565b9190601f1984169285600052886000209360005b8a8282106112355750509285926009979592600099976001961061121d575b50505050811b019055611162565b01519060f88460031b161c191690558880808061120f565b60018597829396860151815501960193016111f0565b8460005287600020601f850160051c810191898610611287575b601f0160051c01905b81811061127b5750611131565b6000815560010161126e565b9091508190611265565b0151905089806110fe565b60008581528b81209350601f198516905b8c8282106112e95750509084600195949392106112d2575b505050811b019055611110565b01518560f88460031b161c191690558980806112c5565b60018596829396860151815501950193016112ad565b9091508360005289600020601f840160051c8101918b8510611346575b90601f859493920160051c01905b81811061133757506110e8565b6000815584935060010161132a565b909150819061131c565b346101e15760003660031901126101e157602060ff60015460a01c166040519015158152f35b346101e15760203660031901126101e157600435600081815260096020526040902060018101546001600160a01b0316156106f057600881019081549060ff821660038110156106da576106c857600581015442106106c8577f34a42c4ce0a88d16ad098de6406057747139a2a3dd8dd8616ee7bbabcecb768e92602092826007600660ff950154910154106000146114275750600182198254161781555b54166114246040518092611c2d565ba2005b8219166002178155611415565b346101e1576020806003193601126101e157600435906001549060ff8260a01c166103dd576001600160a01b03918216156103cb5733600052600b815260406000208315801561153d575b6106a457611494600182015460055490611d5b565b421061152c576114a5848254611d68565b905560405163a9059cbb60e01b815233600482015260248101849052918190839060449082906000907f0000000000000000000000000000000000000000000000000000000000000000165af19182156103ad577fb80625e1a6dfa23fbd22202898020767aaed44c2671f32cdb3473366b907321c92610375916000916103805750611d17565b6040516214930960e01b8152600490fd5b508054841161147f565b346101e15760403660031901126101e1576024356001600160a01b038116908190036101e157600435600052600a602052604060002090600052602052602060ff604060002054166040519015158152f35b346101e15760203660031901126101e1576115b2611c3a565b6115ba611cb3565b6001600160a01b031680156103b957600180546001600160a01b031916821790557f46304c2bdadb06c16e46b6dc771e062e19a4150c21aa984fa49930bca03267cf600080a2005b346101e15760003660031901126101e1576020600654604051908152f35b346101e15760c03660031901126101e15760443560243560043560a43560843560643561164b611cb3565b831580156116f3575b80156116eb575b80156116e3575b80156116db575b80156116d3575b6103b9577fb4e1fbeb0ffbfe92679bdf67bebeda0b781e7a37849484c69d99695f31e4b0299560c095856002558060035581600455826005558360065584600755604051958652602086015260408501526060840152608083015260a0820152a1005b508215611670565b508115611669565b508015611662565b50851561165b565b508415611654565b346101e15760003660031901126101e1576020600454604051908152f35b346101e15760203660031901126101e1576001600160a01b0361173a611c3a565b16600052600c6020526040806000206001815491015482519182526020820152f35b346101e1576020806003193601126101e157600435906001549060ff8260a01c166103dd576001600160a01b03918216156103cb5733600052600c8152604060002083158015611854575b6106a4576117bc600182015460055490611d5b565b421061152c576117cd848254611d68565b905560405163a9059cbb60e01b815233600482015260248101849052918190839060449082906000907f0000000000000000000000000000000000000000000000000000000000000000165af19182156103ad577fb09985bf5df21e3dee7a7e607cdcff3c444bb813524e2bad65f649b400056b0a92610375916000916103805750611d17565b50805484116117a7565b346101e15760003660031901126101e1576020600254604051908152f35b346101e15760203660031901126101e1576004356000908152600960205260409020805460018201546001600160a01b0390811692906118be60028301611b47565b906118cb60038401611b47565b92600481015493600582015460068301549061192260078501549361191460096008880154970154986040519c8d9c8d5260208d015260408c6101a091829101528c0190611bed565b908a820360608c0152611bed565b96608089015260a088015260c087015260e0860152611948610100860160ff8316611c2d565b60ff8160081c16151561012086015260ff8160101c16151561014086015260181c166101608401526101808301520390f35b346101e15760203660031901126101e15760043580600052600960205260406000206008810180549360ff8560101c1615611abf575060ff841660038110156106da57600114801590611ab2575b611aa0576009479201938454809310610d5d5761ff001916610100178082556001600160a01b03926000918291829182919060181c87165af13d15611a9b573d611a1181611c50565b90611a1f6040519283611b25565b8152600060203d92013e5b15611a64577f0bb768aa97fa4e8a8f73bfa7bc210f1a29f29c765d44f0c29acc04a549e32e43916020915460181c169354604051908152a3005b60405162461bcd60e51b815260206004820152600f60248201526e151c985b9cd9995c8819985a5b1959608a1b6044820152606490fd5b611a2a565b604051633c7e994560e11b8152600490fd5b5060ff8460081c166119c8565b631713da9d60e11b8152600490fd5b90600182811c92168015611afe575b6020831014611ae857565b634e487b7160e01b600052602260045260246000fd5b91607f1691611add565b6101a0810190811067ffffffffffffffff821117610c7757604052565b90601f8019910116810190811067ffffffffffffffff821117610c7757604052565b9060405191826000825492611b5b84611ace565b908184526001948581169081600014611bca5750600114611b87575b5050611b8592500383611b25565b565b9093915060005260209081600020936000915b818310611bb2575050611b8593508201013880611b77565b85548884018501529485019487945091830191611b9a565b915050611b8594506020925060ff191682840152151560051b8201013880611b77565b919082519283825260005b848110611c19575050826000602080949584010152601f8019910116010190565b602081830181015184830182015201611bf8565b9060038210156106da5752565b600435906001600160a01b03821682036101e157565b67ffffffffffffffff8111610c7757601f01601f191660200190565b81601f820112156101e157803590611c8382611c50565b92611c916040519485611b25565b828452602083830101116101e157816000926020809301838601378301015290565b6000546001600160a01b03163303611cc757565b60405163118cdaa760e01b8152336004820152602490fd5b8115611ce9570490565b634e487b7160e01b600052601260045260246000fd5b908160209103126101e1575180151581036101e15790565b15611d1e57565b60405162461bcd60e51b8152602060048201526015602482015274151bdad95b881d1c985b9cd9995c8819985a5b1959605a1b6044820152606490fd5b9190820180921161053057565b9190820391821161053057565b6001600160a01b03166000908152600b6020526040902054600754611d9991611cdf565b9056fea26469706673582212203e7bec5ddee3b27260780efa9cdbe552954fdfc7a25d4f50678bd70f5fcaa4e864736f6c63430008140033",
  "linkReferences": {},
  "deployedLinkReferences": {}
}